:020000040800F2
:10000000881B00209D010008B51000087F0500082E
:10001000B11000082503000851420008000000004C
:10002000000000000000000000000000853E000805
:100030003503000800000000353D0008753F00084A
:10004000B7010008B7010008B7010008B7010008B0
:10005000B7010008B7010008B7010008B7010008A0
:10006000B7010008B7010008B7010008B701000890
:10007000B7010008B7010008B7010008B701000880
:10008000B7010008B7010008B7010008B701000870
:10009000B7010008B7010008B7010008B701000860
:1000A000B7010008B7010008B7010008B701000850
:1000B000B7010008B7010008B7010008B701000840
:1000C000B7010008B7010008B7010008B701000830
:1000D000B701000815400008B7010008B701000883
:1000E000B7010008B7010008B7010008B701000810
:1000F000B7010008B7010008B7010008B701000800
:10010000B7010008B7010008B7010008B7010008EF
:10011000B7010008B7010008B7010008B7010008DF
:10012000B7010008B7010008B7010008B7010008CF
:10013000B7010008B7010008B7010008B7010008BF
:10014000B7010008B7010008B7010008B7010008AF
:10015000B7010008B7010008B7010008B70100089F
:10016000B7010008B7010008B7010008B70100088F
:10017000B7010008B7010008B7010008B70100087F
:10018000B7010008B7010008DFF80CD000F032F822
:1001900000480047C9420008881B002006488047E5
:1001A00006480047FEE7FEE7FEE7FEE7FEE7FEE75C
:1001B000FEE7FEE7FEE7FEE7AD3F00088901000825
:1001C00072B6704762B67047EFF3108072B6704730
:1001D00080F31088704730BF704720BF7047B0FA77
:1001E00080F0704790FAA0F0B0FA80F0704790FA73
:1001F000A0F07047064C074D06E0E06840F00103B0
:1002000094E8070098471034AC42F6D3FFF7C0FFDC
:10021000D4980008F4980008EFF3098141B1F1EE99
:10022000101A40F8041D20ED200A3B490A681060AE
:100230007047B0EC200A02C8E1EE101A37490A688C
:100240001060704772B64EF62250CEF2000040F2B7
:10025000FF01C0F20001017040F23800C2F200005C
:10026000016881F3088840F27E00C2F2000040F28B
:100270007F01C2F200010A78027040F20015C2F25A
:10028000000540F20411C2F200010A682A601068F9
:1002900080F30988EFF3148040F0020080F31488A3
:1002A000BFF36F8FBDE8F00F0FBCBDE8005006BC78
:1002B00062B608471A484FF08051016070471848ED
:1002C0004FF080510160704772B6EFF3098020E96A
:1002D000F00F40F20015C2F200052E68306074463F
:1002E00002F018F840F27E00C2F2000040F27F01F6
:1002F000C2F200010A78027040F20411C2F2000159
:100300000A682A6044F0F40E1068B0E8F00F80F339
:10031000098862B670470000000100200401002037
:1003200004ED00E000BFFEE70149486870470000A7
:10033000001000E0704701B502E00098401E0090F8
:1003400000980028F9D108BD51B18200A2F1C04245
:10035000126842F001038200A2F1C042136009E07A
:100360008200A2F1C0421268034B1A408300A3F13D
:10037000C0431A6070470000FEFF0F0030B5002137
:10038000002200230468A400A4F1C0442168424C68
:100390002140D0E901452C43C5682C4305692C4315
:1003A00045692C4385692C43C5692C43056A2C4358
:1003B000456A2C43856A2C43C56A2C43056B2C4344
:1003C00021430468A400A4F1C04421608468082C7F
:1003D0000BD10468A400A4F1C044246844F0400593
:1003E0000468A400A4F1C04425600468641CA4004F
:1003F000A4F1C044226802F04042446B2468456B7B
:100400006D6844EA0514456BAD6844EA0524456B04
:10041000AD8944EA0544456B2D8A44EA0554456B91
:100420002D7D44EA0564456BAD692C432243046885
:10043000641CA400A4F1C0442260C46AB4F5804FD7
:1004400020D10468A400A4F1C044D4F80431134CB2
:100450002340846B2468856B6D6844EA0514856BC2
:10046000AD6844EA0524856BAD8944EA0544856B93
:10047000AD692C4323430468A400A4F1C044C4F82C
:10048000043107E06FF070450468A400A4F1C04493
:10049000C4F8045130BD00008000F7FF0000F0CF29
:1004A000F0B50A4600210023002400BF3DE00125ED
:1004B00005FA01F3156805EA03049C4234D1056886
:1004C0004F000326BE40B543056015794E00B54088
:1004D0000668354305601579012D02D01579022D86
:1004E00016D185684F000326BE40B5438560557917
:1004F0004E00B540866835438560456801268E40CC
:10050000B5434560456896798E40B6B2354345603F
:10051000C5684F000326BE40B543C560D5794E007F
:10052000B540C6683543C560491C1029BFD3F0BD2E
:10053000F0B5002300244D07ED0E02FA05F3CE10AE
:1005400000F1200555F826504E07F70E0F26BE4045
:10055000B543CF1000F1200646F82750CE1000F129
:10056000200555F8265045EA0304CE1000F1200579
:1005700045F82640F0BD418370470183704700BFB6
:10058000FEE7000010B504462CB14FF40071054899
:10059000FFF7F3FF04E04FF400710248FFF7EBFFB1
:1005A00010BD0000001402402DE9F04106460F4640
:1005B00014461D462B4622463946304600F00CFBB9
:1005C00004FB05F00249098800F05AF9BDE8F08102
:1005D0003600002001B502E00098401E009000980F
:1005E0000028F9D108BD00002DE9F05F804689465A
:1005F0001646A6F120001FFA80FA1E49096889886C
:100600001C4A1268D28801FB02F0C11700EB51713D
:10061000C1F3C7071748006800680AFB070B1548B5
:100620000068C3881348006882884946404600F045
:10063000D3FA2C2000F034FD002416E0002510E051
:100640001BF8040080212941084020B10A48008895
:1006500000F02AFD03E00948008800F025FD681C31
:10066000C5B2082DECDB601CC4B2BC42E6DBBDE8C1
:10067000F09F0000300000203400002036000020F1
:1006800070B504460D46002624E03046134909683B
:100690008988084412490988884205DD00260F48E8
:1006A0000068C088204484B220460C490968C98883
:1006B00008440C490988884201DD002600242A7874
:1006C00021463046FFF790FF6D1C04480068808883
:1006D000304486B228780028D7D170BD3000002081
:1006E000280000202A0000202DE9F05F05460E4674
:1006F00091469B4600240FFA89F70320A0EB49009E
:100700000FFA80FA87E0BBF1000F40D0A0463BE033
:1007100006EB080291B22A1990B200F0A5FC06EB94
:10072000080291B22A1B90B200F09EFC321991B2DD
:10073000A5EB080290B200F097FC321B91B2A5EB3A
:10074000080290B200F090FCA6EB080291B22A1BBE
:1007500090B200F089FCA6EB080291B22A1990B27F
:1007600000F082FC321B91B205EB080290B200F05F
:100770007BFC321991B205EB080290B200F074FCD8
:1007800008F101000FFA80F8B845C1DD2FE0F21939
:1007900091B22A1990B200F067FCF21991B22A1BAB
:1007A00090B200F061FC321991B2EA1B90B200F0F5
:1007B0005BFC321B91B2EA1B90B200F055FCF21BBD
:1007C00091B22A1B90B200F04FFCF21B91B22A1991
:1007D00090B200F049FC321B91B2EA1990B200F0DD
:1007E00043FC321991B2EA1990B200F03DFC601C52
:1007F00004B2BAF1000F05DAA000801D50440FFAD0
:1008000080FA07E0E01B80000A3050440FFA80FABB
:10081000781E07B200BFBC427FF775AFBDE8F09FFE
:1008200000B597B00121084603F098FA0420019022
:100830000390800607900020029004900590069097
:10084000042008900020099008200A9010200B90A6
:1008500000200C900E900F9010904FF4805011904B
:10086000002012901390149001A81590169008A8DB
:10087000FFF784FD01210420FFF766FD17B000BDDE
:1008800070B504460D4600262C2000F009FC00BF80
:1008900003E0284600F008FC761CA642F9D370BDA0
:1008A0001CB50121782003F049FA00208DF80600DC
:1008B00001208DF8070002208DF8040003208DF838
:1008C00005004FF48040009069468048FFF7E8FD3E
:1008D0000C220E217D48FFF72BFE4FF400400090C4
:1008E00069467A48FFF7DCFD0C220F217748FFF7B5
:1008F0001FFE0120009069467448FFF7D1FD0C22CD
:1009000000217248FFF714FE0220009069466F48EC
:10091000FFF7C6FD0C2201216C48FFF709FE80207D
:10092000009069466A48FFF7BBFD0C220721684822
:10093000FFF7FEFD4FF48070009069466448FFF7B2
:10094000AFFD0C2208216248FFF7F2FD4FF4007062
:10095000009069465E48FFF7A3FD0C2209215C4820
:10096000FFF7E6FD4FF48060009069465848FFF7B6
:1009700097FD0C220A215648FFF7DAFD4FF400607C
:10098000009069465248FFF78BFD0C220B2150481E
:10099000FFF7CEFD4FF48050009069464C48FFF7BA
:1009A0007FFD0C2211464A48FFF7C2FD4FF400506C
:1009B000009069464648FFF773FD0C220D2144481C
:1009C000FFF7B6FD4FF48040009069464048FFF7BE
:1009D00067FD0C220E213E48FFF7AAFD4FF40040B0
:1009E000009069463A48FFF75BFD0C220F2138481A
:1009F000FFF79EFD4FF48070009069463348FFF783
:100A00004FFD0C2208213148FFF792FD4FF4007092
:100A1000009069462D48FFF743FD0C2209212B4821
:100A2000FFF786FD4FF48060009069462748FFF786
:100A300037FD0C220A212548FFF77AFD102000908F
:100A400069462248FFF72CFD0C2204211F48FFF7BE
:100A50006FFD2020009069461C48FFF721FD0C2205
:100A600005211A48FFF764FD4FF480600090694645
:100A70001848FFF715FD0C220A211648FFF758FD0C
:100A80000120009069461448FFF70AFD0C2200215E
:100A90001148FFF74DFD01208DF8040000208DF86E
:100AA000060001208DF8070002208DF80500800265
:100AB000009069460848FFF7F3FC4FF4007000907F
:100AC00069460548FFF7ECFC1CBD0000000C024025
:100AD00000100240001802400014024010B5044605
:100AE000072C00DD10BD29480470204604EBD071AE
:100AF0004910A4EB410141B94FF4F070244908803A
:100B000040F256302349088007E040F25630204931
:100B100008804FF4F0701F490880362000F0C0FABA
:100B2000002141EA441000F0BFFA2A2000F0B8FA90
:100B3000002000F0B9FA002000F0B6FA1449098844
:100B4000491EC1F3072000F0AFFA11490978491E88
:100B5000C8B200F0A9FA2B2000F0A2FA002000F0A1
:100B6000A3FA002000F0A0FA0A490988491EC1F33F
:100B7000072000F099FA07490978491EC8B200F029
:100B800093FA2C2000F08CFA00BFABE72C00002079
:100B9000280000202A00002010B5FFF781FEFFF793
:100BA0003FFE00F041FA00F04AF808480078FFF7ED
:100BB00095FF074803880748028800210846FFF789
:100BC000F3FC0120FFF7DEFC10BD00002C0000202C
:100BD0002A000020280000202DE9F04104460D469F
:100BE00016461F462A2000F05BFA201200F05CFA3D
:100BF000E0B200F059FAA119491EC1F30F2000F02C
:100C000053FAA119491EC8B200F04EFA2B2000F089
:100C100047FA281200F048FAE8B200F045FAE9195C
:100C2000491EC1F30F2000F03FFAE919491EC8B26E
:100C300000F03AFA2C2000F033FABDE8F08110B54C
:100C40004FF4A040FFF777FBFF2000F029FAFF20C8
:100C500000F02AFA982000F027FA062000F024FA83
:100C60004FF4A040FFF767FBBA2000F019FA6020AC
:100C700000F01AFA4FF4A040FFF75DFBBC2000F033
:100C80000FFA032000F010FA0E2000F00DFA612098
:100C900000F00AFAFF2000F007FA052000F004FA3D
:100CA000052000F001FA1B2000F0FEF9102000F0F2
:100CB000FBF9732000F0F8F9632000F0F5F9FF204C
:100CC00000F0F2F9FF2000F0EFF9052000F0ECF958
:100CD000052000F0E9F9002000F0E6F9002000F01E
:100CE000E3F9D52000F0E0F9D02000F0DDF9012093
:100CF00000F0DAF9002000F0D7F9402000F0D4F934
:100D00004FF4A040FFF717FBBD2000F0C9F9012008
:100D100000F0CAF9232000F0C7F9452000F0C4F91B
:100D2000672000F0C1F9012000F0BEF9232000F097
:100D3000BBF9452000F0B8F9672000F0B5F94FF491
:100D4000A040FFF7F8FABE2000F0AAF9012000F059
:100D5000ABF92D2000F0A8F9CB2000F0A5F9A220D6
:100D600000F0A2F9622000F09FF9F22000F09CF957
:100D7000E22000F099F9222000F096F9222000F0FC
:100D800093F94FF4A040FFF7D6FAC72000F088F996
:100D9000632000F089F94FF4A040FFF7CCFAED2072
:100DA00000F07EF97F2000F07FF90F2000F07CF941
:100DB000002000F079F94FF4A040FFF7BCFAC02002
:100DC00000F06EF9032000F06FF90B2000F06CF9D1
:100DD000002000F069F94FF4A040FFF7ACFAFC20C6
:100DE00000F05EF9082000F05FF94FF4A040FFF733
:100DF000A2FADF2000F054F9002000F055F900209D
:100E000000F052F9002000F04FF9002000F04CF9FA
:100E1000002000F049F9202000F046F94FF4A040EE
:100E2000FFF789FAF32000F03BF9742000F03CF959
:100E30004FF4A040FFF77FFAF92000F031F90020CD
:100E400000F032F9FD2000F02FF9802000F02CF99D
:100E5000802000F029F9C02000F026F94FF4A040CE
:100E6000FFF769FAB42000F01BF9022000F01CF92A
:100E7000022000F019F9022000F016F94FF4A0400A
:100E8000FFF759FAF72000F00BF9812000F00CF978
:100E90004FF4A040FFF74FFAB12000F001F9002015
:100EA00000F002F9132000F0FFF8132000F0FCF826
:100EB0004FF4A040FFF73FFAF22000F0F1F8C02015
:100EC00000F0F2F8022000F0EFF8402000F0ECF81B
:100ED000282000F0E9F84FF4A040FFF72CFAC120D9
:100EE00000F0DEF8172000F0DFF8752000F0DCF8E5
:100EF000752000F0D9F8202000F0D6F84FF4A0407B
:100F0000FFF719FAE02000F0CBF8002000F0CCF851
:100F1000052000F0C9F8082000F0C6F80C2000F009
:100F2000C3F80F2000F0C0F8152000F0BDF809202C
:100F300000F0BAF8072000F0B7F8012000F0B4F88C
:100F4000062000F0B1F8092000F0AEF8162000F0FD
:100F5000ABF8142000F0A8F83E2000F0A5F83E20E1
:100F600000F0A2F8002000F09FF84FF4A040FFF737
:100F7000E2F9E12000F094F8002000F095F8092053
:100F800000F092F8122000F08FF8122000F08CF898
:100F9000132000F089F81C2000F086F8072000F0EC
:100FA00083F8082000F080F8052000F07DF8082084
:100FB00000F07AF8032000F077F8022000F074F8CF
:100FC000042000F071F81E2000F06EF81B2000F0E5
:100FD0006BF8002000F068F84FF4A040FFF7ABF981
:100FE0003A2000F05DF8552000F05EF84FF4A04084
:100FF000FFF7A1F9352000F053F8002000F054F875
:101000004FF4A040FFF797F9112000F049F84FF492
:10101000A040FFF790F9292000F042F84FF4A040DB
:10102000FFF789F910BD000010B54FF400610848C2
:10103000FFF7A1FA40F6FF20FFF7CCFA4FF400616A
:101040000348FFF79AFA40F6FF20FFF7C3FA10BDF6
:101050000014024070B504460D4601231A46294685
:101060002046FFF7B9FD70BD70B505460C4609482E
:10107000008885420CDA08480088844208DA214654
:101080002846FFF7E7FF054801880120FFF7F8FB36
:1010900070BD0000280000202A000020340000203D
:1010A0004FF0D041088070474FF0D04148807047E2
:1010B00000BFFEE77047704710B50348006810B1E5
:1010C00001480068804710BD5000002070B50446FC
:1010D00000F0AEF8002041490870414908704149CC
:1010E0000870414908604149086041490870414918
:1010F0000870414908704149086041490860414908
:1011000008604148006858B14048056845B13E480C
:10111000066803E0761E002028602D1D002EF9D100
:1011200000203B4908603B4908603B4908603B4957
:1011300008603B4908603B4908603B4908603B49FF
:10114000087001F099FD01F0D3FD204601F090FAFE
:10115000208800B170BD204601F0F0FA208800B16F
:10116000F8E7204601F0F6FA208800B1F2E72046C1
:1011700001F0C8FB208800B1ECE7204601F0ACFD8F
:10118000208800B1E6E7204601F072FE208800B119
:10119000E0E7204602F018F9208800B1DAE720469F
:1011A00001F094FA208800B1D4E7204602F040FC18
:1011B000208800B1CEE7204601F0DAFF208800B198
:1011C000C8E7204602F098FC208800B1C2E701F091
:1011D0007BF9FFF770FF00BFBCE700006400002050
:1011E000650000209800002000010020040100207C
:1011F0007E0000207F000020800000208C00002066
:101200009000002094000020049700080097000838
:1012100044000020480000204C0000205000002026
:1012200054000020580000205C000020C600002070
:10123000064800680649096800EB81000549086016
:101240000846006820F00700086070470097000813
:10125000049700083800002010B500242D480078BD
:10126000012800D010BD00BFFEF7AEFF044600BF4E
:101270002948007828B900BF2046FEF7A9FF00BF23
:10128000F0E725480078401E23490870084600789A
:10129000002805DD00BF2046FEF79AFF00BFE1E70A
:1012A0001E480078002805DD00BF2046FEF790FFAD
:1012B00000BFD7E701F0CCFC194908700846007858
:1012C00000EB4000174951F8200017490860084614
:1012D000006816490968884205D100BF2046FEF71C
:1012E00077FF00BFBEE710480068D0F88C00401CB4
:1012F0000D490968C1F88C000D480068401C0C4974
:101300000860FEF7DCFF00BF2046FEF761FF00BF6C
:1013100000BFA7E7650000206400002098000020BF
:101320007F0000201812002004010020000100208E
:10133000BC0000202DE9F04104460E46154600276A
:1013400024B945F6C3502880BDE8F08100BF00BF36
:10135000FEF73AFF074600BF00BF104820606660F6
:1013600000202062606284F82800E06204F1080036
:1013700001F079FB204601F055FA09480088401C2D
:101380000749088000BF00BF3846FEF721FF00BFB5
:1013900000BF0020288000BFD6E700004D555458FC
:1013A0007C0000202DE9F04788B0054689461746A5
:1013B0001C46109E4FF0000A2DB945F6C3503080F0
:1013C00008B0BDE8F0871FB1B7F5004F02D100E0CB
:1013D00000BF03E045F625603080F1E700BF6249B9
:1013E0002868884203D045F6C4503080E8E70CB145
:1013F0000020206000BF00BFFEF7E6FE824600BF6F
:1014000000BF95F82800B8B9584800686862012004
:1014100085F828000CB1E86A206029465348006826
:1014200001F018FA00BF00BF5046FEF7D1FE00BF22
:1014300000BF00203080C3E74C49686A09688842D1
:1014400012D195F82800401C85F828000CB1E86AF4
:10145000206000BF00BF5046FEF7BAFE00BF00BFCD
:1014600045F282703080ABE707F4004050B100BF16
:1014700000BF5046FEF7ACFE00BF00BF46F2B01002
:1014800030809DE73A48007800280ADD00BF00BFA1
:101490005046FEF79DFE00BF00BF46F66350308009
:1014A0008EE7D5F8248098F837003049096891F81C
:1014B0003710884206DD2D48006890F83710404606
:1014C00001F0D2FE4B4604222946684601F026FA76
:1014D00000BF00BF5046FEF77BFE00BF00BF00F01C
:1014E0000FF900BF00BFFEF76FFE824600BF00BFCE
:1014F0001E48006890F8350030B101280CD0022851
:101500001AD0032821D110E01CB118480068806C63
:101510002060002030801CE01CB114480068806C02
:10152000206046F2A910308013E00CB1002020604A
:1015300047F2D92030800CE01CB10C480068806C68
:10154000206045F6C250308003E046F62E603080C1
:1015500000BF00BF00BF00BF5046FEF739FE00BF0E
:1015600000BF00BF2CE700004D555458000100207B
:10157000980000202DE9F84F0446894615464FF0A3
:10158000000B24B945F6C3502880BDE8F88FB9F1A7
:10159000000F03D0B9F5004F02D100E000BF03E017
:1015A00045F625602880F0E700BF52492068884250
:1015B00003D045F6C4502880E7E700BF00BFFEF720
:1015C00003FE834600BF00BF4B49606A096888423A
:1015D0000AD000BF00BF5846FEF7FAFD00BF00BFAB
:1015E00045F281702880D0E7FEF79EFE80462834C1
:1015F000C4F804802078401E207014F828090028C0
:101600000ADD00BF00BF5846FEF7E2FD00BF00BF85
:1016100045F283702880B8E721463748006801F01A
:1016200063F904F1080ABAF8080068B9002060629A
:1016300084F8280000BF00BF5846FEF7C9FD00BF70
:1016400000BF00202880A0E72B48006890F83700F2
:101650002949096891F83810884228D0264800683E
:1016600001F02CF906462448006890F83810B14281
:1016700004DA2148006890F8380000E03046064659
:101680001D48006890F83700B04210DA1A48006828
:1016900001F094FB1848006880F83760304601F08C
:1016A000F7FA1548006801F06BFB14480670DAF889
:1016B000000087686762012084F8280021463846C8
:1016C00001F0C8F800231A4639462046CDF80080BC
:1016D00001F03CFA00BF00BF5846FEF779FD00BF9D
:1016E00000BF09F4004008B900F00AF80020288083
:1016F00000BF4AE74D555458000100207E000020ED
:1017000010B5002420480078002800DD10BD1F48D7
:101710000078002800DDF9E700BFFEF755FD04461C
:1017200000BF01F095FA1A4908700846007800EBEE
:101730004000184951F82000174908600846006821
:1017400016490968884205D100BF2046FEF740FDD2
:1017500000BFDBE710480068D0F88C00401C0E4941
:101760000968C1F88C000E480068401C0C490860EC
:10177000FEF7A0FD00BF2046FEF72AFD00BFBFF325
:101780006F8F00BFC2E700006400002098000020B7
:101790007F0000201812002004010020000100201A
:1017A000BC00002070B504460025144800780128CC
:1017B00003D045F68960208070BD11480078FA2872
:1017C00003DB45F209202080F6E700BF00BFFEF7EB
:1017D000FBFC054600BF00BF09480078401C0849D3
:1017E000087001F019FB00BF00BF2846FEF7F0FCAF
:1017F00000BF00BF0020208000BFDDE765000020A3
:101800009800002070B5044600251C480078012887
:1018100003D045F68960208070BD1948007818B95A
:1018200046F664502080F7E700BF00BFFEF7CCFC0F
:10183000054600BF00BF12480078401E10490870DE
:101840000846007800280ADD00BF00BF2846FEF7E2
:10185000BFFC00BF00BF46F663502080DCE701F00C
:10186000E9FA00BF00BF2846FEF7B2FC00BF00BF88
:10187000FFF746FF0020208000BFCDE76500002075
:101880009800002010B5044612480078E8B901F02D
:10189000DFF91149087008460078104908700E48B1
:1018A000007800EB40000E4951F820000D49086017
:1018B000084600680C490860012006490870FEF7D8
:1018C000C1FC43F69920208002E045F68A60208022
:1018D00010BD0000650000207F0000207E00002079
:1018E0001812002004010020000100202DE9F04121
:1018F00007464FF0000800BF00BFFEF765FC8046BA
:1019000000BF00BF00203B4908803B4908603B49BD
:1019100008603B4908603B4908603B49088100BFBB
:1019200000BF4046FEF754FC00BF00BF00BF00BF31
:10193000FEF74AFC804600BF00BF3448046800BF81
:1019400000BF4046FEF744FC00BF00BF21E000BFDF
:1019500000BFFEF739FC804600BF00BF0020743492
:10196000E06320602063A061A082E0826062A062E8
:10197000FEF7DAFC2062743C04F160060020B081BE
:10198000D4F8B84000BF00BF4046FEF721FC00BFBE
:1019900000BF002CDBD100BF00BFFEF715FC804666
:1019A00000BF00BF1A48056800BF00BF4046FEF7F1
:1019B0000FFC00BF00BF12E000BF00BFFEF704FC39
:1019C000804600BF00BF05F120060020B081AD6950
:1019D00000BF00BF4046FEF7FBFB00BF00BF002D6D
:1019E000EAD101F01BFF02F02DF900203880BDE89C
:1019F000F0810000A6000020B8000020CC000020EC
:101A0000F0000020900000200C120020C0000020F8
:101A10008400002010B50348006810B10148006838
:101A2000804710BD540000202DE9FF4F87B00446C9
:101A30009046DDE91BA5DDE91496179F0020039071
:101A40002CB947F2AD1028800BB0BDE8F08FB8F18B
:101A5000000F03D147F24F102880F5E71EB946F674
:101A60002F602880F0E750480068874203D246F68E
:101A700030602880E8E71698B84203D346F6316014
:101A80002880E1E7B9F1400F03D346F273202880A4
:101A9000DAE7B9F13F0F06D14448844203D046F259
:101AA00073202880D0E7204601F09EFC002028808B
:101AB0000AF0010090B10AF0020078B1059600200A
:101AC000069008E00021059801600598001D05902A
:101AD0000698401C06900698B842F3D3169806EB79
:101AE00080000490CDE9007A32464046049B0A9972
:101AF00000F0AEFA0590C4F828800A98E0620898D1
:101B0000206284F8379084F8389005982060049813
:101B1000A0601A98606066622764A4F844A04FF041
:101B2000000B08E0002104F1780040F82B100BF1C5
:101B3000010000F0FF0BBBF1000FF3D004F16000D7
:101B4000189900F067FE204600F036F800BF00BF8D
:101B5000FEF73AFB039000BF00BF94F8370001F096
:101B600097F8204601F00CF9204601F0F3FB1048ED
:101B70000088401C0E4908800E480078012807D0D4
:101B800000BF00BF0398FEF723FB00BF00BF5BE769
:101B900000BF00BF0398FEF71BFB00BF00BFFFF7AD
:101BA000AFFD00BF50E70000309700084C11002047
:101BB000C40000206500002010B5044603480068FA
:101BC00018B1204601490968884710BD440000202B
:101BD0002DE9F04104460E464FF000085B48844270
:101BE00004D147F24C103080BDE8F0817CB900BFD1
:101BF00000BFFEF7E9FA804600BF00BF5448046802
:101C000000BF00BF4046FEF7E3FA00BF00BF00BFC1
:101C100000BFFEF7D9FA804600BF00BF94F8360037
:101C2000082860D2DFE800F004090E10080A0F113E
:101C3000204601F0C3F861E060E000BF204601F0FB
:101C4000C1FD5BE000BF00BF00BF94F8340008286E
:101C50003BD2DFE800F0040705080E090A0600BFC2
:101C600000BF33E000BF00BF00BF204600F033FFDD
:101C70002CE0206BC068456A15F8377F204600F0DD
:101C80002AFF28786978373D884212D095F83700C6
:101C900094F8371088420CD1284600F00FFE074612
:101CA00095F83800B84202DA95F8380000E0384676
:101CB0000746002084F8340095F83700B84203D076
:101CC0003946284601F0D0FA00E000BF00BF94F882
:101CD0003600032803D094F83600072802D12046A6
:101CE00001F070FD0AE000BF00BF4046FEF770FA49
:101CF00000BF00BF46F62D60308075E700BFE06B87
:101D000010B1204600F0AAFD04F1600000F060FD73
:101D1000204600F021F8204601F034FB0D480088F1
:101D2000401E0C490880204601F05EFBFF2084F82D
:101D3000360000BF00BF4046FEF74AFA00BF00BFB2
:101D400000203080FFF7DCFC00BF4DE74C11002085
:101D500000010020C400002010B5044603480068BC
:101D600018B1204601490968884710BD4800002085
:101D700010B504460348006818B1204601490968B7
:101D8000884710BD4C0000202DE9F04780460E46E4
:101D900014461D464FF000091EB1B6F5004F02D1A2
:101DA00000E000BF05E045F6256028800020BDE882
:101DB000F08700BF0CB10020206000BF00BFFEF71D
:101DC00003FA814600BF00BF5F480068C06CA8B33B
:101DD0005D480068C06C401E5B490968C8645A4889
:101DE0000068C76C1CB158480068806C2060FEF722
:101DF0009BFA55490968896C401A53490968C1F82A
:101E0000A00051480068D0F8A4004F490968D1F8F3
:101E1000A010884207D24C480068D0F8A0004A4978
:101E20000968C1F8A40000BF00BF4846FEF7D0F91A
:101E300000BF00BF002028803846B8E7FFE706F45F
:101E4000004058B100BF00BF4846FEF7C1F900BFCF
:101E500000BF46F2B01028800020A8E73B48007879
:101E600000280BDD00BF00BF4846FEF7B1F900BFF8
:101E700000BF46F663502880002098E743460722BB
:101E80000021084600F04AFD00BF00BF4846FEF7AB
:101E90009FF900BF00BFFFF733FC00BF00BFFEF794
:101EA00093F9814600BF00BF2748006890F83500CD
:101EB00020B1012826D0032834D12CE0FCB12248DF
:101EC0000068806C2060FEF72FFA1F490968896C52
:101ED000401A1D490968C1F8A0001B480068D0F8E5
:101EE000A40019490968D1F8A010884207D2164801
:101EF0000068D0F8A00014490968C1F8A4000020C7
:101F0000288013E01CB110480068806C206046F205
:101F1000A91028800AE00CB10020206047F2D920E7
:101F2000288003E046F62E60288000BF00BF0648E8
:101F30000068C76C00BF00BF4846FEF749F900BF04
:101F400000BF384633E70000000100209800002061
:101F50002DE9F04106460D4614461DB1B5F5004F7A
:101F600002D100E000BF05E045F62560208000209A
:101F7000BDE8F08100BFFEF7D7F980462346424610
:101F80002946304601F09AFA07463846F0E7000045
:101F90002DE9F04704460E4617461D464FF0000A4D
:101FA00026B946F2D5202880BDE8F0871FB946F251
:101FB000D5202880F8E700BF00BFFEF705F982466C
:101FC00000BF00BF0CB921480468206868B900BF91
:101FD00000BF5046FEF7FCF800BF00BF0020306095
:101FE000386047F252102880DEE794F8440000F091
:101FF000010068B900BF00BF5046FEF7E9F800BF16
:1020000000BF00203060386047F254102880CBE7D2
:1020100000BF00BF5046FEF7DBF800BF00BF4FF027
:102020000008D4F8249003E009F1040908F101083C
:10203000D9F800000028F7D0C6F80080206CA0EB8B
:10204000080038600020288000BFADE700010020B4
:10205000F0B50446DDE9055602EB850020F00700E7
:102060004FF0807C071F3846C7F800C0071F38466E
:102070003C60DFF834C2071F3846C7F800C04FF095
:10208000123C071F3846C7F800C04FF0033C071F3B
:102090003846C7F800C04FF0023C071F3846C7F863
:1020A00000C0071F38463B60071F384639604FF0B5
:1020B000113C071F3846C7F800C04FF0103C071FFF
:1020C0003846C7F800C04FF0093C071F3846C7F82C
:1020D00000C04FF0083C071F3846C7F800C04FF05B
:1020E000073C071F3846C7F800C04FF0063C071FE3
:1020F0003846C7F800C04FF0053C071F3846C7F800
:1021000000C04FF0043C071F3846C7F800C006F077
:102110000407002F7ED04FF0007C071F3846C7F819
:1021200000C0DFF888C1071F3846C7F800C0DFF8D5
:1021300080C1071F3846C7F800C0DFF878C1071F05
:102140003846C7F800C0DFF870C1071F3846C7F827
:1021500000C0DFF868C1071F3846C7F800C0DFF8C5
:1021600060C1071F3846C7F800C0DFF858C1071F15
:102170003846C7F800C0DFF850C1071F3846C7F817
:1021800000C0DFF848C1071F3846C7F800C0DFF8B5
:1021900040C1071F3846C7F800C0DFF838C1071F25
:1021A0003846C7F800C0DFF830C1071F3846C7F807
:1021B00000C0DFF828C1071F3846C7F800C0DFF8A5
:1021C00020C1071F3846C7F800C0DFF818C1071F35
:1021D0003846C7F800C04FF0834C071F3846C7F891
:1021E00000C0DFF804C1071F3846C7F800C0DFF899
:1021F000FCC0071F3846C7F800C0DFF8F4C0071F4F
:102200003846C7F800C0DFF8ECC0071F3846C7F8EB
:1022100000C000E047E0DFF8E0C0071F3846C7F81D
:1022200000C0DFF8D8C0071F3846C7F800C0DFF885
:10223000D0C0071F3846C7F800C04FF0824C071FB8
:102240003846C7F800C0DFF8BCC0071F3846C7F8DB
:1022500000C0DFF8B4C0071F3846C7F800C0DFF879
:10226000ACC0071F3846C7F800C04FF0814C071FAD
:102270003846C7F800C0DFF898C0071F3846C7F8CF
:1022800000C04FF0804C071F3846C7F800C04FF021
:102290007E5C071F3846C7F800C04FF0000C071FD0
:1022A0003846C7F800C0F0BDA53400080000F8416A
:1022B0000000F0410000E8410000E0410000D8418A
:1022C0000000D0410000C8410000C0410000B841FA
:1022D0000000B0410000A8410000A041000098416A
:1022E0000000904100008841000070410000604102
:1022F00000005041000040410000304100002041FA
:10230000000010410000E0400000C0400000A0407C
:102310000000404010B52948006890F8440000F0E3
:10232000040020B1254909680868FDF775FF2448B5
:10233000006890F8440000F0040020B120490968CA
:102340000868FDF776FF1F48006810B11D48006857
:102350008047FDF7E9FF04461848006818490968F6
:10236000884215D015480068D0F89400201A134907
:102370000968C1F8900011480068D0F898000F492A
:102380000968D1F8901008440C490968C1F8980010
:102390000B480068C0F8944008480068D0F8B000C6
:1023A00009490968884205D2074800680349096855
:1023B000C1F8B00000200449086010BD00010020F1
:1023C0000401002058000020940000202DE9F04175
:1023D00005460E461446002723480078002804DDF1
:1023E00046F663502080BDE8F08136B1022E05D05C
:1023F000042E0AD0082E09D101E000BF00BF1DB98C
:1024000047F27E202080EEE704E003E045F62560F9
:102410002080E8E700BF00BF00BFFDF7D5FE0746FC
:1024200000BF00BF2346324629461048006801F02D
:102430006BF9208838B100BF00BF3846FDF7C8FEF1
:1024400000BF00BFCFE70948006800F0B7FC00BF3D
:1024500000BF3846FDF7BCFE00BF00BFFFF750F9D4
:102460000020208000BFBEE798000020000100206F
:1024700008B500F01FF86A4600210A48FFF768FD1A
:1024800009480068401E084908600846006838B9D5
:102490000648006808606A4600210548FFF758FDB5
:1024A00008BD0000D8150020FC000020F800002026
:1024B000C816002010B50348006810B10148006834
:1024C000804710BD5C000020244A2549254A264A41
:1024D0002649274A2748284A284A294A294A2A4871
:1024E0002A482B4A2B482C4A2C482D4A2D482E4846
:1024F0002E482F482F4A304A304A3148314A324A12
:102500003248334833483448344835483548364AE9
:10251000364A374A374A384838483948394A3A4AB1
:102520003A4A3B483B483C483C493D483D4A3E4A84
:102530003E4A3F4A3F4A404A404A4148414A424A4D
:1025400042484348434A444A4448454A454A464823
:10255000464800BF00BF00BF7047000068970008F2
:10256000D0980008699700086A9700086C970008DF
:102570007097000874970008719700089C970008EE
:102580009D9700089E970008A0970008A297000852
:10259000A6970008A8970008C8970008CA970008DF
:1025A000CC970008CE970008D0970008D297000873
:1025B000D4970008049800080598000806980008B9
:1025C000089800080A9800080B9800080C98000862
:1025D0000E98000810980008129800081498000837
:1025E00016980008189800084898000849980008AC
:1025F0004A9800084B9800084C9800084E9800082C
:102600005098000878980008799800087A9800088F
:102610007B9800087C9800087E9800088098000845
:102620008498000885980008869800088798000814
:1026300088980008899800088A9800088B980008F4
:102640008C9800088E9800088F98000890980008D1
:1026500092980008949800089598000898980008A7
:10266000C8980008C9980008CA980008CC980008C3
:102670000021034A1160034A118001807047000065
:10268000680000206C000020002419E000BF00BF9B
:10269000FDF79AFD044600BF00BF0A480068401CD1
:1026A0000849086008480068401C0749086000BFE6
:1026B00000BF2046FDF78CFD00BF00BFFEF7FCFC0D
:1026C000E4E7000060000020A800002010B58AB0F8
:1026D000044600200E4908600B2000210591CDE939
:1026E0000704069108460B4909680B4A12680B4B10
:1026F0001B68CDE90132CDE903103F200023084AD1
:1027000008A100900C48FFF78FF90AB010BD000037
:1027100060000020DC960008D8960008D4960008D7
:102720008926000875432F4F532D49494920496494
:102730006C65205461736B004C1100200021034A2A
:102740001160034A11800180704700007000002072
:102750007400002070B501461A4D2D681DB945F270
:102760001E750D8070BD184D2D881DB945F21D7563
:102770000D80F7E7134D28682A681032124D2D8816
:102780006D1EACB2002308E00260002545600581A3
:10279000C560103010325D1CABB2A342F4DB0025E3
:1027A000056045600581C560064D2D68074E3560A2
:1027B000054D2D88B5800025F58035810D8000BF41
:1027C000D0E70000149700080C9700080C120020B6
:1027D00010B5014648894B89002B17DD0A680C4B60
:1027E0001B6813600A4C4B6823602346DB884C89C6
:1027F0001B1B074CE38023469B884C892344044CD5
:10280000A38000234B818B810B604B6010BD0000C7
:102810000C1200200181002242818281026042600C
:102820007047000009A1C1610021416108490968A0
:1028300011B90021816105E00549096881610449F8
:1028400009684861024908607047000020000000E4
:1028500078000020C26B0A62C16370472DE9F8431B
:102860000546EC6B26E0D4F82090FDF75DFD0646AA
:10287000E6622146284600F037F804F10808B8F867
:10288000080020B9002084F82800606211E0D8F820
:10289000000087686562012084F8280021463846D8
:1028A000FFF7D8FF00231A4639462046009600F06D
:1028B0004DF94C46002CD6D1BDE8F88330B504461E
:1028C0003F2004F13C010BE00D68AB682BB19D6823
:1028D00095F83720824200DA10460D6805F1200194
:1028E0000D68002DF0D130BD024602F13C0002E03F
:1028F000036803F1200003688B42F9D103681B6A67
:10290000036070470021034A1160034A118001806F
:1029100070470000780000207C0000202DE9F04185
:1029200005460C4616461F461548006880F8346078
:1029300000201349096881F83500394610480068BD
:1029400000F07CFC6CB104F10808EC60012229461F
:102950000B48006800F016F82946404600F088F859
:1029600007E0002006490968A1F846000449096803
:10297000086303480168204600F018F8BDE8F081BC
:102980000001002010B5A0F84620016300230AE0F2
:1029900000244C600C600C614C610C83CC6188603D
:1029A00020315C1CA3B29342F2DB10BD30B548B1BC
:1029B0004568C1F8BC5000F10804226893681D6A9C
:1029C000C56113E091F83450022D02D0072D08D1D3
:1029D00003E007A5C1F8BC5007E007A5C1F8BC504B
:1029E00003E008A5C1F8BC5000BF00BF30BD000027
:1029F0005461736B205100005461736B2053656DFB
:102A0000000000002000000030B507A5C1F8BC5050
:102A100000F1080422681AB193681D6AC56101E0DB
:102A200001A5C56130BD0000200000002DE9F04186
:102A30000446256BB4F8467011E0D5F80C8008F117
:102A400008063089012807D92946304600F05DF88C
:102A50002946304600F00CF82035781E87B2002F4A
:102A6000EBD1BDE8F0810021016041600181704738
:102A7000F0B58E6896F8375007893FB9012707816E
:102A800000274F600F600160416023E007897F1CD1
:102A90000781026806E0946894F83770AF4200DD61
:102AA00002E05268002AF6D100BF32B900274F6019
:102AB00043680B60596041600CE017682FB91160E2
:102AC00000270F604A60016004E013680B604A60F1
:102AD00059601160F0BD2DE9F0410446256BB4F852
:102AE00046600AE0D5F80C8008F108072946384608
:102AF00000F00BF82035701E86B2002EF2DC0020AC
:102B0000A4F846002063BDE8F08110B50489012CCB
:102B100003D100240460446011E00C6824B94A68C1
:102B20000024146002600AE04C6824B90B68002499
:102B30005C60436003E00B684A685A601360048974
:102B4000641E048100244C600C6010BD2DE9F84324
:102B500006460C4617469846089D94F83600082805
:102B60005BD2DFE800F0040508090607323300BF36
:102B700000BF00BF52E000BF94F83400032807D123
:102B800043463A4621463046009500F04AF803E0B5
:102B9000A765A4F85C80A56436B12046FFF79BFFCB
:102BA00021463046FFF730FF94F83600032802D163
:102BB000204600F007FE204600F0ACF80020343438
:102BC000A070607004F8340928E000BF94F8340065
:102BD000032807D143463A4621463046009500F087
:102BE00020F803E0A765A4F85C80A56436B1204610
:102BF000FFF771FF21463046FFF706FF94F83600D5
:102C0000072802D1204600F0DDFD04203434A070F6
:102C10000020607004F8340900E000BF00BFBDE888
:102C2000F883F0B50446059E086BB1F846500AE0FB
:102C3000C768A74204D1046142610383C66104E00E
:102C400020306F1EBDB2002DF2DC00BFF0BD0000D1
:102C500070B50025074C03E005F12000C5B2241D26
:102C600020680028F8D02068FDF7B9FA2844C5B2DA
:102C7000284670BD3C000020002004E00021034AEB
:102C800042F82010401C0228F8D370473C00002076
:102C900030B5420900F01F030121C3F11F04A14018
:102CA000034C54F822400C43014D45F8224030BDFE
:102CB0003C00002030B5420900F01F030121C3F1A0
:102CC0001F04A140034C54F822408C43014D45F8A9
:102CD000224030BD3C0000200021034A1160034A1D
:102CE00011800180704700008400002088000020CF
:102CF00000210AE001EB4102054B03EB82000022B8
:102D00000281026042604A1CD1B24029F2D370476E
:102D10001812002010B5044694F83700FFF7B8FFEA
:102D200094F8370005490978884203D1204600F01D
:102D300027F802E0204600F003F810BD7E000020D6
:102D400010B590F8373003EB43030C4C04EB8301D0
:102D50000B893BB901230B810023C3600361086029
:102D6000486009E00B895B1C0B810B68C360002382
:102D700003610A681061086010BD0000181200208D
:102D800010B590F8373003EB43030B4C04EB830191
:102D90000B893BB901230B810023C36003610860E9
:102DA000486008E00B895B1C0B810023C3604A6804
:102DB0000261D060486010BD181200202DE9F0417A
:102DC000054695F8370000EB4000124901EB8004FE
:102DD0002F69EE6887B946B90020208120606060C5
:102DE00095F83700FFF766FF0EE02089401E20812E
:102DF00000203061266007E02089401E2081FE60AF
:102E00000EB9676000E0376100202861E860BDE826
:102E1000F08100001812002010B504480078012845
:102E200003D1FDF781FA0249086010BD9800002027
:102E30008C00002010B50A48007880B9FDF774FABC
:102E400008490968441A08480068A04201D20648A7
:102E5000046006480068A04201D20448046010BD26
:102E6000980000208C00002090000020940000209A
:102E70000021034A1160034A11800180704700005D
:102E80009C000020A000002086B00020009006E0FA
:102E9000A8490968480001AA0021FFF797FAA64847
:102EA00000780128F4D101A8FEF720FD0027A348EF
:102EB0000068A0490968884205D9A04800689D4972
:102EC0000968B0FBF1F727B99C4800680A21B0FBFC
:102ED000F1F72EE1FDF728FA804600BF00BFFDF7AD
:102EE00073F9009000BF00BF9548006895490860DD
:102EF00000209349086000BF00BF0098FDF768F903
:102F000000BF00BF904800688E490968884248D9D0
:102F10008D4800688D49884205D242F210700390B6
:102F20000120029023E0884800688949884205D240
:102F30004FF47A7003900A20029018E082480068EB
:102F40008449884203D26420039002900FE07E48B7
:102F500000688149884205D20A2003904FF47A70B4
:102F6000029004E00120039042F210700290764833
:102F700001680298B1FBF0FA724903980968484366
:102F8000B0FBFAF042F21071081A744908807448D4
:102F900000880988884208DA7048008870490880EB
:102FA00003E042F210706D490880FEF733FD002502
:102FB00000BF00BFFDF708F9009000BF00BF6948DF
:102FC000046800BF00BF0098FDF702F900BF00BF12
:102FD00026E000BF00BFFDF7F7F8009000BF00BF7C
:102FE00054F8980F6060002044F8980900BF00BFB3
:102FF0000098FDF7EDF800BF00BFD4F89C00054431
:1030000000BF00BFFDF7E0F8009000BF00BFD4F89C
:10301000B84000BF00BF0098FDF7DAF800BF00BF5E
:10302000002CD6D145B34948854205D242F21070F2
:1030300005904FF0010B1BE04548854205D24FF447
:103040007A7005904FF00A0B12E04248854203D295
:103050006420059083460BE03F48854204D20A2055
:1030600005904FF47A7B03E00120059042F2107B3B
:10307000B5FBFBF0049003E00020059001200490D4
:1030800000BF00BFFDF7A0F8009000BF00BF3548AB
:10309000046800BF00BF0098FDF79AF800BF00BFAA
:1030A0002BE0D4F89C00059948430499B0FBF1F05B
:1030B00086B242F21070864200D90646A4F88860B3
:1030C000B4F88A00B04201DAA4F88A6001AB04F1D6
:1030D000A802111D2046FEF75BFF00BF00BFFDF7F1
:1030E00073F8009000BF00BFD4F8B84000BF00BF25
:1030F0000098FDF76DF800BF00BF002CD1D11A4831
:103100000078012805D100201749087001A8FEF7B2
:10311000EDFBFDF709F9A0EB0809144800684845E4
:1031200002D21248C0F8009001AA00213846FFF7E9
:103130004DF9CFE61C970008B40000203497000832
:10314000A8000020B0000020AC000020801A06007B
:1031500000093D00005A62020084D717A400002035
:10316000A6000020C0000020A2000020B80000201F
:1031700010B58AB0044600201F4908601F49086046
:103180001F4908601F4908701F4908701F480068E0
:1031900020B946F62B6020800AB010BD1C4800689C
:1031A0001C490968884203D246F62C602080F3E768
:1031B000194800783F2803D346F62A602080EBE7C1
:1031C000032000210591CDE9070406910846104926
:1031D0000968124A12680D4B1B68CDE90132CDE92E
:1031E00003100D48007800230D4A0EA100901248EC
:1031F000FEF71AFC00BFCFE7A8000020B0000020B7
:10320000AC000020B4000020A2000020209700089D
:10321000289700083097000818970008249700089E
:10322000892E000875432F4F532D49494920537467
:103230006174205461736B001815002070B504464A
:103240000D4645B12A462146064800F019FA0320EA
:1032500084F8360002E0022084F836002046FFF7AA
:10326000ADFD70BDD80000202DE9F04104460D46AB
:1032700000BF002694F8377094F8360008285FD213
:10328000DFE800F004191E1F1A1B20212046FFF75B
:1032900095FD84F8375094F83700FFF7F9FC2C4877
:1032A0000068844203D12046FFF74AFD02E0204631
:1032B000FFF766FD46E000BF00BF84F8375041E0ED
:1032C00000BF00BF00BF84F8375094F834000828CE
:1032D00031D2DFE800F0300431050B06073200BFC1
:1032E00000BF00BF2046FFF7A1FB27E02046FFF705
:1032F0009DFB206BC068466AAF4205DD96F837003B
:10330000A84217DC002615E096F83700B84211D124
:103310003046FFF7D3FA054696F83800A84202DA9D
:1033200096F8380000E02846054696F83700A8428F
:1033300000D1002602E000BF00BF00BF00BF01E0D7
:10334000BDE8F08100BF3446002C92D100BFF7E702
:10335000000100200021C0F8B4100949096819B91A
:103360000021C0F8B81007E005490968C0F8B81096
:1033700003490968C1F8B4000149086070470000BA
:10338000C0000020D0F8B420D0F8B8104AB90D4BD6
:10339000196011B10023C1F8B4300023C0F8B8306F
:1033A0000FE029B90023C2F8B830C0F8B43008E003
:1033B000C2F8B810C1F8B4200023C0F8B830C0F883
:1033C000B4307047C00000200021044A1160044A54
:1033D0001180044A1160018070470000C000002085
:1033E000C4000020BC00002070B50446002020600E
:1033F000A0606060E06020616061A061E06126A083
:10340000206200206062A062E062A064A065A4F86F
:103410005C00002104F16000FFF7FCF90020206748
:103420006067E067A4F88400C4F88000002506E027
:10343000002104F1780040F82510681CC5B2002D69
:10344000F6D000203434A061E0662067E06084F8A4
:103450005200A06760672082E0612062A4F85400F7
:10346000A4F85600A065E065FCF75EFF06462666F8
:1034700000206066E06720706070A0704020E070FF
:1034800020710020A060C4F88000C4F8840004A06B
:10349000C4F88800343C70BD3F5461736B00000079
:1034A0002000000008B504480068FEF761FC69468A
:1034B0000020FEF78DFB08BD000100202DE9F84338
:1034C0000446884617461D464FF0000900BF00BF5E
:1034D000FCF77AFE814600BF00BF0CB9674804685C
:1034E000A7640020288094F83600082876D2DFE808
:1034F00000F0040550510607525300BF00BF00BF43
:103500000420012804D0022813D0042833D122E05B
:10351000E06CFF280CD100BF00BF4846FCF758FE06
:1035200000BF00BF46F6C55028800020BDE8F883E4
:1035300022E04FF6FF71E06C88420BD100BF00BF64
:103540004846FCF745FE00BF00BF46F6C550288040
:103550000020EBE710E0E06C401C58B900BF00BF52
:103560004846FCF735FE00BF00BF46F6C550288030
:103570000020DBE700E000BF00BFE06C401CE0641F
:10358000E66C00BF00BF4846FCF722FE00BF00BF4C
:1035900071E000BF00BF00BF94F83400072815D1C8
:1035A00000231A46214618460097FFF7CFFAE66C2B
:1035B00000BF00BF4846FCF70BFE00BF00BF08F489
:1035C000004000284AD1FEF79BF847E0042001287C
:1035D00005D0022813D0042833D122E03FE0E06C6C
:1035E000FF280BD100BF00BF4846FCF7F1FD00BF2C
:1035F00000BF46F6C5502880002097E722E04FF62E
:10360000FF71E06C88420BD100BF00BF4846FCF759
:10361000DFFD00BF00BF46F6C5502880002085E7CB
:1036200010E0E06C401C58B900BF00BF4846FCF7F2
:10363000CFFD00BF00BF46F6C5502880002075E7CB
:1036400000E000BF00BFE06C401CE064E66C00BF1F
:1036500000BF4846FCF7BCFD00BF00BF0BE000BF49
:1036600000BF4846FCF7B4FD00BF00BF46F62D6022
:103670002880002600BF00BF304657E70001002029
:1036800070B51546066846B90D6500264E618E6117
:10369000C86101600126868033E0046802682B4619
:1036A00024E0166D9E421DD396696EB90B65002607
:1036B0008E614A61C861166DF61A166591610160E6
:1036C0008688761C86800CE094690B658C614A6163
:1036D000C861166DF61A1665916161618688761C5F
:1036E000868070BD166D9B1B14465269002AD8D186
:1036F0000B658C6100264E61C86161618688761C0D
:10370000868000BFEDE700002DE9F04104460D463C
:1037100090461F46B8F1040F0ED1284800682E1AB3
:1037200016F5803F01D8002E3CD10020206547F2DD
:103730007E203880BDE8F081B8F1080F29D11F49FB
:10374000606D0968081AA84205D92E461B48006812
:103750002844606526E01949606D0968081A2E1A28
:1037600016F5803F00D886B91449606D0968081ABB
:10377000B0FBF5F005FB0050616D0844606500206A
:10378000206547F27E203880D4E7606D284460656C
:1037900008E00DB12E4605E00020206547F27E20AE
:1037A0003880C7E7012084F83600324621460448B5
:1037B000FFF766FF0020388000BFBBE7C80000208D
:1037C000D000002030B5C26983694169ABB929B91D
:1037D0000024146094800465C4611EE000248C61A0
:1037E0000C6D056D2C440C6511609488641E9480EA
:1037F000002444610465C4610FE0596121B18B610B
:103800000C6D056D2C440C65002484619488641E45
:103810009480002444610465C46130BD7047000099
:103820002DE9F0474FF0000900BF00BFFCF7CCFCCA
:10383000814600BF00BFFCF777FD064600271D4DFF
:103840002C683CB3206D401E20651FE0781C87B2B9
:1038500094F83600012806D1002084F8360020466E
:10386000FFF758FA06E094F83600052802D1042044
:1038700084F83600606928602C6814B90020A8809C
:1038800007E0A888401EA8800020A061206D0028C5
:10389000DCD000BFEF80FCF747FDA0EB060800BFBF
:1038A00000BF4846FCF794FC00BF00BF4046BDE89F
:1038B000F0870000D00000202DE9F05F4FF0000BF2
:1038C00000BF00BFFCF780FC834600BF00BFFCF7D1
:1038D0002BFD07464FF000083B4D2C68002C63D0B1
:1038E000206D401E20655BE008F101001FFA80F8A2
:1038F000002694F83400042802D1206BC068466A80
:103900000020A065A4F85C00FCF70EFDA064204632
:10391000FFF7E1F894F83600032806D12046FFF7B8
:10392000F9F9002084F8360006E094F836000728FC
:1039300002D1042084F83600032084F835000020EA
:1039400084F8340006B396F8370096F838108842A9
:103950001AD096F8370094F83710884214D13046C0
:10396000FEF7ACFF814696F83800484502DA96F833
:10397000380000E04846814696F83700484503D0B5
:1039800049463046FFF770FC606928602C6814B91E
:103990000020A88007E0A888401EA8800020A06121
:1039A000206D0028A0D000BFA5F80680FCF7BCFC65
:1039B000A0EB070A00BF00BF5846FCF709FC00BF98
:1039C00000BF5046BDE8F09FD800002008B5002792
:1039D00028E06B46002211461046FEF7D5F9BDF8E7
:1039E0000000F8B900BF00BFFCF7EEFB074600BFC0
:1039F00000BF0D480068401C0B49086000BF00BFB5
:103A00003846FCF7E5FB00BF00BFFFF709FF06469D
:103A1000FFF752FF0546741904480068A04201D21E
:103A200002480460D5E70000C8000020CC00002058
:103A300010B58AB00446002020490860204908607B
:103A4000204908601E498880C8801E498880C88037
:103A50001D48006820B947F2122020800AB010BD2E
:103A60001A4800681A490968884203D247F21320AD
:103A70002080F3E7174800783F2803D347F211204E
:103A80002080EBE70B2000210591CDE9070406918A
:103A900008460E490A68104909680B4B1B68CDE9B6
:103AA0000131CDE903200B48007800230B4A0CA11B
:103AB00000901048FDF7B8FF00BFCFE7C800002016
:103AC000D0000020D80000203C9700084497000850
:103AD000309700083897000840970008CD39000853
:103AE00075432F4F532D494949205469636B205426
:103AF00061736B00D815002010B58AB00446002011
:103B00002F4908602F4908602F4908802F48006816
:103B100040B12F4800682D490968B0FBF1F02D49EC
:103B2000086006E02A4800680A21B0FBF1F0294944
:103B30000860284800682849086000202749086074
:103B400027490860224627A12A48FDF7F3FB208871
:103B500008B10AB010BD2848006818B947F24730CC
:103B60002080F6E72548006825490968884203D285
:103B700047F248302080ECE7224800783F2803D302
:103B800047F246302080E4E70B20002105910A46E9
:103B9000CDE907040691194800681B490968164BCE
:103BA0001B68CDE90131CDE90302164800780023F6
:103BB000164A17A100901C48FDF736FF00BFC8E762
:103BC000E0000020E8000020E400002050970008FA
:103BD00034970008F8000020FC000020F4000020CA
:103BE000F00000204F5320546D72204D757465789D
:103BF0000000000098160020549700085C97000809
:103C0000309700084C97000858970008493C000876
:103C100075432F4F532D4949492054696D657220D2
:103C20005461736B00000000C81600200EB502A896
:103C300001AB0022114600900148FDF7B3FB0EBD19
:103C400098160020704700001CB53FE001AB6A46A3
:103C500000210846FEF798F8FFF7E8FFFCF764FB41
:103C600006461B480068401C19490860194804684A
:103C70001FE001A8FDF796FDD4F81080A069401E52
:103C8000A061A06980B9A08C022802D1206AA0613D
:103C900005E0204600F022F8032084F82600A568FD
:103CA00015B12046E168A847444601A8FDF7AAFDE2
:103CB00000BF002CDDD1FCF737FB871B00F030F88C
:103CC00005480068B84201D203480760BEE700001B
:103CD000F4000020E8000020F000002010B50E4B9A
:103CE0001B68834206D101690B4B196039B100236F
:103CF0004B6104E0416902690A6102B1516101232B
:103D000080F82630002303614361044B1B885B1E4F
:103D1000024C238010BD0000E8000020E4000020D9
:103D200008B56A4600210248FDF724FC08BD0000E2
:103D30009816002010B5FCF7C7FA10BD29B1064A45
:103D400012680243044B1A6004E0034A126882437B
:103D5000014B1A60704700003038024029B1064A12
:103D600012680243044B1A6004E0034A126882435B
:103D7000014B1A60704700003838024029B1064AEA
:103D800012680243044B1A6004E0034A126882433B
:103D9000014B1A607047000044380240F0B5002122
:103DA00000220024022500260223324F3F6807F03C
:103DB0000C0121B1042905D0082937D105E02E4F87
:103DC000076036E02D4F076033E02A4F3F1F3F6802
:103DD000C7F38056274F3F1F3F6807F03F036EB180
:103DE000264FB7FBF3F7DFF88CC0ACF1040CDCF81E
:103DF00000C0CCF3881C07FB0CF40CE01E4FB7FB93
:103E0000F3F7DFF870C0ACF1040CDCF800C0CCF3C1
:103E1000881C07FB0CF4174F3F1F3F68C7F301478F
:103E20007F1C7D00B4FBF5F7076002E0124F0760CE
:103E300000BF00BF0F4F3F6807F0F0010909104FA6
:103E40007A5C0768D74047600A4F3F6807F4E05143
:103E5000890A0B4F7A5C4768D7408760054F3F68F7
:103E600007F46041490B064F7A5C4768D740C7604A
:103E7000F0BD0000083802400024F40040787D01C5
:103E800000000020704700000CB500200190009059
:103E90003448006840F480303249086000BF31483F
:103EA000006800F4003000900198401C01900098D8
:103EB00018B90198B0F5A04FF1D12A48006800F474
:103EC000003010B10120009001E000200090009827
:103ED000012846D123484030006840F080502149F5
:103EE000403108602048006840F440401E490860A6
:103EF0001C48083000681B49083108600846006803
:103F000040F4004008600846006840F4A050086093
:103F10001648091F0860081F006840F08070091FDC
:103F2000086000BF0F48006800F000700028F9D05A
:103F300040F205700E4908600A480830006820F019
:103F400003000849083108600846006840F0020094
:103F5000086000BF03480830006800F00C00082823
:103F6000F8D10CBD003802400070004019544F07D2
:103F7000003C024010B5002400BF00BFFCF724F94C
:103F8000044600BF00BF08480078401C064908707E
:103F900000BF00BF2046FCF71BF900BF00BFFEF7C3
:103FA00067FAFDF759F910BD6400002010B51548F7
:103FB000006840F47000134908601348006840F03E
:103FC00001001149086000200F49083108600E48BF
:103FD00000680E4908400C4908600D48091D08603A
:103FE000081F006820F48020091F0860002006498F
:103FF0000C310860FFF748FF4FF00060014980393D
:10400000086010BD88ED00E000380240FFFFF6FEBA
:104010001030002410B540F22551054800F07FF81B
:1040200020B140F22551024800F004F810BD000014
:104030000010014010B50022002340F66A14A1428E
:1040400000D100BF0A1201249440A3B2DC430480D3
:1040500010BD21B1828942F40052828104E082893C
:104060004DF6FF731A4082817047000000B587B09B
:1040700001210846FFF762FE01211020FFF77EFEB6
:1040800007220A211D48FCF753FA072209211B4881
:10409000FCF74EFA00208DF81A0001208DF81B0065
:1040A00002208DF818000002059002208DF81900FA
:1040B00005A91248FCF7F4F902208DF81800400217
:1040C000059005A90D48FCF7EBF94FF41650019047
:1040D0000020ADF80800ADF80A00ADF80C00ADF80E
:1040E00010000C20ADF80E0001A9054800F042F8C0
:1040F00001210348FFF7ADFF07B000BD00000240FB
:104100000010014002460020B1F5007F00D100BF41
:1041100013880B400BB1012000E00020704770B500
:104120000246002400230025002040F66A16B14212
:1041300000D100BFC1F3421501F01F03012606FAAA
:1041400003F3012D02D19689334006E0022D02D1FE
:10415000168A334001E0968A33400C12012606FA93
:1041600004F41688344013B10CB1012000E00020A3
:1041700070BD00002DE9FF4705460E460024A1460C
:1041800000BFA046B08900B100BF2C8A24F440547F
:10419000F08804432C82AC8941F20C608443B088DF
:1041A00031890843718908430443AC81AC8A24F403
:1041B0004074B0890443AC826846FFF7EFFD2048A5
:1041C000854202D01F48854202D1DDF80C9001E003
:1041D000DDF80890A88900F4004040B109EBC9005F
:1041E00000EB091031684900B0FBF1F707E009EB7B
:1041F000C90000EB091031688900B0FBF1F76420B9
:10420000B7FBF0F004012009642101FB1078A889B4
:1042100000F4004040B1322000EBC800B0FBF1F0E8
:1042200000F00700044308E0322000EB081064218E
:10423000B0FBF1F000F00F0004432C81BDE8FF87D4
:104240000010014000140140C1F308028280704751
:1042500000BFFEE7014A024900F013B8A54200087A
:104260000801002002E008C8121F08C1002AFAD184
:1042700070477047002001E001C1121F002AFBD1E6
:1042800070472DE9F04116460F460446002503E02D
:104290003946B047641C6D1C20780028F8D12846A8
:1042A000BDE8F08170B504460D46E1B20548FFF760
:1042B000CBFF00BF80210348FFF724FF0028F9D07F
:1042C000204670BD0010014010B58AB000240121C5
:1042D0000803FFF733FDFFF7C9FEFCF75DFC09A8F3
:1042E000FCF7F4FE17A14FF48770FCF7C9F900BF83
:1042F00000BFFBF769FF044600BF00BF09A8032108
:1043000000220592CDE906210890104680210C225A
:104310000F4BCDE90132CDE90310042000230D4AF3
:104320000DA100900F48FDF77FFB00BF00BF2046A6
:10433000FBF74EFF00BF00BF09A8FDF7A3FA00205E
:104340000AB010BD496E69742066696E69736800B1
:10435000CC010020694300085461736B3120746103
:10436000736B00000C01002012E00123642211464F
:104370001046FCF7B9F907A0FFF76CFF09A14FF44D
:104380009670FCF77DF907A14FF4A570FCF778F95A
:10439000EBE7000075736172742074657374200A12
:1043A00000000000757361727420696C69393830DF
:1043B0003667000000000000000000000000000060
:1043C000000000000000001818181818180800084D
:1043D0001800000000000034242424000000000025
:1043E000000000000000000016247F2424247E2406
:1043F00024000000000000083E6848681C161212E5
:104400007C10100000000061D29674081016294933
:10441000C6000000000000003C646438724ACE46CA
:104420007F000000000000181818180000000000AD
:104430000000000000000004081810303030301078
:1044400010180C04000000201008080C0404040CD0
:1044500008181020000000080A341C6A0800000038
:10446000000000000000000000001818187F181855
:10447000180000000000000000000000000000180C
:10448000180830000000000000000000003C0000A0
:104490000000000000000000000000000000001804
:1044A000180000000000000206040C08081010208C
:1044B00020400000000000003C6642475B734266FB
:1044C0003C000000000000001878480808080808B0
:1044D0007E000000000000003C4606060408102094
:1044E0007E000000000000007C0606043C0202067C
:1044F0007C000000000000000C1C14246444FF0435
:1045000004000000000000007E6060607E02020681
:104510007C000000000000001E30604876424262CD
:104520003C000000000000007E0206040C08181089
:1045300030000000000000003C6242361C6642422F
:104540003C000000000000003C664242661A020483
:10455000780000000000000000001818000000189B
:1045600018000000000000000000181800000018EB
:104570001808300000000000000004183060100C23
:104580000600000000000000000000007E007E0029
:1045900000000000000000000000301804060C10AD
:1045A00020000000000000301C0606061810001055
:1045B000100000000000001C224141DDB5A5A5AFA0
:1045C00094C0403C00000000181C342426627E4346
:1045D000C1000000000000007C4642467C4242428E
:1045E0007C000000000000001E2040404040406071
:1045F0003E000000000000007C4642434343424628
:1046000078000000000000007E6060607E606060F6
:104610007E000000000000007E6060607E606060E0
:1046200060000000000000001E604040CE42426278
:104630003E00000000000000424242427E424242F0
:1046400042000000000000007E1818181818181802
:104650007E000000000000007C0404040404044404
:1046600078000000000000004244485070584C445C
:1046700042000000000000002020202020202020F8
:104680003E000000000000006266675F5B5BC1C126
:10469000C100000000000000626272525A4A4E4699
:1046A00046000000000000003C6243C3C3C34362F5
:1046B0003C000000000000007C464242467840403A
:1046C00040000000000000003C6243C3C3C34362DB
:1046D0003C180F00000000007C6662667C6C64661B
:1046E00062000000000000003E6040601C06020204
:1046F0007C000000000000007F1818181818181817
:104700001800000000000000424242424242426261
:104710003C00000000000000C14342622624341C1B
:104720001800000000000000C1C141495B5B7666D3
:10473000660000000000000043663418181C246660
:10474000C300000000000000C14266341C181818A5
:1047500018000000000000007E02040C1810206009
:104760007E0000000000001C10101010101010102F
:104770001010101C000000402020101008080C042D
:10478000060200000000003C0C0C0C0C0C0C0C0C85
:104790000C0C0C3C00000000181C246200000000FF
:1047A0000000000000000000000000000000000009
:1047B000000000FF000000201000000000000000CA
:1047C000000000000000000000003C06023E4246DF
:1047D0007A0000000000004040405C6242424242D9
:1047E0007C0000000000000000001E2060406020EF
:1047F0003E0000000000000202023E6242424266A9
:104800003A0000000000000000003C62427E406070
:104810003E0000000000000F1810107E1010101055
:10482000100000000000000000003F664266584093
:104830003E43423C0000004040405C6242424242F3
:104840004200000000000018180078080808080856
:104850007E000000000000040C007C04040404043A
:1048600004040C78000000606060626C787068641A
:10487000620000000000007808080808080808081E
:104880007E000000000000000000764B4B4B4B4BBD
:104890004B0000000000000000005C624242424207
:1048A000420000000000000000003C6242434262FF
:1048B0003C0000000000000000005C6242424242F6
:1048C0007C4040400000000000003E6242424266E0
:1048D0003A0202020000000000006E726360606035
:1048E000600000000000000000003E20203C0602A6
:1048F0007C000000000000001010FE1010101010CE
:104900001E000000000000000000424242424266D9
:104910003A00000000000000000043426624341802
:1049200018000000000000000000C1C15B5A5E6674
:104930006600000000000000000062261C181C2613
:104940006200000000000000000043426624341CA6
:10495000181830E00000000000007E060C1810203F
:104960007E0000000000000E1810101030701010B3
:104970001010180E000008080808080808080808A1
:104980000808080800000030180808080C0E08087D
:10499000080818300000000000000000714B0600FD
:1049A0000000000000000000000000000000000007
:1049B00000000000000000000000000000000000F7
:1049C00000000000000000000000000000000000E7
:1049D00000000000000000000000000000000000D7
:1049E00000000000000000000000000000000000C7
:1049F00003800380018001800180018001800180AB
:104A000001800180018001800180018000000000A0
:104A1000038003C0038000000000000000000000CD
:104A20000000000000000000000000000000000086
:104A30000E700E700E700E700E700C300C30000088
:104A40000000000000000000000000000000000066
:104A50000000000000000000000000000000000056
:104A60000000000000000000000000000000000046
:104A70000000000006180638063006307FFE7FFE74
:104A80000C300C300C300C307FFE7FFE0C601C6054
:104A900018601860186000000000000000000000AE
:104AA000000000000000000000000000000000C046
:104AB00000C000C007F81FF838C031C0318039800D
:104AC0003D801F8007F001F803BC031C030C031C8E
:104AD000233C3FF83FE0070006000600000000000E
:104AE00000000000000000000000000000000000C6
:104AF0001C077E06630C6318633863307E603CE0FD
:104B000000C0018003800338067E0CC61CC618C690
:104B100030C670EE607C0000000000000000000065
:104B20000000000000000000000000000000000085
:104B300000000FC01FE018703870387018701CE04B
:104B40000FC00F003F8C3B8C71CC60EC607C7038E8
:104B5000707C3FFE1FCF000000000000000000003E
:104B60000000000000000000000000000000000045
:104B700003C003C003800180018001800180000028
:104B80000000000000000000000000000000000025
:104B90000000000000000000000000000000000015
:104BA0000000000000000000000000000000000005
:104BB0000030006000E001C0038003000700070030
:104BC00006000E000E000E000E000E000E00060085
:104BD000070007000380038001C000E00070003080
:104BE00000000000000000000000000000000000C5
:104BF0000C000E000700038001C001C000E000E0CF
:104C00000060007000700070007000700060006054
:104C100000E000E001C001C0038007000E000C00AE
:104C20000000000000000000000000000000000084
:104C300001800180018819980FF803C003C01FF894
:104C40001998018001800180000000000000000030
:104C50000000000000000000000000000000000054
:104C60000000000000000000000000000000000044
:104C700000000000000000000000018001800180B1
:104C80000180018001807FFE7FFE01800180018024
:104C90000180018000000000000000000000000012
:104CA0000000000000000000000000000000000004
:104CB00000000000000000000000000000000000F4
:104CC0000000000000000000000000000000038061
:104CD00003C003C001C001C001C007801F00100055
:104CE00000000000000000000000000000000000C4
:104CF00000000000000000000000000000000000B4
:104D00000000000000000FF00FF0000000000000A5
:104D10000000000000000000000000000000000093
:104D20000000000000000000000000000000000083
:104D30000000000000000000000000000000000073
:104D4000000000000000000000000000000003C0A0
:104D500003C003C003C0000000000000000000000A
:104D60000000000000000000000000000000000043
:104D7000001C00180038003000700060006000C0A7
:104D800000C001C0018003800300070006000E0080
:104D90000C000C0018001800380030000000000063
:104DA0000000000000000000000000000000000003
:104DB0000000000007F01FF81838381C300C303C99
:104DC000707E71EE73CE7F0E7E0E380C300C381C68
:104DD0001C381FF007E00000000000000000000089
:104DE00000000000000000000000000000000000C3
:104DF0000000000003C00FC03FC039C001C001C0A7
:104E000001C001C001C001C001C001C001C001C09A
:104E100001C03FFC3FFC000000000000000000005B
:104E20000000000000000000000000000000000082
:104E3000000000000FE03FF018380038001800189C
:104E400000380030007000E001C0038007000E0051
:104E50001C003FFC3FFC00000000000000000000C0
:104E60000000000000000000000000000000000042
:104E7000000000001FE01FF0003800380038003844
:104E8000007007E007F00078001C001C001C001CEC
:104E900000383FF03FC000000000000000000000AC
:104EA0000000000000000000000000000000000002
:104EB0000000000000F001F001B0033007300630C0
:104EC0000C301C303830303070307FFE7FFE0030C8
:104ED0000030003000300000000000000000000042
:104EE00000000000000000000000000000000000C2
:104EF000000000001FF81FF8180018001800180024
:104F000018001FE01FF80038001C001C001C0018CF
:104F100000381FF01FC0000000000000000000006B
:104F20000000000000000000000000000000000081
:104F30000000000001F807F80E001C0018003800FF
:104F400031C03FF83E3C301C300C300C380C380C73
:104F50001C1C1FF807E0000000000000000000001B
:104F60000000000000000000000000000000000041
:104F7000000000003FFC3FFC001C0018003800301F
:104F80000070006000E000C001C0018003800700E5
:104F900007000E000E0000000000000000000000EE
:104FA0000000000000000000000000000000000001
:104FB000000000000FF01E78381C381C381C3C180C
:104FC0001E780FE007E01E783C3C381C300C300C9B
:104FD000381C1FF80FF00000000000000000000067
:104FE00000000000000000000000000000000000C1
:104FF000000000000FE01E783838301C701C700C68
:10500000300C381C3EFC0FEC001C001C0018003853
:1050100000F01FE01F000000000000000000000082
:105020000000000000000000000000000000000080
:1050300000000000000000000000000003C003C0EA
:1050400003C001800000000000000000000001809B
:1050500003C003C003C00000000000000000000007
:105060000000000000000000000000000000000040
:1050700000000000000000000000000003C003C0AA
:1050800003C001800000000000000000000003C019
:1050900003C003C001C001C001C007800F000000B1
:1050A0000000000000000000000000000000000000
:1050B000000000000000000000100038007001E057
:1050C00003C007000E003C001C000E00078001C05A
:1050D00000E0007800100000000000000000000068
:1050E00000000000000000000000000000000000C0
:1050F00000000000000000000000000000000000B0
:1051000000003FFC0000000000003FFC3FFC0000EE
:10511000000000000000000000000000000000008F
:10512000000000000000000000000000000000007F
:10513000000000000000000008001C000E00070036
:1051400003C000E00070003C0038007001E0038004
:1051500007001E0008000000000000000000000022
:10516000000000000000000000000000000000003F
:105170000E000FC003E0007000380038003800381F
:10518000007803F003C003000300030000000000E8
:10519000070007800700000000000000000000007A
:1051A00000000000000000000000000000000000FF
:1051B00001E007F80E1C1C0E18063006300361F3E0
:1051C00063F36633E673CE63CC63CC66CC66CCE621
:1051D000CFFCC73C60006000600030003C301FF036
:1051E00000000000000000000000000000000000BF
:1051F0000000000003C003C007E006E006600E7078
:105200000C700C301C381838381C3FFC3FFC700EFA
:10521000700E6006E00700000000000000000000C3
:10522000000000000000000000000000000000007E
:10523000000000003FF03FF83838381C381C3818A0
:1052400038383FF03FF0383C381C380C380C381CEC
:10525000383C3FF83FE00000000000000000000084
:10526000000000000000000000000000000000003E
:105270000000000007FC0FFC1E0038003800300062
:1052800070007000700070007000300038003C004A
:105290001E040FFC03FC00000000000000000000E2
:1052A00000000000000000000000000000000000FE
:1052B000000000003FE03FF03038301C300C300E72
:1052C000300E300E300E300E300E300C301C301CD4
:1052D00030783FF03F800000000000000000000038
:1052E00000000000000000000000000000000000BE
:1052F000000000001FF81FF8180018001800180020
:1053000018001FF81FF818001800180018001800DF
:1053100018001FF81FF80000000000000000000047
:10532000000000000000000000000000000000007D
:10533000000000001FF81FF81800180018001800DF
:1053400018001FF81FF8180018001800180018009F
:105350001800180018000000000000000000000005
:10536000000000000000000000000000000000003D
:105370000000000007FC0FFC1C003800300070002B
:10538000700070FC70FC700C700C700C300C380CE1
:105390001C0C0FFC07FC00000000000000000000D7
:1053A00000000000000000000000000000000000FD
:1053B00000000000300C300C300C300C300C300C85
:1053C000300C3FFC3FFC300C300C300C300C300CFF
:1053D000300C300C300C0000000000000000000019
:1053E00000000000000000000000000000000000BD
:1053F000000000003FFC3FFC018001800180018033
:105400000180018001800180018001800180018094
:1054100001803FFC3FFC0000000000000000000095
:10542000000000000000000000000000000000007C
:10543000000000001FF01FF000300030003000308E
:1054400000300030003000300030003000300030DC
:1054500010701FE01FC000000000000000000000EE
:10546000000000000000000000000000000000003C
:1054700000000000381C3838387038E038C03980F7
:105480003B003F003F003B003B8039C038E03870B4
:105490003838383C381C00000000000000000000D4
:1054A00000000000000000000000000000000000FC
:1054B000000000001C001C001C001C001C001C0044
:1054C0001C001C001C001C001C001C001C001C00FC
:1054D0001C001FFC1FFC000000000000000000007A
:1054E00000000000000000000000000000000000BC
:1054F00000000000381C381C6C3E6C3E6C6E666E02
:10550000666E67CE63CE638661866006600660065F
:105510006006600660060000000000000000000059
:10552000000000000000000000000000000000007B
:1055300000000000380C3C0C3C0C3E0C360C370CC8
:10554000330C338C318C31CC30CC30EC306C307C43
:10555000303C303C301C0000000000000000000027
:10556000000000000000000000000000000000003B
:10557000000000000FF01FF8381C381C700E700E71
:10558000700E600660066006700E700E700C381C9F
:105590003C381FF80FE00000000000000000000091
:1055A00000000000000000000000000000000000FB
:1055B000000000003FE03FF8383C381C380C380C45
:1055C000380C381C38783FF03FC0380038003800BD
:1055D0003800380038000000000000000000000023
:1055E00000000000000000000000000000000000BB
:1055F000000000000FF01FF8381C381C700E700EF1
:10560000700E600660066006700E700E700C381C1E
:105610003C381FF80FE00180018001E200FF003CF0
:10562000000000000000000000000000000000007A
:10563000000000003FE03FF83838381838183818B4
:1056400038383FF03FC039E0386038703838383883
:10565000381C381C380E000000000000000000005C
:10566000000000000000000000000000000000003A
:10567000000000000FF81FF8380038003000380034
:105680001E000F8007F000F8003C001C001C001CEE
:10569000003C3FF83FE00000000000000000000078
:1056A00000000000000000000000000000000000FA
:1056B000000000007FFE7FFE0180018001800180EC
:1056C00001800180018001800180018001800180D2
:1056D0000180018001800000000000000000000047
:1056E00000000000000000000000000000000000BA
:1056F00000000000300C300C300C300C300C300C42
:10570000300C300C300C300C300C300C300C301CA9
:10571000381C1FF80FE0000000000000000000002F
:105720000000000000000000000000000000000079
:1057300000000000E0077006700E700E380C381C78
:1057400038181C181C380C300E700E70066007E0FC
:1057500007E003C003C000000000000000000000DC
:105760000000000000000000000000000000000039
:1057700000000000600660066006600660066006C5
:10578000618663C673C673CE76EE366C366C3C7C2F
:105790003C3C3C3C381C00000000000000000000C5
:1057A00000000000000000000000000000000000F9
:1057B00000000000700E381C1C381C380E7006E00B
:1057C00007E003C003C003C007E00E701C301C38A4
:1057D000381C701E700E0000000000000000000069
:1057E00000000000000000000000000000000000B9
:1057F00000000000E006700E380C381C1C381C300D
:105800000E70066007E003C0018001800180018006
:105810000180018001800000000000000000000005
:105820000000000000000000000000000000000078
:10583000000000003FFC3FFC001C003800700060CE
:1058400000E001C00380038007000E000C001C0074
:1058500038003FFC3FFC000000000000000000009A
:105860000000000000000000000000000000000038
:1058700007F007F006000600060006000600060016
:1058800006000600060006000600060006000600E8
:10589000060006000600060006000600060007F0E7
:1058A00000000000000000000000000000000000F8
:1058B000380018001C000C000C0006000600070051
:1058C00003000380018001C000C000E000600060B0
:1058D0000030003000380018001C000C00000000F0
:1058E00000000000000000000000000000000000B8
:1058F0000FE00FE00060006000600060006000608A
:105900000060006000600060006000600060006097
:1059100000600060006000600060006000600FE0F8
:105920000000000000000000000000000000000077
:1059300000000000038003C006E006600C301C3845
:105940001818301C000000000000000000000000DB
:105950000000000000000000000000000000000047
:105960000000000000000000000000000000000037
:105970000000000000000000000000000000000027
:105980000000000000000000000000000000000017
:10599000000000000000000000000000FFFFFFFF0B
:1059A00000000000000000000000000000000000F7
:1059B0001C000E0007000180000000000000000035
:1059C00000000000000000000000000000000000D7
:1059D00000000000000000000000000000000000C7
:1059E00000000000000000000000000000000000B7
:1059F0000000000000000000000000001FF01EF882
:105A00000018001C001C07FC1FFC3C1C381C301C30
:105A1000387C3FFC1FDC000000000000000000009C
:105A20000000000000000000000000000000000076
:105A30003800380038003800380038003BF03FF8B4
:105A40003E1C380C380C380C380C380C380C381C10
:105A500038383FF01FE000000000000000000000A8
:105A60000000000000000000000000000000000036
:105A700000000000000000000000000003F80FF824
:105A80001E001C00380038003800380038001C00A8
:105A90001E000FF803F800000000000000000000E6
:105AA00000000000000000000000000000000000F6
:105AB000001C001C001C001C001C001C07FC1FFC20
:105AC000181C381C301C301C301C301C301C383C5E
:105AD000387C1FDC0F9C000000000000000000006C
