:020000040800F2
:10000000A00400209D010008AF020008AB02000818
:10001000AD020008E5010008090700080000000023
:10002000000000000000000000000000F5030008D0
:10003000E70100080000000015030008AD040008F7
:10004000B7010008B7010008B7010008B7010008B0
:10005000B7010008B7010008B7010008B7010008A0
:10006000B7010008B7010008B7010008B701000890
:10007000B7010008B7010008B7010008B701000880
:10008000B7010008B7010008B7010008B701000870
:10009000B7010008B7010008B7010008B701000860
:1000A000B7010008B7010008B7010008B701000850
:1000B000B7010008B7010008B7010008B701000840
:1000C000B7010008B7010008B7010008B701000830
:1000D000B70100080D050008B70100085D0500081C
:1000E000B7010008B7010008B7010008B701000810
:1000F000B7010008B7010008B7010008B701000800
:10010000B7010008B7010008B7010008B7010008EF
:10011000B7010008B7010008B7010008B7010008DF
:10012000B7010008B7010008B7010008B7010008CF
:10013000B7010008B7010008B7010008B7010008BF
:10014000B7010008B7010008B7010008B7010008AF
:10015000B7010008B7010008B7010008B70100089F
:10016000B7010008B7010008B7010008B70100088F
:10017000B7010008B7010008B7010008B70100087F
:10018000B7010008B7010008DFF80CD000F018F83C
:1001900000480047C1070008A00400200648804727
:1001A00006480047FEE7FEE7FEE7FEE7FEE7FEE75C
:1001B000FEE7FEE7FEE7FEE7B1040008890100085C
:1001C000064C074D06E0E06840F0010394E80700A4
:1001D00098471034AC42F6D3FFF7DAFF040A000860
:1001E000240A0008FEE77047F0B500230124032726
:1001F0000D6804FA03F21540954242D1D0F800C0D0
:100200005E0007FA06F52CEA050CC0F800C091F86C
:1002100004C0D0F800E00CFA06FC4CEA0E0CC0F862
:1002200000C091F804C0BCF1010F02D0BCF1020F74
:100230001FD1D0F808C02CEA050CC0F808C091F80E
:1002400005C0D0F808E00CFA06FC4CEA0E0CC0F829
:1002500008C0D0F804C02CEA020CC0F804C0426800
:1002600091F806C00CFA03FC1FFA8CFC42EA0C025F
:100270004260C268AA43C260CA79C568B2402A43D4
:10028000C2605B1C102BB3D3F0BD4B07DB0E9A4052
:10029000C90810B500EB8100016A0F249C40A143FE
:1002A0000162016A1143016210BDFEE7FEE770477B
:1002B00030B50F22C47801780123FCB1144C2468B6
:1002C00001F1E02104F4E064C4F5E064C4F3072420
:1002D000C4F10405E2404478AC40857815402543DC
:1002E0002A0181F80024007800F01F018B404009AA
:1002F000800000F1E020C0F8003130BD01F01F00A7
:1003000083404809800000F1E020C0F8803130BD12
:100310000CED00E070470000044A0029116801D08C
:10032000014300E081431160704700003038024013
:10033000044A0029116801D0014300E081431160A3
:100340007047000040380240044A0029116801D07B
:10035000014300E0814311607047000044380240CF
:1003600070B5204A1168204C11F00C0104D01F4ECA
:10037000042903D0082903D004601BE0066019E0BB
:100380001849091F0B68C3F380550B6803F03F033E
:1003900015B1B6FBF3F301E0B4FBF3F30C680968A5
:1003A000C4F388146343C1F30141491C4900B3FB02
:1003B000F1F1016011680F2303EA11110C4B5C5C31
:1003C0000168E14041601468072505EA94241C5D3A
:1003D00021FA04F48460126805EA52329A5CD14032
:1003E000C16070BD083802400024F40040787D01EF
:1003F00000000020704700000CB500202749019044
:1004000000900A6842F480320A604FF4A0430A6800
:1004100002F400320092019A521C0192009A12B921
:10042000019A9A42F3D10A68920334D501200090D0
:100430001A484030026842F0805202601848026850
:1004400042F44042026015480830026802600268C7
:1004500042F400420260026842F4A0520260031FAC
:10046000104A1A600A6842F080720A600A689201B3
:10047000FCD50D4A40F205711160016821F00301BD
:100480000160016841F0020101600168C1F381016E
:100490000229FAD10CBD00900CBD000000380240CA
:1004A0000070004019544F07003C024070470000A4
:1004B000124810B5016841F47001016010480168EC
:1004C00041F0010101600E4A00210832116002680A
:1004D0000C4B1A400260031D0B4A1A60026822F49A
:1004E0008022026006480C300160FFF785FF034957
:1004F0004FF000608039086010BD000088ED00E01A
:1005000000380240FFFFF6FE1030002470B5104C9A
:1005100040F225563146204600F061F80D4D58B1A5
:100520003146204600F044F8204600F0E5F80A4A3B
:1005300029785054491C297040F22441204600F08B
:100540004EF8002803D02088A0880120686070BD84
:1005500000100140100000202000002070B5114C58
:1005600040F225563146204600F039F80E4D58B17C
:100570003146204600F01CF8204600F0BDF80B4A3A
:1005800069785054491C697040F22441204600F0BB
:1005900026F8002805D020880248001D0088012088
:1005A000A86070BD004800401000002060000020DE
:1005B0000A0A01219140C9430180704700298189BD
:1005C00002D041F4005101E021F4005181817047D3
:1005D0000246002012880A4200D00120704730B540
:1005E00001F01F0201240025C1F3421304FA02F2B4
:1005F000012B0FD0022B0FD0838A4FEA11210088E4
:10060000134204FA01F400EA040001D000B101250C
:10061000284630BD8389F0E7038AEEE710B5C1F3C1
:10062000421301F01F040121A140012B07D0022B2E
:1006300007D01430002A026805D00A4304E00C30C9
:10064000F8E71030F6E78A43026010BD7FB5044634
:10065000008A0D4620F44051E88808432082A08992
:1006600041F20C618843A9882A8911436A890243AF
:100670001143A181A08A20F44071A8890843A08277
:100680006846FFF76DFE1A48844202D0194884423A
:1006900001D1039800E00298A189090400EBC00190
:1006A00001EB0010296801D5490000E08900B0FB8A
:1006B000F1F26420B2FBF0F109010B096FF01805AB
:1006C0006B4302EB8302A3891D044FF0320306D56E
:1006D00003EBC202B2FBF0F000F0070005E003EB11
:1006E0000212B2FBF0F000F00F00084320817FBD42
:1006F00000100140001401408088C0F308007047DA
:10070000C1F3080181807047FEE72DE9F0411546ED
:100710000E46074600243846315D00F00BF8641C95
:10072000AC42F8D340213846FFF752FF0028F9D0F9
:10073000BDE8F08110B50446FFF7E2FF80212046B6
:10074000FFF746FF0028F9D010BD0000014A02491A
:1007500000F013B89D0700081C00002002E008C844
:10076000121F08C1002AFAD170477047002001E02B
:1007700001C1121F002AFBD170472DE9F041164636
:100780000F460446002503E03946B047641C6D1C43
:1007900020780028F8D12846BDE8F08170B5074DD3
:1007A0000446C1B22846FFF7ABFF80212846FFF779
:1007B0000FFF0028F9D0204670BD00000010014056
:1007C00000F08EF800F006F90F4E104C104F002587
:1007D000606848B1656022780E493046FFF795FFA2
:1007E00025700DA0FFF7B2FFA0680028F0D00949DE
:1007F000A560627840313846FFF787FF657006A034
:10080000FFF7A4FFE4E700000048004010000020CC
:1008100000100140200000200A0000002DE9F041F6
:10082000012186B00846FFF777FD01211020FFF770
:100830008BFDDFF8A48007220A214046FFF725FD43
:10084000072209214046FFF720FD02258DF80450BC
:1008500001268DF806606802002400908DF807409C
:1008600003278DF8057069464046FFF7BDFC8DF8FB
:1008700004508DF80660280200908DF807408DF82E
:10088000057069464046FFF7AFFC0C20ADF812003A
:10089000ADF80E40ADF81040ADF80C40ADF8144086
:1008A0004FF4E1300D4C0290012240F224412046E9
:1008B000FFF7B4FE012240F225512046FFF7AEFEBD
:1008C00002A92046FFF7C2FE01212046FFF776FE6F
:1008D00006B0BDE8F08100000000024000100140B9
:1008E00010B5FFF79BFFBDE81040AFF3008008B5DF
:1008F00025208DF8000001208DF8030000218DF8DF
:1009000001108DF802006846FFF7D2FC08BD000018
:100910002DE9F04186B001210220FFF7FDFC012105
:100920008804FFF705FDDFF8A48007220A2140466E
:10093000FFF7ABFC07220B214046FFF7A6FC022580
:100940008DF8045001268DF806606802002400909E
:100950008DF8074003278DF8057069464046FFF77C
:1009600043FC8DF804508DF80660A80200908DF8C5
:1009700007408DF8057069464046FFF735FC0C20AE
:10098000ADF81200ADF80E40ADF81040ADF80C40D7
:10099000ADF814404FF4E1300D4C0290012240F2CA
:1009A00024412046FFF73AFE012240F2255120461D
:1009B000FFF734FE02A92046FFF748FE012120463A
:1009C000FFF7FCFD06B0BDE8F08100000004024026
:1009D0000048004010B5FFF79BFFBDE81040AFF3A3
:1009E000008008B527208DF8000001208DF8030055
:1009F00000208DF801008DF802006846FFF758FCD2
:100A000008BD0000240A00080000002020000000AB
:100A10005C070008440A0008200000208004000051
:100A20006C07000800000000010203040102030437
:100A30000607080900000000000000000000000098
:040A400000000000B2
:040000050800018965
:00000001FF
