:020000040800F2
:10000000580600209D0100082D1C0008350E000830
:10001000291C0008CF020008711F00080000000022
:10002000000000000000000000000000211D00088A
:10003000D302000800000000BD1C0008511E00088B
:10004000B7010008B7010008B7010008B7010008B0
:10005000B7010008B7010008B7010008B7010008A0
:10006000B7010008B7010008B7010008B701000890
:10007000B7010008B7010008B7010008B701000880
:10008000B7010008B7010008B7010008B701000870
:10009000B7010008B7010008B70100080B0300080A
:1000A000B7010008B7010008B7010008B701000850
:1000B000B7010008B7010008B7010008B701000840
:1000C000B7010008B7010008B7010008B701000830
:1000D000B7010008BD1E0008B7010008B7010008FD
:1000E000B7010008B7010008B7010008B701000810
:1000F000B7010008B7010008B7010008B701000800
:10010000B7010008B7010008B7010008B7010008EF
:10011000B7010008B7010008B7010008B7010008DF
:10012000B7010008B7010008B7010008B7010008CF
:10013000B7010008B7010008B7010008B7010008BF
:10014000B7010008B7010008B7010008B7010008AF
:10015000B7010008B7010008B7010008B70100089F
:10016000B7010008B7010008B7010008B70100088F
:10017000B7010008B7010008B7010008B70100087F
:10018000B7010008B7010008DFF80CD000F06EF8E6
:1001900000480047352600085806002006488047DA
:1001A00006480047FEE7FEE7FEE7FEE7FEE7FEE75C
:1001B000FEE7FEE7FEE7FEE7551E0008890100089E
:1001C00040EA01039B0703D009E008C9121F08C0D9
:1001D000042AFAD203E011F8013B00F8013B521E59
:1001E000F9D27047D2B201E000F8012B491EFBD2D0
:1001F00070470022F6E710B513460A460446194632
:10020000FFF7F0FF204610BD2DE9F05F0546002006
:1002100092469B4688460646814640241BE0284677
:1002200041464746224600F042F853465A46C01A15
:10023000914110D311461846224600F029F82D1A94
:1002400067EB01084F4622460120002100F020F80C
:1002500017EB00094E41201EA4F10104DFDC4846E3
:1002600031462A464346BDE8F09F0000064C074D44
:1002700006E0E06840F0010394E807009847103476
:10028000AC42F6D3FFF784FFA07C0008C07C0008D6
:10029000202A04DB203A00FA02F100207047914046
:1002A000C2F1200320FA03F3194390407047202A3B
:1002B00004DB203A21FA02F00021704721FA02F310
:1002C000D040C2F12002914008431946704700BF58
:1002D000FEE7704701B502E00098401E00900098CC
:1002E0000028F9D108BD01B502E00098401E009039
:1002F00000980028F9D108BD01B502E00098401E21
:10030000009000980028F9D108BD10B54FF4807016
:1003100000F00EF828B100F045FC4FF4807000F0BA
:1003200001F810BD0149086070470000143C01400D
:1003300001460020034A12680A400AB1012000E089
:1003400000207047143C0140002123498279002A93
:100350003AD00A46126803689A430B461A600A1D8F
:10036000126803689A430B1D1A60027911440A68E7
:1003700003681A430A60184A0832126803689A43ED
:10038000154B08331A601A1D126803689A43124B02
:100390000C331A604279102A0ED11A1F12680368B2
:1003A0001A430D4B08331A601A1D126803681A436A
:1003B000094B0C331A600DE00749427911440A6871
:1003C00003681A430A6005E0027911440A68036869
:1003D0009A430A6070470000003C014051B182001E
:1003E000A2F1C042126842F001038200A2F1C042B1
:1003F000136009E08200A2F1C0421268034B1A4068
:100400008300A3F1C0431A6070470000FEFF0F0095
:1004100030B50021002200230468A400A4F1C044E8
:100420002168424C2140D0E901452C43C5682C434A
:1004300005692C4345692C4385692C43C5692C43C8
:10044000056A2C43456A2C43856A2C43C56A2C43B4
:10045000056B2C4321430468A400A4F1C04421602F
:100460008468082C0BD10468A400A4F1C04424685B
:1004700044F040050468A400A4F1C0442560046869
:10048000641CA400A4F1C044226802F04042446B02
:100490002468456B6D6844EA0514456BAD6844EA11
:1004A0000524456BAD8944EA0544456B2D8A44EA31
:1004B0000554456B2D7D44EA0564456BAD692C43BD
:1004C00022430468641CA400A4F1C0442260C46AEE
:1004D000B4F5804F20D10468A400A4F1C044D4F83E
:1004E0000431134C2340846B2468856B6D6844EAA7
:1004F0000514856BAD6844EA0524856BAD8944EA33
:100500000544856BAD692C4323430468A400A4F122
:10051000C044C4F8043107E06FF070450468A400DB
:10052000A4F1C044C4F8045130BD00008000F7FFBE
:100530000000F0CFF0B50A4600210023002400BFE0
:100540003DE0012505FA01F3156805EA03049C4224
:1005500034D105684F000326BE40B54305601579C8
:100560004E00B5400668354305601579012D02D06F
:100570001579022D16D185684F000326BE40B5437C
:10058000856055794E00B54086683543856045687D
:1005900001268E40B5434560456896798E40B6B2D7
:1005A00035434560C5684F000326BE40B543C5606E
:1005B000D5794E00B540C6683543C560491C102941
:1005C000BFD3F0BDF0B5002300244D07ED0E02FAB5
:1005D00005F3CE1000F1200555F826504E07F70E12
:1005E0000F26BE40B543CF1000F1200646F8275035
:1005F000CE1000F1200555F8265045EA0304CE1030
:1006000000F1200545F82640F0BD024600201369A0
:100610000B400BB1012000E0002070474183704780
:1006200001837047FEB500200090019002900024E5
:1006300040F256354FF4F076002780208DF8000008
:1006400051208DF801000A226946BA2000F052F8C4
:100650000446002C01DA0020FEBD9DF802009DF842
:10066000031000EB012085B29DF804009DF80510F1
:1006700000EB012086B200BF00BF00BF684600BF8C
:1006800080208DF8000056208DF801000322694675
:10069000BA2000F02FF80446002C01DA0020DBE736
:1006A0009DF8020000F003073B463246294602A0AF
:1006B00001F060FC0120CFE73C3C2D4754502D4910
:1006C0004E464F2D3E3E20585F4D4158203D20253F
:1006D000642C20595F4D4158203D2025642C205426
:1006E000524947474552203D203078253032780A1C
:1006F000000000002DE9F04186B005460C46164684
:100700004FF0FF374FF0000800BF00BF0020ADF8EA
:1007100002008DF800500220ADF80400029401217F
:10072000ADF80E108DF80C50B01E81B2ADF810105F
:10073000A01C059009E00221684600F06DFC074608
:10074000022F00D104E008F10108B8F1050FF2DB37
:1007500000BFB8F1050F08DB6078237840EA032179
:10076000B21E3B46034801F005FC384606B0BDE822
:10077000F0810000FC7B000838B50E48006800904E
:1007800000256C1E00BF00BF0DE003226946BA20A1
:10079000FFF7B0FF44B2002C01DD204638BD2946EA
:1007A00005A001F0E7FB2846691CCDB20528ECDB6B
:1007B0002046F3E7E87B00083C3C2D4754502D458C
:1007C00052524F522D3E3E204754502069326320F2
:1007D00074657374206661696C65642074696D6505
:1007E0002025642E0A0000002DE9FE4380460C46B9
:1007F00015464FF0FF36002700BF00BF0020ADF8C0
:1008000002008DF80080A8B2ADF80400029408E060
:100810000121684600F000FC0646012E00D102E0EE
:100820007F1C052FF4DB00BF052F08DB60782378E1
:1008300040EA0321AA1E3346024801F09BFB3046E2
:10084000BDE8FE834C7C00082DE9F05F4FF0FF38D7
:1008500000260027B246002500BF00BF4FF481707C
:1008600001F00AFF0446802020705020607000F0E4
:10087000CBFBFFF781FF8046B8F1000F05DA41A0FE
:1008800001F078FB4046BDE8F09F00F09DF8484835
:100890000078022803D1DFF81CB14FF0EF094FF4C4
:1008A0008071A01CFFF7A5FC4A465946A01CFFF723
:1008B00087FC4D4600BF00BF00BF00BF00BF204601
:1008C00000BF3D480078E0703B480088001220716E
:1008D0003A4800786071394800880012A0713848A1
:1008E0000078082815D2DFE800F0040C050D060E8C
:1008F000070F00BF00BF00BF207A20F00800207261
:1009000007E000BF00BF00BF207A40F0080020725F
:1009100000BF00BF0027022607E0701C205CA15D1D
:1009200000EB0120384487B2B61C681EB042F4DCEC
:10093000784287B200BF00BF390A681E215467554C
:100940000121681C21544FF0000A0BE02A1D2146AA
:10095000BA20FFF749FF8046B8F1000F00DD04E040
:100960000AF1010ABAF1050FF0DB00BF1548FFF7E5
:10097000BAFC00F0ADFAFFF755FE204601F05EFD2F
:10098000002080E73C3C2D4754502D4552524F5299
:100990002D3E3E2049324320636F6D6D756E696355
:1009A0006174696F6E204552524F52210A00000057
:1009B00028000020047A0008180000201A000020F7
:1009C0001C000020FFFF0F0010B586B04FF0FF3471
:1009D000434903C9CDE9040100BF00BF082204A9AF
:1009E000BA20FFF787FE0446002C05DA3DA001F08F
:1009F000C1FA204606B010BD9DF81200352825D159
:100A00009DF816009DF817109DF81520CDE90021DE
:100A100002909DF814309DF813209DF812103CA010
:100A200001F0A8FA9DF81200352856D19DF8130060
:100A3000362852D19DF8140038284ED19DF8150063
:100A400038284AD102203E49087046E09DF815003A
:100A5000F0B99DF816009DF81710CDE900109DF82B
:100A600014309DF813209DF8121036A001F082FA80
:100A70009DF81200392830D19DF8130031282CD16F
:100A80009DF81400312828D101202D49087024E058
:100A90009DF816009DF817109DF81520CDE900214E
:100AA00002909DF814309DF813209DF8121031A08B
:100AB00001F060FA9DF8120039280ED19DF813005C
:100AC00031280AD19DF81400352806D19DF815006B
:100AD000372802D100201A49087020468AE7000012
:100AE000D07B00083C3C2D4754502D4552524F526C
:100AF0002D3E3E2047545020726561642076657219
:100B000073696F6E206661696C65640A000000009D
:100B10003C3C2D4754502D494E464F2D3E3E2049DA
:100B200043312056657273696F6E3A2025632563E1
:100B3000256325635F25303278253032780A00003E
:100B4000280000203C3C2D4754502D494E464F2D47
:100B50003E3E204943322056657273696F6E3A20DB
:100B60002563256325635F25303278253032780A86
:100B7000000000003C3C2D4754502D494E464F2D5F
:100B80003E3E204943332056657273696F6E3A20AA
:100B900025632563256325635F2530327825303250
:100BA000780A000010B500BF00BF00F023F810BDA8
:100BB00030B500BF00BF00BF00BF0CB2034D25F829
:100BC000104014B2024D25F8104030BD2A0000201C
:100BD000340000204FF0FF31044A22F81010044A7C
:100BE00022F8101000BF00BF704700002A0000204C
:100BF000340000202DE9F04F99B070A000681890E3
:100C000028210EA8FFF7F5FA6D4800680D90002521
:100C1000A846BA200C9000264FF000094FF0000AB9
:100C200000200B9083460024401E0A9000BF00BFA6
:100C30000C220DA90C98FFF75DFD0A900A98002878
:100C400006DA60A00A9901F095F919B0BDE8F08FB5
:100C50009DF83680B8F1000F00D1F6E708F080006B
:100C600000B99DE008F00F05052D00DD98E0012D8D
:100C700017DD242101A8FFF7BCFA5148001D0068C8
:100C80000090681EC000821C69460C98FFF732FD78
:100C90000A90681EC2000DF1020110A8FFF790FA39
:100CA00000BF54480088A84221DD00241BE0002733
:100CB00015E0032000EBC7000DA94618307800F0BE
:100CC0000F0B4D48005D584500D10AE0681EB84240
:100CD00003DC4949085DFFF77DFF781CC7B2AF42CE
:100CE000E7DB00BF641C434800888442DFDB002D43
:100CF00045D0002440E0032000EBC4000DA94618B5
:100D0000307800F00F0B3C4800F804B07078B178F0
:100D100040EA0129F078317940EA012A7079B17905
:100D200040EA01200B903548007808281BD2DFE804
:100D300000F004140A0B1A1A150500BF3048008889
:100D4000A0EB0A0A10E000BF2E480088A0EB0909BA
:100D50002B480088A0EB0A0A06E000BF294800885B
:100D6000A0EB090900E000BF00BF524649465846C3
:100D70000B9BFFF71DFF641CAC42BCDB0DE01D4864
:100D8000008850B1002404E01B49085DFFF722FFF2
:100D9000641C184800888442F6DB1648058000BFB2
:100DA000032218A90C98FFF71FFD0A900A98002843
:100DB00002DA15A001F0DEF800BF46E7814E000020
:100DC000747B00083C3C2D4754502D4552524F52E5
:100DD0002D3E3E20493243207472616E7366657207
:100DE000206572726F722E206572726E6F3A256482
:100DF0000A200A003E000020400000201C000020C5
:100E00001A000020180000203C3C2D4754502D496A
:100E10004E464F2D3E3E204932432077726974651D
:100E200020656E645F636D64206572726F72210A63
:100E30000000000000BFFEE71CB50121482000F0C3
:100E40003FFF0121880300F05BFF8020009001201C
:100E50008DF8040002208DF8050001208DF80600B1
:100E600000208DF8070069461748FFF763FB08204C
:100E7000009069461448FFF75DFB40200090012078
:100E80008DF8040002208DF8050000208DF8060082
:100E900002208DF8070069460B48FFF74BFB4FF423
:100EA0008070009001208DF8040002208DF805006C
:100EB00000208DF8060002208DF8070069460348DF
:100EC000FFF738FB1CBD0000000C02400018024078
:100ED00000B585B04FF48070009000208DF80400BC
:100EE00002208DF8050000208DF80700694614489F
:100EF000FFF720FB0821062000F014FF4FF480705C
:100F0000039000208DF8100008208DF811000120BA
:100F10008DF8120003A8FFF717FA4FF4C06000F035
:100F2000C3FE17208DF8080001208DF809008DF808
:100F30000A008DF80B0002A800F07AFE05B000BD93
:100F40000018024070B506460D46144601F026FB17
:100F500046F0010001F0F4FA01F04CFB00B114E09E
:100F60000DE0012C03D101F0B3FA01F031FB01F0E7
:100F7000C5FA28706D1C601E84B201F087FA002C3F
:100F8000EFD101F025FB002070BD01F021FB012015
:100F9000FAE700001CB54FF48070009001208DF836
:100FA000040002208DF8050000208DF806000220C4
:100FB0008DF8070069461148FFF7BCFA4021104838
:100FC000FFF72CFB0F48FFF797F940210C48FFF77C
:100FD00027FB0C48FFF790F94FF480700090002039
:100FE0008DF8040002208DF8050000208DF8070020
:100FF00069460248FFF79EFA1CBD00000018024037
:10100000000C0240FFFF0F0010B5FFF715FFFFF7C0
:10101000C1FFFFF75DFF10BD2DE9F04105460F460A
:101020000024002600BF00BF00BF2BE004EB4400FB
:1010300005EB8000807800F0010088B104EB4403E8
:1010400005EB83039A8804EB440305EB830399685B
:1010500004EB440315F82300FFF774FF064610E085
:1010600004EB440305EB83031A7904EB440305EB1B
:101070008303996804EB440315F8230000F00BF890
:101080000646641C0EB9BC42D0D116B13046BDE84C
:10109000F0812046FBE72DE9F04104460D46174656
:1010A00001F096FA00260AE001F078FA204601F0F5
:1010B00047FA01F09FFA00B904E0701C86B2B6F559
:1010C0007A7FF1DB00BFB6F57A7F00D112E007E04E
:1010D000287801F035FA01F08DFA00B10AE06D1CB4
:1010E000381EA7F10101CFB2F2D101F071FA002050
:1010F000BDE8F08101F06CFA0120F9E710B5044673
:101100002CB14FF400710548FFF78AFA04E04FF460
:1011100000710248FFF782FA10BD0000001402407F
:101120002DE9F04106460F4614461D462B46224641
:101130003946304600F00CFB04FB05F002490988F3
:1011400000F05AF9BDE8F0812600002001B502E068
:101150000098401E009000980028F9D108BD0000BA
:101160002DE9F05F804689461646A6F120001FFA59
:1011700080FA1E49096889881C4A1268D28801FBD6
:1011800002F0C11700EB5171C1F3C707174800689F
:1011900000680AFB070B15480068C38813480068FD
:1011A00082884946404600F0D3FA2C2000F034FDF6
:1011B000002416E0002510E01BF8040080212941DE
:1011C000084020B10A48008800F02AFD03E00948E1
:1011D000008800F025FD681CC5B2082DECDB601C02
:1011E000C4B2BC42E6DBBDE8F09F00002000002056
:1011F000240000202600002070B504460D4600267D
:1012000024E030461349096889880844124909884E
:10121000884205DD00260F480068C088204484B25B
:1012200020460C490968C98808440C490988884245
:1012300001DD002600242A7821463046FFF790FF82
:101240006D1C044800688088304486B228780028E5
:10125000D7D170BD20000020180000201A00002007
:101260002DE9F05F05460E4691469B4600240FFA95
:1012700089F70320A0EB49000FFA80FA87E0BBF161
:10128000000F40D0A0463BE006EB080291B22A19BD
:1012900090B200F0A5FC06EB080291B22A1B90B2B6
:1012A00000F09EFC321991B2A5EB080290B200F05A
:1012B00097FC321B91B2A5EB080290B200F090FCB3
:1012C000A6EB080291B22A1B90B200F089FCA6EBB3
:1012D000080291B22A1990B200F082FC321B91B23E
:1012E00005EB080290B200F07BFC321991B205EBDD
:1012F000080290B200F074FC08F101000FFA80F8C7
:10130000B845C1DD2FE0F21991B22A1990B200F070
:1013100067FCF21991B22A1B90B200F061FC3219FD
:1013200091B2EA1B90B200F05BFC321B91B2EA1B57
:1013300090B200F055FCF21B91B22A1B90B200F063
:101340004FFCF21B91B22A1990B200F049FC321BFB
:1013500091B2EA1990B200F043FC321991B2EA1945
:1013600090B200F03DFC601C04B2BAF1000F05DA47
:10137000A000801D50440FFA80FA07E0E01B8000B7
:101380000A3050440FFA80FA781E07B200BFBC4200
:101390007FF775AFBDE8F09F00B597B00121084613
:1013A00000F09EFC0420019003908006079000202E
:1013B0000290049005900690042008900020099067
:1013C00008200A9010200B9000200C900E900F9097
:1013D00010904FF4805011900020129013901490B0
:1013E00001A81590169008A8FFF712F80121042013
:1013F000FEF7F4FF17B000BD70B504460D46002699
:101400002C2000F009FC00BF03E0284600F008FC97
:10141000761CA642F9D370BD1CB50121782000F0DE
:101420004FFC00208DF8060001208DF807000220F7
:101430008DF8040003208DF805004FF480400090E3
:1014400069468048FFF776F80C220E217D48FFF7A9
:10145000B9F84FF40040009069467A48FFF76AF8FF
:101460000C220F217748FFF7ADF801200090694664
:101470007448FFF75FF80C2200217248FFF7A2F8CA
:101480000220009069466F48FFF754F80C220121B2
:101490006C48FFF797F88020009069466A48FFF78C
:1014A00049F80C2207216848FFF78CF84FF4807048
:1014B000009069466448FFF73DF80C220821624815
:1014C000FFF780F84FF40070009069465E48FFF720
:1014D00031F80C2209215C48FFF774F84FF4806062
:1014E000009069465848FFF725F80C220A21564813
:1014F000FFF768F84FF40060009069465248FFF724
:1015000019F80C220B215048FFF75CF84FF480507B
:10151000009069464C48FFF70DF80C2211464A48E6
:10152000FFF750F84FF40050009069464648FFF727
:1015300001F80C220D214448FFF744F84FF4804095
:10154000009069464048FEF7F5FF0C220E213E4808
:10155000FFF738F84FF40040009069463A48FEF72C
:10156000E9FF0C220F213848FFF72CF84FF4807068
:10157000009069463348FEF7DDFF0C220821314810
:10158000FFF720F84FF40070009069462D48FEF7F1
:10159000D1FF0C2209212B48FFF714F84FF480608B
:1015A000009069462748FEF7C5FF0C220A2125480E
:1015B000FFF708F81020009069462248FEF7BAFFAE
:1015C0000C2204211F48FEF7FDFF202000906946F1
:1015D0001C48FEF7AFFF0C2205211A48FEF7F2FF68
:1015E0004FF48060009069461848FEF7A3FF0C2274
:1015F0000A211648FEF7E6FF0120009069461448CC
:10160000FEF798FF0C2200211148FEF7DBFF0120B6
:101610008DF8040000208DF8060001208DF80700E9
:1016200002208DF805008002009069460848FEF708
:1016300081FF4FF40070009069460548FEF77AFF7D
:101640001CBD0000000C02400010024000180240C7
:101650000014024010B50446072C00DD10BD2948D7
:101660000470204604EBD0714910A4EB410141B94C
:101670004FF4F0702449088040F256302349088026
:1016800007E040F25630204908804FF4F0701F49BF
:101690000880362000F0C0FA002141EA441000F032
:1016A000BFFA2A2000F0B8FA002000F0B9FA0020B2
:1016B00000F0B6FA14490988491EC1F3072000F06A
:1016C000AFFA11490978491EC8B200F0A9FA2B20D7
:1016D00000F0A2FA002000F0A3FA002000F0A0FA27
:1016E0000A490988491EC1F3072000F099FA074901
:1016F0000978491EC8B200F093FA2C2000F08CFA49
:1017000000BFABE71C000020180000201A000020DA
:1017100010B5FFF781FEFFF73FFE00F041FA00F041
:101720004AF808480078FFF795FF074803880748FC
:10173000028800210846FFF7F3FC0120FFF7DEFCDA
:1017400010BD00001C0000201A000020180000201E
:101750002DE9F04104460D4616461F462A2000F0AA
:101760005BFA201200F05CFAE0B200F059FAA1191D
:10177000491EC1F30F2000F053FAA119491EC8B247
:1017800000F04EFA2B2000F047FA281200F048FA39
:10179000E8B200F045FAE919491EC1F30F2000F044
:1017A0003FFAE919491EC8B200F03AFA2C2000F0BD
:1017B00033FABDE8F08110B54FF4A040FEF78AFD82
:1017C000FF2000F029FAFF2000F02AFA982000F00C
:1017D00027FA062000F024FA4FF4A040FEF77AFD25
:1017E000BA2000F019FA602000F01AFA4FF4A04075
:1017F000FEF770FDBC2000F00FFA032000F010FA95
:101800000E2000F00DFA612000F00AFAFF2000F02F
:1018100007FA052000F004FA052000F001FA1B2069
:1018200000F0FEF9102000F0FBF9732000F0F8F949
:10183000632000F0F5F9FF2000F0F2F9FF2000F03E
:10184000EFF9052000F0ECF9052000F0E9F900209F
:1018500000F0E6F9002000F0E3F9D52000F0E0F90F
:10186000D02000F0DDF9012000F0DAF9002000F0CE
:10187000D7F9402000F0D4F94FF4A040FEF72AFD3C
:10188000BD2000F0C9F9012000F0CAF9232000F0C2
:10189000C7F9452000F0C4F9672000F0C1F9012024
:1018A00000F0BEF9232000F0BBF9452000F0B8F9A4
:1018B000672000F0B5F94FF4A040FEF70BFDBE2005
:1018C00000F0AAF9012000F0ABF92D2000F0A8F9F2
:1018D000CB2000F0A5F9A22000F0A2F9622000F0D0
:1018E0009FF9F22000F09CF9E22000F099F9222003
:1018F00000F096F9222000F093F94FF4A040FEF793
:10190000E9FCC72000F088F9632000F089F94FF462
:10191000A040FEF7DFFCED2000F07EF97F2000F014
:101920007FF90F2000F07CF9002000F079F94FF4E6
:10193000A040FEF7CFFCC02000F06EF9032000F0BD
:101940006FF90B2000F06CF9002000F069F94FF4FA
:10195000A040FEF7BFFCFC2000F05EF9082000F07C
:101960005FF94FF4A040FEF7B5FCDF2000F054F91A
:10197000002000F055F9002000F052F9002000F09E
:101980004FF9002000F04CF9002000F049F9202028
:1019900000F046F94FF4A040FEF79CFCF32000F065
:1019A0003BF9742000F03CF94FF4A040FEF792FCA4
:1019B000F92000F031F9002000F032F9FD2000F0AC
:1019C0002FF9802000F02CF9802000F029F9C020A8
:1019D00000F026F94FF4A040FEF77CFCB42000F0A4
:1019E0001BF9022000F01CF9022000F019F9022076
:1019F00000F016F94FF4A040FEF76CFCF72000F061
:101A00000BF9812000F00CF94FF4A040FEF762FCC6
:101A1000B12000F001F9002000F002F9132000F0DD
:101A2000FFF8132000F0FCF84FF4A040FEF752FC42
:101A3000F22000F0F1F8C02000F0F2F8022000F0EF
:101A4000EFF8402000F0ECF8282000F0E9F84FF41F
:101A5000A040FEF73FFCC12000F0DEF8172000F0A8
:101A6000DFF8752000F0DCF8752000F0D9F82020B0
:101A700000F0D6F84FF4A040FEF72CFCE02000F078
:101A8000CBF8002000F0CCF8052000F0C9F80820C1
:101A900000F0C6F80C2000F0C3F80F2000F0C0F8EA
:101AA000152000F0BDF8092000F0BAF8072000F07A
:101AB000B7F8012000F0B4F8062000F0B1F80920D2
:101AC00000F0AEF8162000F0ABF8142000F0A8F8F3
:101AD0003E2000F0A5F83E2000F0A2F8002000F023
:101AE0009FF84FF4A040FEF7F5FBE12000F094F8DA
:101AF000002000F095F8092000F092F8122000F084
:101B00008FF8122000F08CF8132000F089F81C20C8
:101B100000F086F8072000F083F8082000F080F835
:101B2000052000F07DF8082000F07AF8032000F08E
:101B300077F8022000F074F8042000F071F81E20FD
:101B400000F06EF81B2000F06BF8002000F068F841
:101B50004FF4A040FEF7BEFB3A2000F05DF85520A0
:101B600000F05EF84FF4A040FEF7B4FB352000F023
:101B700053F8002000F054F84FF4A040FEF7AAFB01
:101B8000112000F049F84FF4A040FEF7A3FB2920F4
:101B900000F042F84FF4A040FEF79CFB10BD00009F
:101BA00010B54FF400610848FEF738FD40F6FF20FD
:101BB000FFF7CCFA4FF400610348FEF731FD40F621
:101BC000FF20FFF7C3FA10BD0014024070B50446B1
:101BD0000D4601231A4629462046FFF7B9FD70BD80
:101BE00070B505460C460948008885420CDA08485D
:101BF0000088844208DA21462846FFF7E7FF0548B7
:101C000001880120FFF7F8FB70BD000018000020DC
:101C10001A000020240000204FF0D04108807047B7
:101C20004FF0D0414880704700BFFEE7704700008A
:101C300070B5002100230F22C4781CB3174C246810
:101C400004F4E064C4F5E064C4F30721C1F10404C2
:101C5000E3B20A4144789C40E1B2847814402143C5
:101C60000C07210E0E4C05786155047804F01F0511
:101C70000124AC4005786D11AD0005F1E025C5F8F3
:101C8000004109E0047804F01F050124AC40054D33
:101C90000678761145F8264070BD00000CED00E096
:101CA00000E400E080E100E002490143024A1160E3
:101CB000704700000000FA050CED00E070470000DE
:101CC00029B1064A12680243044B1A6004E0034A31
:101CD00012688243014B1A6070470000303802409E
:101CE00029B1064A12680243044B1A6004E0034A11
:101CF00012688243014B1A60704700003838024076
:101D000029B1064A12680243044B1A6004E0034AF0
:101D100012688243014B1A60704700004438024049
:101D20007047000030B500228B071C0F0F2303FA09
:101D300004F20B4B8C1053F824309343084C8D1055
:101D400044F8253023468C1053F824308C07240F98
:101D500000FA04F42343024C8D1044F8253030BDC2
:101D6000083801400CB5002001900090344800680C
:101D700040F480303249086000BF3148006800F408
:101D8000003000900198401C0190009818B901980B
:101D9000B0F5A04FF1D12A48006800F4003010B12E
:101DA0000120009001E0002000900098012846D119
:101DB00023484030006840F080502149403108609D
:101DC0002048006840F440401E4908601C48083024
:101DD00000681B49083108600846006840F400406C
:101DE00008600846006840F4A05008601648091FC3
:101DF0000860081F006840F08070091F086000BF7D
:101E00000F48006800F000700028F9D040F205701B
:101E10000E4908600A480830006820F003000849AD
:101E2000083108600846006840F00200086000BF02
:101E300003480830006800F00C000828F8D10CBDF9
:101E4000003802400070004019544F07003C024027
:101E50007047000010B51548006840F47000134941
:101E600008601348006840F0010011490860002034
:101E70000F49083108600E4800680E4908400C49B7
:101E800008600D48091D0860081F006820F48020C4
:101E9000091F0860002006490C310860FFF762FF47
:101EA0004FF0006001498039086010BD88ED00E006
:101EB00000380240FFFFF6FE1030002410B540F25B
:101EC0002551054800F026F820B140F2255102487E
:101ED00000F004F810BD00000010014010B5002211
:101EE000002340F66A14A14200D100BF0A12012467
:101EF0009440A3B2DC43048010BD02460020B1F53B
:101F0000007F00D100BF13880B400BB1012000E01F
:101F10000020704770B502460024002300250020F1
:101F200040F66A16B14200D100BFC1F3421501F07C
:101F30001F03012606FA03F3012D02D196893340CF
:101F400006E0022D02D1168A334001E0968A334022
:101F50000C12012606FA04F41688344013B10CB1B1
:101F6000012000E0002070BDC1F3080282807047AC
:101F700000BFFEE70FB4054B10B503A9044A029851
:101F800000F018F810BC5DF814FB000019240008DC
:101F90004800002002E008C8121F08C1002AFAD138
:101FA00070477047002001E001C1121F002AFBD1D9
:101FB000704700002DE9FF4F8DB00F460546002603
:101FC00006E025280BD0DDE90F1290476D1C761C2A
:101FD00028780028F5D111B03046BDE8F08F0024F4
:101FE000A246A1460122EC4900E0044315F8013F56
:101FF000203B02FA03F00842F7D128782A2810D0B3
:102000006FF02F022878A0F13001092914D80AEBCB
:102010008A0102EB410144F0020400EB010A6D1C4D
:10202000F0E701CF5FEA000A03D544F40054CAF197
:10203000000A44F002046D1C28782E2817D115F8E8
:10204000010F44F004042A280ED06FF02F022878E4
:10205000A0F1300109290AD809EB890102EB4101FD
:1020600000EB01096D1CF2E757F8049B6D1C287802
:102070006C280FD006DC4C2817D068280DD06A28B1
:1020800014D104E0742810D07A280FD10DE044F464
:1020900000140AE044F4801401E044F44014697828
:1020A000814202D104F580146D1C6D1C2A786E2AC1
:1020B0001FD00CDC632A31D004DC002A8BD0582AD4
:1020C00011D1A3E0642A68D0692A0CD165E0732A93
:1020D0002ED004DC6F2A73D0702A04D19BE0752ABD
:1020E0006FD0782A6ED01046DDE90F129047761C2B
:1020F00050E1C4F30250022806D0032809D0042876
:1021000001CF09D0066045E101CFF117C0E90061B8
:1021100040E101CF06803DE106703BE117F8040B7A
:102120008DF8000000208DF80100EB46012003E04F
:1021300057F804BB4FF0FF3061074FF0000102D4A5
:102140000DE008F10101884649450FDA8045F8DBCA
:102150001BF808100029F4D108E008F101018846B5
:102160008142FADB1BF808100029F6D1DDE90F23C4
:10217000AAEB08008146214600F036F9304400EB16
:10218000080604E0DDE90F121BF8010B9047B8F1D7
:102190000108F7D221464846F7E00A21C4F302536A
:1021A0004FF0000B0891022B04D001CFC117032B75
:1021B00009D00AE0FF1D27F00707F7E8020108E051
:1021C00032E01FE020E000B2C117042B01D140B281
:1021D000C117031E71F1000307DA4FF0000CD0EBBA
:1021E0000C006CEB01012D2302E0230504D52B2309
:1021F0008DF82430012303E0E30701D02023F7E723
:10220000984658E00A2110E010210EE010204FF00F
:10221000000B08900CE010214FF0000B44F0040478
:102220004FF00809089103E008214FF0000B0891D6
:10223000C4F30253022B04D001CF0021032B06D09C
:1022400006E0FF1D27F00707F7E8020103E080B270
:10225000042B00D1C0B24FF0000823072BD5702A01
:1022600007D0DDF820C08CF0100C5CEA0B0C05D018
:102270000EE040238DF82430012308E050EA0103EA
:1022800006D030238DF824308DF82520022398467F
:10229000DDF820C08CF0080C5CEA0B0C0BD150EA86
:1022A000010301D1630706D530238DF824304FF0A8
:1022B0000108A9F10109582A04D038A20B9208AAF2
:1022C0000A920BE03AA2F9E75B46089AFDF79CFFF9
:1022D0000B9B9B5C0A9A521E0A92137050EA0102F1
:1022E000F2D10A98ADEB000000F1200B600702D597
:1022F00024F4803401E04FF00109D94502DDA9EB57
:102300000B0000E0002000EB0B0141440890AAEB19
:10231000010AE00306D4DDE90F232146504600F010
:1023200063F806444FF0000908E009A911F8090014
:10233000DDE90F12904709F10109761CC145F4DB74
:10234000E0030CD5DDE90F232146504600F04CF8A0
:10235000064404E0DDE90F1230209047761C08990E
:10236000481E08900029F5DC08E00A980A990078D0
:10237000491C0A91DDE90F129047761CBBF1000160
:10238000ABF1010BF1DC21465046DDE90F2300F0F3
:1023900019F806446D1C1BE6092801003031323360
:1023A0003435363738396162636465660000000091
:1023B000303132333435363738394142434445467B
:1023C000000000002DE9F041044600251E46174696
:1023D000880404D405E039462020B0476D1C641EF3
:1023E000F9D52846BDE8F0812DE9F04104460025E5
:1023F0001E469046C80301D5302700E020278804F8
:1024000004D505E041463846B0476D1C641EF9D539
:102410002846BDE8F081000070B504460D46E1B2E3
:102420000548FFF7A1FD00BF80210348FFF765FDC8
:102430000028F9D0204670BD0010014010B50028DA
:1024400021D0114B0022001F196803E0814203D8FC
:102450000A4649680029F9D152B11368841A9C428E
:1024600004D1006818441060104602E0506000E09B
:10247000186039B102680B1A934203D10B681A44F1
:1024800002604968416010BD4C00002010B5082171
:102490000A48FEF7C3F800F013F880210748FEF75A
:1024A000BFF800F00DF880210448FEF7B7F800F0FF
:1024B00007F808210148FEF7B3F810BD000C0240F0
:1024C000002001E0411CC8B21428FBDB704700006B
:1024D00010B508210848FEF7A3F8FFF7F1FF8021A7
:1024E0000548FEF79DF8FFF7EBFF80210248FEF755
:1024F00095F8FFF7E5FF10BD000C024070B5002411
:10250000002516E06006040E80210C48FEF788F8CE
:10251000FFF7D6FF08210948FEF777F808B1601CDD
:10252000C4B280210548FEF779F8FFF7C9FF681C9F
:10253000C5B2082DE6DB204670BD0000000C02404D
:1025400070B50446002523E004F0800020B1082186
:102550001148FEF765F803E008210F48FEF75EF822
:10256000FFF7AEFF80210C48FEF75AF8FFF7A8FFEF
:1025700080210948FEF752F8072D03D108210648AB
:10258000FEF74EF86006040EFFF79AFF681CC5B20E
:10259000082DD9DB70BD0000000C024010B50821E9
:1025A0000A48FEF73DF880210848FEF739F8FFF7A2
:1025B00087FF08210548FEF731F8FFF781FF8021EA
:1025C0000248FEF72BF8FFF77BFF10BD000C02401E
:1025D00010B508210648FEF721F880210448FEF7CF
:1025E0001FF8FFF76DFF08210148FEF719F810BD2D
:1025F000000C024010B508210D48FEF711F8FFF756
:102600005FFF80210A48FEF70BF8FFF759FF08210A
:102610000748FDF7FAFF08B1012400E000248021FB
:102620000348FDF7FBFFFFF74BFF204610BD0000FE
:10263000000C024001210803FFF742FBFFF768F896
:10264000FEF702F90FE00123642211461046FEF75F
:1026500007FE05A14FF49670FEF7CEFD02A14FF4E0
:10266000A570FEF7C9FDEEE7757361727420696CA1
:102670006939383036670000F0B50B30154D20F061
:1026800007010024144A0FE003688B420BD38B42EE
:1026900005D95E1A43184768C3E9006700E043683C
:1026A000136002C004E0021D10680028ECD120462F
:1026B000002802D1286808B10020F0BD064A07486A
:1026C0001060074A121A22F00702C0E90024012014
:1026D0002860D7E7500000204C0000205C0000205C
:1026E0005802002000000000000000000000000070
:1026F000000000000000001818181818180800083A
:102700001800000000000034242424000000000011
:10271000000000000000000016247F2424247E24F2
:1027200024000000000000083E6848681C161212D1
:102730007C10100000000061D29674081016294920
:10274000C6000000000000003C646438724ACE46B7
:102750007F0000000000001818181800000000009A
:102760000000000000000004081810303030301065
:1027700010180C04000000201008080C0404040CBD
:1027800008181020000000080A341C6A0800000025
:10279000000000000000000000001818187F181842
:1027A00018000000000000000000000000000018F9
:1027B000180830000000000000000000003C00008D
:1027C00000000000000000000000000000000018F1
:1027D000180000000000000206040C080810102079
:1027E00020400000000000003C6642475B734266E8
:1027F0003C0000000000000018784808080808089D
:102800007E000000000000003C4606060408102080
:102810007E000000000000007C0606043C02020668
:102820007C000000000000000C1C14246444FF0421
:1028300004000000000000007E6060607E0202066E
:102840007C000000000000001E30604876424262BA
:102850003C000000000000007E0206040C08181076
:1028600030000000000000003C6242361C6642421C
:102870003C000000000000003C664242661A020470
:102880007800000000000000000018180000001888
:1028900018000000000000000000181800000018D8
:1028A0001808300000000000000004183060100C10
:1028B0000600000000000000000000007E007E0016
:1028C00000000000000000000000301804060C109A
:1028D00020000000000000301C0606061810001042
:1028E000100000000000001C224141DDB5A5A5AF8D
:1028F00094C0403C00000000181C342426627E4333
:10290000C1000000000000007C4642467C4242427A
:102910007C000000000000001E204040404040605D
:102920003E000000000000007C4642434343424614
:1029300078000000000000007E6060607E606060E3
:102940007E000000000000007E6060607E606060CD
:1029500060000000000000001E604040CE42426265
:102960003E00000000000000424242427E424242DD
:1029700042000000000000007E18181818181818EF
:102980007E000000000000007C04040404040444F1
:1029900078000000000000004244485070584C4449
:1029A00042000000000000002020202020202020E5
:1029B0003E000000000000006266675F5B5BC1C113
:1029C000C100000000000000626272525A4A4E4686
:1029D00046000000000000003C6243C3C3C34362E2
:1029E0003C000000000000007C4642424678404027
:1029F00040000000000000003C6243C3C3C34362C8
:102A00003C180F00000000007C6662667C6C646607
:102A100062000000000000003E6040601C060202F0
:102A20007C000000000000007F1818181818181803
:102A3000180000000000000042424242424242624E
:102A40003C00000000000000C14342622624341C08
:102A50001800000000000000C1C141495B5B7666C0
:102A6000660000000000000043663418181C24664D
:102A7000C300000000000000C14266341C18181892
:102A800018000000000000007E02040C18102060F6
:102A90007E0000000000001C10101010101010101C
:102AA0001010101C000000402020101008080C041A
:102AB000060200000000003C0C0C0C0C0C0C0C0C72
:102AC0000C0C0C3C00000000181C246200000000EC
:102AD00000000000000000000000000000000000F6
:102AE000000000FF000000201000000000000000B7
:102AF000000000000000000000003C06023E4246CC
:102B00007A0000000000004040405C6242424242C5
:102B10007C0000000000000000001E2060406020DB
:102B20003E0000000000000202023E624242426695
:102B30003A0000000000000000003C62427E40605D
:102B40003E0000000000000F1810107E1010101042
:102B5000100000000000000000003F664266584080
:102B60003E43423C0000004040405C6242424242E0
:102B70004200000000000018180078080808080843
:102B80007E000000000000040C007C040404040427
:102B900004040C78000000606060626C7870686407
:102BA000620000000000007808080808080808080B
:102BB0007E000000000000000000764B4B4B4B4BAA
:102BC0004B0000000000000000005C6242424242F4
:102BD000420000000000000000003C6242434262EC
:102BE0003C0000000000000000005C6242424242E3
:102BF0007C4040400000000000003E6242424266CD
:102C00003A0202020000000000006E726360606021
:102C1000600000000000000000003E20203C060292
:102C20007C000000000000001010FE1010101010BA
:102C30001E000000000000000000424242424266C6
:102C40003A000000000000000000434266243418EF
:102C500018000000000000000000C1C15B5A5E6661
:102C60006600000000000000000062261C181C2600
:102C70006200000000000000000043426624341C93
:102C8000181830E00000000000007E060C1810202C
:102C90007E0000000000000E1810101030701010A0
:102CA0001010180E0000080808080808080808088E
:102CB0000808080800000030180808080C0E08086A
:102CC000080818300000000000000000714B0600EA
:102CD00000000000000000000000000000000000F4
:102CE00000000000000000000000000000000000E4
:102CF00000000000000000000000000000000000D4
:102D000000000000000000000000000000000000C3
:102D100000000000000000000000000000000000B3
:102D20000380038001800180018001800180018097
:102D3000018001800180018001800180000000008D
:102D4000038003C0038000000000000000000000BA
:102D50000000000000000000000000000000000073
:102D60000E700E700E700E700E700C300C30000075
:102D70000000000000000000000000000000000053
:102D80000000000000000000000000000000000043
:102D90000000000000000000000000000000000033
:102DA0000000000006180638063006307FFE7FFE61
:102DB0000C300C300C300C307FFE7FFE0C601C6041
:102DC000186018601860000000000000000000009B
:102DD000000000000000000000000000000000C033
:102DE00000C000C007F81FF838C031C031803980FA
:102DF0003D801F8007F001F803BC031C030C031C7B
:102E0000233C3FF83FE007000600060000000000FA
:102E100000000000000000000000000000000000B2
:102E20001C077E06630C6318633863307E603CE0E9
:102E300000C0018003800338067E0CC61CC618C67D
:102E400030C670EE607C0000000000000000000052
:102E50000000000000000000000000000000000072
:102E600000000FC01FE018703870387018701CE038
:102E70000FC00F003F8C3B8C71CC60EC607C7038D5
:102E8000707C3FFE1FCF000000000000000000002B
:102E90000000000000000000000000000000000032
:102EA00003C003C003800180018001800180000015
:102EB0000000000000000000000000000000000012
:102EC0000000000000000000000000000000000002
:102ED00000000000000000000000000000000000F2
:102EE0000030006000E001C003800300070007001D
:102EF00006000E000E000E000E000E000E00060072
:102F0000070007000380038001C000E0007000306C
:102F100000000000000000000000000000000000B1
:102F20000C000E000700038001C001C000E000E0BB
:102F30000060007000700070007000700060006041
:102F400000E000E001C001C0038007000E000C009B
:102F50000000000000000000000000000000000071
:102F600001800180018819980FF803C003C01FF881
:102F7000199801800180018000000000000000001D
:102F80000000000000000000000000000000000041
:102F90000000000000000000000000000000000031
:102FA000000000000000000000000180018001809E
:102FB0000180018001807FFE7FFE01800180018011
:102FC00001800180000000000000000000000000FF
:102FD00000000000000000000000000000000000F1
:102FE00000000000000000000000000000000000E1
:102FF000000000000000000000000000000003804E
:1030000003C003C001C001C001C007801F00100041
:1030100000000000000000000000000000000000B0
:1030200000000000000000000000000000000000A0
:103030000000000000000FF00FF000000000000092
:103040000000000000000000000000000000000080
:103050000000000000000000000000000000000070
:103060000000000000000000000000000000000060
:10307000000000000000000000000000000003C08D
:1030800003C003C003C000000000000000000000F7
:103090000000000000000000000000000000000030
:1030A000001C00180038003000700060006000C094
:1030B00000C001C0018003800300070006000E006D
:1030C0000C000C0018001800380030000000000050
:1030D00000000000000000000000000000000000F0
:1030E0000000000007F01FF81838381C300C303C86
:1030F000707E71EE73CE7F0E7E0E380C300C381C55
:103100001C381FF007E00000000000000000000075
:1031100000000000000000000000000000000000AF
:103120000000000003C00FC03FC039C001C001C093
:1031300001C001C001C001C001C001C001C001C087
:1031400001C03FFC3FFC0000000000000000000048
:10315000000000000000000000000000000000006F
:10316000000000000FE03FF0183800380018001889
:1031700000380030007000E001C0038007000E003E
:103180001C003FFC3FFC00000000000000000000AD
:10319000000000000000000000000000000000002F
:1031A000000000001FE01FF0003800380038003831
:1031B000007007E007F00078001C001C001C001CD9
:1031C00000383FF03FC00000000000000000000099
:1031D00000000000000000000000000000000000EF
:1031E0000000000000F001F001B0033007300630AD
:1031F0000C301C303830303070307FFE7FFE0030B5
:10320000003000300030000000000000000000002E
:1032100000000000000000000000000000000000AE
:10322000000000001FF81FF8180018001800180010
:1032300018001FE01FF80038001C001C001C0018BC
:1032400000381FF01FC00000000000000000000058
:10325000000000000000000000000000000000006E
:103260000000000001F807F80E001C0018003800EC
:1032700031C03FF83E3C301C300C300C380C380C60
:103280001C1C1FF807E00000000000000000000008
:10329000000000000000000000000000000000002E
:1032A000000000003FFC3FFC001C0018003800300C
:1032B0000070006000E000C001C0018003800700D2
:1032C00007000E000E0000000000000000000000DB
:1032D00000000000000000000000000000000000EE
:1032E000000000000FF01E78381C381C381C3C18F9
:1032F0001E780FE007E01E783C3C381C300C300C88
:10330000381C1FF80FF00000000000000000000053
:1033100000000000000000000000000000000000AD
:10332000000000000FE01E783838301C701C700C54
:10333000300C381C3EFC0FEC001C001C0018003840
:1033400000F01FE01F00000000000000000000006F
:10335000000000000000000000000000000000006D
:1033600000000000000000000000000003C003C0D7
:1033700003C0018000000000000000000000018088
:1033800003C003C003C000000000000000000000F4
:10339000000000000000000000000000000000002D
:1033A00000000000000000000000000003C003C097
:1033B00003C001800000000000000000000003C006
:1033C00003C003C001C001C001C007800F0000009E
:1033D00000000000000000000000000000000000ED
:1033E000000000000000000000100038007001E044
:1033F00003C007000E003C001C000E00078001C047
:1034000000E0007800100000000000000000000054
:1034100000000000000000000000000000000000AC
:10342000000000000000000000000000000000009C
:1034300000003FFC0000000000003FFC3FFC0000DB
:10344000000000000000000000000000000000007C
:10345000000000000000000000000000000000006C
:10346000000000000000000008001C000E00070023
:1034700003C000E00070003C0038007001E00380F1
:1034800007001E000800000000000000000000000F
:10349000000000000000000000000000000000002C
:1034A0000E000FC003E0007000380038003800380C
:1034B000007803F003C003000300030000000000D5
:1034C0000700078007000000000000000000000067
:1034D00000000000000000000000000000000000EC
:1034E00001E007F80E1C1C0E18063006300361F3CD
:1034F00063F36633E673CE63CC63CC66CC66CCE60E
:10350000CFFCC73C60006000600030003C301FF022
:1035100000000000000000000000000000000000AB
:103520000000000003C003C007E006E006600E7064
:103530000C700C301C381838381C3FFC3FFC700EE7
:10354000700E6006E00700000000000000000000B0
:10355000000000000000000000000000000000006B
:10356000000000003FF03FF83838381C381C38188D
:1035700038383FF03FF0383C381C380C380C381CD9
:10358000383C3FF83FE00000000000000000000071
:10359000000000000000000000000000000000002B
:1035A0000000000007FC0FFC1E003800380030004F
:1035B00070007000700070007000300038003C0037
:1035C0001E040FFC03FC00000000000000000000CF
:1035D00000000000000000000000000000000000EB
:1035E000000000003FE03FF03038301C300C300E5F
:1035F000300E300E300E300E300E300C301C301CC1
:1036000030783FF03F800000000000000000000024
:1036100000000000000000000000000000000000AA
:10362000000000001FF81FF818001800180018000C
:1036300018001FF81FF818001800180018001800CC
:1036400018001FF81FF80000000000000000000034
:10365000000000000000000000000000000000006A
:10366000000000001FF81FF81800180018001800CC
:1036700018001FF81FF8180018001800180018008C
:1036800018001800180000000000000000000000F2
:10369000000000000000000000000000000000002A
:1036A0000000000007FC0FFC1C0038003000700018
:1036B000700070FC70FC700C700C700C300C380CCE
:1036C0001C0C0FFC07FC00000000000000000000C4
:1036D00000000000000000000000000000000000EA
:1036E00000000000300C300C300C300C300C300C72
:1036F000300C3FFC3FFC300C300C300C300C300CEC
:10370000300C300C300C0000000000000000000005
:1037100000000000000000000000000000000000A9
:10372000000000003FFC3FFC01800180018001801F
:103730000180018001800180018001800180018081
:1037400001803FFC3FFC0000000000000000000082
:103750000000000000000000000000000000000069
:10376000000000001FF01FF000300030003000307B
:1037700000300030003000300030003000300030C9
:1037800010701FE01FC000000000000000000000DB
:103790000000000000000000000000000000000029
:1037A00000000000381C3838387038E038C03980E4
:1037B0003B003F003F003B003B8039C038E03870A1
:1037C0003838383C381C00000000000000000000C1
:1037D00000000000000000000000000000000000E9
:1037E000000000001C001C001C001C001C001C0031
:1037F0001C001C001C001C001C001C001C001C00E9
:103800001C001FFC1FFC0000000000000000000066
:1038100000000000000000000000000000000000A8
:1038200000000000381C381C6C3E6C3E6C6E666EEE
:10383000666E67CE63CE638661866006600660064C
:103840006006600660060000000000000000000046
:103850000000000000000000000000000000000068
:1038600000000000380C3C0C3C0C3E0C360C370CB5
:10387000330C338C318C31CC30CC30EC306C307C30
:10388000303C303C301C0000000000000000000014
:103890000000000000000000000000000000000028
:1038A000000000000FF01FF8381C381C700E700E5E
:1038B000700E600660066006700E700E700C381C8C
:1038C0003C381FF80FE0000000000000000000007E
:1038D00000000000000000000000000000000000E8
:1038E000000000003FE03FF8383C381C380C380C32
:1038F000380C381C38783FF03FC0380038003800AA
:10390000380038003800000000000000000000000F
:1039100000000000000000000000000000000000A7
:10392000000000000FF01FF8381C381C700E700EDD
:10393000700E600660066006700E700E700C381C0B
:103940003C381FF80FE00180018001E200FF003CDD
:103950000000000000000000000000000000000067
:10396000000000003FE03FF83838381838183818A1
:1039700038383FF03FC039E0386038703838383870
:10398000381C381C380E0000000000000000000049
:103990000000000000000000000000000000000027
:1039A000000000000FF81FF8380038003000380021
:1039B0001E000F8007F000F8003C001C001C001CDB
:1039C000003C3FF83FE00000000000000000000065
:1039D00000000000000000000000000000000000E7
:1039E000000000007FFE7FFE0180018001800180D9
:1039F00001800180018001800180018001800180BF
:103A00000180018001800000000000000000000033
:103A100000000000000000000000000000000000A6
:103A200000000000300C300C300C300C300C300C2E
:103A3000300C300C300C300C300C300C300C301C96
:103A4000381C1FF80FE0000000000000000000001C
:103A50000000000000000000000000000000000066
:103A600000000000E0077006700E700E380C381C65
:103A700038181C181C380C300E700E70066007E0E9
:103A800007E003C003C000000000000000000000C9
:103A90000000000000000000000000000000000026
:103AA00000000000600660066006600660066006B2
:103AB000618663C673C673CE76EE366C366C3C7C1C
:103AC0003C3C3C3C381C00000000000000000000B2
:103AD00000000000000000000000000000000000E6
:103AE00000000000700E381C1C381C380E7006E0F8
:103AF00007E003C003C003C007E00E701C301C3891
:103B0000381C701E700E0000000000000000000055
:103B100000000000000000000000000000000000A5
:103B200000000000E006700E380C381C1C381C30F9
:103B30000E70066007E003C00180018001800180F3
:103B400001800180018000000000000000000000F2
:103B50000000000000000000000000000000000065
:103B6000000000003FFC3FFC001C003800700060BB
:103B700000E001C00380038007000E000C001C0061
:103B800038003FFC3FFC0000000000000000000087
:103B90000000000000000000000000000000000025
:103BA00007F007F006000600060006000600060003
:103BB00006000600060006000600060006000600D5
:103BC000060006000600060006000600060007F0D4
:103BD00000000000000000000000000000000000E5
:103BE000380018001C000C000C000600060007003E
:103BF00003000380018001C000C000E0006000609D
:103C00000030003000380018001C000C00000000DC
:103C100000000000000000000000000000000000A4
:103C20000FE00FE000600060006000600060006076
:103C30000060006000600060006000600060006084
:103C400000600060006000600060006000600FE0E5
:103C50000000000000000000000000000000000064
:103C600000000000038003C006E006600C301C3832
:103C70001818301C000000000000000000000000C8
:103C80000000000000000000000000000000000034
:103C90000000000000000000000000000000000024
:103CA0000000000000000000000000000000000014
:103CB0000000000000000000000000000000000004
:103CC000000000000000000000000000FFFFFFFFF8
:103CD00000000000000000000000000000000000E4
:103CE0001C000E0007000180000000000000000022
:103CF00000000000000000000000000000000000C4
:103D000000000000000000000000000000000000B3
:103D100000000000000000000000000000000000A3
:103D20000000000000000000000000001FF01EF86E
:103D30000018001C001C07FC1FFC3C1C381C301C1D
:103D4000387C3FFC1FDC0000000000000000000089
:103D50000000000000000000000000000000000063
:103D60003800380038003800380038003BF03FF8A1
:103D70003E1C380C380C380C380C380C380C381CFD
:103D800038383FF01FE00000000000000000000095
:103D90000000000000000000000000000000000023
:103DA00000000000000000000000000003F80FF811
:103DB0001E001C00380038003800380038001C0095
:103DC0001E000FF803F800000000000000000000D3
:103DD00000000000000000000000000000000000E3
:103DE000001C001C001C001C001C001C07FC1FFC0D
:103DF000181C381C301C301C301C301C301C383C4B
:103E0000387C1FDC0F9C0000000000000000000058
:103E100000000000000000000000000000000000A2
:103E200000000000000000000000000007F01E7805
:103E3000181C381C300C3FFC3FFC300030003800B0
:103E40001C001FFC07FC0000000000000000000038
:103E50000000000000000000000000000000000062
:103E6000007E01FE03C00380030003000300030083
:103E70007FFC7FFC0300030003000300030003003A
:103E80000300030003000000000000000000000029
:103E90000000000000000000000000000000000022
:103EA0000000000000000000000000000FFE1C7E6B
:103EB00018383818381838381C781FF03B80300014
:103EC00038001FF81FFC300E700E700C3C3C1FF8C1
:103ED0000180000000000000000000000000000061
:103EE0003800380038003800380038003BF03FF820
:103EF0003C18381C381C381C381C381C381C381C22
:103F0000381C381C381C00000000000000000000B5
:103F100000000000000000000000000000000000A1
:103F2000018003C003C00180000000001FC01FC04B
:103F300001C001C001C001C001C001C001C001C079
:103F400001C03FFC3FFC000000000000000000003A
:103F50000000000000000000000000000000000061
:103F60000060007000700070000000003FF03FF043
:103F700000700070007000700070007000700070C1
:103F800000700070007000700070006039E03FC089
:103F9000060000000000000000000000000000001B
:103FA000180018001800180018001800181C1838FD
:103FB000187019E01BC01F001B8019C019E018F011
:103FC0001878183C181E00000000000000000000D7
:103FD00000000000000000000000000000000000E1
:103FE0001FC01FC001C001C001C001C001C001C08D
:103FF00001C001C001C001C001C001C001C001C0B9
:1040000001C03FFC3FFC0000000000000000000079
:1040100000000000000000000000000000000000A0
:104020000000000000000000000000006F3C6FEC8A
:1040300079CE71CE718E718E718E718E718E718E00
:10404000718E718E718E0000000000000000000073
:104050000000000000000000000000000000000060
:1040600000000000000000000000000033F03FF8F6
:104070003C18381C381C381C381C381C381C381CA0
:10408000381C381C381C0000000000000000000034
:104090000000000000000000000000000000000020
:1040A0000000000000000000000000000FF01FF8FA
:1040B000381C300C300C700E700E700E300C381C2A
:1040C00038381FF80FE0000000000000000000007A
:1040D00000000000000000000000000000000000E0
:1040E0000000000000000000000000003BF03FF86E
:1040F0003E1C380C380C380C380C380C380C381C7A
:1041000038383FF03FE038003800380038003800D9
:10411000000000000000000000000000000000009F
:1041200000000000000000000000000007FC1F7CF1
:10413000181C381C301C301C301C301C301C383C07
:10414000387C1FDC0F9C001C001C001C001C001C89
:10415000000000000000000000000000000000005F
:1041600000000000000000000000000019F81BFC27
:104170001E0C1C0C180E180018001800180018004F
:1041800018001800180000000000000000000000E7
:10419000000000000000000000000000000000001F
:1041A0000000000000000000000000000FF81E38B2
:1041B000180018001C000F8007F000F80038001CE1
:1041C00000181FF81FE000000000000000000000C1
:1041D00000000000000000000000000000000000DF
:1041E0000000000006000600060006007FFC7FFCC1
:1041F000060006000600060006000600060006008F
:10420000070003FC01FC00000000000000000000AB
:10421000000000000000000000000000000000009E
:10422000000000000000000000000000381C381CE6
:10423000381C381C381C381C381C381C381C383CBE
:10424000187C1FFC0F9C0000000000000000000014
:10425000000000000000000000000000000000005E
:10426000000000000000000000000000700E300C94
:10427000381C18181C381C300C300E70066007E013
:1042800007C003C003C000000000000000000000E1
:10429000000000000000000000000000000000001E
:1042A0000000000000000000000000006006600642
:1042B00060066186718E73CE33CC32EC366C366C10
:1042C0003C7C3C3C1C38000000000000000000006A
:1042D00000000000000000000000000000000000DE
:1042E000000000000000000000000000381C1C1846
:1042F0001C380E7007E003C003C003C007E00E7057
:104300001C38381C781E000000000000000000006F
:10431000000000000000000000000000000000009D
:10432000000000000000000000000000700E300CD3
:10433000381C18181C381C380E300E70066007E048
:1043400003E003C003C00380038007007E007C00FD
:10435000000000000000000000000000000000005D
:104360000000000000000000000000001FF81FF81F
:104370000038007000E001C00380030007000E0059
:104380001C003FFC3FFC000000000000000000009B
:10439000000000000000000000000000000000001D
:1043A00000F801F80180038003800380038003800C
:1043B000038003003F003C000F00030003800380E4
:1043C00003800380038003800380018001E000F804
:1043D000000000000000000000000180018001805A
:1043E00001800180018001800180018001800180C5
:1043F00001800180018001800180018001800180B5
:1044000001800180018001800180018001800180A4
:10441000000000000000000000000000000000009C
:104420001E001F80018001C001C001C001C001C089
:1044300001C000C000FC003C00E000C001C001C0A1
:1044400001C001C001C001C001C0018007801F0080
:10445000000000000000000000000000000000005C
:10446000000000000000000000000000000000004C
:1044700000001E003F06738661FC60FC0000000027
:10448000000000000000000000000000000000002C
:10449000000000000000000000000000000000001C
:1044A000000000000000000000000000000000000C
:1044B00000000000000000000000000000000000FC
:1044C00000000000000000000000000000000000EC
:1044D00000000000000000000000000000000000DC
:1044E00000000000000000000000000000000000CC
:1044F00000000000000000000000000000000000BC
:1045000000000000000000000000000000000000AB
:10451000000000000000000000000000000000009B
:10452000000000000000000000000000000000008B
:10453000000000000000000000000000000000007B
:104540000000003C00003C00003C00003C00003C3F
:1045500000003C00003C00003C00003C00003C002F
:10456000003C00003C00003C00003C00003C00001F
:104570003C00003C00003C00003C00003C0000000F
:1045800000000000000000001C00003E00007E0053
:10459000007E00003C000000000000000000000061
:1045A000000000000000000000000000000000000B
:1045B00000000000000000000000000000000000FB
:1045C00000000000000000000000000000000000EB
:1045D000000003C3E003C3E003C3C003C3C003C3BD
:1045E000C003C3C003C3C003C3C003C3C0000000F3
:1045F00000000000000000000000000000000000BB
:1046000000000000000000000000000000000000AA
:10461000000000000000000000000000000000009A
:10462000000000000000000000000000000000008A
:10463000000000000000000000000000000000007A
:10464000000000000000000000000000000000006A
:10465000000000000000000000000000000000005A
:10466000000000000000000001E0E001E0E001C007
:10467000E001C0E001C0E001C0E03FFFFE3FFFFEFF
:104680003FFFFE03C1C003C1C00381C00381C0035B
:1046900081C00381C00381C07FFFFC7FFFFC7FFFDF
:1046A000FC078380070380070380070380070380DC
:1046B00007038007078000000000000000000000E2
:1046C00000000000000000000000000000000000EA
:1046D00000000000000000000000000000000000DA
:1046E00000000000000000000000000000070000C3
:1046F0000700000E00000E0000FFE003FFF007FFC0
:10470000F00F8E101E0E001E1E001E1C001E1C0030
:104710001E1C001F9C000FFC0007FC0001FF000096
:104720007FC0003FF0003BF80038F80038780038D0
:104730003C00703C0070780070F83873F03FFFE088
:104740003FFFC00FFE0000E00000E00000E00000BE
:10475000E00000E000000000000000000000000099
:104760000000000000000000000000000000000049
:104770000000000000000000000000000000000336
:1047800000001FC00E3FE01E78F03C707038707063
:10479000707070F07071E07071C078F3C03FE780A6
:1047A0001FC700000F00001E00001C0000380000A2
:1047B000780000F0E000E3FC01E7FC03CF1E038E6D
:1047C0000E078E0E0F0E0E0E0E0E1C0E0E3C079ECA
:1047D0007807FC7003F800000000000000000000F3
:1047E00000000000000000000000000000000000C9
:1047F00000000000000000000000000000000000B9
:1048000000000000000000000000000000000000A8
:10481000000000780003FF0007FF800787C00F0338
:10482000C00F03C00F03C00F03C00F03C00F0780EA
:10483000078F0007FE0003FC0003F0000FF83C1F89
:10484000783C1E7C3C3C3E3C3C1F3C780FB87807D3
:10485000F87803F87801F03C01F03E03F81FFFFC04
:104860000FFF3E03FC1F00000000000000000000DE
:104870000000000000000000000000000000000038
:104880000000000000000000000000000000000028
:104890000000000000000000000000000000000018
:1048A0000000003E00003C00003C00003C00003CDA
:1048B00000003C00003C00003C00003C0000000008
:1048C00000000000000000000000000000000000E8
:1048D00000000000000000000000000000000000D8
:1048E00000000000000000000000000000000000C8
:1048F00000000000000000000000000000000000B8
:1049000000000000000000000000000000000000A7
:104910000000000000000000000000000000000097
:104920000000000000000000000000000000800007
:1049300001C00003C0000780000F00001F00001E20
:1049400000003C0000780000780000F00000F0005B
:1049500000E00001E00001E00001E00001C0000112
:10496000C00003C00003C00003C00001C00001E09C
:104970000001E00001E00001E00000F00000F000B4
:1049800000F800007800003C00003C00001E000021
:104990000F00000F800007C00003C000018000006E
:1049A0000000000000000000000000000000000007
:1049B00000000000000000000000000000000003F4
:1049C000800003C00001E00000F000007800007CDF
:1049D00000003C00001E00001E00000F00000F0041
:1049E0000007800007800007800003800003C000EC
:1049F00003C00003C00003C00003C00003C00003E5
:104A000080000780000780000780000700000F007B
:104A1000000F00001E00001E00003C000078000097
:104A2000F80001F00003E00003C000018000000076
:104A30000000000000000000000000000000000076
:104A40000000000000000000000000000000000066
:104A50000000001C00001C000018000418300F1893
:104A6000F00F99F003FFC0007F00007E0001FF807F
:104A700007DBE00F18F00E18700018000018000097
:104A80001C00001C000000000000000000000000EE
:104A90000000000000000000000000000000000016
:104AA0000000000000000000000000000000000006
:104AB00000000000000000000000000000000000F6
:104AC00000000000000000000000000000000000E6
:104AD00000000000000000000000000000000000D6
:104AE00000000000000000000000000000000000C6
:104AF00000000000000000003C00003C00003C0002
:104B0000003C00003C00003C00003C00003C000079
:104B10003C003FFFFC3FFFFC3FFFFC003C00003C33
:104B200000003C00003C00003C00003C00003C0059
:104B3000003C000000000000000000000000000039
:104B40000000000000000000000000000000000065
:104B50000000000000000000000000000000000055
:104B60000000000000000000000000000000000045
:104B70000000000000000000000000000000000035
:104B80000000000000000000000000000000000025
:104B90000000000000000000000000000000000015
:104BA0000000000000000000000000000000000005
:104BB00000000000007C00007E00007E00007E00FF
:104BC000003E00001E00001E00001E00003C000011
:104BD0007C0007F80007E00007000000000000006C
:104BE00000000000000000000000000000000000C5
:104BF00000000000000000000000000000000000B5
:104C000000000000000000000000000000000000A4
:104C10000000000000000000000000000000000094
:104C20000000000000000000000000000000000381
:104C3000FFE003FFE003FFE003FFE00000000000EF
:104C40000000000000000000000000000000000064
:104C50000000000000000000000000000000000054
:104C60000000000000000000000000000000000044
:104C70000000000000000000000000000000000034
:104C80000000000000000000000000000000000024
:104C90000000000000000000000000000000000014
:104CA0000000000000000000000000000000000004
:104CB00000000000000000000000000000000000F4
:104CC00000000000000000000000000000000000E4
:104CD00000000000003C00007E0000FE0000FE001E
:104CE000007E00003C00000000000000000000000A
:104CF00000000000000000000000000000000000B4
:104D000000000000000000000000000000000000A3
:104D10000000000000000000000000000000000093
:104D200000000000700000F00000F00001E0000151
:104D3000E00001C00003C0000380000780000700FE
:104D4000000F00000E00001E00001E00001C0000EE
:104D50003C0000380000780000700000F00000E027
:104D60000001E00001C00003C00003C00003800098
:104D70000780000700000F00000E00001E00001C4E
:104D80000000000000000000000000000000000023
:104D90000000000000000000000000000000000013
:104DA0000000000000000000000000000000000003
:104DB000000000000000180000FF8003FFC007E7AC
:104DC000E00F81F00F00F81E00781E00781C007CB8
:104DD0003C00FC3C03FC3C07FC3C1FBC3C3E1C3C38
:104DE000FC1C3DF03C3FE03C3FC03C3F003C3E00F3
:104DF0003C1E00781E00780F00F00F81F007FFE0E6
:104E000003FFC000FF0000000000000000000000E1
:104E10000000000000000000000000000000000092
:104E20000000000000000000000000000000000082
:104E30000000000000000000000000000000000072
:104E40000000000000000000003E0000FE0003FE25
:104E5000000FFE001F9E000E1E00081E00001E0018
:104E6000001E00001E00001E00001E00001E0000AC
:104E70001E00001E00001E00001E00001E00001E7E
:104E800000001E00001E00001E00001E000FFFF8A4
:104E90000FFFF80FFFF80000000000000000000006
:104EA0000000000000000000000000000000000002
:104EB00000000000000000000000000000000000F2
:104EC00000000000000000000000000000000000E2
:104ED000000000000000180001FF0007FFC00FFFE6
:104EE000E00F03E00401F00000F00000F00000F02B
:104EF0000000F00000F00001F00001E00003C0003D
:104F000007C0000F80001F00003E00007C0000F87A
:104F10000001F00003C0000780000F00001FFFFC2D
:104F20001FFFFC1FFFFC000000000000000000004D
:104F30000000000000000000000000000000000071
:104F40000000000000000000000000000000000061
:104F50000000000000000000000000000000000051
:104F600000000000000030000FFF000FFFC00FFF27
:104F7000E00001E00001F00000F00000F00000F0AF
:104F80000001E00001E00007C001FF0001FF800117
:104F9000FFE00003F00000F000007800007800005F
:104FA000780000780000780000F00003F00FFFE0C8
:104FB0000FFF800FFE000000000000000000000056
:104FC00000000000000000000000000000000000E1
:104FD00000000000000000000000000000000000D1
:104FE00000000000000000000000000000000000C1
:104FF0000000000000000000000FC0000FC0001FF4
:10500000C0003FC0003FC0007BC000F3C000E3C051
:1050100001E3C003C3C00383C00783C00F03C01EE6
:1050200003C01E03C03C03C07803C07FFFFE7FFFA8
:10503000FE7FFFFE0003C00003C00003C00003C0EA
:105040000003C00003C000000000000000000000DA
:105050000000000000000000000000000000000050
:105060000000000000000000000000000000000040
:105070000000000000000000000000000000000030
:1050800000000000000000000FFFE00FFFE00FFF36
:10509000E00F00000F00000F00000F00000F0000E5
:1050A0000F00000F00000FFC000FFF800FFFE0005B
:1050B00007F00001F00000F8000078000078000020
:1050C000780000780000F00001F00003E00FFFC05E
:1050D0000FFF800FFE000000000000000000000035
:1050E00000000000000000000000000000000000C0
:1050F00000000000000000000000000000000000B0
:10510000000000000000000000000000000000009F
:105110000000000000000000000FF0007FF001FF21
:10512000F003F00007C0000780000F00000E000031
:105130001E00001E00001E7F801FFFE01FFFF01FEB
:1051400080F81E00781E003C1E003C1E003C1E0025
:105150003C1E003C1E003C0F00780F80F807FFF05B
:1051600003FFE000FF8000000000000000000000DE
:10517000000000000000000000000000000000002F
:10518000000000000000000000000000000000001F
:10519000000000000000000000000000000000000F
:1051A00000000000000000001FFFFC1FFFFC1FFFAD
:1051B000FC0000780000780000F00000F00001E042
:1051C0000001E00003C00003C0000780000780006A
:1051D0000F00000F00001E00001E00003C00007CBD
:1051E0000000780000F80000F00001F00001E0008D
:1051F00003E00003C0000000000000000000000009
:10520000000000000000000000000000000000009E
:10521000000000000000000000000000000000008E
:10522000000000000000000000000000000000007E
:10523000000000000000180001FFC007FFE00FC3DE
:10524000F00F00F81E00781E00781E00781E00780F
:105250000F00F00FC1F007F7E003FF8000FF00012F
:10526000FFC007E7E00F81F01F00F81E00781E0066
:105270007C1E003C1E003C1E00781F00F80FFFF053
:1052800007FFE001FF8000000000000000000000B8
:10529000000000000000000000000000000000000E
:1052A00000000000000000000000000000000000FE
:1052B00000000000000000000000000000000000EE
:1052C000000000000000180001FF8007FFC00FC7AA
:1052D000E00F01F01E00F01E00783C00783C0078E2
:1052E0003C00783C00383E00381E00781F01F80F63
:1052F000FFF807FFB801FE380000780000780000D2
:10530000700000F00001E00003E0001FC00FFF008C
:105310000FFE000FE0000000000000000000000091
:10532000000000000000000000000000000000007D
:10533000000000000000000000000000000000006D
:10534000000000000000000000000000000000005D
:10535000000000000000000000000000000000004D
:1053600000000000000000000000003C00007E0083
:10537000007E00007E00003E0000180000000000DB
:10538000000000000000000000000000000000001D
:1053900000000000001800007E00007E00007E007B
:1053A000007E00003C000000000000000000000043
:1053B00000000000000000000000000000000000ED
:1053C00000000000000000000000000000000000DD
:1053D00000000000000000000000000000000000CD
:1053E00000000000000000000000000000000000BD
:1053F00000000000000000000000003C00007E00F3
:10540000007E00007E00003E00001800000000004A
:10541000000000000000000000000000000000008C
:1054200000000000003C00007E00007F00007F00C4
:10543000003F00001F00001E00001E00003E000094
:105440007C0007F80007E000078000000000000073
:10545000000000000000000000000000000000004C
:10546000000000000000000000000000000000003C
:10547000000000000000000000000000000000002C
:10548000000000000000400001E00003E00007C051
:10549000001F80003E00007C0000F80003E00007D1
:1054A000C0000F80001F800007C00003E00001F073
:1054B00000007C00003E00001F00000FC00003E061
:1054C0000001E00000C0000000000000000000003B
:1054D00000000000000000000000000000000000CC
:1054E00000000000000000000000000000000000BC
:1054F00000000000000000000000000000000000AC
:10550000000000000000000000000000000000009B
:10551000000000000000000000000000000000008B
:105520000000000000001FFFF81FFFF81FFFF80039
:1055300000000000000000000000001FFFF81FFF37
:10554000F81FFFF80000000000000000000000004D
:10555000000000000000000000000000000000004B
:10556000000000000000000000000000000000003B
:10557000000000000000000000000000000000002B
:10558000000000000000000000000000000000001B
:10559000000000000000000000000000000000000B
:1055A0000000000003000007800007C00003E000C7
:1055B00000F800007C00003E00000F800007C000E3
:1055C00003E00001F00000F80003E00007C0000F56
:1055D00080001F00007C0000F80001F00007C00000
:1055E0000780000300000000000000000000000031
:1055F00000000000000000000000000000000000AB
:10560000000000000000000000000000000000009A
:10561000000000000000000000000000000000008A
:10562000000001F80001FE0001FF80001FC000071C
:10563000C00001E00001E00000F00000F00000F018
:105640000000F00001E00007E0007FC0007F0000E4
:10565000700000700000700000700000700000001A
:105660000000000000000000700000F80000F800DA
:1056700000F80000F800000000000000000000003A
:10568000000000000000000000000000000000001A
:10569000000000000000000000000000000000000A
:1056A00000000000000000000000000000000000FA
:1056B0000600003FE000FFF001E07803C03C070077
:1056C0001C0F001E0E000E1C000E1C000E380007E2
:1056D000383FC7387FC770F3C770E3C771C3C7715E
:1056E000C387F1C387E3C387E3C387E3878EE38779
:1056F0008EE3878EE3C78EE3CF9CE1FFFC71F9F860
:105700007060E07000007000007800003800003C1D
:1057100000001E00000F81C007FFC001FF00000055
:105720000000000000000000000000000000000079
:105730000000000000000000000000000000000069
:105740000000000000000000007E00007E00007FDE
:105750000000FF0000FF0000E78001E78001E38018
:1057600003C3C003C3C003C1E00781E00781E007B2
:1057700000F00F00F00F00F00E00781FFFF81FFF81
:10578000F81FFFFC3C003C3C003C78001E78001EEB
:1057900078001EF0000F0000000000000000000074
:1057A00000000000000000000000000000000000F9
:1057B00000000000000000000000000000000000E9
:1057C00000000000000000000000000000000000D9
:1057D00000000000000000001FFF801FFFE01FFF0F
:1057E000F01E01F01E00F81E00781E00781E0078E2
:1057F0001E00F01E00F01E03E01FFFC01FFFC01FB1
:10580000FFF01E01F81E00F81E007C1E003C1E006A
:105810003C1E003C1E00781E00781E01F01FFFE0B9
:105820001FFFC01FFE00000000000000000000007D
:105830000000000000000000000000000000000068
:105840000000000000000000000000000000000058
:105850000000000000000000000000000000000048
:105860000000000000000000007FF801FFF803FFC7
:10587000F807E0080F80000F00001F00001E000066
:105880001E00003C00003C00003C00003C00003CCE
:1058900000003C00003C00003C00003E00001E00F8
:1058A000001F00001F00000F800007E01803FFF832
:1058B00001FFF8007FF00000000000000000000081
:1058C00000000000000000000000000000000000D8
:1058D00000000000000000000000000000000000C8
:1058E00000000000000000000000000000000000B8
:1058F00000000000000000003FFE003FFF803FFF6F
:10590000E03C03F03C00F83C00783C007C3C003C70
:105910003C003C3C003C3C003E3C001E3C001E3C2D
:10592000001E3C001E3C003C3C003C3C003C3C005B
:105930003C3C00783C00F83C01F03C07E03FFFC0F5
:105940003FFF003FF80000000000000000000000E2
:105950000000000000000000000000000000000047
:105960000000000000000000000000000000000037
:105970000000000000000000000000000000000027
:1059800000000000000000000FFFF00FFFF00FFF0D
:10599000F00F00000F00000F00000F00000F0000CC
:1059A0000F00000F00000F00000FFFF00FFFF00FBF
:1059B000FFF00F00000F00000F00000F00000F00AD
:1059C000000F00000F00000F00000F00000FFFF09D
:1059D0000FFFF00FFFF000000000000000000000CB
:1059E00000000000000000000000000000000000B7
:1059F00000000000000000000000000000000000A7
:105A00000000000000000000000000000000000096
:105A100000000000000000000FFFF00FFFF00FFF7C
:105A2000F00F00000F00000F00000F00000F00003B
:105A30000F00000F00000F00000FFFF00FFFF00F2E
:105A4000FFF00F00000F00000F00000F00000F001C
:105A5000000F00000F00000F00000F00000F0000FB
:105A60000F00000F00000000000000000000000018
:105A70000000000000000000000000000000000026
:105A80000000000000000000000000000000000016
:105A90000000000000000000000000000000000006
:105AA0000000000000000300007FF801FFFC03FF7E
:105AB000FC07E00C0F80001F00001E00003E0000ED
:105AC0003C00003C00003C0000780FFC780FFC78A4
:105AD0000FFC78003C3C003C3C003C3C003C3C0063
