:020000040800F2
:10000000A81100207D020008E50A00085709000831
:10001000E10A0008B5070008F142000800000000EE
:10002000000000000000000000000000D10C0008EB
:10003000B907000800000000850B0008C10D00088A
:10004000970200089702000897020008970200082C
:10005000970200089702000897020008970200081C
:10006000970200089702000897020008970200080C
:1000700097020008970200089702000897020008FC
:1000800097020008970200089702000897020008EC
:1000900097020008970200089702000897020008DC
:1000A00097020008970200089702000897020008CC
:1000B00097020008970200089702000897020008BC
:1000C00097020008970200089702000897020008AC
:1000D000970200082D0E00089702000897020008FA
:1000E000970200089702000897020008970200088C
:1000F000970200089702000897020008970200087C
:10010000970200089702000897020008970200086B
:10011000970200089702000897020008970200085B
:10012000970200089702000897020008970200084B
:10013000970200089702000897020008970200083B
:10014000970200089702000897020008750B000844
:10015000970200089702000897020008970200081B
:10016000970200089702000897020008970200080B
:1001700097020008970200089702000897020008FB
:10018000970200089702000800F002F800F067F8F4
:100190000AA090E8000C82448344AAF10107DA45E2
:1001A00001D100F05CF8AFF2090EBAE80F0013F0CD
:1001B000010F18BFFB1A43F001031847D443000096
:1001C000F44300000A444FF0000C10F8013B13F018
:1001D000070408BF10F8014B1D1108BF10F8015BA0
:1001E000641E05D010F8016B641E01F8016BF9D193
:1001F00013F0080F1EBF10F8014BAD1C0C1B09D1EA
:100200006D1E58BF01F801CBFAD505E014F8016B5B
:1002100001F8016B6D1EF9D59142D6D370470000ED
:100220000023002400250026103A28BF78C1FBD8FF
:10023000520728BF30C148BF0B607047642900F0E7
:100240009B80782900F0FF80732900F067820020EE
:1002500070471FB504F084F81FBD10B510BD00F045
:1002600077FA1146FFF7F5FF04F060F800F095FA11
:1002700003B4FFF7F2FF03BC04F043F809488047DA
:1002800009480047FEE7FEE7FEE7FEE7FEE7FEE778
:10029000FEE7FEE7FEE7FEE704480549054A064B90
:1002A00070470000C50D000889010008A80B002058
:1002B000A8110020A80D0020A80D00207047000004
:1002C0000FB4044910B503AA029800F02BFA10BC31
:1002D0005DF814FB1000002070B5044685690068C5
:1002E000C10601D5302600E02026C00707D070BD2A
:1002F000D4E9012130469047206A401C20626D1EDF
:10030000F6D570BD70B5044685690078C00707D181
:1003100070BDD4E9012120209047206A401C206252
:100320006D1EF6D570BD70B50C460546012A05D088
:100330002878800600D5EA69002302E0012305E061
:100340005B1C934202D2E05C0028F9D1A869E61850
:10035000C01AA861286A184428622846FFF7BCFF23
:1003600004E0D5E9012114F8010B9047B442F8D319
:100370002846FFF7C7FF70BD2DE9F041064600246F
:1003800010687529314616A510D0AFF300800028FB
:1003900002DA404213A507E031688A0701D512A5A9
:1003A00002E0490704D511A5012401E0AFF3008064
:1003B00000210A2206F1240709E0B0FBF2FCB0FBA1
:1003C000F2F302FB1C00303078541846491C002818
:1003D000F3D123462A463046BDE8F04100F01AB971
:1003E000000000002D0000002B0000002000000095
:1003F000F0B40D460188090502D5214C7C4402E089
:100400001F4C7C440E34002100F1240608E002F069
:100410000F071209E75D42EA03721B097754491C72
:1004200052EA0307F3D102780023120704D5702D96
:1004300006D009B1022311342246F0BC00F0EAB81C
:1004400001231034F8E770B504460D4621461068C4
:10045000AFF30080024629462046BDE870400023E5
:10046000C6E7D21D22F00703D3E90023C0E70368E3
:10047000126843F0200303600823C3610023B7E739
:10048000564100002DE9F05F894604464FF0000A0E
:10049000DFF874B1FB44C0F820A02046E16888472B
:1004A000002874D0252806D0D4E901219047206A7D
:1004B000401C2062F1E700265F462046E16888473D
:1004C0002028054607DB312D05D2781910F8200CBD
:1004D00008B10643F1E7B00701D526F00406C4F8D9
:1004E0001CA00027C4F818A02A2D09D0284603F024
:1004F00001FF38B304EB8708303DC8F8185019E005
:1005000059F8041B204604EB87029161E168884793
:10051000012F054618D1E069002820DA26F02006D0
:100520001DE0D8F8180000EB800005EB40003038E3
:10053000C8F818002046E1688847054603F0DAFE4F
:100540000028EED1012F0AD02E2D08D12046E168D7
:1005500088477F1C0546022F46F02006C4DBA069B1
:10056000002803DA404246F00106A061F00701D0FE
:1005700026F010066C2D0BD0682D09D04C2D39D0EB
:100580006A2D35D0742D35D07A2D33D016E038E071
:10059000E1682F4620468847B842054609D16C2FAE
:1005A00026D04FF48060E168064320468847054620
:1005B00004E06C2F1AD04FF4807006430DB3A5F100
:1005C0004100192802D8203546F400664A462946DB
:1005D000204626604E46FFF731FE80B101280BD041
:1005E000F61D26F0070000F1080956E74020E4E771
:1005F0008020D8E70020D6E706F104094DE7284619
:1006000052E7206ABDE8F09FE6400000704770475F
:10061000704770472DE9F0470D46994692460446CB
:1006200000F124080168880604D5E06921F0100172
:10063000216000E00120A84201DD471B00E0002707
:10064000A1697A1902EB0900081AA0612078C00696
:1006500002D42046FFF740FE002608E0D4E901213D
:100660001AF806009047206A401C761C20624E450E
:10067000F4DB2078C0060AD52046FFF72DFE06E001
:10068000D4E9012130209047206A401C2062381EA6
:10069000A7F10107F4DC07E0D4E9012118F805000F
:1006A0009047206A401C2062281EA5F10105F3DC5A
:1006B0002046FFF727FE2078000602D50220BDE87D
:1006C000F0870120FBE7000001694A1C02610878FD
:1006D000704700B58FB0CDE9013100210591054982
:1006E0007944CDE9031011466846FFF7CBFE0FB001
:1006F00000BD0000E5FFFFFF10B5436913B1AFF384
:10070000008001E0FFF70FFE012010BD127800F11C
:1007100024010A7000224A700122EDE711684FF0AF
:10072000FF32E9E7074B70B50D467B44FFF7D1FF79
:100730000446284600F008F810B14FF0FF3070BDB5
:10074000204670BDDB3B0000007B00F0800070475E
:10075000754600F02BF8AE4605006946534620F07A
:100760000700854618B020B5FFF796FDBDE820408C
:100770004FF000064FF000074FF000084FF0000B5D
:1007800021F00701AC46ACE8C009ACE8C009ACE810
:10079000C009ACE8C0098D46704710B50446AFF3F8
:1007A00000802046BDE81040FFF762BD004870475A
:1007B000480B002000BFFEE77047F0B50A46002155
:1007C0000023002400BF3DE0012505FA01F3156870
:1007D00005EA03049C4234D105684F000326BE405D
:1007E000B543056015794E00B54006683543056090
:1007F0001579012D02D01579022D16D185684F008B
:100800000326BE40B543856055794E00B5408668E5
:1008100035438560456801268E40B543456045688F
:1008200096798E40B6B235434560C5684F000326C1
:10083000BE40B543C560D5794E00B540C668354366
:10084000C560491C1029BFD3F0BDF0B500230024BA
:100850004D07ED0E02FA05F3CE1000F1200555F814
:1008600026504E07F70E0F26BE40B543CF1000F1BD
:10087000200646F82750CE1000F1200555F82650E6
:1008800045EA0304CE1000F1200545F82640F0BDEE
:1008900001464869806880B2704708B50146D1F8C2
:1008A000CC00006800900098C0F3414008BD0246AB
:1008B00002F29F30405C704770B504460E4600253A
:1008C0000021C4F8101300BF0BE0002104F54670AE
:1008D00040F825103C3040F825103C304155681C4C
:1008E000C5B20F2DF1DB0821A4F8B613314620461E
:1008F00002F034FD204602F027F9204601F0F4FF13
:100900000121204602F092FD204602F07AF82046AE
:1009100002F073F9002070BD0146D1F81003704752
:100920000146D1F81403704710B50446204602F082
:10093000F4FC002010BD70B504460D46002104F201
:100940009F304155113000EB45104161294620464A
:1009500002F092FB70BD00BFFEE700002DE9F04100
:100960000546002047490870474908704749087004
:10097000474908702878022802D02878202803D117
:1009800001204449087002E00020424908704FF0FD
:10099000000802240CE0285D012805D0285D02280B
:1009A00002D0285D032801D14FF00108601CC4B2B9
:1009B000082CF0DBB8F1010F01D1BDE8F081002077
:1009C000304908703049087002242AE0285D30B3AD
:1009D000285D31492B4A127888542A480078401CF7
:1009E00028490870002607E0285D2C49895D884267
:1009F00000D105E0701CC6B2244800788642F3DBC3
:100A000000BF22480078864209D1285D24491E4A49
:100A1000127888541C480078401C1B490870601CE0
:100A2000C4B2082CD2DB18480078012817D11C4822
:100A300000781749087017480078012805D119482F
:100A40000978405C18490F5C05E0164810490978A0
:100A5000405C16490F5C384603F012FC02E00020AF
:100A60000B4908700748007808490870002405E021
:100A70000948005D09490855601CC4B2062CF7DB23
:100A800000BF9AE780000020810000208200002043
:100A90007F0000206C0000206D0000207900002005
:100AA000730000206A430008D44400085244000840
:100AB00010B503F0DBFB10BD10B5044620780549E6
:100AC000C88060780880A0784880084603F0FCFB66
:100AD00010BD00005400002010B503F0E7FB10BD6E
:100AE00000BFFEE77047000070B5002100230F2211
:100AF000C4781CB3174C246804F4E064C4F5E064C3
:100B0000C4F30721C1F10404E3B20A4144789C40D4
:100B1000E1B28478144021430C07210E0E4C057875
:100B20006155047804F01F050124AC4005786D116F
:100B3000AD0005F1E025C5F8004109E0047804F0B6
:100B40001F050124AC40054D0678761145F8264076
:100B500070BD00000CED00E000E400E080E100E08A
:100B600002490143024A1160704700000000FA0583
:100B70000CED00E010B5024801F0C4F910BD000012
:100B80006C0200207047000029B1064A1268024337
:100B9000044B1A6004E0034A12688243014B1A6056
:100BA000704700003038024029B1064A12680243FB
:100BB000044B1A6004E0034A12688243014B1A6036
:100BC000704700003438024029B1064A12680243D7
:100BD000044B1A6004E0034A12688243014B1A6016
:100BE0007047000044380240F0B500210022002484
:100BF000022500260223324F3F6807F00C0121B185
:100C0000042905D0082937D105E02E4F076036E0CA
:100C10002D4F076033E02A4F3F1F3F68C7F38056D0
:100C2000274F3F1F3F6807F03F036EB1264FB7FBCA
:100C3000F3F7DFF88CC0ACF1040CDCF800C0CCF3A7
:100C4000881C07FB0CF40CE01E4FB7FBF3F7DFF832
:100C500070C0ACF1040CDCF800C0CCF3881C07FBBE
:100C60000CF4174F3F1F3F68C7F301477F1C7D00FF
:100C7000B4FBF5F7076002E0124F076000BF00BF4A
:100C80000F4F3F6807F0F0010909104F7A5C0768C1
:100C9000D74047600A4F3F6807F4E051890A0B4F7D
:100CA0007A5C4768D7408760054F3F6807F460412A
:100CB000490B064F7A5C4768D740C760F0BD00001B
:100CC000083802400024F40040787D010000002034
:100CD000704700000CB50020019000903448006877
:100CE00040F480303249086000BF3148006800F4A9
:100CF000003000900198401C0190009818B90198AC
:100D0000B0F5A04FF1D12A48006800F4003010B1CE
:100D10000120009001E0002000900098012846D1B9
:100D200023484030006840F080502149403108603D
:100D30002048006840F440401E4908601C480830C4
:100D400000681B49083108600846006840F400400C
:100D500008600846006840F4A05008601648091F63
:100D60000860081F006840F08070091F086000BF1D
:100D70000F48006800F000700028F9D040F20570BC
:100D80000E4908600A480830006820F0030008494E
:100D9000083108600846006840F00200086000BFA3
:100DA00003480830006800F00C000828F8D10CBD9A
:100DB000003802400070004019544F07003C0240C8
:100DC0007047000010B51548006840F470001349E2
:100DD00008601348006840F00100114908600020D5
:100DE0000F49083108600E4800680E4908400C4958
:100DF00008600D48091D0860081F006820F4802065
:100E0000091F0860002006490C310860FFF762FFE7
:100E10004FF0006001498039086010BD88ED00E0A6
:100E200000380240FFFFF6FE1030002410B540F2FB
:100E30002551054800F07FF820B140F225510248C5
:100E400000F004F810BD00000010014010B50022B1
:100E5000002340F66A14A14200D100BF0A12012407
:100E60009440A3B2DC43048010BD21B1828942F4D6
:100E70000052828104E082894DF6FF731A4082811C
:100E80007047000000B587B001210846FFF77CFEDF
:100E900001211020FFF798FE07220A211D48FFF7C5
:100EA000D4FC072209211B48FFF7CFFC00208DF856
:100EB0001A0001208DF81B0002208DF81800000296
:100EC000059002208DF8190005A91248FFF775FC5E
:100ED00002208DF818004002059005A90D48FFF783
:100EE0006CFC4FF4165001900020ADF80800ADF8EE
:100EF0000A00ADF80C00ADF810000C20ADF80E00A3
:100F000001A9054800F042F801210348FFF7ADFFB1
:100F100007B000BD00000240001001400246002062
:100F2000B1F5007F00D100BF13880B400BB1012049
:100F300000E00020704770B5024600240023002521
:100F4000002040F66A16B14200D100BFC1F342153D
:100F500001F01F03012606FA03F3012D02D1968941
:100F6000334006E0022D02D1168A334001E0968A12
:100F700033400C12012606FA04F41688344013B1EB
:100F80000CB1012000E0002070BD00002DE9FF47FA
:100F900005460E460024A14600BFA046B08900B118
:100FA00000BF2C8A24F44054F08804432C82AC897E
:100FB00041F20C608443B088318908437189084349
:100FC0000443AC81AC8A24F44074B0890443AC82FD
:100FD0006846FFF709FE2048854202D01F48854237
:100FE00002D1DDF80C9001E0DDF80890A88900F44A
:100FF000004040B109EBC90000EB0910316849001D
:10100000B0FBF1F707E009EBC90000EB091031680C
:101010008900B0FBF1F76420B7FBF0F00401200970
:10102000642101FB1078A88900F4004040B132200F
:1010300000EBC800B0FBF1F000F00700044308E04B
:10104000322000EB08106421B0FBF1F000F00F003B
:1010500004432C81BDE8FF870010014000140140CB
:10106000C1F308028280704770B505460E462846D7
:1010700000F06DF904464FF6FF70844205D046F447
:10108000004105F5B26020F81410E0B270BD2DE902
:10109000F04105460C4616461F46022121750121E6
:1010A00061750021E1822683618306F0800080283B
:1010B00005D105F56C7000EB4710017605E00021C5
:1010C00005F56C7000EB4710417600231A46214667
:1010D000284600F02BF8BDE8F08101460122C1F856
:1010E0001023002070472DE9F04105460E461746B3
:1010F0001C46012105F56C7000EB44108170022143
:1011000005F56C7000EB4410017205F56C7000EB96
:101110004410C66005F56C7000EB44100761214671
:101120002846FFF708FC0020BDE8F0812DE9F041DA
:1011300080460C4615461E460127E078012802D05D
:10114000022820D108E032462946204601F0DDF988
:101150000220E070012717E0207F0D2805D1012033
:10116000E0700021217700270CE0207F0B2803D1BD
:101170000120E070022705E0207F0C2802D1012029
:10118000E070032700E000BF00BF3846BDE8F081F3
:101190002DE9F04105460F4616461C46002105F58F
:1011A0006C7000EB4410817005F56C7000EB44101E
:1011B000C76005F56C7000EB441006612EB9012183
:1011C00005F56C7000EB4410417605F56C7000EB92
:1011D0004410407E30B9002105F56C7000EB4410DE
:1011E000017205E0022105F56C7000EB44100172FC
:1011F00021462846FFF79FFB0020BDE8F08170B52F
:1012000005460E461446002105F56C7000EB4410AF
:101210008170032105F56C7000EB4410017205F537
:101220006C7000EB4410C660082105F56C7000EB93
:101230004410016121462846FFF77DFBC0B270BD16
:101240000246022106E0002302F5B26020F81130C8
:10125000481CC1B20829F6DB0020704770B505466E
:101260000C46002020706070A0700120E070012109
:1012700021774021A171002084F820000121212044
:1012800001552179284600F031F86179284600F0AF
:101290002DF8002070BD10B504460021204601F055
:1012A000D0FA0020E1688861401EE168486120466C
:1012B00001F04AFC0021C4F81013002010BD70B5E5
:1012C00004460D46052D01D0042D06D1D4F880101A
:1012D000486C80470C20207007E0062D05D10C20BB
:1012E0002070D4F880100868804770BD0246082935
:1012F00009DA02F5B26030F81100C0F30E0302F50E
:10130000B26020F81130002070472DE9F047804688
:101310000C4616461D46DDE9089746F0800121750A
:1013200006216175E58205F47F40B0F5407F03D169
:1013300040F20941218301E00021218367833B467C
:101340004A4621464046FFF7F1FEBDE8F0870246D7
:10135000002100BF0AE002F5B26030F8110000F48D
:10136000004008B908467047481CC1B20829F2DBA2
:101370004FF6FF70F7E710B502460B881478234448
:101380000B801378981810BD2DE9FC4704460D46D4
:1013900016464FF0000804F588704FF400730022E1
:1013A0002946CDE900062046FFF7AFFFB0F100095E
:1013B0001BD10AE004F5887010F808000C4901F808
:1013C000080008F101001FFA80F8B045F2DB04F5CF
:1013D000887305F1500205F13E0105F134000096D5
:1013E00000F032FE074607B1B9464846BDE8FC8723
:1013F000A00800202DE9FC4104460D46164604F5E0
:1014000088704FF4807300222946CDE900062046FB
:10141000FFF77BFF071E06D1324604F5887105F100
:10142000220000F0A9FE3846BDE8FC812DE9FC4110
:1014300004460E46154604F588704FF40453012205
:101440003146CDE900052046FFF75FFF07463846E5
:10145000BDE8FC812DE9FC4104460E46154604F525
:1014600088704FF4085301223146CDE9000520462B
:10147000FFF74BFF07463846BDE8FC812DE9FC47E6
:101480000446884615461E460A9F04F5887045F4B2
:10149000407300224146CDE900072046FFF735FFA3
:1014A000B0F1000905D13A46314604F5887000F0E4
:1014B000C7FE4846BDE8FC872DE9F04104460D46CD
:1014C0002F464FF001080126254890F845000528D1
:1014D00041D2DFE800F003140420340000BF0922E9
:1014E00039462046FFF7A2FF40B904F588711D4830
:1014F00000F07EFE01201A4981F845002CE01948D1
:10150000028939462046FFF7A5FF18B90320144980
:1015100081F8450020E000231A463946204600F0B5
:10152000C4FF064626B904200D4981F8450005E0B0
:10153000032E03D104200A4981F845000CE0002263
:101540003946204600F0C9FF20B90020044981F83F
:101550004500804600E000BF00BF4046BDE8F08186
:10156000A00A00203C0B00202DE9F04105460C4666
:10157000264600273B4890F8420030B1032817D098
:1015800004280BD0052867D129E03649096D086881
:1015900080470420334981F8420000BF284601F00B
:1015A00072FE012803D103202E4981F8420054E045
:1015B0002C4890F8403090F846200146284600F02C
:1015C00033FC0120284908700520264981F8420093
:1015D0002846FFF75DF92349A1F84C003DE0284675
:1015E000FFF756F91F49B1F84C10401A1D49B1F8E0
:1015F0004A10884204D303201A4981F842002AE0A5
:10160000184890F840102846FFF751F901280CD1EE
:101610001548007801281ED1002013490870114890
:10162000006D41680F48884715E00E4890F840105B
:101630002846FFF73CF904280DD10A4890F84030BD
:1016400090F8482031462846FFF721FD18B90320BD
:10165000044981F8420000E000BF00BF3846BDE801
:10166000F0810000A00A00204000002070B5044670
:101670000D46164890F8400078B1144890F8401094
:10168000204601F090FB114890F840102046FFF7EB
:101690002DFE00200D4981F840000C4890F84100D3
:1016A00078B10A4890F84110204601F07CFB0748C9
:1016B00090F841102046FFF719FE0020034981F8F9
:1016C000410000200249087070BD0000A00A0020FF
:1016D000400000202DE9FC4707460E463446002511
:1016E0004FF0010906206B4981F8420094F844004C
:1016F00001287DD194F84500012802D1664808658B
:1017000006E094F84500022802D164486149086562
:101710000020604981F8420081F8450094F85200A9
:1017200081F84800B4F85400A1F8460094F8560037
:10173000A1F84A000846B0F84A000A2802DA0A204E
:10174000A1F84A0094F84200022802DC94F8420012
:1017500000E002208046002552E004F1500000EB3A
:10176000C500807800F0800018B304F1500000EB51
:10177000C5008078474981F8440004F1500000EB2F
:10178000C50081783846FFF76FFC424981F8400078
:101790000846B0F846000321CDE900102120035D82
:1017A00094F820203B4890F84010384600F0FEFBAB
:1017B00024E004F1500000EBC5008078354981F841
:1017C000430004F1500000EBC50081783846FFF774
:1017D0004BFC304981F841000846B0F8460003212F
:1017E000CDE900102120035D94F82020294800E075
:1017F0000DE090F84110384600F0D8FB681CC5B2E7
:101800004545AADB00202649087081463EE094F851
:101810004300092803D123A0FEF752FD32E094F8DB
:101820004300022803D125A0FEF74AFD2AE094F8E0
:101830004300082803D130A0FEF742FD22E094F8CF
:101840004300072803D134A0FEF73AFD1AE094F8CC
:1018500043000B2803D139A0FEF732FD12E094F8C3
:1018600043000E2803D13FA0FEF72AFD0AE094F8BA
:101870004300102803D144A0FEF722FD02E04CA053
:10188000FEF71EFDD4F88010086C80474846BDE87E
:10189000FC870000A00A0020640000205C000020FB
:1018A00040000020487562206973206E6F742073B9
:1018B0007570706F727465642E0A0000436F6D6DF1
:1018C000756E69636174696F6E7320616E64204325
:1018D000444320436F6E74726F6C20646576696355
:1018E00065206973206E6F7420737570706F7274E9
:1018F00065642E0A000000004D534320646576693C
:101900006365206973206E6F7420737570706F72D9
:101910007465642E0A0000005072696E746572204E
:10192000646576696365206973206E6F74207375D2
:1019300070706F727465642E0A000000536D6172DE
:1019400074204361726420646576696365206973FD
:10195000206E6F7420737570706F727465642E0AD8
:1019600000000000566964656F20646576696365F0
:1019700020206973206E6F7420737570706F72749D
:1019800065642E0A00000000417564696F2F566976
:1019900064656F2044657669636573206973206EA2
:1019A0006F7420737570706F727465642E0A000016
:1019B0005468652061747461636865642064657649
:1019C000696365206973206E6F7420737570706F22
:1019D000727465642E200A002DE9F04106460C461B
:1019E0004FF0000800250021A174207F0C2878D238
:1019F000DFE800F077060F3D466778939CC2D9F088
:101A0000627904F114013046FFF7F9FB02212177D6
:101A1000F1E061793046FEF74AFF0546012D1FD1FE
:101A2000207D00F08007608B58B141F28830744906
:101A30000880802F02D1032121770CE00521217736
:101A400009E032206E490880802F02D109212177D8
:101A500001E0072121773046FEF71AFF208205E0DA
:101A6000032D03D10B2121770521A174C3E0237934
:101A7000A2893046A168FFF736FB04212177BAE03E
:101A800021793046FEF713FF0546012D01D10921CA
:101A90002177042D04D1607820700C2121770FE08C
:101AA000032D02D10B2121770AE03046FEF7F0FE2C
:101AB000218A401A52490988884201D90B2121778D
:101AC00099E00121627906F56C7000EB42104176D5
:101AD0006379A2893046A168FFF75AFB0621217776
:101AE00089E087E061793046FEF7E1FE0546012D89
:101AF00002D1072121770FE0042D04D160782070F6
:101B00000C21217708E0022D02D10521217703E085
:101B1000032D01D10B2121776DE02379002211469D
:101B20003046FFF7E0FA0821217764E0217930465A
:101B3000FEF7BDFE0546012D04D1607820700D2111
:101B4000217718E0032D02D10B21217713E03046D5
:101B5000FEF79EFE218A401A29490988884202D947
:101B60000B21217707E0042D05D1607820700C212E
:101B700021774FF003083EE0617906F56C7000EBC9
:101B80004110407E80F00101627906F56C7000EB37
:101B9000421041766379002211463046FFF7F8FA89
:101BA0000A21217727E061793046FEF780FE05465D
:101BB000012D04D1607820700D21217708E0022DDD
:101BC00002D10921217703E0032D01D10B212177D7
:101BD00011E0FFE7A07B401CC1B2A173022902DC27
:101BE0000121217705E00821A174607820704FF071
:101BF000020800E000BF00BF4046BDE8F0810000E1
:101C00003000002070B592B005460C460126A07841
:101C10000A287BD2DFE800F00525345A677B98B5A7
:101C2000D2DC082221462846FFF7E4FBC0B994F82D
:101C30002910A1710120A070A0790021CDE9001028
:101C4000617900231A46284600F02AF9A07900217C
:101C5000CDE90010217900231A46284600F020F92A
:101C6000B9E0122221462846FFF7C4FB38B9D4F860
:101C70008000C16904F1220088470220A070AAE018
:101C800001222146284600F0EAFBF0B9022000F0CC
:101C900013FE0120A41CA077D4F87E10086A8047A8
:101CA00003202070002000900190A27FA1780346BD
:101CB000284600F0F5F8002000900190A27FA41EB5
:101CC00061790346284600F0EBF884E009222146BA
:101CD0002846FFF759FB28B9E08EB0F5007F01DCFC
:101CE0000420A07077E0E28E21462846FFF74CFBE7
:101CF00058B9D4F8800004F1500204F13E01436A5F
:101D000004F1340098470520A07064E062E094F884
:101D1000300088B1FF20009094F8302002AB2146BB
:101D20002846FFF7ABFB70B9D4F88000816A02A89F
:101D300088470620A07006E0D4F88000816A28A0B9
:101D400088470620A07046E094F8310088B1FF2053
:101D5000009094F8312002AB21462846FFF78EFB15
:101D600070B9D4F88000C16A02A888470720A07023
:101D700006E0D4F88000C16A19A088470720A07047
:101D800029E094F8320088B1FF20009094F83220C6
:101D900002AB21462846FFF771FB70B9D4F88000EA
:101DA000016B02A888470820A07006E0D4F88000E4
:101DB000016B0BA088470820A0700CE094F8392034
:101DC0002146284600F05EFB08B90920A07002E019
:101DD000002600E000BF00BF304612B070BD00001A
:101DE0004E2F41002DE9F04106460F4614461D4690
:101DF000DDF81880304600F03BFD002000F020FDAB
:101E000021463046FFF72AFAE567C4F88080394654
:101E10003046FEF751FDD4F8801008688047304600
:101E200000F010FDBDE8F0812DE9F04105460E46B9
:101E300017461C46012105F56C7000EB44108170BB
:101E400005F56C7000EB4410C66005F56C7000EB96
:101E50004410076105F56C7000EB4410007E30B94A
:101E6000002105F56C7000EB4410017205E00221C1
:101E700005F56C7000EB4410017205F56C7000EB19
:101E80004410007E80F0010105F56C7000EB4410F9
:101E9000017621462846FEF74EFD0020BDE8F08180
:101EA0002DE9F04704460D4617461E46DDE9089821
:101EB00027B104F56C7000EB4510077004F56C70E9
:101EC00000EB4510C088404508D0B8F1000F05D0A0
:101ED00004F56C7000EB4510A0F8068004F56C70FA
:101EE00000EB4510C078B04205D026B104F56C7007
:101EF00000EB4510C6702946204600F0A1FF0020E7
:101F0000BDE8F08738B5054600240020009028463B
:101F100001F0C1F9002847D0284601F0C6F9009029
:101F2000009808B9002038BD0098C0F3C00018B16F
:101F3000284602F065F904430098C0F3001018B178
:101F4000284602F0BEF804430098C0F3401018B1D0
:101F5000284601F0E2FE04430098C0F3806018B107
:101F6000284602F013F804430098C0F3406018B10B
:101F7000284601F0BCFA04430098C0F3006018B191
:101F8000284601F065FF04430098C0F3407018B183
:101F9000284601F073FA04430098C0F3405018B18A
:101FA000284601F081FA04432046BCE72DE9F047BA
:101FB00004460D4617461E46DDE9088904F5B26061
:101FC00010F8150000F07F0104F56C7000EB45106F
:101FD000417004F5B26010F81500C0F3C01104F5AB
:101FE0006C7000EB4510817004F56C7000EB4510CF
:101FF000077004F56C7000EB451080F8058004F55F
:102000006C7000EB4510A0F8069004F56C7000EBC6
:102010004510C670002104F56C7000EB4510017688
:1020200004F56C7000EB451041762EB9012104F5E2
:102030006C7000EB451001712946204600F000FF4E
:102040000020BDE8F08700002DE9F04F87B006467C
:102050008A4693461D462C460027B84600BF28787E
:10206000307068787070A978E87801EB0020708093
:102070002879307168797071A879B071E879F07158
:10208000287A30721098092870DD09200190307983
:10209000022862DC0020069059E001A92046FFF7E3
:1020A0006AF904466078042851D1A07847B207EB5A
:1020B000C70050440690E078032848DA214603A878
:1020C00000F0ABF84FF000089DF81000022838DC53
:1020D00032E001A92046FFF74EF904466078052852
:1020E0002AD10BEB071000EBC800029020480078C3
:1020F000B84206D01E490F7003A9069800F08DF86B
:102100000CE02179607901EB00201A4909888842A6
:1021100000DA15E003A9069800F07FF8214602983E
:1021200000F056F82179607901EB00201149088010
:1021300008F101004FFA80F89DF810004045C8DC16
:1021400005E04FF00309484607B0BDE8F08F7088FE
:10215000BDF804108842A0DC03E04FF003094846B4
:10216000F2E7002003490880014908700020EBE7EE
:10217000340000203200002010B50B7803704B783B
:1021800043708C78CB7804EB032343800B79037185
:102190004B7943718B798371CB79C371082A16DD32
:1021A0000C7A4B7A04EB032303818C7ACB7A04EB11
:1021B000032343810C7B4B7B04EB032383818B7BC9
:1021C0008373CB7BC3730B7C03744B7C437410BD54
:1021D0000A7802704A7842708A788270CA78C2702F
:1021E0000B794A7903EB022282808A7982717047E7
:1021F0000A7802704A7842708B78CA7803EB022220
:1022000042800A7902714A7942718A798271CB7966
:102210000A7A03EB0222028170470A7802704A7838
:1022200042708A788270CA78C2700A7902714A79DB
:1022300042718A798271CA79C2710A7A02727047D0
:1022400030B513464578032D14D10578AD1E9D4257
:1022500002DC0578AD1E00E01D46ACB2801C0022F9
:1022600004E0855C0D70491C951CAAB2A242F8DB03
:1022700000250D7030BD01460022C1F81423002056
:10228000704701460122C1F81423002070473EB573
:1022900005460C46022002902846FEF73DFB18B189
:1022A0002846FEF73DFB30B9207820B1207803287E
:1022B00001D00320207020780D287BD2DFE800F0C9
:1022C000071822ADC95F7B8D996BC9C99E0028464E
:1022D000FEF722FB58B101202070642000F0ECFAD8
:1022E0002846FEF721FBD4F88010C8688047B1E08B
:1022F000D5F81403012804D102202070322000F008
:10230000DBFAA7E0D4F880108868804700212846CF
:10231000FEF7AAFE607180212846FEF7A5FE207117
:102320002846FEF701FB48BBD4F88010C8688047F8
:102330002846FEF7B2FAC1B22120015505202070CF
:102340002122105DD4F8802091698847A07900216E
:10235000CDE900102120035D94F820202179284642
:10236000FFF724FEA0790021CDE900102120035DB4
:1023700094F8202061792846FFF718FE6AE021468C
:102380002846FFF73FFC28B9D4F88010486B8047F7
:10239000092020705EE0D4F88010886B8047012807
:1023A00007D1E06F214602682846904708B9062009
:1023B00020704FE04DE0E06F21468268284690474C
:1023C00002909DF8080010B90720207004E09DF8E5
:1023D00008102046FEF773FF3CE0E06F2146C2681C
:1023E0002846904702909DF808102046FEF767FFA8
:1023F00030E021462846FFF7EFFA2BE02146284639
:10240000FEF72CFFD4F8801048688047E06F04F195
:1024100020014268284690471CE0D4F880100869E3
:10242000804721462846FEF719FFD4F880104868F7
:102430008047E06F04F12001426828469047284613
:10244000FEF7FEFE0020207001212846FEF734FA38
:1024500000E000BF00BF3EBD01460020704770B5E0
:1024600006460C4615460021217505216175E58259
:1024700000212183618300231A4621463046FEF75E
:1024800055FE70BD70B506460C46154600212175F7
:1024900009216175E58200212183618300231A46A9
:1024A00021463046FEF742FE70BD2DE9F041074659
:1024B0000C4615461E46212121750A21617546EA02
:1024C0000521E18200212183618300231A462146F0
:1024D0003846FEF72BFEBDE8F08170B506460C4687
:1024E0001546212121750B21617515B10021E1826D
:1024F00001E00121E18200212183618300231A464A
:1025000021463046FEF712FE70BD10B5034618781E
:1025100058700820187099609A8101241C77002057
:1025200010BD000070B504460D46164601A0FDF72B
:10253000C7FE70BD555342485F5553525F436F6E9F
:1025400066696775726174696F6E5F446573634134
:102550007661696C61626C65200A000010B502A0AA
:10256000FDF7AEFE10BD0000555342485F55535273
:102570005F4465496E6974200A00000010B502A02E
:10258000FDF79EFE10BD0000555342485F55535263
:102590005F44657669636541646472657373417312
:1025A0007369676E6564200A0000000010B502A020
:1025B000FDF786FE10BD0000555342485F5553524B
:1025C0005F4465766963654174746163686564201E
:1025D0000A00000010B502A0FDF772FE10BD000059
:1025E000555342485F5553525F446576696365446D
:1025F0006973636F6E6E6563746564200A00000022
:1026000010B502A0FDF75CFE10BD00005553424816
:102610005F5553525F4465766963654E6F745375B9
:1026200070706F72746564200A00000010B5044673
:1026300001A0FDF745FE10BD555342485F5553526A
:102640005F446576696365446973636F6E6E656345
:10265000746564200A00000010B5044605A0FDF76B
:102660002FFE21890BA0FDF72BFE618909A0FDF744
:1026700027FE10BD555342485F5553525F4465765F
:102680006963655F44657363417661696C61626C1F
:1026900065200A00766964203A2025303478680A7B
:1026A0000000000010B502A0FDF70AFE10BD0000FA
:1026B000555342485F5553525F456E756D65726163
:1026C00074696F6E446F6E200A00000010B502A09E
:1026D000FDF7F6FD10BD0000555342485F555352BB
:1026E0005F496E6974200A0010B502A0FDF7E8FD8D
:1026F000002010BD555342485F5553525F4D534320
:102700005F4170706C69636174696F6E200A0000CC
:1027100010B50446214602A0FDF7D2FD10BD000011
:10272000555342485F5553525F4D616E7566616304
:1027300074757265725F537472696E67203A2025F2
:10274000730A000010B502A0FDF7BAFD10BD00002D
:10275000555342485F5553525F4F766572437572C9
:1027600072656E7444657465637465200A000000C8
:1027700010B50446214602A0FDF7A2FD10BD0000E1
:10278000555342485F5553525F50726F647563747E
:102790005F537472696E67203A2025730A00000047
:1027A00010B502A0FDF78CFD10BD00005553424846
:1027B0005F5553525F52657365744465766963650E
:1027C000200A000010B50446214602A0FDF778FD5E
:1027D00010BD0000555342485F5553525F53657218
:1027E00069616C4E756D5F537472696E67203A2033
:1027F00025730A0010B502A0FDF762FD10BD0000B0
:10280000555342485F5553525F556E7265636F76FC
:10281000657265644572726F72200A0010B502A07D
:10282000FDF74EFD012010BD555342485F555352F0
:102830005F55736572496E707574200A0000000060
:102840007047704738B504464FF4C060FEF788F90A
:1028500043208DF8000001208DF8010003208DF841
:10286000020001208DF803006846FEF73DF938BDEF
:102870001CB5044601210846FEF786F94FF4C05006
:10288000009003208DF8050002208DF804006946B1
:102890000848FDF792FF0A220B210648FDF7D5FFF5
:1028A0000A220C210348FDF7D0FF01218020FEF70A
:1028B0007BF91CBD0000024010B504464FF47A714C
:1028C00004FB01F000F001F810BD10B50022C0EBD0
:1028D0000013DB000724B3FBF4F100BF531C1A46BE
:1028E0008B4200D910BDF9E73EB504460025002013
:1028F000029001900090207A01283DD1E068806B21
:102900000190019820F480300190607A28B10198FC
:1029100020F4801000F5801001900198E168886330
:1029200000200290E068C0680290029820F0400009
:102930000290029820F480000290029820F4003067
:102940000290029820F4002002900298E168C8608A
:10295000204600F0C1F8E07801283DD1009820F031
:102960001E000A300090009820F0200020300090D7
:102970000098E16888602FE0E068C06802900298E3
:1029800020F04000403002900298E168C860204684
:1029900000F0A2F800200190019820F4803000F5AA
:1029A00080300190019820F4802000F58020019073
:1029B000019820F4002000F500200190607A28B1F1
:1029C000019820F4801000F5801001900198E168D2
:1029D00088631420FFF770FFE07801280FD1E068CA
:1029E00080680090009820F01E000A300090009847
:1029F00020F02000203000900098E1688860284690
:102A00003EBDFEB504460026002500200290019040
:102A100000902046FFF714FF0021D4F80C0101605C
:102A2000207A012803D1204600F021FC03E0012197
:102A3000204600F01CFC204600F06FFC6069006836
:102A40000090009820F004000090009960690160F7
:102A5000E07A01281DD18020E168486202986FF376
:102A60000F0080300290029880B200F5C000029002
:102A70000298E168886201986FF30F00E0300190DE
:102A8000019880B200F5C00001900198E168C1F89A
:102A900000011021204600F029F9204600F000F93D
:102AA00000250DE04FF0FF3104F1900050F82500B3
:102AB0008160002104F1900050F82500C1606D1C78
:102AC0002078A842EED80121204600F04EF820469A
:102AD00000F0A4F83046FEBDF8B5044600260025F7
:102AE0000020009000BF0320FFF7EFFEE0680069C0
:102AF0000090681C05461349884201D90020F8BDA2
:102B00000098C00F0028EED00025009820F00100AA
:102B1000401C00900098E168086100BFE06800690F
:102B20000090681C05460749884200D904E00098D7
:102B300000F001000028F1D100BF0320FFF7C5FE1F
:102B40003046DCE7400D030008B5014600200022B6
:102B50000092009A22F00102521C0092CA68926808
:102B6000009B9A43CB689A6008BD38B505460C4671
:102B70000020009021462846FFF763FE284600F01B
:102B80009CFB00900098C0F3003058B9012C09D18B
:102B9000009820F4805000F5805000900099D5F8FE
:102BA000CC0001600098C0F3003040B13CB90098FF
:102BB00020F4805000900099D5F8CC000160C82026
:102BC000FFF77AFE38BD08B500210091491EC268A2
:102BD00051606FF08041C2685161009921F000415D
:102BE00001F100410091009921F4006101F50061BB
:102BF00000910099C268916108BD08B501460020A6
:102C000000220092009A22F00102521C0092CA682F
:102C10009268009B1A43CB689A6008BD38B5044699
:102C2000002500200090E1688861401EE16848614D
:102C30002046FFF7C8FFE07820B9009820F0100088
:102C400010300090009820F4001000F50010009063
:102C5000009820F0007000F100700090009820F0C3
:102C6000807000F180700090E0688069009988436E
:102C70000843E168886100200090009820F000502F
:102C800000F100500090009820F0080008300090FB
:102C9000E068806900998843E1688861284638BD0A
:102CA000F8B504460025002600200090009820F08A
:102CB0001000103000900098E168086100BFE068E3
:102CC00000690090701C06460749884200D904E05C
:102CD0000098C0F300100028F1D100BF0320FFF7D7
:102CE000F4FD2846F8BD0000400D0300F8B5044689
:102CF0000D460026002700200090009820F02000BC
:102D000020300090009865F38A1000900098E168E8
:102D1000086100BFE06800690090781C0746074919
:102D2000884200D904E00098C0F340100028F1D197
:102D300000BF0320FFF7C9FD3046F8BD400D03007A
:102D40000146C868406900F0010070471CB50246A2
:102D5000002000230093009B23F0004303F1004375
:102D600000930124009B64F3DC43009302F1900381
:102D700053F82130009C1C6102F1900353F821307C
:102D80001B680193019B23F0004303F1004301936F
:102D9000019B23F08043019302F1900353F821300B
:102DA000019C1C601CBD10B586B0024600200023AB
:102DB0000393019302F1900353F821301B680093B1
:102DC000009B23F0804303F180430093009BC3F3F7
:102DD000814323B1009BC3F38143022B11D1D368FC
:102DE000DB6A0393039BC3F30743DBB9009B23F028
:102DF0000043009302F1900353F82130009C1C60C3
:102E000010E053691B690193019BC3F307434BB95E
:102E1000009B23F00043009302F1900353F821300C
:102E2000009C1C60009B23F0004303F100430093CF
:102E300002F1900353F82130009C1C6006B010BDD5
:102E40003FB502460020002300240294039401941D
:102E5000441E009402F1900454F82140009DA560A6
:102E600000240394D478012C04D1039C24F004049E
:102E7000241D039402F56C7404EB4114647934B19D
:102E8000012C6AD0022C03D0032C38D138E000BFCB
:102E9000039C24F00104641C0394039C24F00804A4
:102EA00008340394039C24F0800480340394039C2E
:102EB00024F4806404F580640394039C24F01004DB
:102EC0001034039402F56C7404EB4114A47834B10B
:102ED000039C24F4807404F5807403940FE0039C35
:102EE00024F040044034039402F56C7404EB411464
:102EF000247924B1039C24F02004203403944EE070
:102F0000039C24F00104641C0394039C24F010042B
:102F100010340394039C24F0080408340394039CA5
:102F200024F0800480340394039C24F4806404F52A
:102F300080640394039C24F4007404F500740394E7
:102F400002F56C7404EB4114A4782CB1039C24F4B6
:102F5000807404F58074039421E0039C24F0010440
:102F6000641C0394039C24F4007404F5007403941B
:102F7000039C24F020042034039402F56C7404EBC9
:102F80004114A47854B1039C24F080048034039449
:102F9000039C24F4807404F58074039400BF00BF84
:102FA00002F1900454F82140039DE560012404FAE5
:102FB00001F35469A4691C435569AC61029C24F077
:102FC000007404F100740294D468A469029D2C4337
:102FD000D568AC610024019402F56C7404EB4114D3
:102FE0002578019C65F39C54019402F56C7404EB04
:102FF00041146578019C65F3CE24019402F56C744C
:1030000004EB4114A578019C65F3CF34019402F5DB
:103010006C7404EB4114E478022C01D1012500E02A
:103020000025019C65F35144019402F56C7404EB96
:1030300041146579019C65F39344019402F56C7425
:1030400004EB4114E588019C65F30A04019402F540
:103050006C7404EB41146479032C05D1019C24F0B9
:10306000005404F10054019402F1900454F82140FA
:10307000019D256004B030BD2DE9F04388B00446C1
:103080000D464FF00009C8464FF4807700200690A7
:103090000790009004F56C7000EB4510006910B3C8
:1030A00004F56C7000EB4510016904F56C7000EBE1
:1030B0004510C0880144491E04F56C7000EB4510B2
:1030C000C088B1FBF0F086B2BE420DDD3E4604F58D
:1030D0006C7000EB4510C188714304F56C7000EB17
:1030E0004510016100E0012604F56C7000EB45100D
:1030F000807850B104F56C7000EB4510C1887143C5
:1031000004F56C7000EB4510016104F56C7000EB88
:1031100045100169069861F312000690069866F35F
:10312000DC40069004F56C7000EB4510017A0698BF
:1031300061F35E70069004F1900050F82500069946
:103140000161E078012809D104F56C7000EB4510AD
:10315000C16804F1900050F82500416104F190002D
:1031600050F8250000680790204600F08CF8079979
:1031700060F35D710791079820F0004000F1004076
:103180000790079820F08040079004F1900050F8D5
:10319000250007990160E078002864D104F56C707F
:1031A00000EB4510807800285DD104F56C7000EBD1
:1031B00045100069002856D004F56C7000EB4510EE
:1031C000407930B1012821D0022803D0032839D119
:1031D0001BE000BFE068C06A039004F56C7000EB70
:1031E00045100069C01CC0F38F08039880B24045A9
:1031F0000ADA009820F0200020300090E068806912
:1032000000990843E16888611DE000BF60690069BA
:10321000019004F56C7000EB45100069C01CC0F310
:103220008F08019880B240450BDA009820F080604A
:1032300000F180600090E068806900990843E168CF
:10324000886100E000BF00BF04F56C7000EB451022
:10325000008A83B204F56C7000EB45102A46C16801
:10326000204600F0E3FF484608B0BDE8F08308B50B
:10327000426912680092009A61F301020092009B79
:103280004269136008BD01464869806800F001008A
:1032900080F00100704700B502461046FFF750FD70
:1032A000012800D100BD0020FCE701460020CA68CB
:1032B0005069CA6892691040704708B50146D1F854
:1032C000CC0000680090009820F004000090009866
:1032D00020F002000090009820F008000090009874
:1032E00020F020000090009808BD01464869406920
:1032F0007047F0B503460024D01CC71700EB977742
:10330000BD10D3F8D06000BF03E030680860091D2D
:10331000641CAC42F9D30846F0BD38B504462046DB
:10332000FFF7CBFF0090009820F4807000F58070CC
:1033300000900099D4F8CC0001606420FFF7BCFA3B
:10334000009820F4807000900099D4F8CC000160BF
:103350001420FFF7B1FA012038BD000070B5024615
:103360000C46002300200025D570012595704025CE
:103370009580012C0CD14FF0A0430125D572082572
:103380001570042555709D15D580022515720AE02B
:103390004CB9254B0025D5720C25157006255570A6
:1033A0004FF4A065D580D36003F500651561002159
:1033B00010E003F5106505EB411602F1180545F81C
:1033C000216003F5306505EB411602F1540545F81F
:1033D0002160491C55788D42EBD803F58065556115
:1033E0004035C2F8CC50002108E003F5A06505EB9C
:1033F000411602F1900545F82160491C15788D426F
:10340000F3D8002108E003F5805505EB013602F101
:10341000D00545F82160491C15788D42F3D803F595
:103420006065C2F80C5170BD00000440F8B5044658
:103430000D460026E068C0680090009820F000501B
:103440000090009820F080400090012D06D1009857
:1034500020F0005000F10050009006E02DB90098D7
:1034600020F0804000F1804000900098E168C86042
:103470003220FFF721FA3046F8BD000038B5044687
:10348000002000900748006881682046884700981F
:1034900020F0005000F1005000900098E168486171
:1034A000012038BD280000200CB50146D1F890005D
:1034B00000680090009820F0004000F1004000906B
:1034C000009820F0804000F180400090009AD1F8F0
:1034D0009000026000200190019820F4001000F597
:1034E000001001900198CA68506101200CBD7CB5A4
:1034F0000546002400262846FFF7F7FE019000BF8E
:103500001BE0019880B20121A1400840A0B105F163
:10351000900050F82400006800900098C0F3C0307C
:1035200028B12146284600F00DF8064304E0214664
:10353000284600F016FA0643641C2878A042E0D81A
:1035400030467CBD70B586B005460C4605F190004E
:1035500050F82460B0680590F0680490DDE904102C
:103560000840059005F1900050F824000068039091
:10357000002004900598C0F38000D0B10020019095
:10358000019820F00400001D01900198B06005F141
:10359000900050F82400C0680190019820F00200CB
:1035A000801C019005F1900050F824000199C16041
:1035B00073E00598C0F3401048B1002001900198D5
:1035C00020F02000203001900198B06065E005985F
:1035D000C0F3C00078B305F1900050F82400C06833
:1035E0000190019820F00200801C019005F19000EC
:1035F00050F824000199C160052105F5647001555A
:1036000000200190019820F01000103001900198E6
:10361000B06000200190019820F00800083001906F
:103620000198B060059820F010000590E1B228469E
:10363000FFF7B9FB31E0FFE70598C0F3802060B3E6
:1036400005F1900050F82400C0680190019820F026
:103650000200801C019005F1900050F824000199AF
:10366000C160E1B22846FFF79EFB0020019001985F
:1036700020F01000103001900198B060082105F58D
:103680006470015500200190019820F4806000F5DD
:10369000806001900198B06000BF0598C0F34020A1
:1036A000F8B105F1900050F82400C068019001982D
:1036B00020F00200801C019005F1900050F82400D9
:1036C0000199C160E1B22846FFF76DFB002001902F
:1036D000019820F4007000F5007001900198B0602E
:1036E0003CE1059800F00100002871D0E87801283D
:1036F00012D105F1900050F824000069029005F500
:103700006C7000EB441000690299C1F31201411A78
:1037100005F5557040F82410012105F56470015538
:103720000021783840F8241000200190019820F002
:103730000100401C01900198B0600398C0F38140E3
:1037400020B10398C0F3814002282AD105F19000EE
:1037500050F82400C0680190019820F00200801CFD
:10376000019005F1900050F824000199C160E1B288
:103770002846FFF718FB00200190019820F0100068
:10378000103001900198B06005F56C7000EB4410AA
:10379000007E80F0010105F56C7000EB44100176AD
:1037A000DCE00398C0F38140032899D1039820F00E
:1037B000005000F10050039005F1900050F82400F3
:1037C00003990160012105F29F300155C6E0FFE732
:1037D0000598C0F34000002851D005F1900050F842
:1037E0002400C0680190019820F00200019005F1CA
:1037F000900050F824000199C16005F56470005DE7
:10380000012804D1012105F29F3001552DE005F575
:103810006470005D052804D1042105F29F30015534
:1038200023E005F56470005D062804D005F564709A
:10383000005D082808D1002105F5467040F82410E5
:1038400003218730015510E00398C0F3814003281D
:103850000BD105F56C7000EB4410007E80F0010187
:1038600005F56C7000EB4410017600200190019882
:1038700020F00200801C01900198B0606EE0059875
:10388000C0F3C01010B305F1900050F82400C068D8
:103890000190019820F00200801C019005F1900039
:1038A00050F824000199C160062105F564700155A6
:1038B000E1B22846FFF777FA00200190019820F046
:1038C0008000803001900198B06047E00598C0F317
:1038D0000010E0B30398C0F38140032816D105F12E
:1038E000900050F82400C0680190019820F0020078
:1038F000801C019005F1900050F824000199C160EE
:10390000E87818B9E1B22846FFF74DFA032105F52A
:103910006470015500200190019820F010001030D3
:1039200001900198B0600398C0F3814020B10398E2
:10393000C0F38140022811D1039820F0004000F12B
:1039400000400390039820F08040039000E005E0E1
:1039500005F1900050F8240003990160012006B0A1
:1039600070BD7FB505460C4605F1900050F8246007
:10397000B0680390F0680290DDE9021008400390FF
:1039800005F1900050F82400006801900398C0F3FE
:103990008000D0B100200090009820F00400001DAD
:1039A00000900098B06005F1900050F82400C068C5
:1039B0000090009820F00200801C009005F190001B
:1039C00050F824000099C160A4E10398C0F34010AE
:1039D00048B100200090009820F020002030009096
:1039E0000098B06096E10398C0F34020F8B105F16B
:1039F000900050F82400C0680090009820F0020069
:103A0000801C009005F1900050F824000099C160DE
:103A1000E1B22846FFF7C7F900200090009820F493
:103A2000007000F5007000900098B06072E103989B
:103A300000F0010038B3002105F5467040F824106D
:103A400005F1900050F82400C0680090009820F024
:103A50000200801C009005F1900050F824000099AD
:103A6000C160E1B22846FFF79EF90020009000985F
:103A700020F00100401C00900098B060012105F585
:103A80006470015546E10398C0F3C00010B30020F4
:103A90000090009820F00800083000900098B06076
:103AA00005F1900050F82400C0680090009820F0C4
:103AB0000200801C009005F1900050F8240000994D
:103AC000C160E1B22846FFF76EF9052105F5647083
:103AD00001551FE10398C0F3001048B3002105F51C
:103AE000467040F8241005F1900050F82400C0689A
:103AF0000090009820F00200801C009005F19000DA
:103B000050F824000099C160E87818B9E1B228465D
:103B1000FFF749F900200090009820F010001030C5
:103B200000900098B060032105F564700155F1E044
:103B30000398C0F3C01010B305F1900050F82400B2
:103B4000C0680090009820F00200801C009005F1F1
:103B5000900050F824000099C160E1B22846FFF7B8
:103B600022F9062105F564700155002000900098A7
:103B700020F08000803000900098B060CAE0039888
:103B8000C0F3801048B3002105F5467040F82410BA
:103B900005F1900050F82400C0680090009820F0D3
:103BA0000200801C009005F1900050F8240000995C
:103BB000C160E87818B9E1B22846FFF7F4F80020B0
:103BC0000090009820F04000403000900098B060D5
:103BD000042105F5647001559CE00398C0F3802032
:103BE00060B305F1900050F82400C0680090009880
:103BF00020F00200801C009005F1900050F8240095
:103C00000099C160E1B22846FFF7CDF8002000908E
:103C1000009820F01000103000900098B06008214B
:103C200005F56470015500200090009820F4806034
:103C300000F5806000900098B0606BE00398C0F3DE
:103C40004000002866D005F1900050F82400C068BC
:103C50000090009820F00200009005F1900050F8CC
:103C600024000099C16005F56470005D012815D13C
:103C7000012105F29F3001550198C0F381400228CF
:103C80003ED105F56C7000EB4410407E80F00101E0
:103C900005F56C7000EB4410417631E005F5647079
:103CA000005D032804D1022105F29F30015527E071
:103CB00005F56470005D04280FD105F56C7000EB0C
:103CC00044100079012803D1E1B22846FFF73EF8FD
:103CD000022105F29F30015512E005F56470005D88
:103CE000052804D1042105F29F30015508E005F5AF
:103CF0006470005D062803D1032105F29F30015551
:103D000000200090009820F00200801C0090009895
:103D1000B06000BF012004B070BD7FB504460198BB
:103D200020F078000190E068C06A00900198C0F32C
:103D3000C30104F56C7000EB41100069C01CC0F3B6
:103D40008F0673E04FF6FF71009801EA8005019835
:103D5000C0F3C30104F56C7000EB41100069A84288
:103D600015D20198C0F3C30104F56C7000EB41104B
:103D7000008A85B200200390039820F020002030B4
:103D80000390E068806903998843E168886101983D
:103D9000C0F3C30104F56C7000EB41100069C01C56
:103DA000C0F38F060198C0F3C302C0F3C30304F548
:103DB0006C7000EB43102B46C168204600F036FAC9
:103DC0000198C0F3C30104F56C7000EB4110C068AA
:103DD00041190198C0F3C30204F56C7000EB421066
:103DE000C1600198C0F3C30104F56C7000EB411091
:103DF0000069411B0198C0F3C30204F56C7000EB2D
:103E0000421001610198C0F3C30104F56C7000EB2E
:103E10004110406941190198C0F3C30204F56C7068
:103E200000EB42104161E068C06A0090009880B2E7
:103E3000B0420ADD0198C0F3C30104F56C7000EBD9
:103E40004110006900287FF47DAF012004B070BDEF
:103E50007FB5044600250020009001900390029059
:103E6000D4F8CC0000680390D4F8CC00006802902D
:103E7000029820F004000290029820F002000290C4
:103E8000029820F008000290029820F02000029092
:103E90000398C0F3400058B1029820F00200801C43
:103EA00002903948006841682046884745F001057E
:103EB0000398C0F3C000002853D0029820F00800F7
:103EC000083002900398C0F38000002844D0039883
:103ED000C0F34140022804D00398C0F341400128B8
:103EE00025D16069006801900398C0F34140022821
:103EF0001DD141F2707160694160019800F00300CA
:103F0000022814D0207A022804D102212046FFF78B
:103F1000AEF90CE04BF6803160694160019800F029
:103F20000300012803D001212046FFF7A0F916481D
:103F30000068C1682046884700200090009820F063
:103F4000005000F100500090E068806900998843BB
:103F50000843E168886104E00B4800680169204675
:103F600088470398C0F3401030B1029820F0200039
:103F70002030029045F001050299D4F8CC00016090
:103F8000284604B070BD000028000020FEB504469D
:103F9000019820F078000190606900690090019814
:103FA000C0F3C30104F56C7000EB41100069C01C44
:103FB000C0F38F0674E04FF6FF71009801EA8005A8
:103FC0000198C0F3C30104F56C7000EB4110006967
:103FD000A84216D20198C0F3C30104F56C7000EB3F
:103FE0004110008A85B200200290029820F0806083
:103FF00000F180600290E068806902998843E1687E
:1040000088610198C0F3C30104F56C7000EB4110A6
:104010000069C01CC0F38F060198C0F3C302C0F34F
:10402000C30304F56C7000EB43102B46C1682046B7
:1040300000F0FCF80198C0F3C30104F56C7000EBCC
:104040004110C06841190198C0F3C30204F56C70B7
:1040500000EB4210C1600198C0F3C30104F56C701D
:1040600000EB41100069411B0198C0F3C30204F545
:104070006C7000EB421001610198C0F3C30104F5BC
:104080006C7000EB4110406941190198C0F3C30204
:1040900004F56C7000EB42104161606900690090AA
:1040A000009880B2B0420ADD0198C0F3C30104F564
:1040B0006C7000EB4110006900287FF47CAF012098
:1040C000FEBD7FB50446002500200290029820F036
:1040D000100010300290E068806902998843E1681E
:1040E0008861E068006A0390039800F00F0504F10E
:1040F000900050F82500006800900398C0F34340FA
:10410000022806D0032869D0052868D0072864D182
:1041100066E00398C0F30A1000285DDD04F56C70BA
:1041200000EB4510C068002856D00398C0F30A126F
:1041300004F56C7000EB4510C1682046FFF7D9F814
:10414000039800F00F0104F56C7000EB4110C0689B
:104150000399C1F30A110144039800F00F0204F51A
:104160006C7000EB4210C160039800F00F0104F581
:104170006C7000EB411040690399C1F30A110144CE
:10418000039800F00F0204F56C7000EB42104161DF
:1041900004F56C7000EB4510466904F5557040F865
:1041A000256004F1900050F8250000690190019805
:1041B000C0F3C94000280FDD009820F0004000F156
:1041C00000400090009820F08040009004F19000A2
:1041D00050F825000099016003E000BF00BF00BF58
:1041E00000BF00BF029820F0100010300290E0687D
:1041F000806902990843E1688861012004B070BDBC
:1042000038B5044600200090074800680168204641
:104210008847009820F00800083000900098E16876
:104220004861012038BD0000280000202DE9F04140
:1042300004464FF0000C00270025E07890B9D81C08
:104240004FEAE07800EB98784FEAA80704F1D00035
:1042500050F8226000BF03E008683060091D6D1C43
:10426000BD42F9D36046BDE8F081000010B502A060
:10427000FCF726F810BD0000696E697400000000AC
:1042800010B50446214602A0FCF71AF810BD000044
:104290004B4559424F415244202044415441202033
:1042A0003A3A3A3A202025640A00000010B502A0EC
:1042B000FCF706F810BD00004D4F5553452020492E
:1042C0004E4954200A00000010B50446E388628875
:1042D000218802A0FBF7F4FF10BD0000783A2564A6
:1042E00020793A2564206275743A2564200D0A000D
:1042F00000BFFEE730380A2801D2012070470020B5
:10430000704700BF7047000070B504460D46E1B22B
:104310000548FCF7A5FE00BF80210348FCF7FEFD21
:104320000028F9D0204670BD0010014008B5FCF708
:10433000A9FD0748074B084A012100900748FDF7EF
:1043400051FD03E004490548FDF7A1FFFAE700002D
:1043500088000020440000201C0800206C0200207F
:104360004FF04070E1EE100A7047000000001F326D
:10437000302113222324182526273433191A111427
:1043800020151731122F162E0203040506070809FF
:104390000A0B2B6E0F103D0C0D1B1C1D2A2829012A
:1043A0003536371E707172737475767778797A7BCB
:1043B0007C7D7E4B50554C5156594F54535A5F6437
:1043C000696A6C5D62675C61665B606563682D81CC
:1043D00000000000000000000000000000000000DD
:1043E0000000000000000000000000000000006B62
:1043F0000038000000000000000000000000000085
:1044000000000000000000000000000000000000AC
:10441000000000000000000000000000000000009C
:10442000000000000000000000000000000000008C
:10443000000000000000000000000000000000007C
:10444000000000000000000000003A2C3C7F4039D2
:104450003E800060313233343536373839302D3DC7
:10446000000D09617A6572747975696F705B5D5CC6
:10447000007173646667686A6B6C6D00000A000007
:1044800077786376626E2C3B3A21000000000020B2
:10449000000000000000000000000000000000001C
:1044A00000000D0000000000000000000037343163
:1044B000002F383532302A3936332E2D2B000A00A2
:1044C00000000000000000000000000000000000EC
:1044D00000000000007E21402324255E262A282992
:1044E0005F2B000000415A4552545955494F507BAB
:1044F0007D2A005153444647484A4B4C4D25000AFB
:10450000000057584356424E3F2E2F000000000037
:10451000000000000000000000000000000000009B
:10452000000000000000000000000000000000008B
:10453000000000000000000000000000000000007B
:10454000000000000000000000000000000000006B
:10455000000000000000303132333435363738394E
:1045600041424344454640305800303132333435BF
:10457000363738396162636465664030780004001C
:104580000008000000000000000200010000100010
:10459000B0450008000000206C020000C4010008C3
:1045A000384700086C0200203C0F00002002000881
:1045B000412D010203040445060708091359241478
:1045C00008DB1014089712140883221B08770422B2
:1045D0001402182013D5161B086D0413B9141408FF
:1045E000691582081BD90A1419041AB1048B5D09D4
:1045F0001801141BCD262412251B08AD0413A12776
:104600001B08D5081A45081A2D181A59041A7D10C6
:104610001A25041A11141A71041AC5041AA51813BC
:104620001D281B08E9081A01041AF514101C3E2065
:10463000486F7374204C69627261727920496E69A7
:104640007469616C697A65640A98133E20446576E2
:104650006963652041747461636865642014480B64
:10466000446973636F6E6E6563742B1813456E75C2
:104670006D65726174696F6E20636F6D706C651922
:104680003931180948696768207370650F4A643CBE
:104690001A641C69380D1846756C6C1E0C184C6F2A
:1046A000771D598A3E6661756C746A280C4D61737A
:1046B000732073746F7261672A391EB9A50C134891
:1046C0004944181A53F11F206F6620746838380F58
:1046D00069736B20696E204D42797465733A59286D
:1046E0000E4C554E20417661696C61626C651D39D6
:1046F0002939493A3AFD480978706C6F72696E67DA
:104700003E280A666C617368202E2E2E1C7A545443
:10471000880C732077726974652070726FC53019C8
:10472000554E5245434F5645524544204552524FEF
:08473000522053544154450A84
:040000050800018965
:00000001FF
