:020000040800F2
:1000000028AF0C209D010008412300085D12000864
:100010003F2300089F020008052700080000000099
:100020000000000000000000000000002124000883
:10003000A10200080000000043230008D9240008A2
:10004000B7010008B7010008B7010008B7010008B0
:10005000B7010008B7010008B7010008B7010008A0
:10006000B7010008B7010008B7010008B701000890
:10007000B7010008B7010008B7010008B701000880
:10008000B7010008B7010008B7010008B701000870
:10009000B7010008B7010008B7010008B701000860
:1000A000B7010008B7010008B7010008B701000850
:1000B000B7010008B7010008B7010008B701000840
:1000C000B7010008B7010008B7010008B701000830
:1000D000B701000839250008B7010008B70100087A
:1000E000B7010008B7010008B7010008B701000810
:1000F000B7010008B7010008B7010008B701000800
:10010000B7010008B7010008B7010008B7010008EF
:10011000B7010008B7010008B7010008B7010008DF
:10012000B7010008B7010008B7010008B7010008CF
:10013000B7010008B7010008B7010008B7010008BF
:10014000B7010008B7010008B7010008B7010008AF
:10015000B7010008B7010008B7010008B70100089F
:10016000B7010008B7010008B7010008B70100088F
:10017000B7010008B7010008B7010008B70100087F
:10018000B7010008B7010008DFF80CD000F04AF80A
:1001900000480047015A000828AF0C200648804755
:1001A00006480047FEE7FEE7FEE7FEE7FEE7FEE75C
:1001B000FEE7FEE7FEE7FEE7DD2400088901000810
:1001C00010B5431A934209D28318881803E010F837
:1001D000011D03F8011D521EF9D210BD40EA0103B2
:1001E0009B0703D009E008C9121F08C0042AFAD2ED
:1001F00003E011F8013B00F8013B521EF9D210BD9B
:10020000D2B201E000F8012B491EFBD27047002258
:10021000F6E710B513460A4604461946FFF7F0FF05
:10022000204610BD064C074D06E0E06840F0010393
:1002300094E8070098471034AC42F6D3FFF7A8FFC4
:10024000D87D0008F87D000870B58C1810F8015BA7
:1002500015F0070301D110F8013B2A1106D110F85F
:10026000012B03E010F8016B01F8016B5B1EF9D163
:100270002B0705D40023521E0DD401F8013BFAE7E9
:1002800010F8013BCB1A921C03E013F8015B01F854
:10029000015B521EF9D5A142D8D3002070BDFEE704
:1002A000704701B5009801E0401E00900028FBD186
:1002B00008BD00008000A0F1C0400029016802D004
:1002C00041F0010101E0024A114001607047000065
:1002D000FEFF0F0070B501688900A1F1C0410B68F5
:1002E000334A1340D0E901242243D0E903452C438B
:1002F00022434469224384692243C4692243046A35
:100300002243446A2243846A2243C46A2243046B20
:1003100022431A430A608168082907D101688900CD
:10032000A1F1C0410A6842F040020A6001688A00F7
:10033000A2F1C042516801F04043416BD1E9004550
:1003400044EA05148D688E892D0245EA06452C4342
:100350000D8A44EA05540D7D896944EA05640C431D
:100360001C435460C16AB1F5804F08D000686FF03B
:1003700070418000A0F1C040C0F8041170BD016858
:100380008900A1F1C041D1F80421806B094B1A40CA
:10039000D0E9003443EA041384688589240244EADE
:1003A00005448069234303431343C1F8043170BDFE
:1003B0008000F7FF0000F0CFF0B5002201274FF0DA
:1003C000030C0B6807FA02F52B40AB422CD10668F0
:1003D00053000CFA03F4A64306600E79D0F800E04F
:1003E0009E4046EA0E0606600E79012E01D0022ECE
:1003F00012D18668A64386604E79D0F808E09E4008
:1004000046EA0E0686604668AE43466045688E79C9
:100410009640B6B235434560C568A543C560CC7902
:100420009C40C3681C43C460521C102AC9D3F0BD51
:100430004B07DB0E9A40C90810B500EB8100016A3A
:100440000F249C40A1430162016A1143016210BD67
:10045000418370470183704770B50C46054600F034
:10046000F3F8A8682168C16261680163A16841630B
:10047000490707D5D0E90021C0E90012D0E90221DF
:10048000C0E90212A18981842169002903D001DC1D
:100490004FF00001016270BD2DE9F0411E46174684
:1004A0008846054600F0D0F8AC686822414604F55D
:1004B0008670FFF785FE2846B8472846B04728696A
:1004C00080688047A062BDE8F081000010B5044656
:1004D00000F0BAF8A0680C49C0F8AC100B49C0F89D
:1004E000A8100B49C0F8B0100A49C0F8B8100A4962
:1004F000C0F8B41030F8261F21F0030120F8161BB5
:100500000649816510BD0000C94D0008D54E0008A0
:10051000914D0008B74A00089F4A0008414D000865
:1005200010B5044600F090F8A46810481021C4F8F3
:10053000E4000F48C4F8E8000E48C4F8EC000E4888
:10054000C4F8F0000D48C4F8A0000D48C4F8A40099
:10055000D4F8C400C4F8FC00D4F894202046904796
:100560001020A0630748606410BD0000693A0008CD
:100570008D3F000889050008B9060008814A000877
:1005800093510008087A0008F8B5846815460F46AC
:1005900094F8260080074CD5D4F8003120469847BF
:1005A0000646D4F804312A46394620469847D4F8FE
:1005B000983005461BB1002201212046984720694A
:1005C000B04201DD012000E00020A169B14201DA62
:1005D000012100E0002108436169A94201DD0121F8
:1005E00000E000210843E169A94201DA012100E0AD
:1005F000002108430AD060680022401E0090236852
:10060000D4F8A870114620465B1EB847D4F8AC3029
:100610002A46314620469847D4F8A01020468847FD
:10062000D4F8983005466BB1012200212046984746
:1006300008E0D4F8AC3020469847D4F8A010204603
:10064000884705462846F8BD70B5044680680028EE
:1006500012D14FF4BA75284600F088F92A460021D5
:10066000A06000F0B7FDA0680221C18401210464EC
:1006700001620249C0F8081170BD0000810600083F
:1006800010B590B0044620220A496846FFF798FD4D
:1006900008492022203108A8FFF792FD606B5DF821
:1006A0002010C4F8001108A951F82000C4F8040172
:1006B00010B010BD707200082DE9F84384689846A8
:1006C000154694F826000F46800740D5D4F800312F
:1006D000204698470646D4F804312A463946204633
:1006E000984705462069B04201DD012000E0002066
:1006F000A169B14201DA012100E0002108436169EA
:10070000A94201DD012100E000210843E169A9427D
:1007100001DA012100E0002108430AD060680022CC
:10072000401E00902368D4F8A870114620465B1E36
:10073000B847D4F8AC302A46314620469847D4F81A
:10074000A42001B041462046BDE8F0431047D4F84C
:10075000AC30F2E72DE9F04FDFF828B191B04FF05F
:10076000FF35DBF80030B3F922100691DE69B3F9EA
:100770002490F469A189814206D8E289824203D398
:10078000471AD4F8008012E0D4E9018100296FD023
:100790000A8882426CD84D88854269D3801A82B219
:1007A000486800EB8200B0F90070B0F90250781C84
:1007B0005ED0307EA17C10FB01FA217CCDE90701DF
:1007C000B3F92A60304601F0D1FBC0B20E90DBF8DD
:1007D000000007FB0A81A37C826B0127CDE904128C
:1007E000CDE90273C069089AC17E807ECDE900011F
:1007F000DDE90603494601F0D5F8681C18D046F03B
:10080000020001F0B3FBDBF80000A37C05FB0A81CA
:10081000826BCDE90273CDE90412C069089AC17EEA
:10082000807ECDE90001DDE90603494601F0BAF812
:10083000DBF800005D46C069417E007E814214D92C
:10084000022E12D086F0040001F090FB2868C069E7
:10085000027EC37E12FB0391437E857E089A069832
:100860004B4412FB050201F0FFF90E9801F07EFBEC
:10087000DBF80000627C418C1144418411B0BDE87A
:10088000F08F00005000002004480068C069C06973
:1008900009B1027C0A60407C7047000050000020D3
:1008A000022008807047C06982898A4202D8C289C2
:1008B0008A4210D2806880B102888A420DD843886B
:1008C0008B420AD3406800EB8100A0EB8200B0F9B4
:1008D0000000002801DB012070470020704700283D
:1008E00001D002F0BDBB704738B50546FFF7F7FFF2
:1008F000040009D000F092F82A460021009000F090
:1009000069FC684600F098F8204638BD024A10603D
:1009100021F0030050607047F4A90C2010B50028A6
:1009200014D004460A48406B10F8341000290DD04A
:1009300002290BD2042101EBC4014158486802F09E
:1009400047FB2046BDE8104004F086B810BD00000B
:1009500034A90C20002805D0034AD16B016001B1F5
:100960004860D0637047000034A90C202DE9F041A5
:10097000044603F039FF2848E41C24F00305016C09
:100980002D1DA94200D90D46C46B13E054F8042C68
:10099000AA420ED184B1216809B162684A606168D7
:1009A00009B122680A60C26BA24231D12168C163D9
:1009B0002EE02468002CE9D18046816BC0680F18B6
:1009C00057F8040C3E1A306838B1002004F0CCF817
:1009D00057F8040C3E1A3068D0B97068A84217DB8B
:1009E0003044441B3046241D04F0A4F8D8F80C1001
:1009F000491BC8F80C10D8F814102944C8F8141072
:100A00007068401B02D0314602F0E2FA44F8045C00
:100A10002046BDE8F081000034A90C200549CA69D0
:100A2000521CCA61496B01EBC0010A78521C0A7062
:100A300000F01AB834A90C200A4902684B6B52F82E
:100A4000082C03EBC2021378022B03D3CB690BB142
:100A50005B1ECB611178491E1170002101600846B0
:100A60007047000034A90C20002806D00349042256
:100A700002EBC000496B08580830704734A90C20BD
:100A800010B5C2B2CBB2D21A00D5524293B25B4378
:100A9000C0F30722C1F30724121B00D55242000CF9
:100AA00092B2A0EB114002FB023200B2002801DA40
:100AB000404200B280B200FB002010BD10B5002102
:100AC000084600F0FFF843F6FF725042BDE81040C0
:100AD00013460146AFF300802DE9FC4107461C4652
:100AE00015460E46042001F041FA80461148C068C0
:100AF000C16C006D0F4406440D440444ADF8007011
:100B0000ADF80450ADF80260ADF80640684602F05A
:100B1000E9F807E023462A463146384601F0A4F8B2
:100B200002F0A2F80028F5D1404601F01FFABDE816
:100B3000FC810000440000202DE9F0411C461646CF
:100B40000D460746022B02DB0020BDE8F0811C2089
:100B5000FFF70CFF0028F8D00DB105610AE0094A43
:100B600052F8241009B905E011460A68002AFBD1A1
:100B70000969016184618682002101604160C0E9E8
:100B80000217E2E76800002070B51D46FFF7D4FFAA
:100B9000040009D000F00EF8E068006820B90348AE
:100BA000006800EB85008465204670BD5000002081
:100BB000FFF7D0BE70B590B38269022A30DA1E4CBE
:100BC00054F8221019B944F8220032E019464B6853
:100BD000002BFBD106E0CB68C5681B682D68AB42D3
:100BE00003DD09680029F6D11AE0C1B1CB68C668F7
:100BF0001B683668B3420CD1838A012B05D008E00C
:100C00001946DB681B68AB4203DB0B68002BF7D18E
:100C100029B14B6833B118604A68426004E0FFE7CD
:100C2000012070BD44F822004860884200D10021B4
:100C30000160002070BD0000680000200A4A816940
:100C400052F82130834202D1036842F821304168D2
:100C500009B102680A60016809B142684A6000216E
:100C6000016041607047000068000020022801DB3D
:100C700000207047054951F8200004E0C168096868
:100C80000029F6D000680028F8D1704768000020DD
:100C9000034951F82000C1688A6A08211047000002
:100CA00068000020024951F8200000690068704780
:100CB00068000020024951F8200000694068704730
:100CC0006800002070B50D4603F012FD044628466A
:100CD00003F016FD204370BD2DE9F041194801686D
:100CE00021F0010101601848012585601749016064
:100CF00000681749884200D0FEE700F003FA154E5D
:100D00002E20307000F06BF9134803F035FD04F02D
:100D100031FE074601F004F810B101F00BF838B9C4
:100D200001F00EF8044601F001F8214601F018F92F
:100D30000021084600F0F0F801F010FE757038460A
:100D4000BDE8F081002000E000300240C2A507F4B9
:100D5000CDB5E8B54400002000AA0C2038B5040049
:100D600018D00D480068006EA04201D100F0ABF829
:100D70002046FFF753FE0090406908B100F00CF9DF
:100D800000980068FFF714FF6846FFF755FE2046FD
:100D9000FFF7C4FD38BD00005000002038B5002426
:100DA00060B1FFF73BFE00900068006980688047F3
:100DB00001F092FA04466846FFF73EFE204638BD31
:100DC00038B5002808D0FFF729FE00F1180400907C
:100DD0006846FFF731FE204638BDF8B516460F4687
:100DE000050012D0FFF71AFE009044696846FFF72D
:100DF00023FE2846FFF7D2FF0346082800DD2CB16A
:100E000032463946284604F0E1F9F8BD3246394603
:100E1000284604F07BFBF8BD10B5002821D009B3AB
:100E20000AB3B1F90040B2F900309C4200DA23461F
:100E30000380B1F90240B2F902309C4200DA234645
:100E40004380B1F90440B2F904309C4200DD2346EE
:100E50008380B1F90610B2F90620914200DC1146F8
:100E6000C18010BD11460A6802604968416010BD2A
:100E700000280BD003880B440380838819448180A9
:100E8000418811444180C1881144C1807047B0F944
:100E90000220B1F906309A4213DCB1F90220B0F910
:100EA00006309A420DDCB0F90020B1F904309A42C4
:100EB00007DCB1F90010B0F90400814201DC012027
:100EC00070470020704710B500F0E0FF01F096F881
:100ED000BDE8104001F018BC70B5094D0446022C65
:100EE0002868467C09D22046FFF7C0FE28B1286852
:100EF0004474FFF7E8FF03480460304670BD00000B
:100F000050000020BC00002000F0E0BF01498860D4
:100F10007047000044000020094A30B41080094A9C
:100F20001180094A1268537C084A52F82330DA6863
:100F3000146A0A46A446014630BC184660470000C1
:100F4000740000207600002050000020680000207F
:100F500002480068002800D00047704724010020A4
:100F600002498A6802B98860FFF7F2BF14010020C5
:100F70002DE9F0411E46069C1746884605463A462E
:100F8000A8687F1C3346D0F804C041462846E04795
:100F9000641EF4D1BDE8F08138B50546FFF73EFD8B
:100FA00000908189491E0CB284816846FFF744FD98
:100FB000002C02D12846FFF7B1FC38BD10B504491A
:100FC0000448FFF7A3FCBDE810400348FFF79EBFAD
:100FD00000A80C0034010020A47900087047704775
:100FE00010B5082A0EDC0346012A18D0022A56D072
:100FF000042A76D010F8042B03F8012B491EF9D1EE
:10100000012010BD102A08DC4FEA000230F8043B32
:1010100022F8023B491EF9D1F2E7002010BD10F87A
:10102000042BD207120E491E34D010F8044B491E6F
:1010300004F0010442EA84122CD010F8044B491E3B
:1010400004F0010442EA441224D010F8044B491E73
:1010500004F0010442EA04121CD010F8044B491EAB
:1010600004F0010442EAC40214D010F8044B491EF3
:1010700004F0010442EA84020CD010F8044B491E2B
:1010800004F0010442EA440204D010F8044B04F0D6
:101090000104224303F8012B0029C0D1B0E710F866
:1010A000042B9207120E491E15D010F8044B491E4E
:1010B00004F0030442EA04120DD010F8044B491E58
:1010C00004F0030442EA840205D010F8044B04F053
:1010D00003042243491E03F8012B0029DFD18FE7C7
:1010E000FFE710F8042B1207120E491E05D010F866
:1010F000044B04F00F042243491E03F8012B00297E
:10110000EFD17DE70A4810B5816900290ED1012190
:101110008161FFF753FF00F083FF054905481C314B
:101120000860BDE81040084600F04CB810BD000053
:1011300044000020A5490008B0F90030B1F90020B2
:10114000934200DA0280B0F90230B1F902209342F2
:1011500000DA4280B0F90430B1F90420934200DD96
:101160008280B0F90620B1F906108A4200DDC18004
:10117000704770B5B1F90040B2F900309C4200DD13
:1011800023460380B1F90250B2F90240A54200DDC6
:101190002C464480B1F90460B2F90450AE4200DA42
:1011A00035468580B1F90610B2F90620914200DB80
:1011B0001146C1809D4201DBA14201DA002070BDD1
:1011C000012070BD02494A694260486170470000D1
:1011D0004400002010B502E000F8011B521E0AB1C5
:1011E0008307F9D1930818D001EB014402F0030200
:1011F00004EB042406E010C01B1F10C040F8084B8D
:1012000040F8044C042BF6DA01E010C05B1E002B02
:10121000FBD102E000F8011B521E002AFAD110BDDA
:1012200010B5830702D520F8021B521E530811D0B7
:1012300001EB0144042B09DB10C01B1F10C0042B61
:1012400040F8084B40F8044CF6DA01E010C05B1E91
:10125000002BFBD1D20700D0018010BDFEE70000BB
:10126000044A00284FF40071104601D0FFF7F2B88D
:10127000FFF7EEB80014024070B51D46144600F0AA
:1012800003FA044904FB05F00989BDE8704000F049
:1012900090B800001800002001B5009801E0401E41
:1012A00000900028FBD108BDF0B5184F203A96B247
:1012B000FD68AA88EB882D6802FB03F44FEAE47C02
:1012C00004EB5C74C4F3C70406FB045500F0DCF9BE
:1012D0004FF0D0462C2030800021B7F806C0802285
:1012E0003F8910E000206B5C22FA00FE13EA0E0F2B
:1012F00002D0A6F802C000E07780401CC0B20828E7
:10130000F1D3491CC9B2A142ECD3F0BD18000020B2
:10131000F0B516460D4604460F4F19E0F8687B8875
:1013200081882144994203D9C188002429448DB27F
:10133000C088B9882844884201D900242546294616
:101340002046FFF7B1FFF868761C8088204484B2FD
:101350003278002AE2D1F0BD1800002000B501214A
:1013600097B0084600F0FAFF042188060790002095
:10137000CDE902010490CDE9081001910590082102
:101380000A9106901021CDE90B100E9009020F90E2
:10139000CDE9100112901390149001A815901690A9
:1013A00008A8FEF797FF01210420FEF783FF17B07E
:1013B00000BD10B500224FF0D0432C241C8001E06A
:1013C0005980521C8242FBD310BD00002DE9FC5F06
:1013D0000121782000F0B6FF00208DF806000124DE
:1013E0008DF8074002258DF8045003208DF8050084
:1013F0004FF4804869467948CDF80080FEF7DCFF5D
:101400000C220E217548FFF713F84FF40049694686
:101410007248CDF80090FEF7CFFF0C220F216F48E5
:10142000FFF706F869466D480094FEF7C5FF0C22E9
:1014300000216A48FEF7FCFF694668480095FEF700
:10144000BBFF0C2201216548FEF7F2FF80200090CF
:1014500069466348FEF7B0FF0C2207216048FEF79B
:10146000E7FF4FF4807A69465D48CDF800A0FEF7AB
:10147000A3FF0C2208215A48FEF7DAFF66026946EC
:1014800057480096FEF798FF0C2209215448FEF7B2
:10149000CFFFA702694652480097FEF78DFF0C2246
:1014A0000A214F48FEF7C4FF4FF4006B69464C48D1
:1014B000CDF800B0FEF780FF0C220B214848FEF764
:1014C000B7FF2003009069464548FEF775FF0C22E0
:1014D00011464348FEF7ACFF600300906946404860
:1014E000FEF76AFF0C220D213D48FEF7A1FF694679
:1014F0003B48CDF80080FEF75FFF0C220E213848F4
:10150000FEF796FF69463648CDF80090FEF754FF87
:101510000C220F213248FEF78BFF69462F48CDF889
:1015200000A0FEF749FF0C2208212C48FEF780FF9F
:1015300069462A480096FEF73FFF0C2209212748FA
:10154000FEF776FF694625480097FEF735FF0C2227
:101550000A212248FEF76CFF1020009069461F48C0
:10156000FEF72AFF0C2204211C48FEF761FF202011
:10157000009069461948FEF71FFF0C220521174805
:10158000FEF756FF0097174F69463846FEF714FFDF
:101590000C220A213846FEF74BFF134F69463846A6
:1015A0000094FEF709FF0C2200213846FEF740FFA9
:1015B0008DF8044000208DF806008DF807408DF866
:1015C000055069463846CDF800B0FEF7F5FE69468D
:1015D00038460096FEF7F0FEBDE8FC9F000C024086
:1015E00000100240001802400014024010B5072805
:1015F00029D8174AC4074FF4F071107040F25633DF
:1016000022D0538091804FF0D04136230B8040018F
:1016100048802A2008800020488048805088401E4A
:10162000C0F307234B80C0B248802B2008800020E5
:10163000488048809088401EC0F307224A80C0B28C
:1016400048802C20088010BD51809380DBE700008B
:101650001800002010B5FFF7B9FEFFF77FFE00F07D
:101660007BF900F02FF8074C2078FFF7BFFF00212F
:10167000A38862880846FFF7FFFDBDE810400120FF
:10168000FFF7EEBD1800002030B54FF0D0442A25FA
:101690002580050A6580C5B265801044401E020A97
:1016A0006280C0B260802B202080080A6080C8B2AF
:1016B0006080C818401E010A6180C0B260802C2082
:1016C000208030BD70B54FF4A0452846FEF7E9FDF7
:1016D0004FF0D044FF20208060809820608006205A
:1016E00060802846FEF7DDFDBA2020806020608003
:1016F0002846FEF7D6FDBC202080032060800E2007
:10170000608061206080FF206080052060806080B4
:101710001B206080102060807320608063206080C8
:10172000FF206080608005206080608000206080F5
:101730006080D5206080D020608001206080002003
:101740006080402060802846FEF7ABFDBD202080F1
:1017500001206080232060804520608067206080B9
:1017600001206080232060804520608067206080A9
:101770002846FEF796FDBE202080012060802D20A7
:101780006080CB206080A220608062206080F22098
:101790006080E22060802220608060802846FEF722
:1017A00080FDC7202080632060802846FEF779FDF9
:1017B000ED2020807F2060800F20608000206080EE
:1017C0002846FEF76EFDC0202080032060800B209D
:1017D0006080002060802846FEF763FDFC202080AA
:1017E000082161802846FEF75CFDDF202080002074
:1017F00060806080608060806080202060802846FB
:10180000FEF74FFDF3202080742060802846FEF70D
:1018100048FDF920208000206080FD20608080202D
:1018200060806080C02060802846FEF73AFDB420CA
:10183000208002206080608060802846FEF731FDB5
:10184000F7202080812060802846FEF72AFDB12005
:101850002080002060801320608060802846FEF792
:1018600020FDF2202080C020608002206080402087
:101870006080282060802846FEF713FDC12020806C
:10188000172060807520608060802020608028465E
:10189000FEF707FDE02020800020608005206080AA
:1018A000082060800C2060800F2060801520608000
:1018B0000920608007206080012060800620608011
:1018C0000920608016206080142060803E206080A7
:1018D0006080002060802846FEF7E3FCE120208045
:1018E00000206080092060801220608060801320CA
:1018F00060801C20608007206080082060800520B8
:1019000060800820608003206080022060800420C6
:1019100060801E2060801B20608000206080284640
:10192000FEF7BFFC3A202080552060802846FEF755
:10193000B8FC35202080002060802846FEF7B1FCEE
:10194000112121802846FEF7ACFC29212180284660
:10195000BDE87040FEF7A5BC70B50A4D4FF40064B9
:1019600021462846FEF774FD40F6FF263046FFF775
:1019700093FC21462846FEF76DFD3046BDE87040D9
:10198000FFF78ABC001402400449054A0968497CF3
:1019900052F821100969096808470000500000202A
:1019A000680000202DE9F04F05468DB07B48DDF83A
:1019B00060901A9C00681E4617464FF0000A78B1E6
:1019C0001B9B199ACDF808900593CDE90324DDE916
:1019D0001623CDE90023046833463A46284680E0C2
:1019E000DDE9160201EB060805EB070C1043A8F130
:1019F0000108ACF1010C012806D0C9F108000590DE
:101A0000002002910990C6E065480268B2F90A30E8
:101A1000581A002806DD361A002E63DD1946199B78
:101A200000FB0344B2F90E00A8EB0000002802DD21
:101A3000361A002E56DDB2F90C00ACEB000000287F
:101A400000DD3F1AB2F908300020AB4235DD581BEB
:101A50003F1A4B46B9F1080F26D006DC012B0BD0FC
:101A6000022B11D0042B28D116E0102B1ED0182BDE
:101A70001FD0202B21D11CE020F0070304EBE00451
:101A80001D4400F0070018E020F0030304EBA0045D
:101A90001D4400F0030010E020F0010304EB60049B
:101AA0001D4400F0010008E0044404E004EB40049D
:101AB00001E004EB800405440020002F12DD1B9B95
:101AC000DDF864C0CDE90403CDE90069CDE902C4C5
:101AD000527C34483B4650F82200C26854680A469B
:101AE0002946A0470DB0BDE8F08F17990298084429
:101AF0000C902B49401E00900A68B2F90A308342CC
:101B000041DCB2F90E10029881423CDB4FF0000B31
:101B1000D84603950A9434E0BBF1000F05D10A982A
:101B20004FF0080B10F801AB0A900599ABEB090BCD
:101B30003AFA01F00AFA09F101F0FF0A04D1184952
:101B40000968097C890716D415490968C96B0A68B0
:101B50000B921B9A0AB152F820000860169903985C
:101B6000009B4218521E029900F07EF80C490B9817
:101B70000968C96B08600399169808F101080844C0
:101B80000390B845C8DB0998401C09900C98029056
:101B9000199804440998B042A7DBA3E7700000201D
:101BA0005000002068000020F0B40C46124909687B
:101BB000B1F90A30A3421CDCB1F90E30A34218DBA4
:101BC000B1F90830834200DD1846B1F90C30934278
:101BD00000DA1A4682420CDB4B7C084951F823504C
:101BE00013462246E9688E6801462846B446F0BC92
:101BF0006047F0BC704700005000002068000020E3
:101C00000A46174930B40968B1F90A30934225DC15
:101C1000B1F90E30934221DBB1F9083083421DDC6B
:101C2000B1F90C30834219DB0B7C0E4CDB0709D079
:101C3000497C54F82130D968CC690146A44630BCAF
:101C400018466047CB6B497C1B6854F82140E1681B
:101C50008D6901462046AC4630BC604730BC7047B9
:101C6000500000206800002038B5134C2468B4F9F7
:101C70000850854200DD2846B4F90C50954200DA40
:101C80002A46824217DBB4F90A508D4200DD29460C
:101C9000B4F90E509D4200DA2B468B420BDB0093C9
:101CA000647C064B53F82440E3681D6913460A46DA
:101CB00001462046A84738BD50000020680000209B
:101CC000082102F053BC0000024809210068407C52
:101CD00002F04CBC50000020092102F047BC70B556
:101CE00000252C462046FEF7C1FF00B16D1C641C88
:101CF000022CF7DB284670BD02480068407C00F0EB
:101D000003B800005000002010B5FEF7AFFF002818
:101D100005D0C168CA6ABDE810400221104710BD55
:101D2000014800687047000078000020012002F0A0
:101D300093BC000001484068704700007800002014
:101D4000022002F089BC00F001B800002DE9F0414A
:101D5000002809D0876837B10D4E716819B1046841
:101D6000B4F5807F02DD0020BDE8F0813068844258
:101D700000DD0446002507E057F82500FFF704FEC4
:101D8000716841F825006D1CA542F5DB7068EBE732
:101D9000A00000200449054A0968497C52F8211036
:101DA00009694968084700005000002068000020C9
:101DB00010B5084A084B00F01F01C0F34514C0F3EA
:101DC000C420515C1B5D105C01EB032101EB004062
:101DD00010BD00003C7A00085C7A000810B50A4C7F
:101DE000606860B920688000FEF7C0FD606040B1A7
:101DF00004F10801054808600846FFF7E3F90020F0
:101E000010BD012010BD0000A0000020D149000835
:101E10002DE9F047FFF763FF07460024DFF86080F5
:101E20002AE02046FEF722FF28B3D8F8000090F8F9
:101E3000119044742046FFF743FF082817DC11482F
:101E4000114950F824000069884210D02046FFF75D
:101E500043FF0646002508E0E8B2FFF79BFF024675
:101E6000E9B2204600F088F86D1CB542F4DBD8F8E2
:101E7000001081F81190641CBC42D2DBBDE8F087F1
:101E80005000002068000020C07D000810B50D4CF7
:101E90000D492068407C51F8200048B1C16811B15B
:101EA0000968042901D00068F7E708B1FEF7C6FE0B
:101EB00020680021016600F108014161BDE8104081
:101EC00000F02EB850000020680000200149096889
:101ED000496808479C000020044909680A7C5207A9
:101EE00001D5C96B00E0896B086070475000002085
:101EF0007CB5094C05462068417C084850F8210013
:101F0000C1680A6B6946904720686A4629460830CE
:101F1000FFF72FF97CBD0000500000206800002072
:101F20000448016804484A7C083150F82200C2681D
:101F3000126B10475000002068000020014909681A
:101F4000096808479C000020044909680A7C520778
:101F500001D5896B00E0C96B086070475000002014
:101F6000014AC2E900017047780000200149096870
:101F7000896808479C000020F8B515460E460124E4
:101F8000FEF774FE009058B1C0681021426A68469E
:101F90009047030004D02A46314600989847002411
:101FA0002046F8BDF8B515460E460124FEF75EFE44
:101FB000009058B1C0680B21426A68469047030000
:101FC00004D02A4631460098984700242046F8BDA0
:101FD000F8B515460E460124FEF748FE009058B1AC
:101FE000C0680A21426A68469047030004D02A4626
:101FF00031460098984700242046F8BD10B5074C9C
:102000002068006BFFF7C0FCFFF79EFF2068406B65
:10201000FFF7BAFCBDE81040FFF75EBF500000209C
:1020200070B5A0B014211AA8FEF7F1F8682168462F
:10203000FEF7EDF800231A4616491748FEF7A4FDEF
:1020400004464FF458754FF4A0762A4631460020D6
:10205000FFF7A8FF2A4631460020FFF7B9FF00210D
:102060001B911A91032102201C911E901AA920464F
:10207000FEF7F2F9094808900948099009480B90C1
:1020800009480F90094B0A4A69462046FEF704FAB0
:1020900020B070BD247200083C720008372300088D
:1020A0001D230008252300080B2300082105000834
:1020B000CD04000810B5012902D04FF0FF3010BD4B
:1020C000FFF7C8FA002010BD2DE9FF4F8DB017466D
:1020D000674ADDF870901E9E209812681D46002405
:1020E0008AB11D9B1F98CDE90293CDE90460DDE91B
:1020F0001A03CDE9000314682B463A460D98A04711
:1021000011B0BDE8F08F0D9A01EB050802EB070C4A
:10211000DDE91A231A43A8F10108ACF1010C012AE8
:1021200006D0C9F108004FF0000B029105909CE029
:10213000504A1268B2F90A40631A002B06DDED1A04
:10214000002DDDDD21461D9C03FB0466B2F90E3037
:10215000A8EB0303002B02DDED1A002DD0DDB2F950
:102160000C30ACEB0303002B00DDFF1A0D9B1C1A97
:10217000B2F90830A3420DDDA3EB040C0CEB000315
:10218000181A20F007000444A7EB0C0706EBE3063F
:1021900003F00700002FB3DDDDF874C01F9BCDE90D
:1021A00002C6CDE90403CDE90059527C32483B46D2
:1021B00050F82200C26855680A462146A8479FE7A2
:1021C0001B99029808440C902A49401E00900A6806
:1021D000B2F90A30834242DCB2F90E100298814211
:1021E0003DDB4FF0000A0D980A96D046039034E08C
:1021F000BAF1000F05D10A984FF0080A10F8014B08
:102200000A900599AAEB090A34FA01F004FA09F4D4
:10221000E4B204D117490968097C890717D4154924
:102220000968C96B0A680B921F9A0AB152F820001C
:10223000086003991A98009B0A18DDE90210521EE3
:10224000FFF712FD0B490B980968C96B08600399E9
:102250001A9808F1010808440390B845C8DB0C98A7
:1022600002901D980BF1010B0644AB45A8DB47E734
:10227000700000205000002068000020002818D0C6
:10228000410817D0810817D0C10817D0010917D00D
:10229000410917D0010A17D0410A17D0010B15D0F8
:1022A000C10B13D0010C11D0810C11D0000E11D034
:1022B000202070470120704702207047032070479C
:1022C0000420704705207047082070471020704791
:1022D000122070471820704700B50022FFF7CEFF8C
:1022E000012804D0811E062903D808220BE0012210
:1022F00009E0A0F10901072901D8102203E01138F3
:102300000F2800D82022104600BD4FF0D04302E035
:102310005A8820F8022B491EFAD270474FF0D0415C
:10232000488070474FF0D04202E030F8023B5380C3
:10233000491EFAD270474FF0D04108807047FEE73F
:1023400070477047044A0029116801D0014300E03A
:10235000814311607047000030380240044A002970
:10236000116801D0014300E0814311607047000013
:1023700038380240044A0029116801D0014300E0C6
:1023800081431160704700004438024070B5204B13
:102390001968204C11F00C0104D01F4E042903D001
:1023A000082903D004601BE0066019E0184A121FD8
:1023B0001168C1F38055116801F03F0115B1B6FBFA
:1023C000F1F101E0B4FBF1F114681268C4F3881470
:1023D0006143C2F30142521C5200B1FBF2F10160B1
:1023E00019680F2202EA11110C4A545C0168E1409D
:1023F00041601C68072505EA9424145D21FA04F461
:1024000084601B6805EA5333D25CD140C16070BD63
:10241000083802400024F40040787D0100000020CC
:10242000704700000CB5002227490092019208680D
:1024300040F4803008604FF4A043086800F4003096
:1024400001900098401C0090019810B900989842A3
:10245000F3D10868800334D5012001901A48403038
:10246000026842F0805202601848026842F440421A
:1024700002601548083002680260026842F40042B7
:102480000260026842F4A0520260031F104A1A6000
:102490000A6842F080720A600A689201FCD50D4910
:1024A00040F205720A60016821F0030101600168D1
:1024B00041F0020101600168C1F381010229FAD1F2
:1024C0000CBD01920CBD00000038024000700040BD
:1024D00019544F07003C024070470000124810B5E5
:1024E000016841F4700101601048016841F0010188
:1024F00001600E4A00210832116002680C4B1A403C
:102500000260031D0B4A1A60026822F480220260F6
:1025100006480C300160FFF785FF03494FF000606B
:102520008039086010BD000088ED00E000380240EE
:10253000FFFFF6FE1030002470B5084D40F2255420
:102540002146284600F068F8002805D02146284694
:10255000BDE8704000F004B870BD000000100140FC
:102560000A0A01219140C9430180704700298189ED
:1025700002D041F4005101E021F400518181704703
:1025800070B5012186B00846FFF7DCFE012110205E
:10259000FFF7F0FE1E4E07220A213046FDF748FFE6
:1025A000072209213046FDF743FF00248DF806403D
:1025B00001208DF80700022540028DF8045000909C
:1025C0008DF8055069463046FDF7F6FE680200902A
:1025D0008DF8045069463046FDF7EEFE4FF4165074
:1025E000ADF80C400290ADF80E40ADF81040ADF8DB
:1025F00014400C20074CADF8120002A9204600F050
:102600002BF801212046FFF7B1FF06B070BD000096
:10261000000002400010014070B501F01F050126C6
:102620000024C1F3421306FA05F2012B0FD0022B4E
:102630000FD0838A4FEA11210088134206FA01F66F
:1026400000EA060001D000B10124204670BD838954
:10265000F0E7038AEEE700007FB50446008A0D46E6
:10266000C98820F4405001432182A08941F20C61C5
:102670008843A9882A8911436A8902431143A181A9
:10268000A08A20F44071A8890843A0826846FFF719
:102690007DFE1A48844202D01948844201D1039831
:1026A00000E00298A189090400EBC00101EB0010D1
:1026B000296801D5490000E08900B0FBF1F06422EF
:1026C000B0FBF2F109010B096FF018056B4300EB49
:1026D0008300A3891D044FF0320306D503EBC0002D
:1026E000B0FBF2F000F0070005E003EB0010B0FBD8
:1026F000F2F000F00F00084320817FBD0010014080
:1027000000140140FEE7000002490120096881F839
:1027100054007047500000202DE9F0418AB00400B9
:1027200036D0FEF77BF90190D0E90012CDE9041212
:10273000876A056A01A8FEF77FF9204600F0B4FA1F
:10274000060025D0204600F002F98046B80704D5DF
:102750002A46414604A800F0F8FB2046FEF75EF941
:1027600001904046FEF75AF906903046FEF756F9BA
:10277000039005620698019AC1691162C46101A8BB
:10278000FEF75AF906A8FEF757F903A8FEF754F921
:102790000AB0BDE8F08100002DE9FC5FDFF834A14C
:1027A0000746DDE90C54DAF81800DDF83CB098462D
:1027B00091460E4604434DB9BAF8020048B3464864
:1027C0000AF144010068407C51F82050681C0ED08A
:1027D000FDB12846FEF722F90190B0F90010B0F9DA
:1027E00002200F441644B9F1000F02D006E0002584
:1027F0000FE0B0F90430591A01F10109B8F1000FE6
:1028000004D1B0F90600801A00F1010801A8FEF712
:1028100013F90BF12C00FEF767F85FEA000B56D0B6
:10282000BAF80200401CAAF802005846FEF7F6F873
:102830000090078007EB09014680491E818006EB66
:102840000801491EC1800E990161244A816A224013
:10285000114381626846FEF7EFF8DAF810005E4631
:1028600050B1FEF701F907463046FEF7FDF8014684
:10287000786948617E6101E0CAF810B0294658467F
:1028800000F0A8FAA00602D5584600F03FF9E0078C
:1028900004D0DAF82410491CCAF82410600602D5C6
:1028A0005846FFF739FFA0070DD55846FEF7B6F892
:1028B0000090816A41F0020181626846FEF7BCF82F
:1028C000584600F0F0F80121584600F079FB5846D0
:1028D000BDE8FC9FB0000020500000209F3F3F005B
:1028E00010B50446C168D4E90020172A0DD004DCD5
:1028F0000E2A0CD0142A07D104E0222A0CD0282A50
:1029000002D10CE000F08BF90020E06010BD214600
:10291000BDE8104000F018B96FF07040F5E7BDE871
:10292000104000F0C0B80000034804490068407C33
:1029300051F820007047000050000020F4000020F3
:1029400010B5002802D0FEF78FF8C06910BD10B591
:10295000002802D0FEF788F8806910BD2DE9FF5FDE
:102960002C4D6878002853D100272B482F616F63C6
:102970000068DFF8A8903C464764AF806F804FF056
:10298000020A4FF0FF3B43F6FF7805F1440620466C
:10299000FEF76CF998B1CDE90297CDE900BA0021B4
:1029A000424643460846FFF7F7FE1A4A46F8240017
:1029B0004C326FF0704142F8241000F074F8641C3F
:1029C000022CE4DB164FDFF85C80DFF85C9000241B
:1029D00007EBC40000F0ECF808EBC40000F0E8F8E6
:1029E00009EBC40000F0E4F8641C022CF0DB306852
:1029F00000F08CF8FFF788FE0120064968703C3132
:102A00000A48086004B00846BDE8F05FFEF7DABB8C
:102A1000BDE8FF9FB00000205000002025590008AD
:102A2000F8AA0C2008AB0C2018AB0C20E5490008D4
:102A300070B586B00D4606002CD0FDF7EFFF009074
:102A4000846AA10723D5D0E90010CDE90110E00385
:102A500002D5304600F014FA5DB12868039068682A
:102A6000049003A9009800F0ABF803A901A8FEF7B1
:102A700063FB314601A800F0ABF840B140F601001D
:102A80000440012C08D001A9304600F0F5F9684651
:102A9000FDF7D2FF06B070BD0098026A816901A8F7
:102AA00000F053FAF3E70021FFF7C2BFFEB5154669
:102AB0000E4604001CD0FDF7B1FF0246009090F8CE
:102AC0002800800711D5314601A8FEF752FB60B1FE
:102AD0006846FDF7B1FF2A4601A9204601F0D8FE5D
:102AE0002046FFF72DFF04460CE06846FDF7A4FFE3
:102AF000FEBD2A4601A92046FFF7D8FF2046FDF774
:102B0000B3FF046A002CF4D1FEBD000070B50C4D7B
:102B100004002868866C01D10A490C698464204647
:102B200000F026FAFFF7FCF92046FDF79DFF296823
:102B3000B0F90020CA64B0F902000865304670BDE3
:102B400050000020B000002070B50C00054609D0F0
:102B5000FFF7FDFE002805D02146A560BDE87040C6
:102B600000F010BA70BD00000EB50E48006890F875
:102B7000541009B10C4811E0806CFDF74FFF009034
:102B8000D0E90010CDE901106846FDF755FF074870
:102B9000816A11B101A800F01BF801A802F044F805
:102BA0000EBD00005000002078AA0C20B0000020CC
:102BB00002490A680260086070470000C4000020F3
:102BC0000B46B0F90220B0F900101846FEF750B9D4
:102BD00038B50C4605462046FDF720FF014600901B
:102BE00090F82800800703D46846FDF725FF12E01F
:102BF0002846FEF7A1FA0098806920B1044668468D
:102C0000FDF71AFFE7E76846FDF716FF204600F0DC
:102C10001FFB002801DA002038BD012038BD38B57F
:102C20000C4600280AD0002C08D0FDF7F7FE2146FC
:102C3000009000F004F86846FDF7FEFE38BD002263
:102C40004A800A8082880388D21A8A80C288408893
:102C5000101AC880704710B5FFF779FE002802D01F
:102C6000FDF702FFC06910BD0D4810B5006890F86F
:102C70005400002806D00B4C6069012803DD401E7B
:102C80006061002010BD2069401C206101F050FAF5
:102C900018B1FFF769FF012010BD6069EFE7000080
:102CA0005000002070AA0C2070B50546FFF7D3FF36
:102CB00008E0AC4201D1002406E0FDF7D5FE006A31
:102CC000A84201D00400F4D1204670BD10B50446DE
:102CD000FDF7CAFE80690028F9D12046BDE8104002
:102CE00000F0B6BAF0B5384E074687B0306890F8B5
:102CF000541041B1354C6169491C6161012905DD00
:102D0000012007B0F0BDFFF72FFFF9E7806CFDF75A
:102D100085FE2F4D4FF0FF3100902161297821B1C0
:102D200081680291C068039007E090F82810890735
:102D30003CD5D0E90010CDE902101FB1394602A8F8
:102D4000FEF7FAF93068406C78B300980490306868
:102D5000406C0168059140680690A86A30B104A8EB
:102D6000FDF76AFEA86AFDF759FE049005A90498CC
:102D7000FFF726FF05A902A8FEF7DEF90DF1100006
:102D8000FDF75AFEA96A19B102A8FFF721FFB0B1F9
:102D90003068816C02A8FFF71BFF80B1DDE90201FA
:102DA000C4E90001FFF760FFABE706E06069401E81
:102DB00060616846FDF740FE04E06846E0E7606950
:102DC000401E606100209CE75000002070AA0C208B
:102DD000B0000020FEB50D00044647D0FDF71EFEF2
:102DE00000900021856101622846FDF717FE0099D9
:102DF0000290C56991F8281001F008062DB1284607
:102E0000FDF70CFE019036B115E0C4616846FDF790
:102E100013FE02A828E090F8280000070BD50098C0
:102E200005620298C4616846FDF706FE02A8FDF738
:102E300003FE01A818E002A8FDF7FEFD01A8FDF7BA
:102E4000FBFD2846FDF710FE11E004620BE028466A
:102E5000FDF70AFE5EB990F82810090707D501981A
:102E60000462009805626846FDF7E6FDFEBD01902C
:102E7000056A002DEBD1E8E7202201F009BD000032
:102E800038B5040022D0FDF7C9FD009090F8281055
:102E9000890718D5406A40B10D49C96AA14204D0DA
:102EA000FDF75CFF0099002048622046FFF748FDCF
:102EB000044606E02046FFF7E3FF2046FDF7D4FD79
:102EC000046A002CF6D16846FDF7B6FD38BD000057
:102ED000B00000202DE9FF419846164607460D0038
:102EE00031D00846FDF79AFD0090846A0246A0079B
:102EF00026D5394601A8FEF73CF908B340F6010093
:102F00000440012C07D0424601A9284601F0C0FC2C
:102F10000098C46912E000984346026A816901A8DA
:102F2000FFF7D8FFF4E7B4420AD0424601A9204691
:102F3000FFF7BCFD2046FDF797FD046A002CF2D197
:102F40006846FDF779FDBDE8FF812023FFF7C2BF8A
:102F5000B0F90010B0F90420914205DCB0F902107C
:102F6000B0F90600814201DD002070470120704762
:102F700010B5FFF7ABFE002803DBBDE81040FDF7FE
:102F8000ABBF10BD70B50D4C06460D462068142829
:102F90000DDA3046FDF768FD01696E6041B12068C9
:102FA000401C2060284688472068401E206070BD75
:102FB0002846BDE87040FFF793BC000030010020B8
:102FC0001FB5CDE900106946FFF7DCFF1FBD00000B
:102FD0002DE9F041214D0C460646E968A86B0844EE
:102FE000A119401E814206D80846096819B94168EE
:102FF0000E4401F09FFDA86BA0420AD254F8040CC5
:10300000271A386828B978680644384601F092FDD6
:103010003C46304601F030FB10281CD205EBC007BF
:103020003246002120467B6C02F0C9F857F8440F65
:10303000083400B144602060002060603C60286873
:103040003044286095F8291029B9E968081AA96858
:10305000814200D2A8603046BDE8F08134A90C203E
:103060002DE9F041054601F0BFFB2A48046CAC4253
:1030700002D8ED1C25F00304804600680C34A04201
:1030800002D20020BDE8F08101F0C6FC071EF9D095
:10309000204601F0F1FA414630E000BF01EBC002EA
:1030A000526C52B3956845B36B68A34206D2AA68C6
:1030B0001AB395680DB36B68A342F8D3D8F84000F3
:1030C000191B0C301E46814200D23446284601F0BE
:1030D00031FD0421D8F8340001EBC701002345502D
:1030E00022463946284602F06AF8A64203DD29192D
:1030F000301BFFF76DFF3846C4E7401C1028CDD3C6
:10310000204601F031FD0028C2D0384601F0A4FC71
:10311000B7E7000034A90C2001207047F0B50B4D33
:10312000DFF82CC010C855FA84F6C4F30727C4F39F
:10313000074436781CF807702C5D06EB471606EB43
:10314000C4240C801944521EECD1F0BD9C7A0008B6
:103150009C7B00082DE9F0478146FEF7B5FD4FF056
:10316000000807466FF07F444546FEF7C5FD0600A0
:1031700018D000BF56F82510494502D12846BDE8B1
:10318000F0876D1CBD42F5DB5FF00005484656F840
:103190002510FDF775FCA04201D20446A8466D1C1F
:1031A000BD42F3DB4046EAE710B5084A52FA80F127
:1031B000074BC0F30724C0F3074009781B5D105C80
:1031C00001EB431101EBC02010BD00009C7A000808
:1031D0009C7B00082DE9F05F9A46DDE90A8791465D
:1031E0000C4605468B46164635F8020B4146884785
:1031F000B84701C4761EF7D15046BAF1200F06D267
:10320000024649465846BDE8F05FFDF7E9BEBDE815
:10321000F09F2DE9F05F9A46DDE90A8791460C465A
:1032200005468B46164615F8010B41468847B847B8
:1032300001C4761EF7D15046BAF1200F06D20246DD
:1032400049465846BDE8F05FFDF7CABEBDE8F09FAD
:103250000146064A002000BF52F820308B4204D0BD
:10326000401C0228F8DB4FF0FF307047F4000020CC
:103270002DE9FF4F85B08346DDE91390129ED0E91A
:1032800000A0DBF8085003904A488C191F460068DC
:103290004FF08008007C10F0030006D0012869D0B0
:1032A00002281BD0032816D164E0387828FA06F1EA
:1032B000084201D0039800E05046D5F8301180B2A2
:1032C0008847761C082E01D100267F1CA9F1010039
:1032D0005FEA0009E9D109B0BDE8F08F4FF0000ABC
:1032E000CDF808A0D5F86CB00194397828FA06F02A
:1032F000014202980BD020B90120CDE90140D5F858
:103300006CB003982BF8020B0AF1010012E00128BF
:1033100011D1631E00200290079800900246D5F854
:10332000A8C028460199E047D5F838215146E86EF3
:10333000904700208246641C761C082E01D100268E
:103340007F1CA9F101005FEA0009CED1BAF1000F9C
:10335000C1D00798631E00900246D5F8A8402846C1
:103360000199A047D5F83821E86E09B05146BDE86B
:10337000F04F1047397828FA06F001420DD0D5F801
:10338000EC3021465846079A9847AB6AD5F8F0C00A
:10339000434021465846079AE047641C761C082E95
:1033A00001D100267F1CA9F101005FEA0009E1D1EB
:1033B00091E70000500000202DE9FF5F9046DDE915
:1033C0000E924D4B99F80050C2F108048A465D5D9B
:1033D000DDE91071D540494A139E1268127C12F043
:1033E000030226D0012A03D0022A37D0032A72D141
:1033F0000069806880471FFA80FBBC4200D93C46C8
:103400003F1BBAF1000F68D0E8070AD0DAF80800CD
:103410004146039A036850469847318881EA0B0178
:1034200031806D0808F10108641E06F10206EBD137
:103430005EE0314ABC4200D93C463F1B05F001002A
:103440006D0831F8200026F8020B641EF6D1002F1B
:1034500050D019F8010F0824155CEBE788881FFA93
:1034600080FBBC4200D93C463F1BBAF1000F17D08D
:1034700095B1E80708D0DAF808004146039A0368D6
:1034800050469847A6F800B008F10108641E06F1FE
:10349000020612D06D08EBE706EB4406A0440CE0F0
:1034A0004DB1E80701D0A6F800B0641E06F102068F
:1034B00003D06D08F4E706EB4406002F1AD019F884
:1034C000011F0D480824455CCBE719F8011F0A4885
:1034D0000824455C91E70DE0FFE7E80703D030885A
:1034E00080EA0B0030806D08641E06F10206F4D1FC
:1034F000002FEAD1BDE8FF9FB87C000850000020F3
:103500002DE9FF4F85B08668DDE9125714989B4678
:1035100000283AD03F489BF800904C1900684FF0C3
:10352000C008007C10F0030016D002282DD14FF007
:10353000000ACDF80CA0F06ECDE90140C5F1030002
:103540004100C1F1060228FA02F000EA0900C84071
:103550002ED00399E1B120E0C5F103004100C1F193
:10356000060228FA02F000EA0900C840149931F86E
:103570002000D6F8301180B288476D1C042D02D18E
:103580001BF8019F00257F1EE6D109B0BDE8F08F32
:10359000012101940391F16E0291149931F82000F8
:1035A000029908800298801C02900AF1010013E041
:1035B0000398012811D1631E002003900798009002
:1035C0000246D6F8A8C030460199E047D6F838211F
:1035D0005146F06E904700208246641C6D1C042DFD
:1035E00002D11BF8019F00257F1EA7D1BAF1000F61
:1035F000CBD00798631E00900246D6F8A84030460C
:103600000199A047D6F83821F06E09B05146BDE8BF
:10361000F04F1047500000202DE9FF5F8B460FA9A7
:10362000DDF8388091E82104C0F10401CCB298F8AB
:103630000010400081402F48129F91460068CEB292
:10364000007C10F0030004D001283AD002284FD1AA
:1036500014E0AC4200DDECB22D1BB1093AF82100B8
:1036600027F8020BB006060E641E14F0FF04F4D116
:10367000002D3DD0042418F8016FEAE7AC4200DDCC
:10368000ECB22D1BB0090DD0B109BBF1000F3AF817
:103690002100388006D0DBF808004946039A036809
:1036A00058469847B006060E641EBF1C09F1010972
:1036B00014F0FF04E6D1002D1AD0042418F8016F8D
:1036C000DCE7AC4200DDECB22D1BB00903D038883A
:1036D00080F0FF003880B006060E641EBF1C14F098
:1036E000FF04F2D1002D03D0042418F8016FE8E79D
:1036F000BDE8FF9F500000202DE9FF4F85B0866890
:10370000DDE9125714989B4600283AD03F489BF8B1
:1037100000904C1900684FF0F008007C10F0030096
:1037200016D002282DD14FF0000ACDF80CA0F06E73
:10373000CDE90140C5F101008100C1F1040228FA80
:1037400002F000EA0900C8402ED00399E1B120E060
:10375000C5F101008100C1F1040228FA02F000EA7B
:103760000900C840149931F82000D6F8301180B211
:1037700088476D1C022D02D11BF8019F00257F1E7A
:10378000E6D109B0BDE8F08F012101940391F16EFB
:103790000291149931F82000029908800298801C47
:1037A00002900AF1010013E00398012811D1631E71
:1037B00000200390079800900246D6F8A8C0304633
:1037C0000199E047D6F838215146F06E9047002025
:1037D0008246641C6D1C022D02D11BF8019F00253E
:1037E0007F1EA7D1BAF1000FCBD00798631E0090BF
:1037F0000246D6F8A84030460199A047D6F83821AD
:10380000F06E09B05146BDE8F04F1047500000205F
:103810002DE9F05F92460BAA894692E842010A9F81
:103820009B468B003A78C1F102009A40D5B24F4ACC
:103830000E9CC0B21268127C12F003021BD0012A47
:103840007CD0022A3AD1D9B328090DD02909B9F17F
:10385000000F38F82100208006D0D9F808005A4619
:103860005146036848469847A41C0AF1010A17F814
:10387000015F761E4CE039B12909761E38F8210027
:1038800024F8020B17F8015F022E11DB701006F00E
:1038900001062A09401E38F8221005F00F0224F80C
:1038A000021B38F8221024F8021B17F8015FF0D130
:1038B000002E03D0290938F821002080BDE8F09FB0
:1038C00026E028090DD02909B9F1000F38F82100A8
:1038D000208006D0D9F808005A4651460368484669
:1038E000984715F00F000DD038F820006080B9F12E
:1038F000000F07D0D9F808005A460AF10101036801
:103900004846984717F8015F241D0AF1020AB61EBF
:10391000022ED6DA002ED1D02809CFD038F82000D8
:103920002080B9F1000FC9D0D9F808005A46514695
:1039300003684846BDE8F05F1847FFE7B04200DD86
:10394000F0B2361AA90903D0218881F0FF01218045
:1039500029070D0E401EA41C10F0FF00F2D1002E0E
:10396000ACD0022017F8015FE8E70000500000200B
:103970002DE9FF4F83B08568DDE9107B1E460C46BC
:103980005FEA0B0020D02E480068007C10F0030096
:1039900018D0022818D14FF00008D5F86C90C24614
:1039A000CDF8044016F8010BE8B1BAF1000F0ED0C3
:1039B00012E03078D5F830113BF8200080B288470B
:1039C000761C7F1E002FF4DC07B0BDE8F08F019459
:1039D000D5F86C904FF0010A3BF8200029F8020B53
:1039E00008F1010013E0BAF1010F11D10598009020
:1039F0000246D5F8A8C0631E4FF0000A2846019978
:103A0000E047D5F838214146E86E904700208046CF
:103A1000641C7F1EC6D1B8F1000FD5D00598631E77
:103A200000900246D5F8A84028460199A047D5F84D
:103A30003821E86E07B04146BDE8F04F104700005E
:103A4000500000202DE9F04387B089460EA991E887
:103A5000F01181688DE8F011D1F8E4404946A047A3
:103A600007B0BDE8F08300002DE9FF4F83B0994611
:103A70000398DDE91075DDE9138B86689246012D08
:103A800005D0022D03D0042D01D0082D06D13248D7
:103A90000068007C00F0030002280ED00AEB07004B
:103AA000401E00900498D6F8A84000EB0B0101EBF3
:103AB0000903524630465B1EA047002446E0042D11
:103AC00024D004DC012D07D0022D3CD111E0082DBB
:103AD00029D0102D37D131E01598CDF800B0CDE9BF
:103AE0000190DDE9030104EB0A024346FFF7C0FB46
:103AF00029E01598CDF800B0CDE90190DDE903018A
:103B000004EB0A024346FFF7FBFC1CE01598CDF8D6
:103B100000B0CDE90190DDE9030104EB0A02434660
:103B2000FFF7EAFD0FE0159804EB0A02CDE90090DB
:103B3000DDE903014346FFF71BFF04E0D6F8382117
:103B40004946404690471299641C8844BC42B6DB03
:103B500007B0BDE8F08F0000500000202DE9FF4FB6
:103B60008FB0A448DDE91F860068DDE91C970C468C
:103B7000006EFCF753FF0790406908B1FCF74EFF59
:103B80000A900798C0680C9007A8FCF755FFA01989
:103B900010900A9858B197490968097C890706D19D
:103BA00010ACCDF8009094E80E00FDF7E1F9DDE9E6
:103BB000100101F04DFE0446102F03D0182F5DDBDD
:103BC000002057E000251EE0DDE910B02844DDF8B4
:103BD00028A00190129E5FEA080120460ED068B12D
:103BE0007200FCF7EDFABAF1000F07D0DAF808001E
:103BF0003346594647685046019AB8471E990C9873
:103C0000884404446D1C4D45DEDBEAE00A980390CD
:103C1000DDE910B10698DDF848A0084401905FEA9C
:103C20000805264620D0FEB1039830B1806853467F
:103C300059464768019A0398B8470F992868096957
:103C4000096888473080039828B180685946019AEE
:103C50000368039898472D1DAAF10100B61C0BF1CB
:103C6000010B5FEA000AE8D10C981E9904440698FB
:103C70008844401C06904845C8DBB2E0082F02D0BB
:103C80002198C0B365E000205DE02198129F0028D4
:103C90000A980290DDE910A05844454600902BD0C8
:103CA00021980490534826460068007C10F00300D9
:103CB00002D0022841D109E015F8011B04987F1EAB
:103CC00030F8210026F8020BF6D136E0287858B1FA
:103CD000049931F820003080029828B1806851465C
:103CE000009A0368029898476D1CB61C0AF1010AF5
:103CF0007F1EEBD121E02AE03E4826460068007C8A
:103D000010F0030002D0022817D105E03A464146E0
:103D10002046FCF755FA10E0287840B13080029830
:103D200028B180685146009A0368029898476D1C34
:103D3000B61C0AF1010A7F1EEED10C981E990444AC
:103D400088440BF10100834648459EDB49E02A4840
:103D50002190002543E03846012F04D002281CD0D2
:103D6000042F37D128E023480068006EFCF756FE88
:103D7000CDF800800790219A12990594CDE903208F
:103D8000CDE9016111980A992B18DDE90F02FFF7BF
:103D900013FB07A8FCF750FE1CE021981299CDE90F
:103DA0000210CDE90086119804942B18DDE90F026A
:103DB0000A99FFF731FC0DE021981299CDE9021024
:103DC000CDE90086119804942B18DDE90F020A99B9
:103DD000FFF71EFD1E986D1C80440C9804444D4551
:103DE000B9DB0A98002802D00AA8FCF725FE13B018
:103DF000BDE8F08F50000020C879000838B584680D
:103E00000092D4F8E840A04738BD08B5009200F011
:103E100039F908BD38B5846800930B46D4F8E840FA
:103E2000A04738BD2DE9FC47DFF8AC8081461E462F
:103E3000D8F8000015468A46006EFCF7EFFD0190A9
:103E4000406908B1FCF7EAFD00902946504601F0B0
:103E5000FFFC04460198C768D8F80000017CC90738
:103E600015D0D9F810008068804787B2009820B13B
:103E700081682A460B685146984720886D1C784017
:103E800020800198B542C0680444EFDD19E0C06BA2
:103E90000168009870B11FFA81F800982A4681687D
:103EA0000B6851469847A4F800806D1C3C44B5420D
:103EB000F3DD06E0701B89B2401C21803C44401EAB
:103EC000FBD101A8FCF7B8FD0098002802D0684695
:103ED000FCF7B2FDBDE8FC87500000200170012016
:103EE000704700002DE9F047234C0427E06AD8B161
:103EF000206907EBD0014518E800FFF7B1F806008C
:103F000037D0616B07EBC600B9460F5820690837F8
:103F1000C2003846D4F82C80FCF752F96763E66299
:103F200049466A1E20690EE01348C030D0E90110EE
:103F30000830B1FBF0F5AD1CDEE7666B431C01EB0E
:103F4000C007401CF3519042F7D3636B09EBC000EC
:103F500000221A50206960626168281A08442561AD
:103F60006060B8F1000001D0FCF7D8FC0020BDE88B
:103F7000F0870120FBE7000034A90C2038B58468E5
:103F8000049D0095D4F8E840A04738BD2DE9FF4FC7
:103F900083B03B4F03988B46164685683868DDF83A
:103FA00040809946007C1946C207A3EB0B0A35D125
:103FB00039E000BFD5F8C470EC6E3FB1CDE90064C4
:103FC0004B46324659460398B8470DE05F4608E035
:103FD000D5F8EC30324639460398984724F8020B5E
:103FE0007F1C4F45F4DDEC6E0AF1010005E02188ED
:103FF0002A8D514024F8021B401E0028F7D100965C
:10400000D5F8A8404B46324659462846A047D5F831
:1040100038210AF10101E86E9047761C4645C9DD5A
:1040200007B0BDE8F08FA8EB06000AF10104401CC0
:10403000CDF8008044430B46D5F8A8C03246594617
:104040002846E04738680127D5F86890C06BD0F85B
:10405000008011E02646FA2C00D9FA2637B1002755
:104060001FFA88F132464846FDF7DAF8D5F83821CC
:10407000314648469047A41B002CEBD1D0E7000006
:10408000500000202DE9FF4FDFF8A0A00C4685B0BE
:10409000DAF80000DDF848801F46C16B1546096854
:1040A0000391006EFCF7BAFC01902946204601F00E
:1040B000CFFB06460198391B01F1010BD0F80C909B
:1040C000406950B3FCF7AAFCA8EB0501491C00911C
:1040D0005B462A4602902146FCF74AFF02A8FCF7FD
:1040E000ABFC1AE0DAF80000007CC0070DD00598A0
:1040F0005F46344600698068804780B2218841402D
:1041000024F8021B7F1EF9D105E003985A4681B2BC
:104110003046FDF785F84E446D1C4545E2DD01A8AB
:10412000FCF78AFC09B0BDE8F08F000050000020C9
:10413000FEB54F4CD4E90201CDE90001206970B30E
:10414000A089401C00B2ADF800006189ADF80210F2
:10415000B4F90410884207DD2088ADF80000E0893A
:1041600010F10100ADF80200BDF90200B4F906102B
:10417000884274DC3F4D2868806CFCF74FFC02904D
:10418000BDF90000B4F90010884220D1E088ADF8F4
:104190000600A088ADF804002868806C0FE0FFE7F7
:1041A0002088ADF800006088DCE700BFFCF75CFC0D
:1041B0000646006A0022694600F0D5F8B06900287A
:1041C000F4D1029800226946C06900F0CCF8BDF82D
:1041D0000000ADF804002868806C0AE0FCF744FC9D
:1041E0000646006A0022694600F046F80028EED133
:1041F000B0690028F2D1029800226946C06900F037
:104200003BF80028E3D1B4F90400BDF90010ADF883
:104210000400884207DADDE90001C4E9020102A8CE
:10422000FCF70AFC98E72868806C08E0FCF71CFCA7
:104230000546006A0022694600F05CF8A86900287B
:10424000F4D1029800226946C06900F053F802A830
:10425000FCF7F2FB206944F62061884201DD002072
:10426000FEBDDDE90001C4E902010120FEBD000040
:1042700070AA0C2050000020FEB517460E460546D9
:10428000002433E02846FCF7C9FB0090856A01460C
:10429000A80726D527B13A4601A8FCF76AFF03E034
:1042A000D1E90001CDE9010101A93046FCF7EFFD9C
:1042B000B8B1E80702D00098C56910E0BDF8080061
:1042C000401C308001240CE001AA31462846FFF74B
:1042D000D3FF00B101242846FCF7C6FB056A002D78
:1042E000F2D10098056A6846FCF7A6FB002DC9D1FB
:1042F0002046FEBDFEB516460D46044630E020467B
:10430000FCF78CFB0090846A0146A00723D526B1F8
:10431000324601A8FCF72DFF03E0D1E90001CDE909
:10432000010101A92846FCF7B2FDA0B1E00702D0C7
:104330000098C4690DE0BDF80400401EA8800AE0A2
:1043400001AA29462046FFF7D5FF2046FCF78CFB43
:10435000046A002CF4D10098046A6846FCF76CFBF0
:10436000002CCCD1FEBDFEB516460D4604464AE0F3
:104370002046FCF753FB0090846A0146A0073DD518
:1043800026B1324601A8FCF7F4FE03E0D1E90001B2
:10439000CDE9010101A92846FCF779FD10B3E0073A
:1043A00002D00098C46927E000983EB1B0F902102D
:1043B000B6F90200814203DD084601E0B0F90200CF
:1043C000B5F90210814207DABDF90600B5F9061009
:1043D000401E05E0E88011E0BDF90A00B5F90610BD
:1043E0008842F7DB0AE001AA29462046FFF7BBFF17
:1043F0002046FCF739FB046A002CF4D10098046ACB
:104400006846FCF719FB002CB2D1FEBD007870475E
:10441000012070478068012901D000207047406C5E
:1044200070470000012901D0002070470048704704
:10443000087A00080D291CD008DC012914D00A29AB
:104440000CD00B290CD00C2906D10BE016291AD060
:10445000172913D0182918D0002070470C4870472E
:104460000C4870470C48704700688068D0F8FC0022
:10447000704700688068D0F8F40070470068806872
:10448000D0F8F800704705487047054870470000AD
:104490005945000845450008B5440008954C0008FA
:1044A00005450008162901D00020704700487047D4
:1044B000DB0D000870B50546FCF7C6F84FF4FA703E
:1044C000AC68FCF753FAA066A16B2068C91DC9103F
:1044D0004843FCF74BFAE06600220121A869FDF78A
:1044E000E9FD0546D4F8081120468847D4F8B010F5
:1044F00020468847002D01DD012070BD002070BDE1
:1045000070470000F8B50D4DDDE90667846828683E
:1045100067B1002809D10096D4F8A8602046B047BA
:1045200054F8A80F286006482060F8BD0028FCD089
:10453000C4F8A80000202860F8BD0000800000201A
:104540000145000870B515460C460646FCF77CF898
:10455000B068C0E9004570BD70B515460C4606460A
:10456000FCF772F8B068C0E9024570BD70B5002470
:104570000D46022807DAFCF779FB20B1C1688A6A88
:10458000294690470446204670BD80680F292CD2EA
:10459000DFE801F02B080A0C0E2B2B2B1012141441
:1045A000161D240000687047406870478068704797
:1045B000C0687047806B70470020704701207047CB
:1045C0000028FCD090F8340000F00100704700286B
:1045D000FCD090F83400C0F3400070470028FCD0B5
:1045E00090F83400C0F3800070474FF0FF30704700
:1045F000006810B1C268926A10474FF0FF307047F0
:1046000010B5FDF761FBB0F5807F03D0802803D3A0
:1046100007211AE0082118E0402801D3062114E000
:10462000202801D3052110E0102801D304210CE03B
:10463000082801D3032108E0042801D3022104E063
:10464000022801D3012100E0002101208840401E02
:1046500010BD4FF6FF70704770B500240646012567
:1046600031462846FFF782FF844200DA04466D1E79
:10467000F6D5204670BD00000146054A0F2000BF58
:1046800002EBC0031B6C8B4201D9401EF8D570476A
:1046900034A90C208368D3F8EC30184710B50846CD
:1046A000114601F0D5F8008810BD806800220A800C
:1046B0004A800288521E8A808088401EC8807047C7
:1046C00038B50C468068FCF7A9F9009081882180F4
:1046D000C1886180818802891144491EA180C188F6
:1046E00040890844401EE0806846FCF7A5F938BDC3
:1046F00002490968488400207047000050000020EB
:10470000024909688884002070470000500000209A
:10471000F0B5541E04FB030401EB82000C4DDFF8DE
:1047200034C0001F2188E41A01F01F06C1F34517A9
:1047300005EBD121AE5D1CF80770097806EB072662
:1047400006EB014140F80419521EEBD1F0BD000008
:104750003C7A00085C7A000870B50446FDF7B4FAAC
:104760000546FDF7C9FAAC4201D3002070BD002810
:10477000FCD050F8240070BD70B5184D0446E868B0
:10478000011DC0E90E010064091D6161417C05F154
:10479000240050F82100C1680A6B04F10801904719
:1047A0000F486066A868E061E86808306061012031
:1047B0002076FEF7B9F8A064032084F868006FF053
:1047C0007040206360630020FDF780FB6FF07F4046
:1047D000FDF7B4FB0348286170BD000044000020D1
:1047E0001C7200089C7C000870B5264C94F82800C8
:1047F000002846D1012604F1C00584F828606968C4
:104800004FF42050814200D90146286800F04CFC4A
:10481000A86810B968688008A8601C491A48086030
:104820000846FCF7CFFC5A20206200205FF0100100
:1048300001FA00F204EBC003401C1A641028F7D3FD
:10484000D5E9001288181438C4E90D0102230020AC
:104850000421C4E9032305E0636B421C01EBC0059E
:10486000401C5A512269521E8242F5D86662206964
:10487000401E6060A16BE068FEF7AAFBFFF732FB09
:10488000266370BD34A90C20714900083C0000204B
:10489000FEB514460D460646FCF7E6F80090836A1E
:1048A000980731D52846FEF753FB00282CD040F658
:1048B00001000340012B27D03046FCF7AFF8024639
:1048C0000090294601A8FCF754FC01A8FEF740FB24
:1048D000B8B1009944F22002886A104205D008312C
:1048E00001AA0846FCF798FA0BE0DDE90123204312
:1048F0008862C1E9022305498888401C8880FCF74A
:1049000027FB6846FCF798F8FEBD0000B0000020C9
:104910000846704710467047084670471046704773
:104920000068401A401E70474068801A401E704759
:104930000068401A401E70474068801A401E704749
:1049400010467047084670474068801A401E7047FE
:104950000068401A401E704710467047084670476E
:104960004068801A401E70470068401A401E704719
:104970000B4910B5002081F8280001460848802224
:104980004030FCF727FCC02200210548FCF722FC40
:1049900003480C220021BDE81040C030FCF71ABCCF
:1049A00034A90C20084910B5002088610146702206
:1049B0000648FCF70FFC044808220021BDE810401F
:1049C0002430FCF707BC00004400002000AA0C20A3
:1049D00010B5034C6068FBF7BDFF0020606010BDA0
:1049E000A00000200B4A10B50021517091630846C9
:1049F00002F15C0402F15403C2F8141044F82010D0
:104A000043F82010401C0228F8D351629162916152
:104A1000116210BDB000002010B50E4C6168206B13
:104A2000814209D8401E2063FFF75CFA216B491CC4
:104A3000216308B1002010BD60680422401E606040
:104A4000606A616B02EBC0028A586262012201F85F
:104A5000302010BD34A90C20084910B54A68042440
:104A6000521C4A604B6B04EBC0044A6A1A514B6BF0
:104A7000002203F83020486210BD000034A90C2049
:104A8000D0F8B4100847016CD0F8D42089690846E2
:104A90001047016CD0F8D8208969084610473EB508
:104AA000016A0446D0F848216846491C9047206AAC
:104AB0003DF810003EBD1CB5016A0446D0F828211F
:104AC0006846891C9047206A69460844008840BAB5
:104AD0001CBDF8B55D1ADDE90667B41A641C6D1CCF
:104AE0006543846800962046D4F8A860B047206CDF
:104AF000D4F8DC302A46806901B03946BDE8F04080
:104B00001847F8B55D1ADDE90667B41A641C6D1C18
:104B10006543846800962046D4F8A860B047206CAE
:104B2000D4F8E0302A46806901B03946BDE8F0404B
:104B30001847000010B504464068FFF79DFD102897
:104B40000DD2084963680A68D21A0A6001EBC002F4
:104B5000D4E90201443200B1416009B1086010BDDE
:104B6000106010BD34A90C202DE9F05FDFF89480AF
:104B70008346D8F83840D8F80C10601E0F1820462D
:104B8000D0E90015B9BB6619BE4236D2D6E9001984
:104B900089B3D8F8343013F83130012B2DD1D8F83F
:104BA0002C20914201D1012100E000218A46FFF72B
:104BB000C1FF3068D8F83410042202EBC0004A4626
:104BC0000C5031462046FBF7FBFABAF1000F05D036
:104BD000D8F83410321B891AC8F8341004EB0901D4
:104BE0002846FEF7F5F9BBF1000F05D0834503D841
:104BF0000020BDE8F09F00E04D462C44BC42BED3EF
:104C00000120F6E734A90C20064910B509684A6B63
:104C1000824206D04863FCF7B7FEBDE81040FDF7BE
:104C20005BB910BD500000201FB504460F48016855
:104C3000486C38B102680292406803900C48806A60
:104C400018B901E020460EE0886CFBF7E7FE02A9E8
:104C50000090FDF7B5FF6846FBF7EEFE214602A87F
:104C6000FCF76AFA02A8FDF743F91FBD50000020C7
:104C7000B0000020064910B509680A6B824206D0D0
:104C80000863FCF781FEBDE81040FDF75DB910BD7B
:104C90005000002070B514460D460646FBF7D4FCC4
:104CA000B068002810D0262D0FD0272D0CD1826B94
:104CB0000021102A1CD0122A06D114B11149C0F8C3
:104CC000E04040F8CC1F416070BD816B102907D0D7
:104CD0001229F9D10C49C0F8D84040F8BC1FF2E7BE
:104CE0000A49C0F8B810C0F8D440C0F8B41070BD7C
:104CF00014B10749C0F8DC40C0F8C810C0F8C410AF
:104D000070BD0000034B0008934A0008874A000862
:104D1000D34A000830B509490B681A7C82EA0004BE
:104D2000640707D59C6BDB6B25681B6823600B68E9
:104D3000DB6B1D6009680874104630BD5000002010
:104D4000082907D0102904D1054940F88C1F0549CE
:104D500041607047044940F88C1F0449F8E700009F
:104D6000875000089D5100088F500008A551000889
:104D70001CB5CDE9001280696A460321FDF79AF956
:104D80001CBD0068002802D0C3681B6A1847704722
:104D90001CB50BA10446D1E90001CDE90001D4F80E
:104DA0008C20032120469047A08CD4F8902020F03E
:104DB0003801606B1DF800000143204690471CBD80
:104DC0003020100038281808F8B50446406B164605
:104DD0000F4660B1D4F80031204698470546D4F814
:104DE00004313246394620469847064600E00D46D3
:104DF0002069A84201DD012000E00020A169A9424C
:104E000001DA012100E0002108436169B14201DDBE
:104E1000012100E000210843E169B14201DA0121EA
:104E200000E0002108430AD060680022401E009084
:104E30002368D4F8A870114620465B1EB847D4F802
:104E40008C20202120469047A08DD4F89020284423
:104E500081B220469047D4F88C20212120469047EB
:104E6000208ED4F89020304481B220469047D4F868
:104E70008C2001B02046BDE8F0402221104730B41C
:104E80008468D4F8F040A44630BC60477CB5104834
:104E90001C46154600680E46006EFBF7BFFD0190EC
:104EA0002946304600F0D4FC04800198406950B196
:104EB000FBF7B4FD009081682A460B68314698479D
:104EC0006846FBF7B9FD01A8FBF7B6FD7CBD000005
:104ED000500000202DE9F84F0446406BDDF8289083
:104EE0009B4615460F46002874D0D4F80031204662
:104EF00098470646D4F80031B2464A4659462046FD
:104F000098478046D4F804312A46394620469847C7
:104F100000900546D4F804314A4659462046984741
:104F200007464146B04501DAB0460E46AF4202DAC6
:104F300038462F460546D4F89C0018B9C4E90465E4
:104F4000C4E90687D4F88C20502120469047A08DD4
:104F5000D4F89020304481B220469047D4F88C2079
:104F6000512120469047A18DD4F8902001EB0800F4
:104F700081B220469047D4F88C2052212046904799
:104F8000208ED4F89020284481B220469047D4F84F
:104F90008C20532120469047208ED4F8902038440E
:104FA00081B220469047D4F88C202021204690479B
:104FB000A18DD4F8902001EB0A0081B220469047E1
:104FC000D4F88C20212120469047218E0098084457
:104FD0004CE0FFE7D4F89C0018B9C4E90475C4E9B3
:104FE00006B9D4F88C20502120469047A08DD4F8E3
:104FF0009020384481B220469047D4F88C2051212B
:1050000020469047A18DD4F8902001EB0B0081B28F
:1050100020469047D4F88C20522120469047208E7D
:10502000D4F89020284481B220469047D4F88C20B0
:10503000532120469047218ED4F8902001EB09009F
:1050400081B220469047D4F88C20202120469047FA
:10505000A08DD4F89020384481B220469047D4F8EF
:105060008C20212120469047208E284481B2D4F8FC
:10507000902020469047D4F88C2001B02046BDE80F
:10508000F04F22211047D0F82C210846104770B568
:1050900005460C46080AD5F80C118847E0B2D5F849
:1050A0000C11BDE870400847F0B58E080023FF22C0
:1050B0000546002406E0E718B7FBF2FC02FB1C776C
:1050C00080C5641CB442F6D3054600240BE004EB13
:1050D000030CBCFBF2FE80CD02FB1ECCBC4501D014
:1050E0000320F0BD641CB442F1D35B1C022BDFD360
:1050F0004E0800230546002407E0E718B7FBF2FC42
:1051000002FB1C7725F8027B641CB442F5D30546EC
:1051100000240CE004EB030CBCFBF2FE35F8027B30
:1051200002FB1ECCBC4501D00220F0BD641CB44281
:10513000F0D35B1C022BDDD300230546002407E0DF
:10514000E618B6FBF2F702FB176605F8016B641C64
:105150008C42F5D3054600240CE000BFE718B7FBEE
:10516000F2FC15F8016B02FB1C77B74201D001205D
:10517000F0BD641C8C42F1D35B1C022BDDD30022FA
:10518000134602E000F8013B521C8A42FAD3002089
:10519000F0BD024688B2D2F830110847D0F830216D
:1051A0000846104770B505460C46080AD5F8101198
:1051B0008847E0B2D5F81011BDE87040084700619B
:1051C00080E80E00104440F8042C70472DE9F74F9A
:1051D000CC489EB09246D0E90010CDE91B101E9835
:1051E000FBF71CFC1390D0E90445B0F90810D0F887
:1051F0000C800E91B0F90A1015910068C24E00693A
:10520000406817903068407CFBF742FD1190306891
:10521000407CFBF74FFD814613A8FBF70DFC082CE3
:1052200001D8012004E0102C01D8022000E0042065
:105230008346012C1BD000271798484575D030684D
:10524000407CFBF72FFD18900E988000FBF747FB82
:10525000199000286AD01E98FBF7B2FD8146002DF8
:1052600079D02846FBF7DAFB00261A909AE01BAFAC
:10527000E2E7002009901A98324681684B6909A933
:1052800098470E990546884227D11998FBF7C6FB27
:105290001690DDE91712CDE900120146119B082C8A
:1052A0002A46484602D9FDF795FF01E0FDF7B1FF18
:1052B00003AB0020169A119983E885000120009025
:1052C000CDE9010103460AEB06010E9A1F98FCF78F
:1052D00069FB16A8FBF7B0FB62E0012C22D05DE071
:1052E0000998C21700EB527309EBE30200F00701C3
:1052F0000492CDE90571012101AB009183E812010F
:105300001F9A0AEB0601104401232A46FCF7DCFE33
:1053100009983246284409901A9881684B6909A96E
:1053200098470546002DDBD13AE055E051E0199849
:10533000FBF774FB1690099A844602FB0B90DDE99B
:105340001712CDE90012119B082C2A46614603D999
:10535000FDF740FF02E02DE0FDF75BFF03AB00200F
:10536000169A119983E8850001200090CDE901018A
:10537000099A1F980AEB0601104401232A46FCF7FC
:1053800011FB16A8FBF758FB0998324628440990F0
:105390001A9881684B6909A998470546002DC6D11E
:1053A000C144761C15988642FFF663AF1AA8FBF736
:1053B00043FB0BE0012001A90597009081E8110350
:1053C0005146159B0E9A1F98FCF7ECFA1998FBF7BB
:1053D000A5FA21B0BDE8F08F1E98FBF7F1FC8146DD
:1053E000002D7DD02846FBF719FB00251A9073E0AD
:1053F000002009901A982A4681684B6909A99847A4
:105400000E99064688421DD1119500E06D1C1A9830
:105410006A1C81684B6909A99847B042F6D00120FF
:1054200001A90597009081E8110311980E9A2E1A90
:105430000AEB0001731C1F98FCF7B4FA761C06FBFC
:10544000089047E0012C22D040E00998C11700EBFA
:10545000517309EBE301CDE9041700F007020121C4
:1054600001AB0692009183E812011F9A0AEB050135
:10547000104401233246FCF727FE09982A4630449F
:1054800009901A9881684B6909A998470646002E29
:10549000DBD11DE0099A01AB02FB0B90CDE90407BB
:1054A0000120009083E811011F980AEB05011044C8
:1054B00001233246FCF776FA09982A4630440990CF
:1054C0001A9881684B6909A998470646002EE1D1D0
:1054D00009EB080081466D1C1598854288DB00E0C9
:1054E00003E01AA8FBF7A8FA73E7012001A90597C2
:1054F000009081E811035146159B0E9A1F98FCF706
:1055000051FA66E7B87D0008500000202DE9FF4FF2
:1055100097B01C4615461798FBF780FA0F90B0F924
:1055200008A0B0F90A90C168019100F1180100913A
:105530000068D0F810B00FA8FBF77EFADBF8040083
:105540001190C148C1490068407C51F820100F6992
:10555000D7F80080FBF79CFB082801D8012604E05F
:10556000102801D8022600E00426BB4512D1DDE94F
:1055700000020021CDE904010120CDE902420090A2
:1055800001904B46524629461898FCF70BFA1BB07F
:10559000BDE8F08F202C2ED0102CF8D116FB0AF08D
:1055A000FBF79DF914900028F1D0FBF737FA139020
:1055B0001798FBF733FA0F90396900F118040029A6
:1055C00072D0DBF814100029FAD0B0F9080080007E
:1055D000FBF785F90C90002867D0FBF71FFA0A90BB
:1055E000002848D04FEAC608012E7DD0022E7CD07C
:1055F000042E7BD1D0E016FB0AF0FBF770F9149073
:105600000028C4D0FBF70AFA13901798FBF706FAA4
:1056100000F118040F90386998B34FF0010B4FEA6E
:10562000C608012E04D0022E07D0042E0ED123E08E
:1056300013990123D7F810C003E01399D7F810C0CD
:10564000022352462046E04704EB8A04139A0020C6
:10565000CDE90302CDF800B00590CDE901B82946A7
:105660006D1C012352461898FCF79CF9A9F1010022
:105670005FEA0009D5D146E013990423D7F810C09A
:10568000DFE7FFE75746012E04D0022E0ED0042E8E
:105690001FD115E0DDF84CB001CC414688470BF82E
:1056A000010B7F1EF8D114E086E036E0DDF84CB047
:1056B00001CC414688472BF8020B7F1EF8D108E049
:1056C000DDF84CB001CC414688474BF8040B7F1EF7
:1056D000F8D10020F100139ACDE90210CDE90420A1
:1056E00001200090294602E01AE026E037E0034658
:1056F00001906D1C52461898FCF754F9A9F101006D
:105700005FEA0009BED10FA8FBF796F913A8FBF7D3
:1057100093F91498FBF702F939E700200A90F2E7B1
:1057200013980190DBF814C00223524620460A99D0
:10573000E0470123D7F810C00BE013980190DBF885
:1057400014C00223524620460A99E047D7F810C0F9
:105750000223524601990A98E04704EB4A04139A3F
:105760000020CDE90302059001200090CDE9010859
:10577000294603466D1C52461898FCF713F9A9F107
:1057800001005FEA00097FF42FAF0AA8FBF754F984
:105790000C98FBF7C3F8B6E713980990DBF814C030
:1057A0000223524620460A99E047DDE90910042306
:1057B0005246D7F810C0CFE75746012E04D0022E2C
:1057C0000FD0042E28D11AE0DDF84CB0119934F82E
:1057D000020B8847414688470BF8010B7F1EF5D125
:1057E0001AE0DDF84CB000BF119934F8020B88477D
:1057F000414688472BF8020B7F1EF5D10CE0DDF8FF
:105800004CB000BF119934F8020B884741468847D5
:105810004BF8040B7F1EF5D10020F100139ACDE95F
:105820000210CDE904200120009029460346019092
:105830006D1C52461898FCF7B5F8A9F101005FEA13
:105840000009B9D15FE70000500000206800002087
:1058500038B505460C480C460068006EFBF7DEF8CC
:105860000090B0F90620C36800F11801A21A02FBEB
:105870000311B0F9040001EB4501A1EB40046846B7
:10588000FBF7DAF8204638BD50000020F8B5154681
:105890000E4604468768FEF7FDFE0090BB6A01B025
:1058A00043402A4631462046BDE8F040FFF7E7BABC
:1058B000FEB50746124815460E460068006EFBF717
:1058C000ADF8019029463046FFF7C2FF044638691B
:1058D000806880472188414021800198406950B10B
:1058E000FBF79CF8009081682A460B683146984780
:1058F0006846FBF7A1F801A8FBF79EF8FEBD000083
:105900005000002002E008C8121F08C1002AFAD186
:1059100070477047002001E001C1121F002AFBD12F
:105920007047000010B5044600680E2802D00F280A
:1059300017D108E0E0684168012917D10068BDE887
:105940001040FBF70DBB6068FDF782FC084951F879
:1059500020006FF07041884203D0FBF7D5FAFBF7C7
:10596000ADF82046BDE81040FCF7BABF10BD0000FE
:10597000FC000020F8B5FCF7D3FAFCF72FFA04007E
:105980003BD100252846FBF771F9009048B1C0686B
:105990000C21426A68469047010007D0009888476A
:1059A00004436D1C022DEDDB14B126E00120F8BD8F
:1059B000FCF72EFA012543F6FF762846FBF756F949
:1059C0000090C0B12846FBF787FA0420FCF7CEFA16
:1059D0000021324633460846FCF746F90020FCF722
:1059E000C5FA00980E21C068426A684690470100D7
:1059F00001D0009888476D1EDFD52046F8BD000015
:105A000012484FF47A710068B0FBF1F0401EB0F11B
:105A1000807F0AD24FF0E02148610D4AF02082F8E1
:105A2000140D002088610720086101210803FCF79C
:105A300089FCFCF7A5FDFBF70DFEFBF74DF91421E2
:105A400004A20846FBF764FCF9E7000028000020E8
:105A50000FE000E0616263206C63640000000000FE
:105A60000000000000000000000000000000000036
:105A70000000000000000000000000000000000026
:105A80000000000000000000000000000000000016
:105A90000000000000000000000000000000000006
:105AA00000000000000000000380038001800180EE
:105AB00001800180018001800180018001800180DE
:105AC0000180018000000000038003C0038000000B
:105AD00000000000000000000000000000000000C6
