:020000040800F2
:100000008806002035020008150700080D070008C3
:100010001107000831060008D90B00080000000095
:10002000000000000000000000000000410800087F
:100030003506000800000000170700083109000815
:100040004F0200084F0200084F0200084F0200084C
:100050004F0200084F0200084F0200084F0200083C
:100060004F0200084F0200084F0200084F0200082C
:100070004F0200084F0200084F0200084F0200081C
:100080004F0200084F0200084F0200084F0200080C
:100090004F0200084F0200084F0200084F020008FC
:1000A0004F0200084F0200084F0200084F020008EC
:1000B0004F0200084F0200084F0200084F020008DC
:1000C0004F0200084F0200084F0200084F020008CC
:1000D0004F0200089D0900084F0200084F02000867
:1000E0004F0200084F0200084F0200084F020008AC
:1000F0004F0200084F0200084F0200084F0200089C
:100100004F0200084F0200084F0200084F0200088B
:100110004F0200084F0200084F0200084F0200087B
:100120004F0200084F0200084F0200084F0200086B
:100130004F0200084F0200084F0200084F0200085B
:100140004F0200084F0200084F0200084F0200084B
:100150004F0200084F0200084F0200084F0200083B
:100160004F0200084F0200084F0200084F0200082B
:100170004F0200084F0200084F0200084F0200081B
:100180004F0200084F0200084F02000800F002F87A
:1001900000F041F80AA090E8000C82448344AAF1E0
:1001A0000107DA4501D100F036F8AFF2090EBAE8DE
:1001B0000F0013F0010F18BFFB1A43F0010318479B
:1001C000D80A0000F80A0000103A24BF78C878C1A5
:1001D000FAD8520724BF30C830C144BF04680C604D
:1001E000704700000023002400250026103A28BF95
:1001F00078C1FBD8520728BF30C148BF0B60704799
:10020000642900F04580002070471FB500F036FDDE
:100210001FBD10B510BD00F0C7F91146FFF7F5FF7F
:1002200000F0F8FC00F0E5F903B4FFF7F2FF03BCBF
:1002300000F0DBFC0948804709480047FEE7FEE77D
:10024000FEE7FEE7FEE7FEE7FEE7FEE7FEE7FEE786
:1002500004480549054A064B704700003509000867
:100260008D010008880000208806002088020020F8
:1002700088020020704700000FB4044910B503AA9B
:10028000029800F07BF910BC5DF814FB2000002000
:100290002DE9F0410646002410687529314616A55F
:1002A00010D0AFF30080002802DA404213A507E027
:1002B00031688A0701D512A502E0490704D511A5C6
:1002C000012401E0AFF3008000210A2206F1240797
:1002D00009E0B0FBF2FCB0FBF2F302FB1C00303093
:1002E00078541846491C0028F3D123462A46304644
:1002F000BDE8F04100F0D0B8000000002D00000083
:100300002B000000200000002DE9F05F8946044624
:100310004FF0000ADFF874B1FB44C0F820A020467B
:10032000E1688847002874D0252806D0D4E9012147
:100330009047206A401C2062F1E700265F46204675
:10034000E16888472028054607DB312D05D278195A
:1003500010F8200C08B10643F1E7B00701D526F0EC
:100360000406C4F81CA00027C4F818A02A2D09D040
:10037000284600F033FC38B304EB8708303DC8F85A
:10038000185019E059F8041B204604EB87029161CC
:10039000E1688847012F054618D1E069002820DA76
:1003A00026F020061DE0D8F8180000EB800005EBD1
:1003B00040003038C8F818002046E16888470546F4
:1003C00000F00CFC0028EED1012F0AD02E2D08D110
:1003D0002046E16888477F1C0546022F46F020062C
:1003E000C4DBA069002803DA404246F00106A061A0
:1003F000F00701D026F010066C2D0BD0682D09D027
:100400004C2D39D06A2D35D0742D35D07A2D33D07E
:1004100016E038E0E1682F4620468847B842054696
:1004200009D16C2F26D04FF48060E1680643204646
:100430008847054604E06C2F1AD04FF480700643BD
:100440000DB3A5F14100192802D8203546F4006605
:100450004A462946204626604E46FFF7D1FE80B127
:1004600001280BD0F61D26F0070000F1080956E719
:100470004020E4E78020D8E70020D6E706F1040911
:100480004DE7284652E7206ABDE8F09F6A09000060
:1004900070477047704770472DE9F0470D46994601
:1004A0009246044600F124080168880604D5E069F4
:1004B00021F01001216000E00120A84201DD471B6E
:1004C00000E00027A1697A1902EB0900081AA0616F
:1004D0002078C00602D42046AFF30080002608E052
:1004E000D4E901211AF806009047206A401C761CC6
:1004F00020624E45F4DB2078C0060AD52046AFF3D3
:10050000008006E0D4E9012130209047206A401C99
:100510002062381EA7F10107F4DC07E0D4E90121CD
:1005200018F805009047206A401C2062281EA5F19B
:100530000105F3DC2046AFF300802078000602D5E9
:100540000220BDE8F0870120FBE7000001694A1C9A
:1005500002610878704700B58FB0CDE90131002104
:10056000059105497944CDE9031011466846FFF726
:10057000CBFE0FB000BD0000E5FFFFFF074B70B5DD
:100580000D467B44FFF7E7FF0446284600F008F8D5
:1005900010B14FF0FF3070BD204670BD6B060000FB
:1005A000007B00F080007047754600F02BF8AE46E7
:1005B00005006946534620F00700854618B020B56F
:1005C000FFF746FEBDE820404FF000064FF0000761
:1005D0004FF000084FF0000B21F00701AC46ACE8EB
:1005E000C009ACE8C009ACE8C009ACE8C0098D4658
:1005F000704710B50446AFF300802046BDE81040B8
:10060000FFF712BE004870472400002003B50648DB
:1006100006490068096800F02DFB06BC0844104438
:100620005DF804EB70470000180000201C0000205B
:1006300000BFFEE77047F0B50A4600210023002402
:1006400000BF3DE0012505FA01F3156805EA030442
:100650009C4234D105684F000326BE40B543056077
:1006600015794E00B5400668354305601579012DB2
:1006700002D01579022D16D185684F000326BE40A1
:10068000B543856055794E00B54086683543856031
:10069000456801268E40B5434560456896798E4091
:1006A000B6B235434560C5684F000326BE40B5432A
:1006B000C560D5794E00B540C6683543C560491C54
:1006C0001029BFD3F0BDF0B5002300244D07ED0E77
:1006D00002FA05F3CE1000F1200555F826504E071A
:1006E000F70E0F26BE40B543CF1000F1200646F8A6
:1006F0002750CE1000F1200555F8265045EA030496
:10070000CE1000F1200545F82640F0BD00BFFEE701
:1007100000BFFEE77047704729B1064A12680243DE
:10072000044B1A6004E0034A12688243014B1A60CA
:10073000704700003038024029B1064A126802436F
:10074000044B1A6004E0034A12688243014B1A60AA
:100750007047000044380240F0B500210022002418
:10076000022500260223324F3F6807F00C0121B119
:10077000042905D0082937D105E02E4F076036E05F
:100780002D4F076033E02A4F3F1F3F68C7F3805665
:10079000274F3F1F3F6807F03F036EB1264FB7FB5F
:1007A000F3F7DFF88CC0ACF1040CDCF800C0CCF33C
:1007B000881C07FB0CF40CE01E4FB7FBF3F7DFF8C7
:1007C00070C0ACF1040CDCF800C0CCF3881C07FB53
:1007D0000CF4174F3F1F3F68C7F301477F1C7D0094
:1007E000B4FBF5F7076002E0124F076000BF00BFDF
:1007F0000F4F3F6807F0F0010909104F7A5C076856
:10080000D74047600A4F3F6807F4E051890A0B4F11
:100810007A5C4768D7408760054F3F6807F46041BE
:10082000490B064F7A5C4768D740C760F0BD0000AF
:10083000083802400024F40040787D0100000020C8
:10084000704700000CB5002001900090344800680B
:1008500040F480303249086000BF3148006800F43D
:10086000003000900198401C0190009818B9019840
:10087000B0F5A04FF1D12A48006800F4003010B163
:100880000120009001E0002000900098012846D14E
:1008900023484030006840F08050214940310860D2
:1008A0002048006840F440401E4908601C48083059
:1008B00000681B49083108600846006840F40040A1
:1008C00008600846006840F4A05008601648091FF8
:1008D0000860081F006840F08070091F086000BFB2
:1008E0000F48006800F000700028F9D040F2057051
:1008F0000E4908600A480830006820F003000849E3
:10090000083108600846006840F00200086000BF37
:1009100003480830006800F00C000828F8D10CBD2E
:10092000003802400070004019544F07003C02405C
:100930007047000010B51548006840F47000134976
:1009400008601348006840F0010011490860002069
:100950000F49083108600E4800680E4908400C49EC
:1009600008600D48091D0860081F006820F48020F9
:10097000091F0860002006490C310860FFF762FF7C
:100980004FF0006001498039086010BD88ED00E03B
:1009900000380240FFFFF6FE1030002410B540F290
:1009A0002551054800F07FF820B140F2255102485A
:1009B00000F004F810BD00000010014010B5002246
:1009C000002340F66A14A14200D100BF0A1201249C
:1009D0009440A3B2DC43048010BD21B1828942F46B
:1009E0000052828104E082894DF6FF731A408281B1
:1009F0007047000000B587B001210846FFF78CFE64
:100A000001211020FFF798FE07220A211D48FFF759
:100A10005AFE072209211B48FFF755FE00208DF8DA
:100A20001A0001208DF81B0002208DF8180000022A
:100A3000059002208DF8190005A91248FFF7FBFD6B
:100A400002208DF818004002059005A90D48FFF717
:100A5000F2FD4FF4165001900020ADF80800ADF8FB
:100A60000A00ADF80C00ADF810000C20ADF80E0037
:100A700001A9054800F042F801210348FFF7ADFF46
:100A800007B000BD000002400010014002460020F7
:100A9000B1F5007F00D100BF13880B400BB10120DE
:100AA00000E00020704770B50246002400230025B6
:100AB000002040F66A16B14200D100BFC1F34215D2
:100AC00001F01F03012606FA03F3012D02D19689D6
:100AD000334006E0022D02D1168A334001E0968AA7
:100AE00033400C12012606FA04F41688344013B180
:100AF0000CB1012000E0002070BD00002DE9FF478F
:100B000005460E460024A14600BFA046B08900B1AC
:100B100000BF2C8A24F44054F08804432C82AC8912
:100B200041F20C608443B0883189084371890843DD
:100B30000443AC81AC8A24F44074B0890443AC8291
:100B40006846FFF709FE2048854202D01F488542CB
:100B500002D1DDF80C9001E0DDF80890A88900F4DE
:100B6000004040B109EBC90000EB091031684900B1
:100B7000B0FBF1F707E009EBC90000EB09103168A1
:100B80008900B0FBF1F76420B7FBF0F00401200905
:100B9000642101FB1078A88900F4004040B13220A4
:100BA00000EBC800B0FBF1F000F00700044308E0E0
:100BB000322000EB08106421B0FBF1F000F00F00D0
:100BC00004432C81BDE8FF87001001400014014060
:100BD000C1F308028280704700BFFEE730380A2860
:100BE00001D2012070470020704700BF704700000D
:100BF00070B504460D46E1B20548FFF7E9FF00BFB6
:100C000080210348FFF742FF0028F9D0204670BD3D
:100C100000100140FFF7EEFE002402210120FFF743
:100C2000F5FC0446214605A0FFF726FB08480168AD
:100C300008A0FFF721FB00BFFEE7000061736D20F5
:100C4000726573756C742069732025640A00000056
:100C500000000E0863757272656E7420766572739B
:100C6000696F6E20616464726573732069732025F7
:100C7000640A0000024602FB01F070474FF040702A
:100C8000E1EE100A704704000008000000000000B8
:100C90000002000100001000B80C00080000002055
:100CA00024000000C8010008DC0C0008240000201B
:100CB00064060000E40100080000000001020304D3
:100CC0000102030406070809312E312E300000000E
:0C0CD00003000000040000000000000011
:040000050800018D61
:00000001FF
