:020000040800F2
:10000000B00400209D0100089F0E0008370E000874
:100010009D0E0008A9020008C91300080000000096
:10002000000000000000000000000000A30E000817
:10003000AB02000800000000A10E0008A50E000899
:10004000B7010008B7010008B7010008B7010008B0
:10005000B7010008B7010008B7010008B7010008A0
:10006000B7010008B7010008B7010008B701000890
:10007000B7010008B7010008B7010008B701000880
:10008000B7010008B7010008B7010008B701000870
:10009000B7010008B7010008B7010008B701000860
:1000A000B7010008B7010008B7010008B701000850
:1000B000B7010008B7010008B7010008B701000840
:1000C000B7010008B7010008B7010008B701000830
:1000D000B7010008BD130008B7010008B701000808
:1000E000B7010008B7010008B7010008B701000810
:1000F000B7010008B7010008B7010008B701000800
:10010000B7010008B7010008B7010008B7010008EF
:10011000B7010008B7010008B7010008B7010008DF
:10012000B7010008B7010008B7010008B7010008CF
:10013000B7010008B7010008B7010008B7010008BF
:10014000B7010008B7010008B7010008B7010008AF
:10015000B7010008B7010008B7010008B70100089F
:10016000B7010008B7010008B7010008B70100088F
:10017000B7010008B7010008B7010008000000003F
:10018000B7010008B7010008DFF80CD000F07AF8DA
:100190000048004709140008B004002006488047C2
:1001A00006480047FEE7FEE7FEE7FEE7FEE7FEE75C
:1001B000FEE7FEE7FEE7FEE7310F000889010008D1
:1001C0002DE9F05F0546002092469B46884606468C
:1001D000814640241BE0284641464746224600F01F
:1001E00041F853465A46C01A914110D31146184659
:1001F000224600F028F82D1A67EB01084F462246E8
:100200000120002100F01FF817EB00094E41201ECD
:10021000A4F10104DFDC484631462A464346BDE8E6
:10022000F09FD2B201E000F8012B491EFBD27047CB
:100230000022F6E710B513460A4604461946FFF7B2
:10024000F0FF204610BD202A04DB203A00FA02F11C
:10025000002070479140C2F1200320FA03F31943B4
:1002600090407047202A04DB203A21FA02F0002156
:10027000704721FA02F3D040C2F1200291400843B6
:1002800019467047064C074D06E0E06840F0010350
:1002900094E8070098471034AC42F6D3FFF778FF94
:1002A0005414000874140008FEE77047704790F873
:1002B0003510022903D080214165012070470521B6
:1002C00080F835100068016821F00101016000200C
:1002D000704700002DE9F84FDFF87CB100224FF0A5
:1002E00001084FF0030A4FF00F090BF1040E00BF95
:1002F0000B6808FA02F42340A3426ED14D68022D28
:1003000001D0122D0ED1D50800EB850CDCF8205061
:100310005607F70E09FA07F6B5430E69BE402E439D
:10032000CCF82060066855000F790AFA05FC07F042
:10033000030726EA0C06AF40374307604E68012EDC
:1003400005D0022E03D0112E01D0122E0ED18668B8
:10035000CF6826EA0C06AF40374387604668A6435D
:100360000C79C4F30014944034434460C6688C682C
:1003700026EA0C06AC403443C4604C68E40065D502
:10038000364C256845F480452560246822F0030535
:1003900004F480440094324C2E19D6F8084895078E
:1003A0002F0F09FA07F5AC432E4DA84201D10025C5
:1003B00024E02D4DA84201D101251FE02B4DA8427C
:1003C00001D102251AE02A4DA84201D1032515E0EA
:1003D000284DA84202D1042510E037E0264DA8425E
:1003E00001D105250AE0254DA84201D1062505E0E9
:1003F000234DA84201D1072500E00825BD40254333
:10040000C6F80858DBF800405D464E689C43F6038A
:1004100000D51C432C60DEF8004075464E689C43B6
:10042000B60300D51C432C600B4D08352C684E6874
:100430009C43F60200D51C432C60074D0C352C68FC
:100440004E689C43B60200D51C432C60521C102AF7
:10045000FFF44EAFBDE8F88F003C01404438024045
:100460000030014000000240000402400008024049
:10047000000C02400010024000140240001802402C
:10048000001C0240014880687047000048000020BE
:10049000024881680278114481607047480000205A
:1004A0000B4810B5016841F400710160016841F426
:1004B00080610160016841F480710160032000F0F7
:1004C0006FF8002000F006F800F024F8002010BDBE
:1004D000003C024070B50D4D04464FF47A71287807
:1004E000B1FBF0F00A490968B1FBF0F000F0E2FA64
:1004F00048B9102C07D200222146501E00F030F8D7
:1005000000206C6070BD012070BD0000480000201C
:10051000540000200A4808B5016841F48041016098
:10052000006800F4804000900548001F016841F019
:1005300080510160006800F08050009008BD00000C
:1005400044380240002809DB00F01F0201219140DD
:100550004009800000F1E020C0F800117047000061
:10056000F0B40E4B1B680C46C3F30223C3F107051E
:10057000042D00D90425191D072901D2002300E00C
:10058000DB1E012606FA05F1491E214099409E40D6
:10059000761E16403143F0BC00F017BF0CED00E0B2
:1005A000064900F0070208684FF6FF03184040EACA
:1005B0000220034A10430860704700000CED00E081
:1005C0000000FA052DE9F0470E46050065D0DFF87A
:1005D0001481D8F80000F7B200F00F00B04207D243
:1005E00088F80070D8F8000000F00F00B04254D135
:1005F00028683D4C810712D5400703D5206840F498
:10060000E05020602878000703D5206840F460405F
:1006100020602068A96820F0F00008432060287856
:10062000C0072DD0304968680839012812D0022847
:1006300013D0032811D00968890700292DDA216811
:1006400021F0030101432160FFF71CFF814641F2C5
:10065000883A0EE009688903EFE709688901ECE749
:10066000FFF710FFA0EB0901514502D90320BDE8B7
:10067000F0872068696800F00C00B0EB810FEFD1C3
:10068000D8F80010404601F00F01B14207D90770B9
:10069000006800F00F00B04201D00120E7E72878A1
:1006A000400705D52068E96820F4E0500843206041
:1006B0002878000706D52068296920F4604040EAC0
:1006C000C100206000F036F82168084AC1F3031128
:1006D000515CC840064908600020FFF7FBFE00207F
:1006E000C5E70000003C0240083802403C14000806
:1006F000540000200448054900680968044AC1F311
:100700008221515CC84070475400002008380240E4
:100710004C1400080448054900680968044AC1F3FC
:100720004231515CC84070475400002008380240F4
:100730004C140008154810B5006810F00C0214485D
:1007400013D01449042A0FD0082A0ED10F4C241FAD
:100750002268236802F03F025B0207D52068C0F3DD
:100760008810A0FB010106E0084610BD2168C1F316
:100770008811A1FB00010023FFF722FD2168C1F3CE
:100780000141491C4900B0FBF1F010BD083802409E
:100790000024F40040787D012DE9F84F050076D063
:1007A0002878DFF8F8B2BE4CC00749D0DBF800105B
:1007B0005846C1F38101012908D00068C0F38100C7
:1007C00002280AD1201D0068400206D52068800357
:1007D00036D568680028E2D032E06868B0F5803F1E
:1007E00010D0B0F5A02F206810D020F48030206009
:1007F000206820F4802020606868A0B1FFF742FEE6
:1008000006460CE0206840F48030F4E740F4802095
:100810002060F7E7FFF736FE801B642873D8206856
:100820008003F7D50CE0FFF72DFE064605E000BF7C
:10083000FFF728FE801B6428F0D820688003F7D4D7
:100840002878DFF8608280074FF000093ED5DBF89A
:100850000010584611F00C0F09D00068C0F3810059
:1008600002280BD18D48001F0068400206D4206882
:10087000800715D5E868012809D111E0E868B8B10A
:100880000120C8F80000FFF7FDFD064605E002E183
:10089000FFF7F8FD801B0228C0D820688007F7D535
:1008A0002068296920F0F80040EAC10020600DE0CE
:1008B000C8F80090FFF7E6FD064604E0FFF7E2FD0A
:1008C000801B02281FD820688007F7D428780007EB
:1008D00022D5724E744869696C3671B1012101608C
:1008E000FFF7D0FD074604E0FFF7CCFDC01B022850
:1008F00009D830688007F7D50EE0C0F80090FFF700
:10090000C1FD074605E083E0FFF7BCFDC01B0228E0
:100910007ED830688007F7D42878400768D5DFF89C
:100920007CA100270AF1380ADAF80000C0000BD4D5
:10093000DAF8001041F08051CAF80010DAF800002F
:10094000012700F080500090584E3068C00510D448
:10095000306840F480703060FFF794FD009005E04F
:10096000FFF790FD0099401A022851D83068C00561
:10097000F6D54A4EA868683601280FD00528306899
:1009800010D020F001003060306820F004003060AA
:10099000A868B8B1FFF776FD00900FE0306840F02E
:1009A0000100F4E740F004003060F7E7FFF76AFD6C
:1009B0000099411A41F28830814264D8306880073A
:1009C000F4D50EE0FFF75EFD009007E0FFF75AFD5B
:1009D0000099411A41F28830814254D8306880072A
:1009E000F4D42FB1DAF8001021F08051CAF80010C9
:1009F000A869C0B3DBF80010C1F3810102294AD015
:100A00000228484607D0C8F86000FFF73BFD00E029
:100A100039E005463AE04746C8F86000FFF732FD86
:100A2000064604E0FFF72EFD801B02282BD8206825
:100A30008001F7D4D5E907010843A96A1C4A49088F
:100A400002EB01416A6A41EA8211084395F82C10D1
:100A500040EA01611148001F016001203866FFF77C
:100A600011FD054605E014E0FFF70CFD401B0228D0
:100A700009D820688001F7D50BE000BFFFF702FD21
:100A8000401B022802D90320BDE8F88F20688001AE
:100A9000F4D40020F8E70120F6E70000083802400F
:100AA0000038024000004742800E4742007000407C
:100AB0000000FFFF10B5401EB0F1807F01D3012080
:100AC00010BD4FF0E02460610F21601700F07DFC45
:100AD0000020A06107202061002010BD70470000A9
:100AE00070B5026804461068D168536910F00F0FA2
:100AF00050D003F0010501F4907635435DD0C20774
:100B000005D0CA0503D5E26B42F00102E263420759
:100B100005D5DA0703D0E26B42F00202E2638207F6
:100B200005D5DA0703D0E26B42F00402E263020764
:100B300005D5DA0703D0E26B42F00802E263E26B0C
:100B4000002A33D0800604D5880602D5204600F05E
:100B50002FFA20684069E16BC0F38010090700D4C8
:100B600028B3204600F016FA2068416949061AD5D4
:100B7000416921F040014161606BA0B11B490165F1
:100B8000606BFFF794FB002810D0606B016DBDE82F
:100B900070400847830610D58B060ED52046BDE869
:100BA000704000F005BA2046FFF798FF70BD204660
:100BB000FFF794FF0020E06370BD030606D50B0627
:100BC00004D52046BDE8704000F094BB4006F3D544
:100BD0004806F1D5D168204621F04001D16020219E
:100BE00084F8391000F026F970BD0000850F000868
:100BF00070B5040004D094F83900002510B106E067
:100C0000012070BD84F83850204600F023F82420DD
:100C100084F839002068C16821F40051C160204681
:100C200000F012FA2068016921F490410161206806
:100C3000416921F02A0141612068C16841F40051F5
:100C4000C160E563202084F8390084F83A00002070
:100C500070BD000010B586B0044614216846FFF749
:100C6000E7FA18492068884229D11748016841F0FD
:100C700010010160006800F010000590124814385F
:100C8000016841F0010101600068694600F001005F
:100C900005904FF4C0600090022001900120029066
:100CA00003200390072004900848FFF713FB00225D
:100CB00011462520FFF754FC2520FFF743FC06B022
:100CC00010BD000000100140443802400000024006
:100CD00090F83A30202B22D1F9B1F2B190F83830A7
:100CE000012B1CD081628285C2850021C163222232
:100CF00080F83A2080F838100168CA6842F480729F
:100D0000CA6001684A6942F001024A610068C1682C
:100D100041F02001C160002070470120704702208F
:100D2000704700004FF6FF730A220249024800F0A4
:100D300005B80000580000206C0000202DE9F843A1
:100D4000044690F839001F4616460D46202850D11B
:100D5000A5B19EB194F8380001284AD0012084F84A
:100D600038004FF00008C4F83C80212084F8390096
:100D7000FFF788FBA6848146E68426E00120BDE8D3
:100D8000F883E08C401EE084A0684B46B0F5805F9D
:100D90004FF000024FF080012046009703D000F092
:100DA000DAFAE8B90DE000F0D6FAC8B92888216867
:100DB000C0F308004860206908B16D1C05E0AD1C57
:100DC00003E0216815F8010B4860E08C0028D8D1B9
:100DD0004B46002240212046009700F0BCFA08B1A3
:100DE0000320CCE7202084F8390084F838800020E4
:100DF000C5E70220C3E790F83930202B18D1A9B1FC
:100E0000A2B190F83830012B12D001628284C284E2
:100E10000021C163212280F8392080F83810006851
:100E2000C16841F08001C160002070470120704717
:100E3000022070477047FEE7094808B5016841F095
:100E400080010160016801F080010091016841F0BA
:100E500001010160006800F00100009008BD000081
:100E6000303802400C4810B50A4901604FF4165161
:100E70004160002181600C22C160C0E904128161DF
:100E8000C161FFF7B5FE002803D0BDE81040FFF7B1
:100E90000DBA10BD001001406C000020FEE7704745
:100EA00070477047FFF7F4BA30B593B03021684609
:100EB000FFF7BEF914210CA8FFF7BAF91A4800256C
:100EC000016841F080510160006800F0805011908D
:100ED0001648016841F4804101600068022400F472
:100EE0008040119001200090000401908001CDE924
:100EF0000640192008904FF4A870CDE90904042099
:100F00000B906846FFF748FC0CA90F2081E83100E0
:100F10004FF4A0500F90E002109005210CA8FFF7AD
:100F200051FB13B030BD000040380240007000405B
:100F30001048016841F4700101600F48016841F0F8
:100F4000010101600C4A00210832116002680B4B5C
:100F50001A400260031D0A4A1A60026822F48022C5
:100F6000026005480C30016002495806803908606B
:100F70007047000088ED00E000380240FFFFF6FEF9
:100F80001030002410B5806B0021C185C184FFF7AB
:100F9000A5FD10BD0168CA6822F49072CA6001689C
:100FA0004A6922F001024A61202180F83A10704714
:100FB00010B590F83A10222901D0022010BD8168A6
:100FC000B1F5805F11D00169002901681FD049681F
:100FD00001F07F03816A4A1C82620B70C18D491E39
:100FE0000904090CC18518D02BE00269816A002A26
:100FF0000268526805D0D2B20A80816A491C8162B7
:10100000ECE7C2F308020A80816A891CF7E74A68A4
:10101000816A4B1C83620A70E0E70168CA6822F0AB
:101020002002CA600168CA6822F48072CA6001683E
:101030004A6922F001024A61202180F83A10FFF744
:1010400071FE002010BD00002DE9F041044600684B
:101050000169E26821F44051114301612169A068EE
:10106000E26908436169114322680843D16849F283
:101070000C6399430143D16020684169A26921F45E
:10108000407111434161E2696425B2F5004F974810
:10109000974922684FF032083FD08A4201D08242FD
:1010A0007CD1FFF737FB00EBC00101EB001061685A
:1010B0008900B0FBF1F6FFF72DFB00EBC00101EB5F
:1010C000001061688900B0FBF1F0B0FBF5F06FF043
:1010D0001801484306EB800108EB0110B0FBF5F066
:1010E00000F0F006FFF716FB00EBC00101EB00106B
:1010F00061688900B0FBF1F0B0FBF5F006EB00167B
:10110000FFF708FB00EBC00101EB001061688900EC
:10111000B0FBF1F7FFF7FEFAD2E08A4201D082423B
:101120003DD1FFF7F7FA00EBC00101EB0010616859
:101130004900B0FBF1F0B0FBF5F00601FFF7EAFA69
:1011400000EBC00101EB001061684900B0FBF1F752
:10115000FFF7E0FA00EBC00101EB00106168490005
:10116000B0FBF1F0B0FBF5F06FF01801484307EB6E
:10117000800108EBC100B0FBF5F000F0F80006EBD1
:101180004006FFF7C7FA00EBC00101EB00106168F1
:101190004900B0FBF1F7FFF7BDFA3CE055E0FFF77F
:1011A000A9FA00EBC00101EB001061684900B0FB37
:1011B000F1F0B0FBF5F00601FFF79CFA00EBC0017F
:1011C00001EB001061684900B0FBF1F7FFF792FAFC
:1011D00000EBC00101EB001061684900B0FBF1F0C9
:1011E000B0FBF5F06FF01801484307EB800108EB06
:1011F000C100B0FBF5F000F0F80006EB4006FFF789
:1012000079FA00EBC00101EB001061684900B0FB06
:10121000F1F7FFF76FFA00EBC00101EB0010616816
:101220004900B0FBF1F0B0FBF5F06FF01801484356
:1012300007EB800108EBC100B0FBF5F000F0070000
:10124000216830448860BDE8F081FFF753FA00EB75
:10125000C00101EB001061688900B0FBF1F6FFF7F7
:1012600049FA00EBC00101EB001061688900B0FB96
:10127000F1F0B0FBF5F06FF01801484306EB800188
:1012800008EB0110B0FBF5F000F0F006FFF732FAC2
:1012900000EBC00101EB001061688900B0FBF1F0C8
:1012A000B0FBF5F006EB0016FFF724FA00EBC001E7
:1012B00001EB001061688900B0FBF1F7FFF71AFA43
:1012C00000EBC00101EB001061688900B0FBF1F098
:1012D000B0FBF5F06FF01801484307EB800108EB15
:1012E0000110B0FBF5F000F00F00A9E70014014079
:1012F0000010014090F83910212901D002207047D8
:101300008168B1F5805F016A0BD04A1C02620268F5
:1013100009785160C18C491E0904090CC1840ED0A2
:1013200017E009880268C1F30801516001690029CA
:10133000016A02D0491C0162ECE7891CFBE70168E5
:10134000CA6822F08002CA600068C16841F04001AA
:10135000C160002070472DE9F041984617460E46BF
:101360000446069D1DE0681C1BD02DB1FFF78AF8CE
:10137000A0EB0800A84214D92068C16821F4D071FC
:10138000C1602068416921F001014161202084F899
:10139000390084F83A00002084F838000320BDE8C2
:1013A000F0812068006836EA000004D00020B842CE
:1013B000D9D00020F3E70120F9E700000148FFF74A
:1013C0008FBB00006C000020FEE70907090E002813
:1013D00004DB00F1E02080F80014704700F00F00FB
:1013E00000F1E02080F8141D704702E008C8121FC9
:1013F00008C1002AFAD170477047002001E001C1FE
:10140000121F002AFBD17047FFF74AF8FFF74CFD87
:10141000FFF712FDFFF726FD472205490548FFF7B4
:10142000EAFC0A2204490348FFF752FCF4E70000F3
:10143000000000206C000020580000200000000088
:101440000000000001020304060708090000000074
:10145000010203047414000800000020580000007A
:10146000EA130008CC1400085800002058040000BB
:10147000FA1300080D0A2A2A2A2A2A2A5541525408
:1014800020636F6D6D75636974696F6E2075736924
:101490006E672049542A2A2A2A2A2A0D0A506C6586
:1014A00061736520656E74657220313020636861F8
:1014B000726163746572733A0D0A000001000000E6
:0C14C00010000000000000000024F400F8
:040000050800018965
:00000001FF
