:020000040800F2
:10000000C00F00209D01000813170008A516000866
:1000100011170008DD020008BF39000800000000C9
:10002000000000000000000000000000231700088E
:100030002903000800000000211700082517000808
:10004000B7010008B7010008B7010008B7010008B0
:10005000B7010008B7010008B7010008B7010008A0
:10006000B7010008B7010008B7010008B701000890
:10007000B7010008B7010008B7010008B701000880
:10008000B7010008B7010008B7010008B701000870
:10009000B7010008B7010008B7010008B701000860
:1000A000B7010008B7010008B7010008B701000850
:1000B000B7010008B7010008B7010008B701000840
:1000C000B7010008B7010008B7010008B701000830
:1000D000B7010008B7010008B7010008B701000820
:1000E000B7010008B7010008B7010008B701000810
:1000F000B7010008B7010008B7010008B701000800
:10010000B7010008B7010008B7010008B7010008EF
:10011000B7010008B7010008B7010008B7010008DF
:10012000B7010008B7010008B7010008B7010008CF
:10013000B7010008B7010008B7010008B7010008BF
:10014000B7010008B7010008B7010008B7010008AF
:10015000B7010008B7010008B7010008B70100089F
:10016000B7010008B7010008B7010008B70100088F
:10017000B701000815170008B701000800000000CB
:10018000B7010008B7010008DFF80CD000F094F8C0
:100190000048004755460008C00F00200648804729
:1001A00006480047FEE7FEE7FEE7FEE7FEE7FEE75C
:1001B000FEE7FEE7FEE7FEE7B11700088901000849
:1001C0002DE9F05F0546002092469B46884606468C
:1001D000814640241BE0284641464746224600F01F
:1001E0005AF853465A46C01A914110D31146184640
:1001F000224600F041F82D1A67EB01084F462246CF
:100200000120002100F038F817EB00094E41201EB4
:10021000A4F10104DFDC484631462A464346BDE8E6
:10022000F09F40EA01039B0703D009E008C9121FB1
:1002300008C0042AFAD203E011F8013B00F8013BA0
:10024000521EF9D27047D2B201E000F8012B491ECC
:10025000FBD270470022F6E710B513460A46044663
:100260001946FFF7F0FF204610BD421C10F8011B95
:100270000029FBD1801A7047202A04DB203A00FABB
:1002800002F1002070479140C2F1200320FA03F3ED
:10029000194390407047202A04DB203A21FA02F0EB
:1002A0000021704721FA02F3D040C2F120029140B0
:1002B0000843194670470000064C074D06E0E06809
:1002C00040F0010394E8070098471034AC42F6D39D
:1002D000FFF75EFF844A0008A44A0008FEE700001A
:1002E00010B500224FEA020100EB8203521CC3F852
:1002F00080130F2AF8D300224FF400738418521C85
:1003000084F81C119A42F9D3017041700122827065
:10031000C0F8BC13027640238371417680F81C1329
:1003200080F81D23002010BD70477047002200F0A8
:1003300001B8000030B50E4B054601205C7A002C58
:1003400014D1587A1C54587A03EB800045605D7ACA
:1003500003F108002A54587A421C5A72303008704F
:100360003A2048702F208870CC70002030BD0000EB
:10037000B009002070B5044600F0E6F80546601CA0
:1003800002D004480078044400F0DEF8401BA0428C
:10039000FAD370BD4C0000202DE9F84FDFF87CB196
:1003A00000224FF001084FF0030A4FF00F090BF144
:1003B000040E00BF0B6808FA02F42340A3426ED17A
:1003C0004D68022D01D0122D0ED1D50800EB850C01
:1003D000DCF820505607F70E09FA07F6B5430E6908
:1003E000BE402E43CCF82060066855000F790AFA0B
:1003F00005FC07F0030726EA0C06AF403743076009
:100400004E68012E05D0022E03D0112E01D0122EDF
:100410000ED18668CF6826EA0C06AF403743876066
:100420004668A6430C79C4F30014944034434460F6
:10043000C6688C6826EA0C06AC403443C4604C683D
:10044000E40065D5364C256845F480452560246870
:1004500022F0030504F480440094324C2E19D6F89F
:10046000084895072F0F09FA07F5AC432E4DA8420F
:1004700001D1002524E02D4DA84201D101251FE026
:100480002B4DA84201D102251AE02A4DA84201D1E4
:10049000032515E0284DA84202D1042510E037E0DD
:1004A000264DA84201D105250AE0254DA84201D1DB
:1004B000062505E0234DA84201D1072500E00825C7
:1004C000BD402543C6F80858DBF800405D464E683D
:1004D0009C43F60300D51C432C60DEF800407546B3
:1004E0004E689C43B60300D51C432C600B4D083569
:1004F0002C684E689C43F60200D51C432C60074DC7
:100500000C352C684E689C43B60200D51C432C6009
:10051000521C102AFFF44EAFBDE8F88F003C01409A
:100520004438024000300140000002400004024014
:1005300000080240000C024000100240001402407B
:1005400000180240001C024001488068704700000B
:100550004C000020D0F8C00201F0BCBDD0F8C002B1
:1005600001F0CDBD006802F07BBF006802F07CBFE7
:1005700001EB810100EBC10090F85C00704701EBDA
:10058000810100EBC100C06C704710B5044690F8C3
:10059000B802012809D0012084F8B802206802F0CE
:1005A0006EFF002084F8B80210BD022010BD2DE9B6
:1005B000FE430546DDE90B7095F8B842DDF828C02A
:1005C000012C1CD001EB81044FF0010905EBC404A0
:1005D00085F8B892002684F83D6084F83830A4F895
:1005E000400084F8391084F83F7002F07F0884F8E6
:1005F0003A805FEA026805D584F83B9004E0022067
:10060000BDE8FE8384F83B6084F83CC0CDF800C0B0
:10061000CDE90170286802F093FF85F8B862EFE732
:1006200070472DE9F04101EB8104DDE907E700EBBC
:10063000C404DDF818C084F83B20022684F83F305B
:10064000BCF1000F0AD084F84260002553B1012BA1
:100650002BD0022B0FD0032B13D10CE0032584F8F1
:100660004250F2E7BCF1010F0BD152B9D7B90122C8
:1006700084F8512003E0AAB194F85020AAB184F87C
:100680004260C4E911E784F85C50E56484F83910ED
:1006900084F85D50027C04F138010068BDE8F04147
:1006A00002F0CABF94F85120E8E784F84250E8E726
:1006B0002DE9F04104460068064602F0DCFE012800
:1006C0006FD1206803F0E7F800286AD0206803F0B3
:1006D000E2F8800203D521684FF4001048612068D9
:1006E00003F0D9F8C00203D521684FF480104861A7
:1006F000206803F0D0F8400103D521684FF08060F6
:100700004861206803F0C7F8800702D521680220FD
:100710004861206803F0BFF8800010D5D6F8400487
:1007200020F02E00C6F840042046FFF717FF0121F5
:10073000206803F095F821684FF000504861206868
:1007400003F0A9F8C00102D5204600F016FF20688A
:1007500003F0A1F8000705D5204600F0BEF8216897
:1007600008204861206803F096F8800124D52068AD
:1007700002F05EFF074600254FF0010815E000BFBC
:1007800005F00F0108FA01F038420DD006EB4510D4
:10079000D0F80005E9B20004204603D500F0B5FC0E
:1007A00002E01CE000F0C7FD6D1CA068A842E7D87D
:1007B00021684FF000704861206803F06CF8C04376
:1007C000C0060CD42068816921F0100181612046A7
:1007D00000F030FF2068816941F010018161BDE8BF
:1007E000F08130B58BB0040003D094F8B90218B191
:1007F00008E001200BB030BD002084F8B80220468C
:1008000000F024F8032084F8B902206802F0D2FD39
:1008100004F1100128220D466846FFF702FD94E816
:100820000F0002F071FD0121206803F05FF828221B
:1008300029466846FFF7F5FC94E80F0002F0A4FF94
:10084000012084F8B9020020D4E7000010B586B07A
:10085000044614216846FFF7FDFC174920688842CA
:1008600027D1164C0020216841F002012160216847
:1008700001F0020105914FF4404100910221CDE9C0
:100880000110032003900C20049069460C48FFF7E8
:1008900083FD206840F0005020602068002200F0B6
:1008A0000050059011464D2000F0ACF84D2000F0AE
:1008B0009BF806B010BD0000000004403038024034
:1008C00000040240D0F8C00201F0AABCD0F8C00277
:1008D00001F0AABC006802F0F0BFD0F8C00201F03D
:1008E00058BC10B5044690F8B80201280DD001207C
:1008F00084F8B802206802F08BFD0121206802F024
:1009000071FD002084F8B80210BD022010BD10B5A2
:10091000044690F8B802012809D0012084F8B802F2
:10092000206802F0FBFF002084F8B80210BD02200E
:1009300010BD000002488168027811448160704750
:100940004C0000200B4810B5016841F400710160B3
:10095000016841F480610160016841F480710160C7
:10096000032000F06FF8002000F006F800F024F8F3
:10097000002010BD003C024070B50D4D04464FF400
:100980007A712878B1FBF0F00A490968B1FBF0F000
:1009900000F0E2FA48B9102C07D200222146501E7E
:1009A00000F030F800206C6070BD012070BD0000C8
:1009B0004C000020580000200A4808B5016841F4A6
:1009C00080410160006800F4804000900548001FED
:1009D000016841F080510160006800F08050009093
:1009E00008BD000044380240002809DB00F01F0267
:1009F000012191404009800000F1E020C0F8001181
:100A000070470000F0B40E4B1B680C46C3F3022382
:100A1000C3F10705042D00D90425191D072901D2AA
:100A2000002300E0DB1E012606FA05F1491E2140E5
:100A300099409E40761E16403143F0BC02F0E4BF60
:100A40000CED00E0064900F0070208684FF6FF03CE
:100A5000184040EA0220034A104308607047000033
:100A60000CED00E00000FA052DE9F0470E46050008
:100A700065D0DFF81481D8F80000F7B200F00F005D
:100A8000B04207D288F80070D8F8000000F00F00DC
:100A9000B04254D128683D4C810712D5400703D598
:100AA000206840F4E05020602878000703D52068D3
:100AB00040F4604020602068A96820F0F0000843FE
:100AC00020602878C0072DD030496868083901288F
:100AD00012D0022813D0032811D0096889070029F1
:100AE0002DDA216821F0030101432160FFF72CFD7D
:100AF000814641F2883A0EE009688903EFE7096808
:100B00008901ECE7FFF720FDA0EB0901514502D96F
:100B10000320BDE8F0872068696800F00C00B0EBA6
:100B2000810FEFD1D8F80010404601F00F01B1421B
:100B300007D90770006800F00F00B04201D0012013
:100B4000E7E72878400705D52068E96820F4E050F9
:100B5000084320602878000706D52068296920F41A
:100B6000604040EAC100206000F036F82168084A81
:100B7000C1F30311515CC840064908600020FFF72B
:100B8000FBFE0020C5E70000003C024008380240A0
:100B9000CC4900085800002004480549006809684D
:100BA000044AC1F38221515CC840704758000020BC
:100BB00008380240DC490008044805490068096813
:100BC000044AC1F34231515CC840704758000020CC
:100BD00008380240DC490008154810B5006810F0DC
:100BE0000C02144813D01449042A0FD0082A0ED13D
:100BF0000F4C241F2268236802F03F025B0207D5D6
:100C00002068C0F38810A0FB010106E0084610BD73
:100C10002168C1F38811A1FB00010023FFF7D0FA7E
:100C20002168C1F30141491C4900B0FBF1F010BD3E
:100C3000083802400024F40040787D012DE9F84F87
:100C4000050076D02878DFF8F8B2BE4CC00749D04E
:100C5000DBF800105846C1F38101012908D0006873
:100C6000C0F3810002280AD1201D0068400206D589
:100C70002068800336D568680028E2D032E06868D2
:100C8000B0F5803F10D0B0F5A02F206810D020F430
:100C900080302060206820F4802020606868A0B147
:100CA000FFF752FC06460CE0206840F48030F4E781
:100CB00040F480202060F7E7FFF746FC801B6428A3
:100CC00073D820688003F7D50CE0FFF73DFC06469B
:100CD00005E000BFFFF738FC801B6428F0D82068CF
:100CE0008003F7D42878DFF8608280074FF000098E
:100CF0003ED5DBF80010584611F00C0F09D0006803
:100D0000C0F3810002280BD18D48001F006840020B
:100D100006D42068800715D5E868012809D111E0BC
:100D2000E868B8B10120C8F80000FFF70DFC0646DE
:100D300005E002E1FFF708FC801B0228C0D820680C
:100D40008007F7D52068296920F0F80040EAC10043
:100D500020600DE0C8F80090FFF7F6FB064604E0BF
:100D6000FFF7F2FB801B02281FD820688007F7D40A
:100D70002878000722D5724E744869696C3671B1C3
:100D800001210160FFF7E0FB074604E0FFF7DCFB11
:100D9000C01B022809D830688007F7D50EE0C0F8DC
:100DA0000090FFF7D1FB074605E083E0FFF7CCFB9F
:100DB000C01B02287ED830688007F7D42878400707
:100DC00068D5DFF87CA100270AF1380ADAF80000BC
:100DD000C0000BD4DAF8001041F08051CAF80010BE
:100DE000DAF80000012700F080500090584E30687B
:100DF000C00510D4306840F480703060FFF7A4FB69
:100E0000009005E0FFF7A0FB0099401A022851D896
:100E10003068C005F6D54A4EA868683601280FD05C
:100E20000528306810D020F001003060306820F0D4
:100E300004003060A868B8B1FFF786FB00900FE0AF
:100E4000306840F00100F4E740F004003060F7E75C
:100E5000FFF77AFB0099411A41F28830814264D849
:100E600030688007F4D50EE0FFF76EFB009007E0D6
:100E7000FFF76AFB0099411A41F28830814254D849
:100E800030688007F4D42FB1DAF8001021F08051D7
:100E9000CAF80010A869C0B3DBF80010C1F38101E3
:100EA00002294AD00228484607D0C8F86000FFF758
:100EB0004BFB00E039E005463AE04746C8F86000E1
:100EC000FFF742FB064604E0FFF73EFB801B0228CB
:100ED0002BD820688001F7D4D5E907010843A96A17
:100EE0001C4A490802EB01416A6A41EA821108433F
:100EF00095F82C1040EA01611148001F01600120A3
:100F00003866FFF721FB054605E014E0FFF71CFB00
:100F1000401B022809D820688001F7D50BE000BFEC
:100F2000FFF712FB401B022802D90320BDE8F88F0F
:100F300020688001F4D40020F8E70120F6E70000E3
:100F4000083802400038024000004742800E474205
:100F5000007000400000FFFF10B5401EB0F1807F20
:100F600001D3012010BD4FF0E02460610F21601714
:100F700002F04AFD0020A06107202061002010BD82
:100F800070B5040004D094F83900002510B106E0D3
:100F9000012070BD84F83850204600F023F824204A
:100FA00084F839002068C16821F40051C1602046EE
:100FB00000F028FC2068016921F49041016120685B
:100FC000416921F02A0141612068C16841F4005162
:100FD000C160E563202084F8390084F83A000020DD
:100FE00070BD000010B586B0044614216846FFF7B6
:100FF00031F914492068884221D11348016841F031
:1010000010010160006800F0100005900E481438CF
:10101000016841F0010101600068694600F00100CB
:1010200005904FF4C06000900220019001200290D2
:1010300003200390072004900448FFF7ADF906B0A1
:1010400010BD000000100140443802400000024082
:101050002DE9F843044690F839001F4616460D4620
:10106000202850D1A5B19EB194F8380001284AD06B
:10107000012084F838004FF00008C4F83C8021209B
:1010800084F83900FFF760FAA6848146E68426E0FA
:101090000120BDE8F883E08C401EE084A0684B4648
:1010A000B0F5805F4FF000024FF0800120460097BE
:1010B00003D000F0FDFCE8B90DE000F0F9FCC8B980
:1010C00028882168C0F308004860206908B16D1CB9
:1010D00005E0AD1C03E0216815F8010B4860E08CC9
:1010E0000028D8D14B46002240212046009700F02E
:1010F000DFFC08B10320CCE7202084F8390084F815
:1011000038800020C5E70220C3E72DE9F05F0746DD
:1011100000680E4600EB4114D4F808054FF0040BAC
:10112000420701EB86004FF0050A4FF0100807EB6D
:10113000C00508D5C4F808B5D4F80C0540F0020085
:10114000C4F80C0530E0D4F80805800601D520204D
:1011500028E0D4F808054FF0080900070FD5D4F8A7
:101160000C0540F00200C4F80C0585F85DA0C4F839
:101170000885C4F80895386802F081F914E0D4F8BD
:101180000805400510D5D4F80C0540F00200C4F85D
:101190000C05386802F073F9C4F8088585F85D908D
:1011A0004FF48060C4F80805D4F8080580050ED512
:1011B000D4F80C0540F00200C4F80C05314604F5E3
:1011C000A164386802F05BF94FF4007090E0D4F845
:1011D00008054FF00001C0074FF0010237D0386911
:1011E00030B1A86CD4F81035C3F31203C01AE86408
:1011F00085F85D20A965C4F8082595F83F0020B161
:10120000022802D003280FD01AE0D4F80C0540F0D1
:101210000200C4F80C05314604F5A164386802F0F8
:101220002EF9C4F800800BE0D4F8000540F000501F
:10123000C4F8000585F85C2031463846FFF7F0F920
:1012400015F8500F80F001002870BDE8F09FD4F829
:101250000805800735D5D4F80C0520F00200C4F845
:101260000C0595F85D000223012808D0052809D057
:1012700006280AD0082808D003281FD015E085F8D2
:101280005C2012E085F85CA00FE0A86D401CA8650A
:10129000032813D9A96585F85CB0D4F8000520F0BF
:1012A000804040F00040C4F80005C4F8083595F8C7
:1012B0005C2031463846FFF7B3F9C6E785F85C3065
:1012C000EBE7D4F80805000614D5D4F80C0540F077
:1012D0000200C4F80C05A86D3146401CA865062024
:1012E00085F85D0004F5A164386802F0C8F8802034
:1012F0002060AAE7D4F80805C006A6D595F83F00F7
:10130000032803D020B1022802D011E0A96505E02E
:10131000A965386960B9032085F85D00D4F80C052B
:1013200040F00200C4F80C053146386802F0A7F816
:10133000C4F8088589E72DE9F047026802EB4114FB
:10134000D4F808254FF00403520709D5C4F808352E
:10135000D4F80C0540F00200C4F80C05BDE8F08795
:10136000D4F8082501EB810596064FF0000200EB4A
:10137000C5054FF0020C15D52023C4F8083595F8A3
:101380003D30012BEAD185F83D2085F85CC0D4F8CA
:101390000C2542F00202C4F80C250068BDE8F047B5
:1013A00002F06DB8D4F8086577064FF0010611D544
:1013B00085F85D3085F83D60AA65D4F80C2542F0CB
:1013C0000202C4F80C25006804F5A16402F057F885
:1013D000402010E0D4F80875BF050ED5D4F80C25D0
:1013E00042F00202C4F80C25006804F5A16402F082
:1013F00046F84FF400702060B0E7D4F80875FF0796
:101400000FD0AA65D4F80C2542F00202C4F80C25CE
:10141000006804F5A16402F032F8266085F85D608A
:101420009CE7D4F808754FF005095FEA07784FF09C
:1014300008070DD5C4F80875D4F80C2542F002024F
:10144000C4F80C25006802F01AF885F85D9085E76D
:10145000D4F808854FF0100A5FEAC86818D5AA6565
:10146000032285F85D2095F83D2022B995F83C20AF
:101470000AB985F83D60D4F80C2542F00202C4F8A0
:101480000C25006804F5A16401F0F9FF5046B2E7AD
:10149000D4F808855FEA08680FD5D4F80C2542F027
:1014A0000202C4F80C25006804F5A16401F0E7FF0E
:1014B000062085F85D0080209DE7D4F808855FEA66
:1014C000485812D5D4F80C2542F00202C4F80C2575
:1014D000006804F5A16401F0D2FFC4F800A04FF445
:1014E0008060206085F85D7038E7D4F80875BF0724
:1014F00096D5D4F80C7527F00207C4F80C7595F84A
:101500005D70012F0AD0032F17D0042F15D0052F9F
:1015100016D0062F17D0082F15D027E085F85C606D
:1015200095F83F20022A01D0032A1FD195F85120B7
:1015300082F0010285F8512018E085F85CC015E0C2
:1015400085F85C9012E0AE6D761CAE65032E03D973
:10155000AA6585F85C3001E085F85CC0D4F8002508
:1015600022F0804242F00042C4F80025C4F808C5C9
:1015700095F85C20FFF754F8F0E67CB50468054662
:10158000D4F840040190D4F8400420F02E000090DC
:10159000019880070DD50198C00706D0A06920F0FA
:1015A0000051A1612846FEF7D5FF009840F00200E7
:1015B00000900198000732D5009840F00800009094
:1015C000019840071DD5A869022803D0E8680328C0
:1015D0000CD00FE00198C0F341400228286803D0E6
:1015E000012102F03DF905E00221FAE74EF6602004
:1015F000C4F804042846FFF769F92846FEF7AAFF55
:101600000DE02846FFF75EF9D4F8400420F02E00E4
:10161000C4F840042868816941F000518161019853
:101620008006009802D540F020000090C4F84004E5
:101630007CBD00002DE9F041024600680646016AC3
:10164000C1F3434301F00F07C1F30A14022B25D164
:10165000002C23D007EB870102EBC105696C002940
:101660001CD0224602F01BF9686C20446864E86CC8
:101670002044E86406EB4710D0F81015084A1142E0
:101680000CD0D0F8001521F0804141F00041C0F8A5
:10169000001515F8500F80F001002870BDE8F081AA
:1016A0000000F81FFEE7000010B504490448FEF7EB
:1016B0003DFE0249491E087010BD00004200002096
:1016C000B849000810B500220B490C4800F0E1FCB5
:1016D00008B1FEF72AFE0A49084801F02FFD08B1BB
:1016E000FEF723FE054801F06CFD002803D0BDE89D
:1016F0001040FEF71ABE10BDD931000800030020CB
:1017000064000020014801F049BC000000030020F3
:10171000FEE770470148FEF7CBBF0000CC06002073
:1017200070477047FFF706B930B593B0302168466F
:10173000FEF790FD14210CA8FEF78CFD1A48002539
:10174000016841F080510160006800F08050119004
:101750001648016841F4804101600068022400F4E9
:101760008040119001200090000401908001CDE99B
:101770000640192008904FF4A870CDE9090407200D
:101780000B906846FFF75AFA0CA90F2081E8310048
:101790004FF4A0500F90E002109005210CA8FFF725
:1017A00063F913B030BD00004038024000700040C3
:1017B0001048016841F4700101600F48016841F070
:1017C000010101600C4A00210832116002680B4BD4
:1017D0001A400260031D0A4A1A60026822F480223D
:1017E000026005480C3001600249580680390860E3
:1017F0007047000088ED00E000380240FFFFF6FE71
:10180000103000242DE9F041044600680169E268C7
:1018100021F44051114301612169A068E269084344
:101820006169114322680843D16849F20C63994306
:101830000143D16020684169A26921F440711143DC
:101840004161E2696425B2F5004F974897492268E3
:101850004FF032083FD08A4201D082427CD1FFF75C
:10186000ABF900EBC00101EB001061688900B0FB2F
:10187000F1F6FFF7A1F900EBC00101EB0010616880
:101880008900B0FBF1F0B0FBF5F06FF018014843B0
:1018900006EB800108EB0110B0FBF5F000F0F0065C
:1018A000FFF78AF900EBC00101EB001061688900C5
:1018B000B0FBF1F0B0FBF5F006EB0016FFF77CF99A
:1018C00000EBC00101EB001061688900B0FBF1F78B
:1018D000FFF772F9D2E08A4201D082423DD1FFF790
:1018E0006BF900EBC00101EB001061684900B0FB2F
:1018F000F1F0B0FBF5F00601FFF75EF900EBC00177
:1019000001EB001061684900B0FBF1F7FFF754F9F3
:1019100000EBC00101EB001061684900B0FBF1F081
:10192000B0FBF5F06FF01801484307EB800108EBBE
:10193000C100B0FBF5F000F0F80006EB4006FFF741
:101940003BF900EBC00101EB001061684900B0FBFE
:10195000F1F7FFF731F93CE055E0FFF71DF900EB37
:10196000C00101EB001061684900B0FBF1F0B0FB71
:10197000F5F00601FFF710F900EBC00101EB0010D4
:1019800061684900B0FBF1F7FFF706F900EBC00111
:1019900001EB001061684900B0FBF1F0B0FBF5F01D
:1019A0006FF01801484307EB800108EBC100B0FB62
:1019B000F5F000F0F80006EB4006FFF7EDF800EB5D
:1019C000C00101EB001061684900B0FBF1F7FFF7BF
:1019D000E3F800EBC00101EB001061684900B0FBC7
:1019E000F1F0B0FBF5F06FF01801484307EB800110
:1019F00008EBC100B0FBF5F000F0070021683044AF
:101A00008860BDE8F081FFF7C7F800EBC00101EB8B
:101A1000001061688900B0FBF1F6FFF7BDF800EB3C
:101A2000C00101EB001061688900B0FBF1F0B0FB70
:101A3000F5F06FF01801484306EB800108EB011048
:101A4000B0FBF5F000F0F006FFF7A6F800EBC001E0
:101A500001EB001061688900B0FBF1F0B0FBF5F01C
:101A600006EB0016FFF798F800EBC00101EB001041
:101A700061688900B0FBF1F7FFF78EF800EBC00159
:101A800001EB001061688900B0FBF1F0B0FBF5F0EC
:101A90006FF01801484307EB800108EB0110B0FB21
:101AA000F5F000F00F00A9E700140140001001401C
:101AB0002DE9F041984617460E460446069D1DE066
:101AC000681C1BD02DB1FEF73FFDA0EB0800A8421B
:101AD00014D92068C16821F4D071C16020684169BF
:101AE00021F001014161202084F8390084F83A0096
:101AF000002084F838000320BDE8F08120680068E9
:101B000036EA000004D00020B842D9D00020F3E724
:101B10000120F9E710B500224FF6FF7300EB8204B5
:101B2000B4F88043240409D49A4205D000EB820023
:101B300041F40041C0F88013D0B210BD521CD2B2A3
:101B40000B2AEBD31A46F7E77FB51C46012501AEF9
:101B50000023009586E80E0002232A46214600F065
:101B600095FB04B0002070BD7FB51D4690F81D3375
:101B7000089C03B100240123CDE90031CDE9022402
:101B800002230022294600F081FB04B0002070BD32
:101B900010B500F096FA002010BD8278012A07D116
:101BA0000222027401224274002242828182C28295
:101BB0000022114600F00FB87FB51C46012501AE8A
:101BC0000023009586E80E002A46214600F05EFBC1
:101BD00004B0002070BD70B504460120A37805460E
:101BE000012B0CD0022B09D1204600F014F9002162
:101BF00058B1032809D0022800D1A57070BDA1609A
:101C0000A28125760221A17070BDA570217670BDDC
:101C10007FB51D4690F81D33089C03B100240123B5
:101C2000CDE90031CDE9022400231A46294600F00F
:101C30002DFB04B0002070BD1FB500231446CDE974
:101C400000310822CDE902231A46214600F01EFB8E
:101C500004B0002010BDFEF78DBB000070B5054636
:101C6000002005F54D7500BF00EB800404EBC004B7
:101C700005EB4404E67B0A348E4201D0FF2909D1EA
:101C8000A679964201D0FF2A04D1E4799C4206D07D
:101C9000FF2B04D0401CC0B20228E5D3FF2070BD4A
:101CA0000B2907D200EB8100B0F88013C1F30E01BD
:101CB000C0F880130020704730B48578029C012D55
:101CC0000FD141F080010174062141740321428249
:101CD000B1EB122F02D140F2094100E000218182D4
:101CE000C482224630BC1946FFF775BF0A880378C4
:101CF0001A440A80017808447047F8B50E4600F18E
:101D00001C05009104462B464FF400720021FFF79A
:101D1000D3FF070005D13246294604F54D7001F086
:101D2000CFF83846F8BD38B50D460091044600F5A9
:101D30008E734FF480720021FFF7BEFF002839D167
:101D400094F81C1184F8221394F81D1184F82313BD
:101D5000B4F81E11A4F8241394F8201184F8261363
:101D600094F8211184F8271394F8221184F8281389
:101D700094F8231184F82913082D1BD9B4F82411E1
:101D8000A4F82A13B4F82611A4F82C13B4F82811D7
:101D9000A4F82E1394F82A1184F8301394F82B1118
:101DA00084F8311394F82C1184F8321394F82D111F
:101DB00084F8331338BDF8B51C461646009341F439
:101DC000407200F58E731D460021FFF775FF002855
:101DD00014D16978032911D129788A1EA24200D82A
:101DE00014460021A2B2AD1C04E06B5C891C06F80D
:101DF000013B89B29142F8D300213170F8BD010056
:101E00004FF0000004D0012901D0022901D00220A6
:101E10007047012070472DE9F84F04460125007EE8
:101E20000B262F464FF009084FF007094FF0050B1E
:101E30004FF00D0A0C2819D2DFE800F0AF060E268D
:101E4000313D49616C7D8A9B627904F11001204625
:101E5000FFF7F2FE022012E06179204600F095F9CA
:101E6000012804D0042872D0022870D095E0207C8C
:101E7000E18A00F0800021B180283BD10320207648
:101E80008BE0802814D02FE0D4F8BC03E0812379C4
:101E9000A2892046A168FFF78FFE0420EFE7217991
:101EA000204600F072F9012802D0052841D057E001
:101EB00084F8188071E000976379A2892046A168B0
:101EC000FFF7A6FED4F8BC03E0810620D7E76179CE
:101ED000204600F05AF9012806D0052807D002282C
:101EE00008D0042809D058E084F8189055E00C2058
:101EF00020761EE084F818B04FE026764CE00022F1
:101F0000237911462046FFF757FED4F8BC03E08141
:101F10000820B4E72179204600F037F9012804D0E1
:101F2000042824D0052804D037E084F818A0002520
:101F300033E0032531E00097002263791146204603
:101F4000FFF766FED4F8BC03E0810A2097E70EE0B5
:101F50006179204600F019F9012804D00228A7D0A1
:101F6000042804D019E0002584F818A015E026768E
:101F700013E0607E401CC0B26076022805D820467F
:101F800000F07BF92776A77007E0D4F8C823062174
:101F9000204690470020607602252846BDE8F88F4D
:101FA000FEB50446012640780025374604F58E72BA
:101FB00008286CD2DFE800F004161D434A5357622C
:101FC00008212046FFF7AFFE002860D194F82903CE
:101FD000A071677094F81D130091CDE9015094F839
:101FE0001C3319E012212046FFF79DFE30BB022072
:101FF00033E00121204601F0BAF8F8B90220FFF7DA
:102000002AFE84F81C7303206070A07994F81D13D5
:10201000CDE900153B46029021798022204600F050
:1020200045FFA07994F81D130091CDE9015094F873
:102030001C3361790022204600F038FF27E0092197
:102040002046FFF75AFE10BB042006E0B4F8361312
:102050002046FFF752FED0B90520607017E094F8D3
:102060003013062502E094F83113072521B1FF2330
:102070002046FFF7A0FE50B9657008E094F83213CF
:1020800021B1FF232046FFF796FE00B90026304617
:10209000FEBD70B50D46040011D084F8C0230020A9
:1020A000C4F87803C4F87C032046FEF719F90DB193
:1020B000C4F8C853204600F07BF8002070BD022011
:1020C00070BD10B5D0F8C403FEF75FFABDE810404C
:1020D000FFF795BE10B5017821B190F81F130129C3
:1020E00009D00AE0012180F81E13D0F8C82322B1DC
:1020F0000421904701E002210170002010BD10B5BD
:10210000044600F0BAF821792046FFF7C9FD61794D
:102110002046FFF7C5FD002084F81E03D4F8C8232D
:1021200012B1052120469047204600F09DF803207B
:102130002070002010BD10B5C820FEF71BF900204C
:1021400010BDD0F8C403FEF71ABA10B50124D0F8B8
:10215000C403FEF70AFA20B1012805D0022803D1F2
:1021600001E0002400E00224204610BDD0F8C403A2
:1021700001EB810100EBC10090F83B1011B190F828
:102180005000704790F851007047D0F8C403FEF734
:10219000EFB9D0F8BC13491CC0F8BC1301780B2967
:1021A00005D1D0F87813002901D089690847704714
:1021B00010B5044690F8C003F0B910481049022247
:1021C000C0F8C042C4F8C40301600C21816003213F
:1021D000C16000210161C0E906210162C162416361
:1021E000FEF7FFFA08B1FEF7A0F80448FEF7BAF9C7
:1021F0000146204600F025F8002010BDCC06002046
:1022000000000440FEB508AF97E870008DE870004C
:10221000D0F8C403FEF7CBF9BDE8FE40FFF7EFBDF1
:10222000002180F81F137047012180F81F137047A9
:1022300010B5D0F8C403FEF74DFBBDE81040FFF722
:10224000DEBDC0F8BC137047D0F8C40301EB8101B8
:1022500000EBC10090F83B1011B180F8502001E074
:1022600080F851200020704710B5D0F8C403FEF765
:1022700038FBBDE81040FFF7C2BD10B5D0F8C4036D
:10228000FEF745FBBDE81040FFF7B9BD2DE9FF4162
:102290000DF1280898E8F0008DE8F000D0F8C403AC
:1022A000FEF7BFF904B0BDE8F041FFF7A8BD034653
:1022B0000220D3F87813C9692AB1012A05D1897996
:1022C0001846FFF76ABCC979FAE77047D0F8780377
:1022D0000549C069416505498165012100F8501F24
:1022E0008170002070470000555342435040302019
:1022F0002DE9F84F0746D0F8780301263546C46922
:102300004FF00B0A4FF00A0B94F850004FF00909F8
:102310004FF007080C2845D2DFE800F0D20611255F
:102320002E4852757EA7AFCB84F86110022084F846
:102330005000009563791F2204F1540159E061793E
:102340003846FFF722FF012802D002287ED03FE066
:10235000E06D002829D094F86000000601D5032024
:102360004BE0052049E0237962893846D4F88C1087
:10237000FFF7EAFB042040E021793846FFF705FF2C
:1023800001284FD16289E06D90420CD9D4F88C10AD
:10239000801A1144C4F88C10E0656BD0237938465C
:1023A000FFF7D2FB8CE00020E06563E000956379E5
:1023B00022893846D4F88C10FFF7D6FB06201CE0A3
:1023C00061793846FFF7E1FE012804D00228C8D021
:1023D000052815D074E02289E06D9042E3D9D4F845
:1023E0008C10801A1144C4F88C10E06542D000951E
:1023F00063793846FFF7B8FB62E084F850005FE08D
:1024000084F850B05CE023790D2204F1780138465D
:10241000FFF79AFB0820F0E721793846FFF7B5FE71
:10242000012802D005281DD04AE004F8505F384644
:10243000A570D7F87813CC692179FFF782FE0D28B3
:102440000CD12149A06F884208D100E036E0A16D8F
:10245000E06F884202D194F8840008B102262FE090
:1024600000262DE084F850902AE000223846FFF73D
:102470001EFF38B984F8508022E001223846FFF769
:1024800016FF10B1042811D01AE061793846FFF721
:102490006DFEC0F10100C2B261793846FFF7D4FE8B
:1024A000217900223846FFF7CFFEDBE784F850A001
:1024B00006E0384600F015F8060001D184F85050C7
:1024C0003046BDE8F88F000055534253A1220274F4
:1024D000FE2242740022428282820122C282FFF7DF
:1024E0007ABB21210174FF21417400214182818244
:1024F000C1820A46FFF76FBB70B5D0F8781301258B
:10250000CC69A17B21B1022902D003292ED127E079
:102510002146FFF7DBFF00210546032801D01DB14E
:1025200024E00025216004E02068022801D902206F
:1025300001E02078401C2060002002230CE000BF56
:1025400000EB800202EBC00204EB8202401C82F826
:10255000923082F8C110C0B222688242F0D805E001
:102560000021FFF71AFB08B9E07BA073284670BD75
:1025700010B51446D0F878230078D3690B2801D021
:10258000022010BD01EB810000EBC10003EB8001D4
:10259000342220469031FDF744FE002010BD70B576
:1025A0000546D0F878030026C469617939B1284618
:1025B000FFF7EEFA61792846FFF772FB6671217921
:1025C00039B12846FFF7E4FA21792846FFF768FB7E
:1025D0002671D5F87803C06920B101F001FFD5F864
:1025E0007803C661002070BDFEB50546D0F87803BB
:1025F00002245023017906222846FFF72FFB0146CB
:10260000FF287DD0284600F0A7FDE00102F07AF80F
:10261000D5F878130446C86195F8200300EB8001D3
:1026200001EBC00005EB400090F84A0301060CD511
:10263000E07195F8200300EB800101EBC00005EB91
:102640004000B0F84C0360810BE0A07195F82003C6
:1026500000EB800101EBC00005EB4000B0F84C033B
:10266000208195F8200300EB800101EBC00005EB11
:10267000400090F8520301060CD5E07195F8200354
:1026800000EB800101EBC00005EB4000B0F8540303
:1026900060810BE0A07195F8200300EB800101EB55
:1026A000C00005EB4000B0F8540320810020A4F8DE
:1026B000F800A4F8FA0020736073A073A17928468B
:1026C000FFF728FA6071E1792846FFF723FA2071B5
:1026D0002846FFF7FBFD682104F19000FDF7BAFDE5
:1026E000208995F81D1302260091CDE9016095F827
:1026F0001C33A2796179284600F0D8FB608900E09C
:1027000016E095F81D130091CDE9016095F81C3392
:10271000E2792179284600F0C9FB21790022284678
:10272000FFF792FD617900222846FFF78DFD002416
:102730002046FEBD2DE9F0470746D0F878034FF05C
:10274000010AC469207B10B101282DD12CE1B4F815
:10275000F800216801254FF0000888426FD200EB95
:10276000800101EBC00004EB8000022680F891504C
:10277000B4F8F8004FF0050900EB800101EBC0014F
:1027800004EB810292F8901009290DD2DFE801F0E4
:10279000050C1F880DB10C0CFF00042082F890007E
:1027A000D7F8BC03C4F8FC0000E1C1B238469F3240
:1027B00000F08CF940B9B4F8F80000EB800101EBAF
:1027C000C00004EB8000B6E002287DD099E0C1B2E1
:1027D000384600F0ABFA10B1022831D091E0B4F8DD
:1027E000F80000EB800101EBC00004EB800090F8E2
:1027F000921011B180F8C15001E080F8C180B4F8A6
:10280000F820032002EB820101EBC20104EB8101FD
:1028100081F89000B4F8F81001EB810202EBC101DD
:1028200004EB810181F89180B4F8F81001EB81028A
:1028300002EBC10104EB810181F89280B6E0AAE0CD
:10284000B4F8F80000EB800101EBC00004EB80005D
:1028500090F89210022902D080F8C15001E080F86F
:10286000C180B4F8F81001EB810202EBC10104EB66
:10287000810181F89090B4F8F80000EB800101EB41
:10288000C00004EB800080F89150B4F8F80000EB31
:10289000800101EBC00004EB800080F8926085E0CD
:1028A000C1B23846943200F0BBF900288CD1B4F89C
:1028B000F80000EB800101EBC00004EB800080F821
:1028C0009050B4F8F81000E008E001EB810202EB50
:1028D000C10104EB810181F8918031E0B4F8F81076
:1028E00001EB810202EBC10104EB810181F89090C0
:1028F0005CE0C1B238469C3200F0CFF920B102282A
:1029000023D004282DD051E0B4F8F80000EB80016A
:1029100001EBC00004EB800090F89C10062901D068
:1029200002290BD1D7F8BC13D4F8FC20891A42F243
:102930001072914202D280F8906037E080F8905097
:1029400034F8F80F401C208030E0B4F8F81008206C
:1029500001EB810202EBC10104EB810181F89000DF
:1029600024E0B4F8F80000EB800101EBC00004EBB8
:10297000800080F89050B4F8F80000EB800101EB83
:10298000C00004EB800080F891600FE0FFE7401C7E
:10299000A4F8F8000AE0A4F8F8802573D7F8C82353
:1029A00002213846904701E04FF0000A5046BDE84A
:1029B000F08700002DE9F843D0F8782301EB81037C
:1029C00003EBC103D269012502EB8304082794F8C5
:1029D00090302E46052B22D000224FF00508062B02
:1029E00002D0072B2AD10CE0002300921A4600F0F7
:1029F000D7F80BE002280FD018E000BF84F89070E1
:102A00001BE0002300921A4600F0B6F90028F1D12D
:102A100084F89060002511E084F890800EE004F1C5
:102A20009C0200F03AF920B1022807D00428E5D032
:102A300004E004F8906F0220607002252846BDE88B
:102A4000F8832DE9F8430446D0F87803089E0F4632
:102A5000C56994F81E0360B120780B2809D107EBF3
:102A6000870000EBC70005EB800090F8901001296B
:102A700002D00220BDE8F8830621297380F8901067
:102A8000A5F8FA7039462046009600F089F8D4F887
:102A9000BC8340F271204FF00109464309E0D4F8AD
:102AA000BC13A1EB0800B0EB061F0CD894F81E0372
:102AB00048B139462046FFF77DFF0128EFD085F861
:102AC0000C900020D6E785F80C90D2E72DE9F04174
:102AD0001546D0F8782302270026D4694FF0010864
:102AE00094F85220012A02D0022A56D126E024204E
:102AF0008022E06584F860200A2284F86220C4F80D
:102B00006360C4F86760A4F86B60122284F86320E5
:102B1000490184F8641084F8656084F8666084F87C
:102B2000670084F86860022084F8508084F85200BE
:102B300004F110000127C4F88C002EE0FFF7D8FB49
:102B400007002AD122212846FDF784FBD4F88C0007
:102B5000007800F01F006870D4F88C0000784009FD
:102B60002870D4F88C004078000602D585F80280E1
:102B700000E0AE7054F88C0F10228168C5F8031085
:102B8000C068C5F80700216805F10C001031FDF799
:102B900048FB2068006AC5F81D003846BDE8F08192
:102BA0002DE9F041154602461F46D2F8783302203F
:102BB000069EDC6994F85230012B06D0022B2DD1F1
:102BC000BDE8F0411046FFF793BBB4F89800102120
:102BD0007043E065802084F860000A2084F8620079
:102BE00004F16300FDF736FB282084F86300280E0B
:102BF00084F86500280C84F86600280A84F86700C9
:102C000084F86850300A84F86A0084F86B60012008
:102C100004F8500F0220A0700120E763BDE8F081A6
:102C200070B51646D0F878230125D46994F852205F
:102C3000012A02D0022A2ED11AE00820E065802065
:102C400084F860000A2084F86200102104F1630017
:102C5000FDF700FB252084F86300012084F8500074
:102C6000022084F8520004F11000C4F88C0012E035
:102C7000FFF73EFB05000ED154F88C0F41884278D7
:102C800049BA007862F31F4141EA00603060206871
:102C9000C08840BAB080284670BD70B5154602465F
:102CA0000E46D2F878130220CC6994F8521001290C
:102CB00014D0022911D131461046FFF719FB002824
:102CC0000BD154F88C1F897801F00F01297021680D
:102CD000097B69702168497BA97070BD0E25802031
:102CE000E56584F860000A2084F86200102104F190
:102CF0006300FDF7AFFA032084F86300700184F8E5
:102D00006400002084F8650084F8660084F8675049
:102D100084F86800012084F85000022084F85200F2
:102D200004F11000C4F88C00012070BD70B502469B
:102D30000220D2F87833DC6994F85230012B06D0A7
:102D4000022B18D1BDE870401046FFF7D1BA00251C
:102D5000E56584F860500A2084F86200102104F1CF
:102D60006300FDF777FA84F86350012004F8500FF0
:102D70000220A070012070BD2DE9F04115460246E9
:102D80001F46D2F878330220069EDC6994F8523050
:102D9000012B06D0022B2DD1BDE8F0411046FFF7E4
:102DA000A7BAB4F8980010217043E065002084F8B9
:102DB00060000A2084F8620004F16300FDF74AFA1B
:102DC0002A2084F86300280E84F86500280C84F813
:102DD0006600280A84F8670084F86850300A84F88E
:102DE0006A0084F86B60012004F8500F0220A07084
:102DF0000120E763BDE8F08100207047D0F8782318
:102E00000078D2690B2808D101EB810000EBC100EA
:102E100002EB800090F8910008B10020704701207B
:102E200070472DE9F8430446D0F87803089E0F4612
:102E3000C56994F81E0360B120780B2809D107EB0F
:102E4000870000EBC70005EB800090F89010012987
:102E500002D00220BDE8F8830721297380F8901082
:102E6000A5F8FA70394620460096FFF785FFD4F89A
:102E7000BC8340F271204FF00109464309E0D4F8C9
:102E8000BC13A1EB0800B0EB061F0CD894F81E038E
:102E900048B139462046FFF78DFD0128EFD085F86F
:102EA0000C900020D6E785F80C90D2E7FEB508AF6D
:102EB00097E870008DE87000FFF7A4F90020FEBDD0
:102EC0002DE9F84105460B782B704B786B704B88D9
:102ED0006B800B792B714B796B718B79AB71CB79E3
:102EE0000846EB710027097A2972092A54D9092169
:102EF000ADF800104BE06946FEF7F8FE4178042972
:102F000043D107EB870101EBC70105EB41080178CD
:102F100088F80A10417888F80B10817888F80C102E
:102F2000C17888F80D10017988F80E10417988F879
:102F30000F10817988F81010C17908F10A0488F817
:102F40001110017A2172002615E06946FEF7CEFEC7
:102F5000417805290FD108EBC60102780A7542783D
:102F60004A7582788A75C278CA7582880A8382799E
:102F7000761C8A76F6B22179B14204D96A88BDF806
:102F800000108A42E1D87F1CFFB2022F04D2698868
:102F9000BDF800209142AED8BDE8F881FEB502220E
:102FA00004468DF8002094F81F13002031B92378CF
:102FB00023B12378032B01D003232370237800252A
:102FC00008270D260C2B13D2DFE803F0061317ABEE
:102FD000B64694555C6471A494F81E03002807D08B
:102FE00001202070C820FEF736FE2046FFF720F9AA
:102FF000A2E0012900D122709EE06420FEF72BFEA2
:103000002046FFF7A2F884F81D0305202070002158
:103010002046FEF77FFD607180212046FEF77AFD95
:1030200020710146A07994F81D230092CDE901504A
:1030300094F81C3380222046FFF738FFA07994F8DB
:103040001D130091CDE9015094F81C3361790022E1
:103050002046FFF72BFF6FE02046FEF7A1FF002878
:103060006AD184F8205394F83303012801D0072053
:103070004CE0277060E0D4F8C823D2B30121204689
:103080009047F6E794F83913204600F07EF880BBAD
:1030900009203BE094F83B034FF00A05800604D575
:1030A0000121204600F07FF818BB257044E0D4F8D9
:1030B0007C13F1B1C4F8785394F8432304EB8001F6
:1030C000D1F874130B79934201D1C4F87813401CE2
:1030D00010F0FF00F2D0D4F87803C8B18168204620
:1030E0008847A8B906202070D4F8C82303212046B9
:1030F000904721E0D4F8780350B101692046884711
:103100008DF800009DF80000B0B90B20207013E08E
:10311000267011E0D4F8780370B1416920468847E1
:103120000AE02046FDF7DCF8D4F8780320B1C16846
:1031300020468847C4F878530020FEBD002211B114
:10314000D0F87C3313B10222104670470123C0F837
:103150007C33C0F87413F7E70246002092F8383346
:103160008B4202D982F82013704702207047827880
:10317000012A06D10022027405234374418282820F
:10318000C28200221146FEF726BD8278012A06D1AE
:10319000002202740923437441828282C282002287
:1031A0001146FEF718BD8278012A06D1002202746A
:1031B0000323437441828282C28200221146FEF7B9
:1031C0000ABD10B50446FFF74FF801212046FEF76F
:1031D000B2FF002010BD000001290AD005480229D5
:1031E00006D0042903D0052903D1032100E00121E1
:1031F00001707047460000200020704730B58DB048
:103200001546012449B1012909D0022910D003290A
:1032100018D004240DB0204630BD0024FAE7014642
:103220006A460E48FFF7A4F90028F3D1019813E08D
:1032300001466A460948FFF79BF90028EAD1BDF824
:10324000080009E001466A460448FFF791F90028A2
:10325000E0D1BDF80800400A2860DEE70003002046
:1032600030B58FB0054600930B46014601240C484B
:10327000FFF7E7FB68B101AA29460948FFF778F98B
:103280009DF81100042806D0282804D03A2803D13C
:1032900001E0002400E003240FB0204630BD000010
:1032A0000003002010B5014601240348FFF7A6FDE6
:1032B00000B10024204610BD0003002030B58FB0BF
:1032C000054600930B46014601240E48FFF7A9FD71
:1032D00078B101AA29460B48FFF74AF99DF8110079
:1032E00004280AD0272806D0282806D03A2805D155
:1032F00003E0002402E0022400E003240FB0204693
:1033000030BD00000003002070B5044606990A9EF7
:10331000049D0D98012916D0E06840F04000E0605F
:10332000204600F02BF8A16B1EB321F48031A1637D
:10333000012D07D1A16841F00601A160A16841F00B
:103340002001A16070BDA16B21F48031A163E1680F
:10335000094A1140E160E16821F44011E16001286F
:1033600003D1E06840F48010E060204600F006F8E9
:10337000DEE741F48031DAE7BFFFBDFF01220C49EF
:1033800002E0521C8A420BD80369002BF9DA026969
:1033900042F001020261012204E0521C8A4201D97A
:1033A000032070470369DB07F7D100207047000056
:1033B000400D0300816821F0010181600020704709
:1033C00000EB4110064AC0F81025D0F8001521F096
:1033D000804141F00041C0F8001500207047000016
:1033E0000000088008B5D0F8402422F02E02009298
:1033F000D20405D4012909D1009941F4805103E098
:1034000021B9009921F48051C0F84014002008BD72
:10341000816841F001018160002070470021102285
:103420000261054A491C914201D903207047036992
:10343000DB06F7D400207047400D03000022202354
:1034400043EA811101610549521C8A4201D90320D6
:10345000704703699B06F7D400207047400D0300B6
:10346000D0F8080480B2704708B5D0F84004009046
:10347000C0F3414008BD406900F00100704700EB17
:103480004111D1F800254FF47A73C2F381426AB139
:10349000022A0BD0D1F8002542F08042C1F8002565
:1034A000D0F8100410F47F0F2ED009E0D1F80025D9
:1034B00042F08042C1F80025C06A10F47F0F07D0A7
:1034C000D1F8000540F00040C1F800050020704729
:1034D000D1F8000520F00040C1F80005D1F8000542
:1034E00040F00040C1F80005D1F8000520F400408C
:1034F000C1F80005012002E0401C9842E6D8D1F84E
:103500000025002AF8DBE1E7D1F8000520F00040B3
:10351000C1F80005D1F8000540F00040C1F80005F1
:10352000D1F8000520F40040C1F80005012002E0B8
:10353000401C9842CAD8D1F80025002AF8DBC5E71C
:103540002DE9F0430026DDE9078500EB4114771EE5
:10355000DDF82490C4F80875CDB1012D32D0022DCC
:1035600015D0032D27D00126D0F8187401F00F0CC8
:10357000012101FA0CF10F43C0F81874816941F080
:103580000071816110062AD54FF4004028E040F216
:103590009D47C4F80C75170605D500BFD4F80C7507
:1035A00047F4807718E0C76BFF05DDD5D4F80C75BC
:1035B00047F0600710E040F29D67C4F80C751706ED
:1035C000ECD4D1E740F22527C4F80C751706CBD50B
:1035D000D4F80C7547F4C077C4F80C75C4E7002024
:1035E000B8F1020F18D000214FF0FE5707EA8353BD
:1035F0004FF4F04707EAC22213434FF4402202EA95
:1036000085421343C9F30A02134303430B43C4F82F
:103610000035032D03D008E04FF40031E4E7D4F87F
:10362000000540F00050C4F800053046BDE8F083C6
:10363000D0F8140480B27047F8B54C78C56B4FF4DD
:103640008073ED054FF0000715D50D799DB912B1C6
:10365000012A07D00FE04D79012D0CD12146FFF74B
:10366000AFFE8CE000EB4415D5F80C6526F0600643
:10367000C5F80C654F710E695EB10D892E44761E3A
:10368000B6FBF5F6B6B29E4204D91E462B020B617C
:1036900000E00126CB78CBB30B897343C1F810301F
:1036A0006FF06045C3F3120305EAC6452B438D7ADC
:1036B0004FF0C04606EA45752B4300EB441405461F
:1036C000C4F8103512B1CB68C4F81435D5F80834F5
:1036D000D4F8005543F3000325F00055C4F8005515
:1036E000D4F800555B1C45EA4373C4F80035D4F8A0
:1036F0000055244B1D601D6825F080451D60CD7868
:10370000002D1D6805D045F4004504E0FFE70B6976
:10371000C6E725F400451D601D6845F000451D60A5
:103720001B68C4F8003552BBCA7842BB0A6932B381
:10373000CB7933B1012B0FD0022B02D0032B17D141
:103740000AE0D21CC36AC2F38F029BB293420FD22B
:10375000826942F020020AE0D21CD0F81034C2F391
:103760008F029BB2934203D2826942F080628261EF
:1037700000970A8A93B24A78C96800F00EF90020CF
:10378000F8BD0000480000202DE9F0410025DDF8DB
:10379000188017460446C0F8005E806B40F40010A5
:1037A000A063A06B20F40020A063A06B20F4802015
:1037B000A063E06BC00501D5032B04D0D4F800044E
:1037C00020F0040103E0D4F8000440F00401204696
:1037D000C4F800141021FFF731FE2046FFF71EFE4B
:1037E0000020461E07E000BF04EB4011C1F8086549
:1037F000C1F80C55401C8742F6D801212046FFF73E
:10380000F1FDC820FCF7B6FDA5616661E06BC0055F
:1038100006D54FF4007060620C48A0620C4804E0CA
:10382000802060620B48A0620B48C4F80001B8F128
:10383000000F03D1A06940F01000A061A069074902
:103840000843A0610020BDE8F081000000020001F3
:103850000003E00080006000E0004000080020A3BA
:10386000D0F8002422F00302C0F80024D0F800248D
:1038700001F003031A43C0F80024012902D00229F1
:1038800003D006E04BF6803101E041F27071C0F8E0
:103890000414002070474169806908407047D21CB9
:1038A00010B59308002200F5805002E00468521C15
:1038B00010C19A42FAD3084610BD38B50446D0F874
:1038C000400420F02E00009040F48070C4F84004C2
:1038D000642004F58864FCF74DFD009820F48070A6
:1038E00020600A20FCF746FD002038BD10B5C268F4
:1038F00022F0C042C260012902D029B1012010BDCE
:10390000C16841F0005102E0C16841F08041C160EE
:103910003220FCF72FFD002010BD000030B504461A
:103920008068002520F00100A06010212046FFF7EC
:1039300085FD2046FFF772FD5FF0000004EB4011AB
:10394000D1F8002522F0802242F08042C1F8002503
:10395000401C0F28F2D900204FF47A7304EB401179
:10396000D1F8002522F4004242F04042C1F800257F
:103970006D1C9D4203D8D1F80025002AF8DB401CBD
:103980000F28EBD94FF0FF30C4F814046061A06831
:1039900040F00100A060002030BD10B5029C64B969
:1039A000DB1C9C0800EB0230002300F5805002E095
:1039B00004C902605B1CA342FAD3002010BDFEE7DD
:1039C0000FB4054B10B503A9044A029800F03BF868
:1039D00010BC5DF814FB0000C943000884000020FF
:1039E0000FB4084B10B504A902AA039800F02BF8F5
:1039F000044602A9002000F091F8204610BC5DF8B2
:103A000014FB00001D3B00080907090E002804DB19
:103A100000F1E02080F80014704700F00F0000F182
:103A2000E02080F8141D704702E008C8121F08C18A
:103A3000002AFAD170477047002001E001C1121F2F
:103A4000002AFBD170472DE9F84F994692468846E7
:103A50000546002706E025280AD051464A469047E9
:103A60006D1C7F1C28780028F5D13846BDE8F88FFA
:103A7000002315F8011F18462E2915D115F8011F2E
:103A800004232A290DD06FF02F022978A1F13004E8
:103A9000092C09D800EB800002EB400008446D1CA3
:103AA000F3E758F8040B6D1C2A78002ADDD0632A4E
:103AB00007D0732A0FD0104651464A4690477F1CC4
:103AC0002AE018F8042B8DF8002000218DF8011051
:103AD0006E46012103E058F8046B4FF0FF315A079E
:103AE0004FF0000401D409E0641C84420BDA8C42DC
:103AF000FADB325D002AF7D105E0641C8C42FCDB66
:103B0000305D0028F9D1274404E016F8010B514636
:103B10004A469047641EF8D26D1CA3E70A68531CFE
:103B20000B6010707047000010B504460020E07074
:103B3000401EE062204600F022FE08B1042010BDC5
:103B400004F22E2000F080FDA0F52A41553901D065
:103B5000032010BD94F83000E92805D0EB2814D1DB
:103B600094F83200902810D104F1660000F061FD55
:103B70000749B1EB002F06D004F1820000F059FD97
:103B80000449884201D1002010BD022010BD000070
:103B9000004641544641543330B50021054B0C4694
:103BA00003EB01121568854200D11460491C0229FB
:103BB000F6D330BD900900204269891E921E8A42C8
:103BC00001D800207047826A408901FB00207047BD
:103BD0002DE9F04105680F00804606D000F028FC72
:103BE000022809D20120BDE8F081EE6816B16869AB
:103BF000B04207D8012605E0411CF4D06969814232
:103C0000F1D83E4634466869641CA04202D80224BA
:103C1000022E0AD32146404600F00AFC38B10128A2
:103C2000E1D0411CDFD0B442EDD10020DBE74FF002
:103C3000FF3632462146284600F0BAFD30B957B16A
:103C400022463946284600F0B3FD20B101280FD0A6
:103C500001242046C7E7EC60D5E90401891E8842AB
:103C600001D8401E2861287940F001002871F0E752
:103C70003446EEE72DE9F0410E4624300D68044647
:103C80000B22202100F074FD0020014608272A5C49
:103C9000401C202A12D92F2A0BD05C2A09D02E2AA8
:103CA00001D0B94214D30B2F22D02E2A20D10CE000
:103CB000401C2B5C2F2BFBD05C2BF9D028443060B0
:103CC000B1B12078E5281FD020E008210B27DEE7DE
:103CD000802A03D3114B1A4412F8802C10A300E061
:103CE0005B1C93F800C0BCF1000F04D09445F7D1E1
:103CF0000620BDE8F081A2F16103192B01D8203A1A
:103D0000D2B26254491CC2E705202070202A01D893
:103D1000042000E00020E0720020EAE7E449000807
:103D2000222A2B2C3A3B3C3D3E3F5B5D7C7F0000D2
:103D30002DE9F04104460021056800F0D5F800287F
:103D400026D12846E16900F01AFD02001FD1206A41
:103D5000017899B1C17A01F03F01A171C17A0907D7
:103D60000FD404F124010B2610F8013B11F8017B5C
:103D7000DB1B761E04D0002BF6D002E0042206E006
:103D80002BB10021204600F005F80200D9D01046E2
:103D9000BDE8F0812DE9F047054647690468C06930
:103DA0008946203710B1B7F5001F02D30420BDE8C3
:103DB000F087F90560D1401CE861A9694FF000085F
:103DC00029B16089401E10EA572F05D054E02089A0
:103DD000B0EB571F1DD94FE0284600F029FB0646DF
:103DE00001281BD9701C33D06069B0423ED8B9F1AC
:103DF000000F0ED02846A969FFF7EAFE06000BD097
:103E0000012E0BD0701C23D0204600F091FDF8B994
:103E100006E0C5F81C80C9E70720C8E70220C6E70E
:103E20004FF40072002104F1300000F0A1FC4FF0CB
:103E3000000831462046FFF7BFFE4FF00109E0625F
:103E40000DE000BF84F80390204600F071FD08B13A
:103E50000120ACE7E06A08F10108401CE0626189DA
:103E60004145EFD8E16AA1EB0800E0623146204607
:103E7000AE61FFF7A1FEE861C7F3080020443030CF
:103E80006F612862002092E770B504460E46042058
:103E9000256821E0284600F072FC10BB226A1178E8
:103EA000B1B1D27AE52902F03F02A2710AD02E29DF
:103EB00008D00F2A06D022F0200108290AD00021BC
:103EC000B14210D000212046FFF764FF20B108E086
:103ED000042006E00121F3E7E1690029DAD1002896
:103EE00001D00021E16170BD2DE9F04107680E4667
:103EF0000546B1F5001F36D2F00634D16E61AC68CC
:103F000024B93878032805D37C6A1CB178894FEA34
:103F1000402812E03889B0EB561F24D9786A12E0A5
:103F2000284600F085FA0446401C1AD0022C1AD309
:103F30007869A04217D9A6EB080646452146EFD27C
:103F40003846FFF739FEC5E9064060B100EB562060
:103F5000E861C6F308003844303028620020BDE82C
:103F6000F0810120FBE70220F9E70000084910B5C5
:103F70000B5C002253B901220A540A1801EB80009D
:103F8000127A40680168104688470246104610BD04
:103F9000B009002030B4054D2C1805EB8000247AC0
:103FA000406885682046AC4630BC6047B0090020B8
:103FB000044A111802EB8000097A406842680846FA
:103FC00010470000B009002030B4054D2C1805EB57
:103FD0008000247A4068C5682046AC4630BC604703
:103FE000B00900202DE9F74181B090460298009079
:103FF000684600F0ADFA040003D50B2004B0BDE81C
:10400000F0810D4E002756F824501DB12846FFF7C9
:10401000C3FD2F700198002800D0077046F82400D7
:1040200002D0B8F1010F01D00020E7E7002201A97A
:1040300002A800F065F8E1E76000002073B582B0E7
:10404000050009D00022694603A800F059F80400D1
:104050004FF0000603D02FE0092004B070BD009996
:1040600029602846039900F075F9040014D195F8E9
:104070002F00000607D4A879C0061CD5296A00982D
:1040800000F0C4FAA8600098C188A98028460021E1
:10409000FFF72AFF040002D0042C0CD00CE0A86823
:1040A00038B10021284600F071FA286128B912249D
:1040B00002E02E6101E005242E602046CDE738B5F0
:1040C0000C460546694600F05CFC002813D1014609
:1040D00028468CB1FFF7D8FE042801D000280AD169
:1040E0002146284600F003FA00212846FFF752FE39
:1040F000042800D1002038BDFFF7F6FE38BD0000CF
:104100002DE9FF41002790460E460F6000F020FA8F
:10411000050003D50B2004B0BDE8F0818A4850F8B3
:1041200025409CB13460207808F0FE0620B160780C
:10413000FFF73EFFC1070BD02770E8B2B8466070AA
:10414000FFF714FFC10708D00320E4E70C20E2E7E3
:104150000EB1400704D40020DDE71EB1400701D5B1
:104160000A20D8E7002631462046FFF7DDFC02286A
:1041700022D100254FEA0D0704EB051090F8F2114B
:1041800000F5F77019B1083000F053FA00E0002094
:1041900047F825006D1C042DEED3002557F8256047
:1041A00036B131462046FFF7BFFC022801D203E0BA
:1041B00003206D1C042DF1D3042809D002286DD2F0
:1041C00004F13B0000F040FAB0F5007F66D101E059
:1041D0000120A0E704F1460000F036FA18B904F116
:1041E000540000F026FAA06194F84050A570012D0B
:1041F00001D0022D52D1454394F83D006081E8B3CF
:10420000411E08424AD104F1410000F01DFA20810C
:10421000000743D104F1430000F016FA070004D16F
:1042200004F1500000F005FA074604F13E0000F0EA
:104230000BFA010032D02389481900EB1312974280
:104240002CD3B81A6789B0FBF7F0B8B103274FF643
:10425000F57C604500D8022740F6F57C604500D823
:104260000127801C3244A26231446061C4E90761C5
:10427000032F15D013B12944616200E00EE0022F34
:104280001FD000F0010100EB400001EB500000BF27
:10429000A16900F2FF10B1EB502F14D20D203AE7C4
:1042A00004F15A0000F0D0F90028F7D12089002845
:1042B000F4D104F15C0000F0BCF960626069800038
:1042C000E6E74000E4E74FF0FF302061E060802047
:1042D0002071032F2CD104F1600000F0B5F9012802
:1042E00026D1711C204600F04AFA08BB84F80480ED
:1042F00004F22E2000F0A8F9A0F52A41553917D173
:1043000004F1300000F095F91049884210D104F50D
:10431000057000F08EF90E49884209D104F5067047
:1043200000F087F9206104F5077000F082F9E06081
:1043300005492770091F0888401C0880E080204636
:10434000FFF72AFC07E7000060000020525261419D
:104350007272416173B504460568019801E0401C22
:10436000019001782F29FAD05C29F8D00021A160B2
:1043700001980078202806D2802084F82F0020465B
:10438000FFF7B2FD7CBD01A92046FFF773FC0028B2
:10439000F8D12046FFF7CCFC94F82F1028B1042860
:1043A000F0D14907EED405207CBD4907FCD4A079A3
:1043B000C006F8D5A08AC0F308004119284630315C
:1043C00000F024F9A060DEE713B54FF6FF73012279
:1043D00069460248FCF73CFE00981CBD9000002096
:1043E00010B5002821D0114B0022001F196803E0EE
:1043F000814203D80A4649680029F9D152B11368AD
:10440000841A9C4204D1006818441060104602E0EF
:10441000506000E0186039B102680B1A934203D172
:104420000B681A4402604968416010BD8800002092
:104430002DE9F04104680D4602290BD36069A842BA
:1044400008D920784FF0FF36012807D002282BD05A
:10445000032839D001263046BDE8F081206A05EBFB
:10446000550700EB5721204600F089F90028F2D1CA
:10447000C7F3080020447F1C90F83080206A00EBCE
:104480005721204600F07BF90028E4D1C7F308004B
:10449000204490F8301048EA0120E90701D00609CD
:1044A000D9E7C0F30B06D6E7206A00EB15212046BA
:1044B00000F065F90028CED1E8B204EB40003030BE
:1044C00000F0C2F80646C6E7206A00EBD511204688
:1044D00000F055F90028BED140F2FF1000EA850037
:1044E0002044303000F0A5F820F07046B3E72DE905
:1044F000F041002305464B72C0690C46002825D0C8
:1045000000210A462E26286A805C521C20280AD0E8
:10451000052800D1E520092A02D16718491C7E72BE
:104520006718491C78720B2AEDD360184372286A09
:10453000C07A2072286A1C3000F07BF82060286A5C
:10454000163000F076F8E080000CA080BDE8F08125
:1045500010B504464FF0FF302268002A13D01146F0
:1045600000E0491C0B78212B0ED33A2BF9D112F81D
:10457000013B303B0A2B06D28A4204D1002B02D1E8
:10458000491C1846216010BD002010BDF0B5024640
:104590001D4BD2F80050002003EB00142668AE42F9
:1045A00007D166689768BE4203D1A4685669B442D1
:1045B00002D0401C0228EFD3022814D1002002E0D0
:1045C000401C022804D203EB00142468002CF7D10D
:1045D00002280ED003EB00142560956865605269CF
:1045E000A2600022A281002903EB0011898902D078
:1045F00019B10020F0BD491C01E04FF4807103EBBC
:104600000012401C9181F0BD9009002070B5064653
:104610000D4601F11A0000F017F80446307803281F
:1046200005D105F1140000F00FF844EA00442046DB
:1046300070BDC178827842EA01214278007842EA6E
:10464000012140EA012070474178007840EA0120CA
:104650007047000008B5FCF775F9FDF765F82248CA
:104660000021026842F080020260026802F08002CB
:104670000092026842F002020260026802F0020246
:104680000092026842F0010202600068174A00F0DE
:1046900001000090164802604FF4E132C0E90121A8
:1046A0000C22C160C0E904128161C161FCF768FCA1
:1046B000FCF7FAFFFDF706F80D4801220DA1403086
:1046C000FFF790FC0C49087030B94FF4FA730522DB
:1046D0000AA10748FCF7BCFC0748401C00F0DEF8C4
:1046E000FDF710F8FCE700003038024000100140F0
:1046F00090000020313A0000000000206572726FC7
:1047000072000000F0B50B30154D20F007010024B9
:10471000144A0FE003688B420BD38B4205D95E1A13
:1047200043184768C3E9006700E04368136002C0AC
:1047300004E0021D10680028ECD12046002802D1B8
:10474000286808B10020F0BD064A07481060074AF3
:10475000121A22F00702C0E9002401202860D7E7DE
:104760008C00002088000020C4090020C00B00201D
:104770005FFA81F100F8011B521EFBD1704770B542
:104780000446C06A0D460026A8420FD0204600F01D
:10479000CFF806000AD1607801232A4604F13001DF
:1047A000FFF7F8FB08B1751E0126E562304670BDC3
:1047B0002DE9F047022617460D460446022969D323
:1047C0006069A84266D920784FF00109012804D019
:1047D000022836D003285DD143E0216A05EB550855
:1047E00001EB58212046FFF7CAFF060052D1C8F35B
:1047F00008002044303008F10108E90704D00178AE
:10480000FAB262F31F1100E03946017084F8039098
:10481000216A204601EB5821FFF7B1FF060039D18C
:10482000C8F3080020443030E90702D0C7F307116D
:1048300005E00178C7F3032201F0F0011143017094
:1048400026E0206A00EB15212046FFF798FF0600BE
:1048500020D1E8B204EB4000B9B2303000F064F887
:1048600016E0206A00EBD5112046FFF788FF06000E
:1048700010D140F2FF1000EA850020443030054698
:10488000FFF7D7FE67F31B000146284600F044F807
:1048900084F803903046BDE8F08700002DE9F04130
:1048A00096B00746014606A8FFF7C8FB002824D1AA
:1048B0003846FBF7DAFC05464FF000087E190DF18B
:1048C0000904694606A8FFF7FAFB002815D19DF8F0
:1048D0000910002911D022462E29F2D09DF8080097
:1048E000C0060DD5304609A1FFF77AF83846FFF724
:1048F000D5FF07F805800028E3D016B0BDE8F081A9
:10490000394603A0FFF75CF8DBE700002F257300B2
:1049100025732F25730D0A000170090A4170090AD9
:104920008170090AC17070470170090A41707047AF
:104930002DE9F0410446C0780027F8B1E56A04F19A
:104940003001607801232A468846FFF73DFB08B115
:10495000012713E00020E070206AA169281A88422C
:104960000CD2A67808E0A0690123054460782A46A5
:104970004146FFF729FB761E022EF4D23846BDE8E9
:10498000F08170B50E4604004FF009050CD0206888
:1049900050B1017841B1A188C288914204D14078D8
:1049A000FFF706FBC00703D000203060284670BD2B
:1049B00000252068F9E70000F9310008A532000859
:1049C00061320008BD320008FD310008000000001F
:1049D00000000000010203040607080900000000AF
:1049E0000102030443554541414141434545454981
:1049F000494941414592924F4F4F5555594F554F57
:104A00009C4F9E9F41494F55A5A5A6A7A8A9AAAB13
:104A1000ACADAEAFB0B1B2B3B4414141B8B9BABBBD
:104A2000BCBDBEBFC0C1C2C3C4C54141C8C9CACB59
:104A3000CCCDCECFD1D145454549494949D9DADB1D
:104A4000DCDD49DF4FE14F4F4F4FE6E8E855555564
:104A50005959EEEFF0F1F2F3F4F5F6F7F8F9FAFB45
:104A6000FCFDFEFF010004001000400000010002F8
:104A700000000100020004000800100020000000F7
:104A80004D534300A44A000800000020900000009D
:104A9000283A0008344B000890000020300F000036
:104AA000383A000800303A00000000000000000022
:104AB00000000000000000000000000000000000F6
:104AC00000000000000000000000000000000000E6
:104AD00000000000000000000000000000000000D6
:104AE00000000000000000000000000000000000C6
:104AF0000100000010000000000000000024F4008D
:104B00000000000000000000804A000808000000CB
:104B1000E92500089F250008F9240008352700082A
:104B2000F92D000800000000000000000000000057
:044B30000000000081
:040000050800018965
:00000001FF
