:020000040800F2
:1000000078060020D5020008C11C0008B91C0008B1
:10001000BD1C0008DD1B00080723000800000000CD
:10002000000000000000000000000000891E000821
:10003000E11B0008000000003D1D0008791F0008BA
:10004000EF020008EF020008EF020008EF020008CC
:10005000EF020008EF020008EF020008EF020008BC
:10006000EF020008EF020008EF020008EF020008AC
:10007000EF020008EF020008EF020008EF0200089C
:10008000EF020008EF020008EF020008EF0200088C
:10009000EF020008EF020008EF020008EF0200087C
:1000A000EF020008EF020008EF020008EF0200086C
:1000B000EF020008EF020008EF020008EF0200085C
:1000C000EF020008EF020008EF020008EF0200084C
:1000D000EF020008E51F0008EF02000819200008E1
:1000E000EF020008EF020008EF020008EF0200082C
:1000F000EF020008EF020008EF020008EF0200081C
:10010000EF020008EF020008EF020008EF0200080B
:10011000EF020008EF020008EF020008EF020008FB
:10012000EF020008EF020008EF020008EF020008EB
:10013000EF020008EF020008EF020008EF020008DB
:10014000EF020008EF020008EF020008EF020008CB
:10015000EF020008EF020008EF020008EF020008BB
:10016000EF020008EF020008EF020008EF020008AB
:10017000EF020008EF020008EF020008EF0200089B
:10018000EF020008EF02000800F002F800F092F819
:100190000AA090E8000C82448344AAF10107DA45E2
:1001A00001D100F087F8AFF2090EBAE80F0013F0A2
:1001B000010F18BFFB1A43F0010318477824000011
:1001C00098240000103A24BF78C878C1FAD85207A2
:1001D00024BF30C830C144BF04680C6070470000C1
:1001E0000023002400250026103A28BF78C1FBD840
:1001F000520728BF30C148BF0B6070476E2900F01E
:100200008482702900F0DD83662902F090816529DF
:1002100002F08D81672902F08A81612902F08981CB
:1002200003681B0A28BF41F08001692900F0B080F3
:10023000642900F0AD80752900F0AA806F2900F0D4
:100240006A83782900F0A983E92900F00583E4296D
:1002500000F00283F52900F0FF82EF2900F06783A8
:10026000F82900F0A8830368DB0928BF41F080016A
:10027000632900F08682732900F08B82E32900F065
:100280008787F32900F08C87002070471FB502F0A4
:1002900049F900F0D7FF04000020002102F02CF9FA
:1002A000401C60600020002102F010F9E0601FBDDA
:1002B00010B510BD00F098FF1146FFF7E7FF02F000
:1002C00045F801F075F803B4FFF7F2FF03BC02F044
:1002D0003BF800000948804709480047FEE7FEE771
:1002E000FEE7FEE7FEE7FEE7FEE7FEE7FEE7FEE7E6
:1002F00004480549054A064B704700007D1F000869
:10030000890100087800002078060020780200208B
:1003100078020020704700001CB50C46064B7B4459
:1003200069460090204600F00AFA0446002069461B
:1003300000F018FA20461CBD4304000070B50C46BE
:100340000546012A05D02878800600D5EA690023F1
:1003500002E0012305E05B1C934202D2E05C00282E
:10036000F9D1A869E618C01AA861286A1844286259
:10037000284600F038F904E0D5E9012114F8010B12
:100380009047B442F8D3284600F043F970BD00000E
:100390002DE9F0410646002410687529314616A55E
:1003A00010D000F047F9002802DA404213A507E018
:1003B00031688A0701D512A502E0490704D511A5C5
:1003C000012401E000F03FF900210A2206F1240790
:1003D00009E0B0FBF2FCB0FBF2F302FB1C00303092
:1003E00078541846491C0028F3D123462A46304643
:1003F000BDE8F04100F030B9000000002D00000021
:100400002B000000200000002DE9F05F8946044623
:100410004FF0000ADFF874B1FB44C0F820A020467A
:10042000E1688847002874D0252806D0D4E9012146
:100430009047206A401C2062F1E700265F46204674
:10044000E16888472028054607DB312D05D2781959
:1004500010F8200C08B10643F1E7B00701D526F0EB
:100460000406C4F81CA00027C4F818A02A2D09D03F
:10047000284601F062FF38B304EB8708303DC8F826
:10048000185019E059F8041B204604EB87029161CB
:10049000E1688847012F054618D1E069002820DA75
:1004A00026F020061DE0D8F8180000EB800005EBD0
:1004B00040003038C8F818002046E16888470546F3
:1004C00001F03BFF0028EED1012F0AD02E2D08D1DC
:1004D0002046E16888477F1C0546022F46F020062B
:1004E000C4DBA069002803DA404246F00106A0619F
:1004F000F00701D026F010066C2D0BD0682D09D026
:100500004C2D39D06A2D35D0742D35D07A2D33D07D
:1005100016E038E0E1682F4620468847B842054695
:1005200009D16C2F26D04FF48060E1680643204645
:100530008847054604E06C2F1AD04FF480700643BC
:100540000DB3A5F14100192802D8203546F4006604
:100550004A462946204626604E46FFF74FFE80B1A8
:1005600001280BD0F61D26F0070000F1080956E718
:100570004020E4E78020D8E70020D6E706F1040910
:100580004DE7284652E7206ABDE8F09F1A21000097
:100590004FF0000200B5134694469646203922BF1C
:1005A000A0E80C50A0E80C50B1F12001BFF4F7AF67
:1005B000090728BFA0E80C5048BF0CC05DF804EB49
:1005C000890028BF40F8042B08BF704748BF20F8B7
:1005D000022B11F0804F18BF00F8012B70477047B5
:1005E00070477047704770B5044685690068C1065A
:1005F00001D5302600E02026C00707D070BDD4E921
:10060000012130469047206A401C20626D1EF6D5BD
:1006100070BD70B5044685690078C00707D170BD0C
:10062000D4E9012120209047206A401C20626D1EE1
:10063000F6D570BD09684A0501D540B27047C905B5
:10064000FCD500B2704709684A0501D5C0B27047B1
:10065000C905FCD580B270472DE9F0470D46994693
:100660009246044600F124080168880604D5E06932
:1006700021F01001216000E00120A84201DD471BAC
:1006800000E00027A1697A1902EB0900081AA061AD
:100690002078C00602D42046FFF7A5FF002608E018
:1006A000D4E901211AF806009047206A401C761C04
:1006B00020624E45F4DB2078C0060AD52046FFF7BD
:1006C00092FF06E0D4E9012130209047206A401CC7
:1006D0002062381EA7F10107F4DC07E0D4E901210C
:1006E00018F805009047206A401C2062281EA5F1DA
:1006F0000105F3DC2046FFF78CFF2078000602D5C9
:100700000220BDE8F0870120FBE711680268006A5B
:10071000530501D508700AE0D30501D5088006E02D
:10072000130603D5C217C1E9000200E008600120EA
:100730007047000001694A1C02610878704700B5E3
:100740008FB0CDE901310021059105497944CDE90A
:10075000031011466846FFF757FE0FB000BD0000BA
:10076000E5FFFFFF0A6802F8010B0A60704710B549
:10077000436913B1AFF3008001E0FFF7DFFD012013
:1007800010BD127800F124010A7000224A70012283
:10079000EDE711684FF0FF32E9E700002DE9FF5F58
:1007A00015468A460446DFF8AC80F8440027D8E9AD
:1007B00000103E46CDE9001010E03AF816106A46E7
:1007C00002A800F0F1FC411C07D02178890603D56E
:1007D000E269391891420DD80744761C20788006CA
:1007E00002D5E069B84205DDAE42E6DB3AF8160014
:1007F0000028E2D1A069C01BA0612046FFF7F3FEEC
:10080000D8E90010CDE90010002017E03AF81810E0
:100810006A4602A800F0C8FCB0F1FF3F81460BD049
:1008200000250DF1080B05E0D4E901211BF80500B6
:1008300090476D1C4D45F7D308F10100B04280464A
:10084000E4DB206A384420622046FFF7E2FEBDE880
:10085000FF9F00009A1D00002DE9F0418046D21D47
:1008600022F007020025D2E90002F52915A614D0CE
:10087000011E72F1000106DA0023D0EB030063EBE6
:10088000020211A608E0D8F800108B0701D50FA6C8
:1008900002E0490701D50EA601251146002408F102
:1008A000240704E000F098F830323A55641C50EA0E
:1008B0000102F7D12B46324621464046BDE8F041C1
:1008C000FFF7CABE000000002D0000002B00000052
:1008D0002000000030B4002100F1240408E002F000
:1008E0000705D208303542EA4372DB086554491CDB
:1008F00052EA0305F3D10468002310A2250707D5A7
:10090000A40600D421B1C46901230DA2641EC461F0
:1009100030BCFFF7A1BE10B5044621461068FFF7B2
:1009200092FE02462046BDE810400023D2E7D21DC9
:1009300022F00701D1E90023CCE70000000000000D
:1009400030000000F0B40D460188090502D5214CA5
:100950007C4402E01F4C7C440E34002100F124064C
:1009600008E002F00F071209E75D42EA03721B0973
:100970007754491C52EA0307F3D102780023120787
:1009800004D5702D06D009B1022311342246F0BCE3
:10099000FFF762BE01231034F8E770B504460D4638
:1009A00021461068FFF74FFE024629462046BDE863
:1009B00070400023C6E7D21D22F00703D3E90023CD
:1009C000C0E70368126843F0200303600823C36193
:1009D0000023B7E7FC1B000030B5B0F10A024FEA74
:1009E000900E71F100034EEA817EB0EB0E0061EBD8
:1009F00091014FEA101E4EEA017E10EB0E0041EB12
:100A000011114FEA102E4EEA016E10EB0E0041EB71
:100A100011214FEA104E4EEA014E10EB0E0041EB51
:100A20001141401841F100014FEAD00040EA417005
:100A30004FEAD10110EB80054FEA810444EA90743B
:100A400044EB01046D1944EB0404521BA3414FF025
:100A5000000348BF0A3200D530BD401C41F10001FF
:100A600030BD70472DE9FF4F0C461E464FF0FF3753
:100A70008BB0D2E90001DDF860800A908A46C1F3AC
:100A80000A5505B93D46002108464FF00000BAF16D
:100A9000000F00F4400005DA00EB80004FF4400145
:100AA00001EA50004FEA9059B9F1010F00DDB94653
:100AB0000A9850EA4A000ED044F61050A5F2FF35CD
:100AC00045432F14B8F1000F1ED07542291E1EDDBC
:100AD000C9F100021CE0B8F1010F4FF0000001D095
:100AE000302103E0F24305E02154401CB042FBDB1F
:100AF00030460022002121540B99C1F80880C1E939
:100B000000200FB0BDE8F08FBD1B6D1CDEE74A462C
:100B100000DA694206A800F0D9FB06AB93E80700AB
:100B200003AB83E8070050460A9900F08FFC8DE87C
:100B30000700A0F500501F3800900398002D0ADD33
:100B400042F21F014A460844002303A90390684665
:100B500000F0F8FE09E0A0F500504A461F380023D7
:100B600003A90390684600F002FF8DE80700000427
:100B7000000C03D04FF0FF30410800E01046B8F100
:100B8000000F03D00022009215461EE0751E05D40A
:100B9000FFF722FF303262556D1EF9D5B3460122B0
:100BA000084302D000227F1C04E02078302801D1C5
:100BB00000227F1E002A099784D01DE0112D07DA3C
:100BC000FFF70AFF303262556D1C50EA0102F5D181
:100BD000084302D00098C8B10EE00021681E05E06D
:100BE000235C625C63542254401E491C8142F7DB43
:100BF000AB46A81B401E0990002004F80B000B9880
:100C0000099AC0F80880C0E9002B7AE711264FF056
:100C1000000857E72DE9F04F88460446D21D22F020
:100C2000070191B0D1E90001CDE90A0101F06DFBA6
:100C300002460B98C00F01D02D2007E020688107E5
:100C400001D52B2002E0202101EAC000032A0990EF
:100C500001D0072A05DB03464146204600F0F6FA9C
:100C60000BE12078800601D5E06900E00620B8F1AC
:100C7000650F814606D0B8F1660F18D0B8F1670F3E
:100C800070D131E00020B9F1110F009001DB112388
:100C900001E009F101030AAA01A90CA8FFF7E2FE8D
:100CA000DDE90C70002609F10105834647E00120CB
:100CB0004B4600904FF000470AAA01A90CA8FFF785
:100CC000D1FEDDE90DB00C995D46002610B909F1A1
:100CD00001000D18B9EB050003D4C0F1FF3609F18E
:100CE0000105A5EB09002BE0B9F1010F01DA4FF086
:100CF00001090020B9F1110F0090484601DD1123D0
:100D000000E003460AAA01A90CA8FFF7ABFEDDE943
:100D10000C704D4600268346207800070AD4AB4568
:100D200000DA5D4601A8012D04DD411911F8011C0E
:100D3000302907D04F4502DA17F1040F04DA0120F9
:100D400082460FE06D1EEEE7002F02DCED1B3E44F5
:100D500003E0781CA84200DD7D1CB81B00F1010AED
:100D60004FF000472078000703D4AA4501DB4FF07D
:100D7000FF3A0021B7F1004F0DF143088DF8431001
:100D800024D002202B23002F01DA7F422D230A21B9
:100D9000021EA0F1010000DC5FB197FBF1FC97FBA4
:100DA000F1F201FB1C7C17460CF1300C08F801CD68
:100DB000EEE7A8F1010003702188090501D545215E
:100DC00000E06521A0F1010800F8011C09980FA9B5
:100DD000A1EB0807FF1D00B10120411901EBEA70EA
:100DE000A1693844081A401EA0612078C00602D4C8
:100DF0002046FFF7F8FB099828B1D4E90121904774
:100E0000206A401C20622078C00622D52046FFF7C9
:100E1000EAFB1EE0002E04DBB34502DD01A8805D85
:100E200000E03020D4E901219047206A401C206274
:100E3000761CAAF101005FEA000A0AD100F002FA6A
:100E4000C0680168405CD4E901219047206A401CD9
:100E50002062281EA5F10105DCDC07E0D4E90121B0
:100E600018F8010B9047206A401C2062381EA7F139
:100E70000107F3DC2046FFF7CCFB032011B041E66D
:100E80002DE9F04F04460D46D21D22F0070089B02F
:100E9000D0E900974846394601F037FA0246F80F84
:100EA00001D02D2307E02068810701D52B2302E024
:100EB000202101EAC0038DF820300BB1012000E0B1
:100EC0000020032A824601D0072A04DB2946204657
:100ED00000F0BCF93FE12078800601D40D2500E048
:100EE000E569C7F30A560D2D49DA00214FEA175B71
:100EF00008464FF00000002F00F4400007DA00EB36
:100F000080004FF4400100EBD07001EA60008115D1
:100F1000012901DD4FF0FF3100224FEA850CBCF1C1
:100F2000180F06D31346ACF118004FF08052C240A0
:100F300003E04FF4801323FA0CF30CF10C0CBCF11A
:100F4000200F04D3ACF1200C09FA0CF001E007FAF1
:100F50000CF000294FF0004801DD18B90FE00ED168
:100F600040450CD319EB02095F4121B9404502D13C
:100F70009F4329EA0209BBEB175F00D0761C20884B
:100F8000000502D57B48784402E07A487844193855
:100F900008AA302302F80A30037C0AF10101002E6E
:100FA0000AF1020A53546A4602DC4FF0300101E0B4
:100FB0004FF031014FF001088DF8001002D0A6F279
:100FC000FF3603E059EA470100D06B4E002D02DCEA
:100FD0002178090704D54FF002082E218DF8011061
:100FE000C44600210BE0C7F303433F01C35C491C27
:100FF0006D1E02F80830052908F1010801DA002DFC
:10100000F1DC00210CE000EB1973491C1B786D1E0C
:10101000082902F808304FEA091908F1010801DA35
:10102000002DF0DC21688B0602D516E0A8F101083E
:10103000E04505DD02EB080313F8013C302BF5D049
:10104000B8F1000F09DD02EB080313F8013C2E2B69
:1010500003D1090701D4A8F10108002D05DD3E21C7
:1010600002F808106D1E08F10108407C002E02F8FD
:10107000080008F1010804DA2D20764202F8080081
:1010800002E02B2002F808000A214FF47A70864211
:1010900008F101080BDB96FBF0F3303302F808305F
:1010A00096FBF0F308F1010800FB136601E0642EE3
:1010B0000CDB642096FBF0F3303302F8083096FB2B
:1010C000F0F308F1010800FB136601E00A2E06DBCD
:1010D00096FBF1F0303002F8080008F1010896FBA9
:1010E000F1F001FB1060303002F80800A16908F14E
:1010F000010808EB050202EB0A00081AA06120783B
:10110000C00602D42046FFF76EFA216A08AE01EB52
:101110000A00206204E0D4E9012116F8010B90478F
:10112000BAF1010AF7D22078C00602D52046FFF7AF
:101130005AFA6E4609E016F8010B3E280FD0D4E9A2
:1011400001219047206A401C2062B8F10108F2D2C8
:101150002046FFF75EFA09B00320BDE8F08F206A51
:101160002844206203E0D4E90121302090476D1E1D
:10117000EBD3F8E70116000002FCFFFF10B543694E
:1011800013B1AFF3008001E0FFF708FB012010BDB1
:10119000128800F1240182840022C2840122EDE73A
:1011A00011684FF0FF32E9E770B516460C46054668
:1011B00000F040F8036893F80101012806D0FF2CE5
:1011C0000FD8185D68B101202C7070BDD3F80701ED
:1011D0003246214603F2071303442846BDE8704017
:1011E00018474FF0FF3070BD754600F0EBF8AE4683
:1011F00005006946534620F00700854618B020B523
:10120000FFF776F8BDE820404FF000064FF00007EA
:101210004FF000084FF0000B21F00701AC46ACE89E
:10122000C009ACE8C009ACE8C009ACE8C0098D460B
:101230007047000010B500F005F8001D10BD00BF9C
:10124000B912000000487047380000202DE9F04135
:101250001F46044603260168072A01F4006004DBE8
:1012600008B116A505E016A503E008B115A500E034
:1012700015A521F010002060A069C01EA0610FB16B
:10128000401EA0612046FFF7AEF94FB1D4E901211D
:1012900038469047206A401C2062C01C206206E04D
:1012A000206AFAE7D4E9012115F8010B9047761E70
:1012B000F8D22046FFF7ADF9BDE8F0814E414E006F
:1012C0006E616E00494E4600696E66002DE9F0477A
:1012D000814616468AB0354878440DC88DE80D0021
:1012E00032487844801C03AC0DC884E80D0041F6F8
:1012F0009B300844372190FBF1F290FBF1F5A5F10A
:10130000800501FB12041B3C02D56442012000E071
:101310000020DFF898A080460027FA44AAF1BE0A10
:101320000EE0E0070AD03246684607EB470101238A
:101330000AEB810100F01BFB8DE8070064107F1CA5
:10134000002CEED1194F7F44AE3F19E0E80715D0CD
:1013500007EB04100DF1180A90E80E008AE80E0061
:10136000C068F04201D1981908903246012306A9BD
:1013700003A800F0FCFA03AB83E807006D10641CBF
:10138000002DE3D14FF0010332466946B8F1000F5A
:1013900003A802D000F0D6FA01E000F0E8FAC9E9AB
:1013A0000001C9F808200AB0BDE8F087401300002A
:1013B00010B50446AFF300802046BDE81040FEF7AC
:1013C00082BF000000487047180000204FF0013C29
:1013D00050F8042B51F8043B9A4221D1A2EB0C03A4
:1013E000934313EACC1317D150F8042B51F8043B64
:1013F0009A4215D1A2EB0C03934313EACC130BD101
:1014000050F8042B51F8043B9A4209D1A2EB0C038B
:10141000934313EACC13DBD04FF00000704700BFBA
:10142000D01A01BAB1FA81F101F0180122FA01F0E3
:10143000CB40C1F12001DBB2C0B2C01A2CFA01F3DB
:10144000D11A914311EAC311E6D170475FEA400C0B
:1014500008BF91F0000F4FEA8C234FEAC12243EA04
:1014600051514FEA1C5018BF00F5F0404FEA3000D0
:1014700018BF41F000415FEA6C5C00F02980BCF1CC
:10148000FF3F08BF40F080407047130C06BF1204B6
:101490004FF0100C4FF0000C130E04BF12020CF1B1
:1014A000080C130F04BF12010CF1040C930F04BFBE
:1014B00092000CF1020CD30F04BF52000CF1010C8E
:1014C00011464FF00002A0F11F00A0EB0C00704786
:1014D00011F0004F08BF704731F000413FF4D5AF25
:1014E0000B0C06BF09044FF0100C4FF0000C0B0E54
:1014F00004BF09020CF1080C0B0F04BF09010CF129
:10150000040C8B0F04BF89000CF1020CCB0F04BF3D
:1015100049000CF1010CCCF12003A0EB0C0022FAE5
:1015200003F302FA0CF241EA030100F101007047F3
:1015300020F07F4C80EA030023F07F47ACEB0703E9
:1015400003F57C5300F0004003F1FF032DE98049CF
:101550004FEA154B09B44FEA144325EA0B4E24EA2F
:1015600003480FF2042606EB132749083E785FEA8A
:10157000320203FB0667C7F5000707FB06F64FEAD2
:1015800054374FEAD64606F1020607FB066CCCF14B
:10159000005C4FEA1C472CEA074C07FB06F40CFBE7
:1015A00006F504EB15464FEA961634BF00204FF0BF
:1015B00000404FEAD13706FB07FC4FEA1C4C0CFBFE
:1015C0000BF7D21B03FB0CF761EB07010CFB0EF7CB
:1015D000B0EB074072EB17420CFB08F734BFA2EBED
:1015E0000742B2EB074261EB17414FEA0C444FEA66
:1015F000910706FB07FC4FEA1C4C0CFB0BF7B0EB0A
:10160000C74072EB573203FB0CF734BFA2EBC74263
:10161000B2EBC74261EB57310CFB0EF7B0EBC700E2
:1016200072EB57720CFB08F734BFA2EBC702B2EBA8
:10163000C70261EB5771039F4FEA816141EA921142
:1016400004EBCC044FEAD1374FEA826206FB07FC79
:1016500042EA90124FEA80604FEA1C4C0CFB0BF7F9
:10166000D21B03FB0CF761EB07010CFB0EF7B0EB91
:10167000074072EB17420CFB08F734BFA2EB07429E
:10168000B2EB074261EB17414FEA8C554FEA9107E5
:1016900004EB9C2406FB07FC4FEA1C4C0CFB0BF7ED
:1016A000B0EBC74072EB573203FB0CF734BFA2EB31
:1016B000C742B2EBC74261EB57310CFB0EF7B0EB00
:1016C000C70072EB57720CFB08F734BFA2EBC702DE
:1016D000B2EBC70261EB577115EB4C254FEA816104
:1016E00041EA92114FEA82624FEAD13742EA901200
:1016F00006FB07FC44F100044FEA80604FEA1C4CF3
:101700000CFB0BF7D21B03FB0CF761EB07010CFB87
:101710000EF7B0EB074072EB17420CFB08F734BF33
:10172000A2EB0742B2EB074261EB174115EB1C1528
:101730004FEA813141EA92414FEA823242EA9042D5
:101740004FEA80304FEA0C7644F1000448EA034344
:101750004EEA0B484FF0000EB2EB080C71EB03079A
:1017600024BF624639464EEB0E0E4FF0000B0018B8
:10177000524149414BEB0B0BB2EB080C71EB0307E9
:101780007BF1000B24BF624639464EEB0E0E4FF044
:10179000000B0018524149414BEB0B0BB2EB080C0C
:1017A00071EB03077BF1000B24BF624639464EEB19
:1017B0000E0E51EA020718BF46F0010616EB0E7630
:1017C00055F1000254F1000103D5BDE88901BDE8DF
:1017D0000088BDE88901BDE80048B619524141EBD7
:1017E0000101A3F10103704780807F7E7D7C7B7ABD
:1017F0007978777676757473727171706F6E6E6DBD
:101800006C6C6B6A6A696868676666656464636362
:1018100062616160605F5F5E5E5D5D5C5C5B5B5AE8
:101820005A59595858575756565555555454535355
:1018300052525251515050504F4F4F4E4E4D4D4DB0
:101840004C4C4C4B4B4B4A4A4A49494948484847FB
:101850004747474646464545454444444443434339
:101860004342424242414141002B9C4630D47700E2
:101870002BD01CB54FEA370703B44FF010004FF0E0
:101880001001BAF1000F06D0BCF1000FDCBF40F030
:10189000080040F008014FF000000FBCBDE8104008
:1018A0000BF1010BBBF1010F08BF5FEA170722BF65
:1018B00012F1010211F101014FF0004143F1000367
:1018C00000F0004043EA00007047F9D35708D0E722
:1018D00046EA064613F1400F4FEA16461FDD13F1A4
:1018E000200FDFBF16430A46002120335B42BED0E3
:1018F000C3F1200746EA064602FA07F74FEA164602
:1019000046EA0706C3F1200722FA03F201FA07F7B5
:1019100021FA03F14FF0000342EA0702A7E746EA83
:10192000020646EA06464FEA164646EA0106BCBFEC
:1019300046EA0646360C4FF000034FF000024FF027
:10194000000194E72DE9804C9A46934670B491E8E3
:10195000380007C831EA400C48BF34EA430C03D5CD
:10196000FFF7E6FDFFF780FFF0BCBDE8008C2DE936
:10197000804C9A46934670B491E8380007C810F03E
:10198000804F08BF13F0804F03D100F005F8FFF738
:101990006BFFF0BCBDE8008C20F07F4780EA0300BD
:1019A00023F07F4C07EB0C03A3F57C5300F00040C1
:1019B000A3F1FE0392F0000F00F0B38095F0000F4A
:1019C00000F077802DE901494FEA11404FEA1446B3
:1019D00021EA004800FB06FC24EA064708FB06F65D
:1019E00007FB08F800FB07F718EB06484CEB164C12
:1019F0004FEA124B18EB07484FEA15464CEB1740DD
:101A000022EA0B4E0BFB06FC25EA06470EFB06F608
:101A100007FB0EFE0BFB07F71EEB064E4CEB164CBE
:101A20004FF000061EEB074E4CEB174B18EB0B0864
:101A300040F1000018EB0E0B58EB000840F10000DD
:101A40008F1A4FF000013CBFC943661B14BFB5EBB2
:101A5000040C00213CBFC943F61B4FEA17444EEA71
:101A60008E0E27EA04454FEA1C4704FB07622CEA66
:101A7000074C05FB07F70CFB05F604FB0CFC16EB0B
:101A8000074642EB174216EB0C4642EB1C421BEB9F
:101A9000060658EB0202414146EA9E0601D5BDE822
:101AA0000189B619524141EB0101A3F10103BDE8DF
:101AB00001894FEA14454FEA114724EA054621EA15
:101AC000074C05FB07F406FB07F70CFB06F105FBCB
:101AD0000CFC11EB074144EB17444FEA124711EBA2
:101AE0000C4144EB1C4422EA074C05FB07F206FBC1
:101AF00007F70CFB06F605FB0CFC16EB074642EB62
:101B0000174216EB0C4642EB1C456A1854F10001D3
:101B100048BF7047B619524141EB0101A3F10103DF
:101B2000704795F0000F37D04FEA11424FEA144743
:101B300021EA024624EA074C02FB07F106FB07F7FD
:101B40000CFB06F402FB0CFC14EB074441EB1741C1
:101B50004FEA154714EB0C4441EB1C4125EA074CB6
:101B600002FB07F506FB07F70CFB06F602FB0CFC75
:101B700016EB074645EB174516EB0C4645EB1C42AA
:101B8000121951F1000148BF7047B619524141EB9B
:101B90000101A3F1010370474FEA14454FEA1147D1
:101BA00024EA054621EA074C05FB07F106FB07F787
:101BB0000CFB06F24FF0000605FB0CFC12EB074293
:101BC00041EB174112EB0C4251EB1C4148BF7047EF
:101BD000921841EB0101A3F10103704700BFFEE73A
:101BE0007047F0B50A4600210023002400BF3DE005
:101BF000012505FA01F3156805EA03049C4234D176
:101C000005684F000326BE40B543056015794E00B8
:101C1000B5400668354305601579012D02D0157968
:101C2000022D16D185684F000326BE40B54385605E
:101C300055794E00B5408668354385604568012674
:101C40008E40B5434560456896798E40B6B23543BF
:101C50004560C5684F000326BE40B543C560D579D1
:101C60004E00B540C6683543C560491C1029BFD336
:101C7000F0BDF0B5002300244D07ED0E02FA05F388
:101C8000CE1000F1200555F826504E07F70E0F260E
:101C9000BE40B543CF1000F1200646F82750CE10C5
:101CA00000F1200555F8265045EA0304CE1000F156
:101CB000200545F82640F0BD00BFFEE700BFFEE767
:101CC0007047000070B5002100230F22C4781CB3B8
:101CD000174C246804F4E064C4F5E064C4F30721FD
:101CE000C1F10404E3B20A4144789C40E1B2847833
:101CF000144021430C07210E0E4C057861550478E1
:101D000004F01F050124AC4005786D11AD0005F10C
:101D1000E025C5F8004109E0047804F01F0501241E
:101D2000AC40054D0678761145F8264070BD0000A0
:101D30000CED00E000E400E080E100E0704700000E
:101D400029B1064A12680243044B1A6004E0034AB0
:101D500012688243014B1A6070470000303802401D
:101D600029B1064A12680243044B1A6004E0034A90
:101D700012688243014B1A607047000040380240ED
:101D800029B1064A12680243044B1A6004E0034A70
:101D900012688243014B1A607047000044380240C9
:101DA000F0B5002100220024022500260223324F34
:101DB0003F6807F00C0121B1042905D0082937D16B
:101DC00005E02E4F076036E02D4F076033E02A4FC5
:101DD0003F1F3F68C7F38056274F3F1F3F6807F0FC
:101DE0003F036EB1264FB7FBF3F7DFF88CC0ACF1C1
:101DF000040CDCF800C0CCF3881C07FB0CF40CE0EE
:101E00001E4FB7FBF3F7DFF870C0ACF1040CDCF841
:101E100000C0CCF3881C07FB0CF4174F3F1F3F6832
:101E2000C7F301477F1C7D00B4FBF5F7076002E0B4
:101E3000124F076000BF00BF0F4F3F6807F0F0016F
:101E40000909104F7A5C0768D74047600A4F3F681E
:101E500007F4E051890A0B4F7A5C4768D7408760E6
:101E6000054F3F6807F46041490B064F7A5C4768AD
:101E7000D740C760F0BD0000083802400024F400DD
:101E800040787D0100000020704700000CB5002064
:101E9000019000903448006840F480303249086076
:101EA00000BF3148006800F4003000900198401CE9
:101EB0000190009818B90198B0F5A04FF1D12A48C7
:101EC000006800F4003010B10120009001E0002013
:101ED00000900098012846D123484030006840F027
:101EE00080502149403108602048006840F440405B
:101EF0001E4908601C48083000681B49083108600A
:101F00000846006840F4004008600846006840F455
:101F1000A05008601648091F0860081F006840F0BC
:101F20008070091F086000BF0F48006800F0007053
:101F30000028F9D040F205700E4908600A480830C0
:101F4000006820F00300084908310860084600686E
:101F500040F00200086000BF03480830006800F04D
:101F60000C000828F8D10CBD003802400070004079
:101F700019544F07003C02407047000010B5154847
:101F8000006840F47000134908601348006840F08E
:101F900001001149086000200F49083108600E480F
:101FA00000680E4908400C4908600D48091D08608A
:101FB000081F006820F48020091F086000200649DF
:101FC0000C310860FFF762FF4FF000600149803973
:101FD000086010BD88ED00E000380240FFFFF6FE0B
:101FE0001030002410B540F225510A4800F0C9F81D
:101FF00020B140F22551074800F048F840F2244152
:10200000044800F0BEF820B140F22441014800F03D
:102010003DF810BD0010014010B540F225511448A4
:1020200000F0AFF868B1134800F064F904462246A6
:1020300011A1104800F0B0F940F225510C4800F011
:1020400025F840F224410A4800F09BF878B10B488B
:102050000068401C0949086040F22441044800F02F
:1020600015F8064806A10268024800F095F910BD6F
:1020700000480040001001402564000014000020CA
:102080004672616D652025640000000010B50022D5
:10209000002340F66A14A14200D100BF0A120124B5
:1020A0009440A3B2DC43048010BD21B1828942F484
:1020B0000052828104E082894DF6FF731A408281CA
:1020C0007047000000B587B001210846FFF738FED1
:1020D00001211020FFF754FE07220A212048FFF7B4
:1020E000C8FD072209211E48FFF7C3FD00208DF817
:1020F0001A0001208DF81B0002208DF81800000244
:10210000059002208DF8190005A91548FFF769FD13
:1021100002208DF818004002059005A91048FFF72D
:1021200060FD4FF4165001900020ADF80800ADF8A6
:102130000A00ADF80C00ADF810000C20ADF80E0050
:1021400001A9084800F06CF8012240F22551054829
:1021500000F041F801210348FFF7A7FF07B000BDD9
:10216000000002400010014002460020B1F5007F4F
:1021700000D100BF13880B400BB1012000E000200C
:10218000704770B50246002400230025002040F669
:102190006A16B14200D100BFC1F3421501F01F031E
:1021A000012606FA03F3012D02D19689334006E099
:1021B000022D02D1168A334001E0968A33400C1278
:1021C000012606FA04F41688344013B10CB101203C
:1021D00000E0002070BDF0B5034600240026002575
:1021E000002040F66A17B94200D100BF1846C1F37B
:1021F000421401F01F06012707FA06F5012C01D150
:102200000C3004E0022C01D1103000E014301AB17F
:1022100007682F43076002E00768AF430760F0BD1F
:102220002DE9FF4705460E460024A14600BFA04603
:10223000B08900B100BF2C8A24F44054F0880443D4
:102240002C82AC8941F20C608443B0883189084308
:10225000718908430443AC81AC8A24F44074B0898A
:102260000443AC826846FFF79BFD2048854202D0BC
:102270001F48854202D1DDF80C9001E0DDF808909E
:10228000A88900F4004040B109EBC90000EB091037
:1022900031684900B0FBF1F707E009EBC90000EB3A
:1022A000091031688900B0FBF1F76420B7FBF0F04A
:1022B00004012009642101FB1078A88900F4004082
:1022C00040B1322000EBC800B0FBF1F000F0070095
:1022D000044308E0322000EB08106421B0FBF1F069
:1022E00000F00F0004432C81BDE8FF87001001407F
:1022F0000014014001468888C0F308007047C1F30C
:1023000008028280704700BFFEE703B401984100D5
:10231000009850EAC12018BF04204A0D18BF40F0B1
:10232000010040F2FF72B2EB515F08BF40F00200C3
:10233000012808BF052002B0704730380A2801D2B2
:10234000012070470020704700BF704710B5012181
:102350000803FFF7F5FCFFF7B5FE00F0A1F808A2AF
:1023600009A10B4800F018F800BF0A48016800688E
:10237000401E084A10600029F7D1002010BD00005F
:1023800061626364650000002573200A000000009C
:1023900000100140100000200FB470B59AB005463F
:1023A000642101A8FEF7F4F801AC20A800902046B3
:1023B000009A1F99FDF7B0FF064600BF14F8011BF5
:1023C0002846FFF79CFF00BF80212846FFF7CCFE80
:1023D0000028F9D020780028F0D1009030461AB0BB
:1023E00070BC5DF814FB000000B587B0012102202D
:1023F000FFF7A6FC01218804FFF7B2FC07220A219F
:102400002548FFF736FC07220B212348FFF731FC54
:1024100002208DF8180001208DF81A008002059026
:1024200000208DF81B0003208DF8190005A91A481B
:10243000FFF7D7FB02208DF8180001208DF81A0055
:10244000C002059000208DF81B0003208DF81900B4
:1024500005A91148FFF7C5FB0C20ADF80E000020C0
:10246000ADF80C00ADF80A00ADF808004FF41650B6
:1024700001900020ADF81000012240F225510748DC
:10248000FFF7A9FE01A90548FFF7CAFE012103488D
:10249000FFF70BFE07B000BD0004024000480040FB
:1024A00010B5FFF7A1FF00F001F810BD08B5272017
:1024B0008DF8000001208DF8030000208DF8010048
:1024C0008DF802006846FFF7FDFB08BD10B5002936
:1024D0000AD00878002807D005487844FEF776FF30
:1024E000002801D0002010BD0248784410BD000033
:1024F0007A0100007201000010B500290AD00878A6
:10250000002807D005487844FEF760FF002801D076
:10251000002010BD0248784410BD00006A01000090
:10252000620100004FF04070E1EE100A7047FEF7C4
:1025300071BBFEF7A5BC040000080000000000000D
:102540000002000100001000000000000000000078
:1025500030313233343536373839414243444546D9
:1025600040305800303132333435363738396162D3
:102570006364656640307800303132333435363745
:1025800038396162636465667870003031323334A3
:1025900035363738394142434445465850000000EB
:1025A00002400000000000A0000000000540000004
:1025B000000000C8000000000C4000000000409C2B
:1025C00000000000194000000020BCBE0000000018
:1025D00034400000BFC91B8E00000004B54000005D
:1025E000504BCFD06607E2CF010000006C410000E5
:1025F0003E8251AADFEEA73401000000D94200005C
:10260000DCB5A0E23A301F97FFFFFFFFB4450000A2
:10261000FD25A0C8E9A3C14FFFFFFFFFFF3F00005A
:102620000000008000000000FF3F0000000000806C
:1026300000000000802700080000002018000000B3
:10264000C401000898270008180000206006000058
:10265000E00100081C00000043000000F8FFFFFF3D
:102660000C0000000E0000000F0000002E00000013
:102670001001000043000000F8FFFFFF0040404051
:102680004040404040404141414141404040404045
:1026900040404040404040404040404040050202F1
:1026A00002020202020202020202020202202020B0
:1026B000202020202020200202020202020290900C
:1026C000909090901010101010101010101010100A
:1026D000101010101010101002020202020288885E
:1026E000888888880808080808080808080808086A
:1026F0000808080808080808020202024000000052
:1027000000000000000000000000000000000000C9
:1027100000000000000000000000000000000000B9
:1027200000000000000000000000000000000000A9
:102730000000000000000000000000000000000099
:102740000000000000000000000000000000000089
:102750000000000000000000000000000000000079
:102760000000000000000000000000000000000069
:102770000000000000000000000000000000000059
:102780000000000001020304010203040607080917
:082790000A0000000000000037
:040000050800018965
:00000001FF
