:020000040800F2
:10000000A00400209D010008CB070008C7070008D6
:10001000C907000801070008710C00080000000073
:1000200000000000000000000000000011090008AE
:10003000030700080000000031080008C909000893
:10004000B7010008B7010008B7010008B7010008B0
:10005000B7010008B7010008B7010008B7010008A0
:10006000B7010008B7010008B7010008B701000890
:10007000B7010008B7010008B7010008B701000880
:10008000B7010008B7010008B7010008B701000870
:10009000B7010008B7010008B7010008B701000860
:1000A000B7010008B7010008B7010008B701000850
:1000B000B7010008B7010008B7010008B701000840
:1000C000B7010008B7010008B7010008B701000830
:1000D000B7010008290A0008B70100089D0A0008B6
:1000E000B7010008B7010008B7010008B701000810
:1000F000B7010008B7010008B7010008B701000800
:10010000B7010008B7010008B7010008B7010008EF
:10011000B7010008B7010008B7010008B7010008DF
:10012000B7010008B7010008B7010008B7010008CF
:10013000B7010008B7010008B7010008B7010008BF
:10014000B7010008B7010008B7010008B7010008AF
:10015000B7010008B7010008B7010008B70100089F
:10016000B7010008B7010008B7010008B70100088F
:10017000B7010008B7010008B7010008B70100087F
:10018000B7010008B7010008DFF80CD000F018FA3A
:10019000004800478D150008A0040020064880474D
:1001A00006480047FEE7FEE7FEE7FEE7FEE7FEE75C
:1001B000FEE7FEE7FEE7FEE7CD090008890100083B
:1001C00030B50B46014600202022012409E021FA27
:1001D00002F59D4205D303FA02F5491B04FA02F524
:1001E0002844151EA2F10102F1DC30BD2DE9F05FBB
:1001F0000546002092469B46884606468146402496
:100200001BE0284641464746224600F0FAF953468D
:100210005A46C01A914110D311461846224600F0A2
:10022000E1F92D1A67EB01084F4622460120002113
:1002300000F0D8F917EB00094E41201EA4F101048B
:10024000DFDC484631462A464346BDE8F09F2DE9AB
:10025000FE4F804681EA0300C00F0C46009021F05B
:10026000004123F00045B8EB0200A94105D2404609
:10027000214690461C460B46024623F000401043A0
:1002800047D0270DC7F30A00C3F30A510290401A62
:10029000019040286BDAC3F3130040F4801B0098F0
:1002A000924620B10023D2EB030A63EB0B0B0198BB
:1002B0005946C0F14002504600F094F906460D46FA
:1002C00050465946019A00F0ACF910EB0800614124
:1002D000002487EA115284EAE7731A4340D0009A57
:1002E00062B3019A012A4FEA075215DC001B61EB49
:1002F00002014FF0004202EA0752CDE90042001C21
:1003000041F5801132462B4600F0ACF903B0BDE850
:10031000F08F40462146F9E7001B61EB0201001C0B
:1003200041F5801300185B412018A2F5001747EB38
:10033000030140EAD570B6196D4111E06D084FEA2E
:10034000360645EAC0754FEA0752001B61EB020111
:10035000001C41F5801149084FEA30000019514155
:1003600032462B4603B0BDE8F04F00F06CB9009860
:10037000012240000023D0EB020263EBE0730098FF
:1003800021464FEAE074B8EB000061EB0401E9E7B5
:1003900083F000435BE781F0004158E72DE9FE4F11
:1003A00081EA030404F0004421F0004100944FF07E
:1003B000000B23F0004350EA01045ED052EA03042C
:1003C0005BD0C3F30A54C1F30A552C44A4F2F334AE
:1003D0000194A0FB0254C1F3130141F48011C3F353
:1003E000130343F4801301FB024400FB034E840A11
:1003F000970A44EA815447EA8357A4FB07680295A9
:100400008D0A05FB07854FEA932C04FB0C54270546
:10041000029D4FEA065847EA1637B5EB08056EEB22
:10042000070C870E920E47EA811742EA8312A7FB58
:100430000201B6EB0B0164EB00042B0D43EA0C3315
:100440005E1844EB1C50DA465146E7FB0201C5F347
:1004500013044FEA0B3343EA14534FEA0432019C6E
:1004600043EA0603A4F10C040294009CCDE900B415
:1004700000F0F8F803B0BDE8F08F00200146F9E77E
:100480002DE9F04D81EA030404F0004B21F0004512
:1004900014464FF0000A23F0004150EA050220D034
:1004A00054EA01021DD0C5F30A570246C5F31303EF
:1004B000C1F31300C1F30A5640F4801543F48013CE
:1004C000A7EB0608101BD64608F2FD3873EB0500B3
:1004D00002D308F1010801E092185B41B8F1000F66
:1004E00003DA00200146BDE8F08D00204FF48011B2
:1004F000064684460EE0171B73EB050705D3121B57
:1005000063EB050306434CEA010C49084FEA30004F
:1005100092185B4150EA0107EDD152EA030012D074
:1005200082EA040083EA0501084305D0101BAB41B1
:1005300006D20122002306E000224FF0004302E031
:100540006FF0010253101AEB06004CEB085110EB50
:100550000A0041EB0B01BDE8F04D00F074B8C1F3A7
:100560000A52C1F3130140F2FF3341F480119A4261
:1005700002DA00200146704740F233439A42A2F269
:10058000334202DC524200F03CB800F02BB80000CD
:1005900030B5041E71F1000404DB4FF0004440420A
:1005A00064EB0101141E73F1000405DB1C464FF0DF
:1005B0000043524263EB0403994208BF904230BDAE
:1005C000064C074D06E0E06840F0010394E80700A0
:1005D00098471034AC42F6D3FFF7DAFD84170008D1
:1005E000A4170008202A04DB203A00FA02F10020B8
:1005F00070479140C2F1200320FA03F31943904061
:100600007047202A04DB203A21FA02F000217047CB
:1006100021FA02F3D040C2F120029140084319466A
:100620007047202A06DBCB17203A41FA02F043EA52
:10063000E07306E041FA02F3D040C2F1200291409B
:1006400008431946704710B5141E73F1000408DA08
:10065000401C41F1000192185B411A4301D120F086
:10066000010010BD2DE9F04D92469B4611B1B1FA43
:1006700081F202E0B0FA80F220329046FFF7B2FF3A
:1006800004460F4640EA0A0041EA0B0153465A4627
:10069000084313D0114653EA010019D0C8F14002B3
:1006A0005046FFF7AEFF05460E46504659464246B5
:1006B000FFF798FF084305D0012004E020463946A3
:1006C000BDE8F08D0020054346EAE0762C43374331
:1006D0000A986305E40AA0EB08000022FD0A44EA38
:1006E00047540A3002D500200146E9E701051019F8
:1006F0006941DDE9084500196941BDE8F04DA2E70F
:10070000FEE77047F0B50023012403270D6804FAC3
:1007100003F21540954242D1D0F800C05E0007FABE
:1007200006F52CEA050CC0F800C091F804C0D0F81A
:1007300000E00CFA06FC4CEA0E0CC0F800C091F880
:1007400004C0BCF1010F02D0BCF1020F1FD1D0F8E0
:1007500008C02CEA050CC0F808C091F805C0D0F814
:1007600008E00CFA06FC4CEA0E0CC0F808C0D0F801
:1007700004C02CEA020CC0F804C0426891F806C01C
:100780000CFA03FC1FFA8CFC42EA0C024260C268BD
:10079000AA43C260CA79C568B2402A43C2605B1CE2
:1007A000102BB3D3F0BD4B07DB0E9A40C90810B530
:1007B00000EB8100016A0F249C40A1430162016AA1
:1007C0001143016210BDFEE7FEE7704730B50F220E
:1007D000C47801780123FCB1144C246801F1E021B4
:1007E00004F4E064C4F5E064C4F30724C4F1040530
:1007F000E2404478AC408578154025432A0181F8D1
:100800000024007800F01F018B404009800000F1B7
:10081000E020C0F8003130BD01F01F0083404809DE
:10082000800000F1E020C0F8803130BD0CED00E028
:1008300070470000044A0029116801D0014300E01C
:10084000814311607047000030380240044A00299B
:10085000116801D0014300E081431160704700003E
:1008600040380240044A0029116801D0014300E0E9
:1008700081431160704700004438024070B5204A3F
:100880001168204C11F00C0104D01F4E042903D034
:10089000082903D004601BE0066019E01849091F0D
:1008A0000B68C3F380550B6803F03F0315B1B6FB2B
:1008B000F3F301E0B4FBF3F30C680968C4F38814A4
:1008C0006343C1F30141491C4900B3FBF1F10160ED
:1008D00011680F2303EA11110C4B5C5C0168E140C5
:1008E00041601468072505EA94241C5D21FA04F48C
:1008F0008460126805EA52329A5CD140C16070BDD2
:10090000083802400024F40040787D0100000020F7
:10091000704700000CB500202749019000900A683C
:1009200042F480320A604FF4A0430A6802F40032B5
:100930000092019A521C0192009A12B9019A9A42AD
:10094000F3D10A68920334D5012000901A48403050
:10095000026842F0805202601848026842F4404245
:1009600002601548083002680260026842F40042E2
:100970000260026842F4A0520260031F104A1A602B
:100980000A6842F080720A600A689201FCD50D4A3A
:1009900040F205711160016821F0030101600168F6
:1009A00041F0020101600168C1F381010229FAD11D
:1009B0000CBD00900CBD00000038024000700040EB
:1009C00019544F07003C024070470000124810B510
:1009D000016841F4700101601048016841F00101B3
:1009E00001600E4A00210832116002680C4B1A4067
:1009F0000260031D0B4A1A60026822F48022026022
:100A000006480C300160FFF785FF03494FF0006096
:100A10008039086010BD000088ED00E00038024019
:100A2000FFFFF6FE1030002470B5154C40F225563D
:100A30003146204600F087F8124D78B13146204605
:100A400000F06AF8204600F00BF90F4A297850545C
:100A5000491C2970A1880DA000F00CF940F2244136
:100A6000204600F070F8002809D02088A0880120D6
:100A70006860BDE8704006A107A000F0FBB870BD3B
:100A8000001001401000002020000020256300001D
:100A900069646C6500000000257300002DE9F041D9
:100AA000164C40F225573946204600F04CF8144DBC
:100AB000261D80B13946204600F02EF8204600F071
:100AC000CFF801460F4A68781154401C687031888D
:100AD0000DA000F0CFF840F22441204600F033F89A
:100AE000002809D0208830880120A860BDE8F041A6
:100AF00006A108A000F0BEB8BDE8F08100480040A3
:100B000010000020600000202563000069646C650F
:100B100065000000257300000A0A01219140C943C5
:100B2000018070470029818902D041F4005101E021
:100B300021F40051818170470246002012880A4248
:100B400000D00120704730B501F01F0201240025BC
:100B5000C1F3421304FA02F2012B0FD0022B0FD083
:100B6000838A4FEA11210088134204FA01F400EA53
:100B7000040001D000B10125284630BD8389F0E78B
:100B8000038AEEE710B5C1F3421301F01F040121FF
:100B9000A140012B07D0022B07D01430002A026895
:100BA00005D00A4304E00C30F8E71030F6E78A433A
:100BB000026010BD7FB50446008A0D4620F4405106
:100BC000E88808432082A08941F20C618843A98803
:100BD0002A8911436A8902431143A181A08A20F422
:100BE0004071A8890843A0826846FFF747FE1A486B
:100BF000844202D01948844201D1039800E002984F
:100C0000A189090400EBC00101EB0010296801D59E
:100C1000490000E08900B0FBF1F26420B2FBF0F182
:100C200009010B096FF018056B4302EB8302A389DE
:100C30001D044FF0320306D503EBC202B2FBF0F005
:100C400000F0070005E003EB0212B2FBF0F000F049
:100C50000F00084320817FBD0010014000140140B7
:100C60008088C0F308007047C1F308018180704795
:100C7000FEE700000FB4054B10B503A9044A029823
:100C800000F0DAF810BC5DF814FB000069150008EC
:100C90001C00002002E008C8121F08C1002AFAD177
:100CA00070477047002001E001C1121F002AFBD1EC
:100CB000704700002DE9FF5F82B00021DDE90430BC
:100CC000020DDDF840B0034318D044F61050A2F2F4
:100CD000FF3242431514119801281FD0A5EB0B00D9
:100CE000401C5FEA000A4FF000064E4FDFF83891D3
:100CF000B046504615D5CAF1000413E011980124FE
:100D00004AA3012801D16FEA0B010298119AC0E9A8
:100D10000031C0E9024206B0BDE8F09FCBF100000F
:100D2000DFE704460021404A491842EB0450CDE970
:100D3000001012E0E00707D032463B4640464946E5
:100D4000FFF72CFB8046894632463B461046194643
:100D5000FFF724FB06460F466410002CEAD1DDE9BC
:100D60000401DDE90023BAF1000F06DAFFF716FBF4
:100D700042464B46FFF712FB05E0FFF781FB424678
:100D80004B46FFF77DFB04460E460022284BFFF73B
:100D9000FFFB03D84FF0FF30014607E00022254B50
:100DA00020463146FFF753FAFFF7D9FB102409E03C
:100DB000002C0ADB0A220023FFF718FA039B3032CB
:100DC0001A55641E50EA0102F2D1641C039AC4F160
:100DD00011031444119A012A03D0012208430DD1B2
:100DE0000AE0084304D000204FF0110B119072E785
:100DF000A3EB0B056D1E0DE05B4504DD4FF000021B
:100E000005F1010504E003DA4FF00002A5F1010548
:100E1000002AECD002981199C0E90231C0E90045DE
:100E200079E70000000014400000F03F30000000AF
:100E30000000F0430000E03F2DE9FF4F95B09B46D6
:100E40008946064600250FE2252877D1002427464B
:100E5000F84A0121059400E0044316F8013F203BC5
:100E600001FA03F01042F7D130782A2811D06FF040
:100E70002F033078A0F13002092A16D8059A44F0E1
:100E8000020402EB820203EB42021044761C05903E
:100E9000EFE759F8042B0592002A03DA504244F494
:100EA0000054059044F00204761C30782E2816D1A8
:100EB00016F8010F44F004042A280DD06FF02F0219
:100EC0003078A0F13003092B09D807EB870302EB38
:100ED0004303C718761CF3E759F8047B761C307877
:100EE0006C280FD006DC4C2817D068280DD06A2853
:100EF00014D104E0742810D07A280FD10DE044F406
:100F000000140AE044F4801401E044F440147278C0
:100F1000824202D104F58014761C761C3078662853
:100F20000BD013DC582877D009DC002875D0452871
:100F3000F6D04628F4D047281AD19DE118E063285E
:100F400035D0642879D0652812D195E1702873D006
:100F500008DC6728F1D069286FD06E280DD06F2883
:100F600006D1B5E073282CD0752875D0782874D0B8
:100F70005A46179990476D1C75E1C4F30250022838
:100F800009D003280DD0D9F8001004280DD00D6029
:100F900009F1040967E1D9F80010EA17C1E9005224
:100FA000F6E7D9F800100D80F2E70D70F0E719F8B8
:100FB000041B8DF8001000208DF80100EA46012086
:100FC00003E059F804AB4FF0FF3061074FF0000128
:100FD00002D40DE008F101018846B9420FDA8045DC
:100FE000F8DB1AF808100029F4D108E008F1010133
:100FF00088468142FADB1AF808100029F6D10598D4
:101000005B46A0EB080721463846179A00F094FA91
:10101000284400EB080507E04DE029E10DE01AF84F
:10102000010B5A4617999047B8F10108F7D25B4671
:1010300021463846179A13E142E00A220092C4F38F
:1010400002524FF0000A022A08D059F804CB032AB2
:101050004FEAEC710AD00DE029E02AE009F107011E
:1010600021F00702F2E802C1914609E00FFA8CFC78
:101070004FEAEC71042A03D14FFA8CFC4FEAEC7171
:10108000002907DA0A460021DCF1000C61EB0201BD
:101090002D2202E0220504D52B228DF80420012206
:1010A00003E0E20701D02022F7E7904659E00A2149
:1010B00002E010220DE010214FF0000A00910BE039
:1010C00010224FF0000A44F004040827009203E0C5
:1010D00008224FF0000A0092C4F30252022A05D0FF
:1010E00059F804CB0021032A08D009E009F10701CF
:1010F00021F00702F2E802C1914605E01FFA8CFCDC
:10110000042A01D10CF0FF0C4FF00008220728D56B
:10111000702806D0009B83F0100353EA0A0305D021
:101120000EE040228DF80420012208E05CEA010272
:1011300006D030228DF804208DF80500022290465A
:10114000009B83F0080353EA0A030AD15CEA010218
:1011500001D1620705D530228DF804204FF0010837
:101160007F1E582804D034A003900EA802900DE0F2
:1011700036A0F9E753466046009AFFF737F88446F1
:101180000398825C0298401E029002705CEA0100A3
:10119000F0D1029806A9081A00F1200A600702D5CA
:1011A00024F4803400E00127574502DDA7EB0A0054
:1011B00000E0002000EB0A01009005984144401A2D
:1011C0000590E00306D45B462146179A059800F087
:1011D000B3F90544002706E001A85A46C05D1799F7
:1011E00090476D1C7F1C4745F6DBE0030CD55B4642
:1011F0002146179A059800F09FF9054404E0302035
:101200005A46179990476D1C0099481E0090002976
:10121000F5DC08E0029802995A460078491C0291D0
:10122000179990476D1CBAF10001AAF1010AF1DC8F
:1012300065E100000928010030313233343536379A
:101240003839616263646566000000003031323312
:1012500034353637383941424344454600000000B2
:1012600000F058F90544761C307800287FF4ECAD86
:1012700019B02846BDE8F08F620700D4062709F1AF
:10128000070222F0070CFCE80223E14603F00048C5
:101290005FEA080C02D00FF2702C0DE05FEA045CEC
:1012A00002D50FF2682C07E05FEAC47C02D00FF28F
:1012B000602C01E0AFF2700C4FF0FF3823F00043D8
:1012C000CDF850C065280CD006DC452809D046284A
:1012D0001DD047283DD13DE0662818D067287ED133
:1012E00038E00021112F01DB112000E0781CCDE94E
:1012F000000106A90EA8FFF7DDFCDDE90F010E9A3B
:1013000003910021009207F1010A04914DE04FF092
:1013100000400097CDE9011006A90EA8FFF7CAFC0E
:10132000DDE90F0203920E9B11990022DDF80CA05B
:101330000093049211B9791C00EB010AB7EB0A0083
:1013400004D4C0F1FF3007F1010A0490AAEB0700B2
:10135000019044E0012F00DA01270021112F01DD67
:10136000112000E03846CDE9000106A90EA8FFF7DC
:10137000A1FCDDE90F010E9A039100210491009276
:10138000BA4621070CD40399514500DA8A46BAF1CE
:10139000010F05DD009AAAF10101515C302908D046
:1013A000B84202DA10F1040F06DA0121CDE901108A
:1013B00015E0AAF10101E9E7002805DC04990144E0
:1013C0000491AAEB000102E0411C514500DD8A4670
:1013D0000499401A401C01904FF0004002902007F1
:1013E00004D40198504501DBCDF8048000208DF82D
:1013F0004F0002980DF14F07B0F1004F25D02B2080
:101400000E9002984FF0020800280CDA4042029039
:101410002D200E9007E00A210298FEF7D1FE303110
:10142000029007F8011DB8F10001A8F10108F2DCF3
:1014300002980028EFD1791E0E980870307800F0DD
:10144000200040F0450007F8020D12A8C01B00F173
:1014500007081498007800B1012000EB0A010198F8
:1014600001EBE07105984144401A401E0590E003ED
:1014700006D45B462146179A059800F05DF80544AE
:101480001498007818B15A46179990476D1CE003DC
:1014900024D55B462146179A059800F04DF805447F
:1014A0001CE00498002807DBDDE90301884203DD26
:1014B0000098405C179901E0179930205A469047F0
:1014C000049805F10105401C04900198401E01900C
:1014D00004D12E205A46179990476D1CBAF100018D
:1014E000AAF1010ADDDC05E017F8010B5A4617994D
:1014F00090476D1CB8F10001A8F10108F4DC5B46CF
:101500002146179A0598ABE62D0000002B0000003D
:10151000200000002DE9F041044600251E46174634
:10152000880404D405E039462020B0476D1C641EB1
:10153000F9D52846BDE8F0812DE9F04104460025A3
:101540001E469046C80301D5302700E020278804B6
:1015500004D505E041463846B0476D1C641EF9D5F8
:101560002846BDE8F081000070B5074D0446C1B2C1
:101570002846FFF779FB80212846FFF7DDFA00288F
:10158000F9D0204670BD00000010014010B500F0F9
:1015900067F800F0DFF8002010BD00002DE9F041F1
:1015A000012186B00846FFF745F901211020FFF719
:1015B00059F9DFF8A48007220A214046FFF7F3F823
:1015C000072209214046FFF7EEF802258DF8045066
:1015D00001268DF806606802002400908DF807400F
:1015E00003278DF8057069464046FFF78BF88DF8A4
:1015F00004508DF80660280200908DF807408DF8A1
:10160000057069464046FFF77DF80C20ADF81200E2
:10161000ADF80E40ADF81040ADF80C40ADF81440F8
:101620004FF4E1300D4C0290012240F2244120465B
:10163000FFF7A8FA012240F225512046FFF7A2FA4F
:1016400002A92046FFF7B6FA01212046FFF76AFA01
:1016500006B0BDE8F081000000000240001001402B
:1016600010B5FFF79BFFBDE81040AFF3008008B551
:1016700025208DF8000001208DF8030000218DF851
:1016800001108DF802006846FFF7A0F808BD0000C1
:101690002DE9F04186B001210220FFF7CBF80121AE
:1016A0008804FFF7D3F8DFF8A48007220A21404618
:1016B000FFF779F807220B214046FFF774F802255F
:1016C0008DF8045001268DF8066068020024009011
:1016D0008DF8074003278DF8057069464046FFF7EF
:1016E00011F88DF804508DF80660A80200908DF86E
:1016F00007408DF8057069464046FFF703F80C2057
:10170000ADF81200ADF80E40ADF81040ADF80C4049
:10171000ADF814404FF4E1300D4C0290012240F23C
:1017200024412046FFF72EFA012240F2255120469F
:10173000FFF728FA02A92046FFF73CFA01212046CC
:10174000FFF7F0F906B0BDE8F081000000040240A8
:101750000048004010B5FFF79BFFBDE81040AFF315
:10176000008008B527208DF8000001208DF80300C7
:1017700000208DF801008DF802006846FFF726F87A
:1017800008BD0000A4170008000000202000000091
:10179000940C0008C41700082000002080040000FA
:1017A000A40C00080000000001020304010203046D
:1017B000060708090000000000000000000000000B
:0417C0000000000025
:040000050800018965
:00000001FF
