:020000040800F2
:10000000280400209D010008690F0008330400083F
:10001000650F0008E50100089B11000800000000C2
:10002000000000000000000000000000AD0F00080C
:10003000E9010008000000006B0F00089D10000897
:10004000B7010008B7010008B7010008B7010008B0
:10005000B7010008B7010008B7010008B7010008A0
:10006000B7010008B7010008B7010008B701000890
:10007000B7010008B7010008B7010008B701000880
:10008000B7010008B7010008B7010008B701000870
:10009000B7010008B7010008B7010008B701000860
:1000A000B7010008B7010008B7010008B701000850
:1000B000B7010008B7010008B7010008B701000840
:1000C000B7010008B7010008B7010008B701000830
:1000D000B701000809110008B7010008B7010008BE
:1000E000B7010008B7010008B7010008B701000810
:1000F000B7010008B7010008B7010008B701000800
:10010000B7010008B7010008B7010008B7010008EF
:10011000B7010008B7010008B7010008B7010008DF
:10012000B7010008B7010008B7010008B7010008CF
:10013000B7010008B7010008B7010008B7010008BF
:10014000B7010008B7010008B7010008B7010008AF
:10015000B7010008B7010008B7010008B70100089F
:10016000B7010008B7010008B7010008B70100088F
:10017000B7010008B7010008B7010008B70100087F
:10018000B7010008B7010008DFF80CD000F018F83C
:1001900000480047BD110008280400200648804799
:1001A00006480047FEE7FEE7FEE7FEE7FEE7FEE75C
:1001B000FEE7FEE7FEE7FEE7A11000088901000860
:1001C000064C074D06E0E06840F0010394E80700A4
:1001D00098471034AC42F6D3FFF7DAFF20650008E9
:1001E0004065000800BFFEE7704701B502E00098D7
:1001F000401E009000980028F9D108BD51B182003E
:10020000A2F1C042126842F001038200A2F1C04292
:10021000136009E08200A2F1C0421268034B1A4049
:100220008300A3F1C0431A6070470000FEFF0F0077
:1002300030B50021002200230468A400A4F1C044CA
:100240002168424C2140D0E901452C43C5682C432C
:1002500005692C4345692C4385692C43C5692C43AA
:10026000056A2C43456A2C43856A2C43C56A2C4396
:10027000056B2C4321430468A400A4F1C044216011
:100280008468082C0BD10468A400A4F1C04424683D
:1002900044F040050468A400A4F1C044256004684B
:1002A000641CA400A4F1C044226802F04042446BE4
:1002B0002468456B6D6844EA0514456BAD6844EAF3
:1002C0000524456BAD8944EA0544456B2D8A44EA13
:1002D0000554456B2D7D44EA0564456BAD692C439F
:1002E00022430468641CA400A4F1C0442260C46AD0
:1002F000B4F5804F20D10468A400A4F1C044D4F820
:100300000431134C2340846B2468856B6D6844EA88
:100310000514856BAD6844EA0524856BAD8944EA14
:100320000544856BAD692C4323430468A400A4F104
:10033000C044C4F8043107E06FF070450468A400BD
:10034000A4F1C044C4F8045130BD00008000F7FFA0
:100350000000F0CFF0B50A4600210023002400BFC2
:100360003DE0012505FA01F3156805EA03049C4206
:1003700034D105684F000326BE40B54305601579AA
:100380004E00B5400668354305601579012D02D051
:100390001579022D16D185684F000326BE40B5435E
:1003A000856055794E00B54086683543856045685F
:1003B00001268E40B5434560456896798E40B6B2B9
:1003C00035434560C5684F000326BE40B543C56050
:1003D000D5794E00B540C6683543C560491C102923
:1003E000BFD3F0BDF0B5002300244D07ED0E02FA97
:1003F00005F3CE1000F1200555F826504E07F70EF4
:100400000F26BE40B543CF1000F1200646F8275016
:10041000CE1000F1200555F8265045EA0304CE1011
:1004200000F1200545F82640F0BD41837047018367
:10043000704700BFFEE7000010B504462CB14FF432
:1004400000710548FFF7F3FF04E04FF40071024824
:10045000FFF7EBFF10BD0000001402402DE9F04152
:1004600006460F4614461D462B4622463946304660
:1004700000F00CFB04FB05F00249098800F05AF972
:10048000BDE8F0812600002001B502E00098401E82
:10049000009000980028F9D108BD00002DE9F05F18
:1004A000804689461646A6F120001FFA80FA1E49AA
:1004B000096889881C4A1268D28801FB02F0C117BA
:1004C00000EB5171C1F3C7071748006800680AFBC9
:1004D000070B15480068C38813480068828849469E
:1004E000404600F0D3FA2C2000F034FD002416E042
:1004F000002510E01BF8040080212941084020B1AC
:100500000A48008800F02AFD03E00948008800F04E
:1005100025FD681CC5B2082DECDB601CC4B2BC42D2
:10052000E6DBBDE8F09F0000200000202400002052
:100530002600002070B504460D46002624E0304613
:10054000134909688988084412490988884205DDE9
:1005500000260F480068C088204484B220460C4919
:100560000968C98808440C490988884201DD0026C9
:1005700000242A7821463046FFF790FF6D1C04487E
:1005800000688088304486B228780028D7D170BDB2
:1005900020000020180000201A0000202DE9F05F44
:1005A00005460E4691469B4600240FFA89F7032024
:1005B000A0EB49000FFA80FA87E0BBF1000F40D0B2
:1005C000A0463BE006EB080291B22A1990B200F077
:1005D000A5FC06EB080291B22A1B90B200F09EFC2B
:1005E000321991B2A5EB080290B200F097FC321BD1
:1005F00091B2A5EB080290B200F090FCA6EB0802C5
:1006000091B22A1B90B200F089FCA6EB080291B2CD
:100610002A1990B200F082FC321B91B205EB08025D
:1006200090B200F07BFC321991B205EB080290B257
:1006300000F074FC08F101000FFA80F8B845C1DD44
:100640002FE0F21991B22A1990B200F067FCF2196A
:1006500091B22A1B90B200F061FC321991B2EA1BF0
:1006600090B200F05BFC321B91B2EA1B90B200F03A
:1006700055FCF21B91B22A1B90B200F04FFCF21B0A
:1006800091B22A1990B200F049FC321B91B2EA19DA
:1006900090B200F043FC321991B2EA1990B200F026
:1006A0003DFC601C04B2BAF1000F05DAA000801D09
:1006B00050440FFA80FA07E0E01B80000A305044F3
:1006C0000FFA80FA781E07B200BFBC427FF775AF01
:1006D000BDE8F09F00B597B00121084600F056FC38
:1006E000042001900390800607900020029004905F
:1006F00005900690042008900020099008200A9098
:1007000010200B9000200C900E900F9010904FF442
:1007100080501190002012901390149001A8159011
:10072000169008A8FFF784FD01210420FFF766FD5D
:1007300017B000BD70B504460D4600262C2000F011
:1007400009FC00BF03E0284600F008FC761CA64226
:10075000F9D370BD1CB50121782000F007FC002002
:100760008DF8060001208DF8070002208DF80400A6
:1007700003208DF805004FF48040009069468048C2
:10078000FFF7E8FD0C220E217D48FFF72BFE4FF40A
:100790000040009069467A48FFF7DCFD0C220F21EB
:1007A0007748FFF71FFE0120009069467448FFF765
:1007B000D1FD0C2200217248FFF714FE02200090A8
:1007C00069466F48FFF7C6FD0C2201216C48FFF710
:1007D00009FE8020009069466A48FFF7BBFD0C22A5
:1007E00007216848FFF7FEFD4FF4807000906946CE
:1007F0006448FFF7AFFD0C2208216248FFF7F2FDC5
:100800004FF40070009069465E48FFF7A3FD0C228C
:1008100009215C48FFF7E6FD4FF4806000906946CF
:100820005848FFF797FD0C220A215648FFF7DAFDDA
:100830004FF40060009069465248FFF78BFD0C2290
:100840000B215048FFF7CEFD4FF4805000906946D1
:100850004C48FFF77FFD0C2211464A48FFF7C2FDC6
:100860004FF40050009069464648FFF773FD0C2294
:100870000D214448FFF7B6FD4FF4804000906946D3
:100880004048FFF767FD0C220E213E48FFF7AAFD06
:100890004FF40040009069463A48FFF75BFD0C2298
:1008A0000F213848FFF79EFD4FF480700090694695
:1008B0003348FFF74FFD0C2208213148FFF792FD26
:1008C0004FF40070009069462D48FFF743FD0C225D
:1008D00009212B48FFF786FD4FF4806000906946A0
:1008E0002748FFF737FD0C220A212548FFF77AFD3C
:1008F0001020009069462248FFF72CFD0C220421AD
:100900001F48FFF76FFD2020009069461C48FFF745
:1009100021FD0C2205211A48FFF764FD4FF4806089
:10092000009069461848FFF715FD0C220A21164869
:10093000FFF758FD0120009069461448FFF70AFDB3
:100940000C2200211148FFF74DFD01208DF8040015
:1009500000208DF8060001208DF8070002208DF898
:1009600005008002009069460848FFF7F3FC4FF449
:100970000070009069460548FFF7ECFC1CBD0000C4
:10098000000C024000100240001802400014024017
:1009900010B50446072C00DD10BD29480470204620
:1009A00004EBD0714910A4EB410141B94FF4F07050
:1009B0002449088040F256302349088007E040F27D
:1009C0005630204908804FF4F0701F4908803620C7
:1009D00000F0C0FA002141EA441000F0BFFA2A20DA
:1009E00000F0B8FA002000F0B9FA002000F0B6FAE2
:1009F00014490988491EC1F3072000F0AFFA1149D4
:100A00000978491EC8B200F0A9FA2B2000F0A2FA1A
:100A1000002000F0A3FA002000F0A0FA0A4909889B
:100A2000491EC1F3072000F099FA07490978491EC9
:100A3000C8B200F093FA2C2000F08CFA00BFABE7AC
:100A40001C000020180000201A00002010B5FFF73D
:100A500081FEFFF73FFE00F041FA00F04AF8084837
:100A60000078FFF795FF07480388074802880021B0
:100A70000846FFF7F3FC0120FFF7DEFC10BD000085
:100A80001C0000201A000020180000202DE9F04171
:100A900004460D4616461F462A2000F05BFA201237
:100AA00000F05CFAE0B200F059FAA119491EC1F356
:100AB0000F2000F053FAA119491EC8B200F04EFAF7
:100AC0002B2000F047FA281200F048FAE8B200F0B4
:100AD00045FAE919491EC1F30F2000F03FFAE91960
:100AE000491EC8B200F03AFA2C2000F033FABDE8F3
:100AF000F08110B54FF4A040FFF777FBFF2000F026
:100B000029FAFF2000F02AFA982000F027FA0620A0
:100B100000F024FA4FF4A040FFF767FBBA2000F082
:100B200019FA602000F01AFA4FF4A040FFF75DFBBD
:100B3000BC2000F00FFA032000F010FA0E2000F0A5
:100B40000DFA612000F00AFAFF2000F007FA0520F4
:100B500000F004FA052000F001FA1B2000F0FEF975
:100B6000102000F0FBF9732000F0F8F9632000F08A
:100B7000F5F9FF2000F0F2F9FF2000F0EFF9052071
:100B800000F0ECF9052000F0E9F9002000F0E6F9AA
:100B9000002000F0E3F9D52000F0E0F9D02000F0CB
:100BA000DDF9012000F0DAF9002000F0D7F940204B
:100BB00000F0D4F94FF4A040FFF717FBBD2000F080
:100BC000C9F9012000F0CAF9232000F0C7F9452037
:100BD00000F0C4F9672000F0C1F9012000F0BEF96F
:100BE000232000F0BBF9452000F0B8F9672000F0A1
:100BF000B5F94FF4A040FFF7F8FABE2000F0AAF9CB
:100C0000012000F0ABF92D2000F0A8F9CB2000F076
:100C1000A5F9A22000F0A2F9622000F09FF9F220CD
:100C200000F09CF9E22000F099F9222000F096F9FA
:100C3000222000F093F94FF4A040FFF7D6FAC72026
:100C400000F088F9632000F089F94FF4A040FFF725
:100C5000CCFAED2000F07EF97F2000F07FF90F2024
:100C600000F07CF9002000F079F94FF4A040FFF784
:100C7000BCFAC02000F06EF9032000F06FF90B20E1
:100C800000F06CF9002000F069F94FF4A040FFF784
:100C9000ACFAFC2000F05EF9082000F05FF94FF498
:100CA000A040FFF7A2FADF2000F054F9002000F086
:100CB00055F9002000F052F9002000F04FF9002013
:100CC00000F04CF9002000F049F9202000F046F92E
:100CD0004FF4A040FFF789FAF32000F03BF97420AD
:100CE00000F03CF94FF4A040FFF77FFAF92000F044
:100CF00031F9002000F032F9FD2000F02FF98020BA
:100D000000F02CF9802000F029F9C02000F026F92D
:100D10004FF4A040FFF769FAB42000F01BF902205D
:100D200000F01CF9022000F019F9022000F016F979
:100D30004FF4A040FFF759FAF72000F00BF981209B
:100D400000F00CF94FF4A040FFF74FFAB12000F08B
:100D500001F9002000F002F9132000F0FFF8132041
:100D600000F0FCF84FF4A040FFF73FFAF22000F04B
:100D7000F1F8C02000F0F2F8022000F0EFF8402077
:100D800000F0ECF8282000F0E9F84FF4A040FFF75D
:100D90002CFAC12000F0DEF8172000F0DFF87520F3
:100DA00000F0DCF8752000F0D9F8202000F0D6F82B
:100DB0004FF4A040FFF719FAE02000F0CBF8002034
:100DC00000F0CCF8052000F0C9F8082000F0C6F8C3
:100DD0000C2000F0C3F80F2000F0C0F8152000F040
:100DE000BDF8092000F0BAF8072000F0B7F801209C
:100DF00000F0B4F8062000F0B1F8092000F0AEF8D9
:100E0000162000F0ABF8142000F0A8F83E2000F007
:100E1000A5F83E2000F0A2F8002000F09FF84FF463
:100E2000A040FFF7E2F9E12000F094F8002000F084
:100E300095F8092000F092F8122000F08FF81220A7
:100E400000F08CF8132000F089F81C2000F086F8E0
:100E5000072000F083F8082000F080F8052000F05B
:100E60007DF8082000F07AF8032000F077F80220DF
:100E700000F074F8042000F071F81E2000F06EF805
:100E80001B2000F06BF8002000F068F84FF4A04041
:100E9000FFF7ABF93A2000F05DF8552000F05EF85E
:100EA0004FF4A040FFF7A1F9352000F053F80020DF
:100EB00000F054F84FF4A040FFF797F9112000F02C
:100EC00049F84FF4A040FFF790F9292000F042F8CC
:100ED0004FF4A040FFF789F910BD000010B54FF4A2
:100EE00000610848FFF7A1FA40F6FF20FFF7CCFAAF
:100EF0004FF400610348FFF79AFA40F6FF20FFF72E
:100F0000C3FA10BD0014024070B504460D4601231B
:100F10001A4629462046FFF7B9FD70BD70B5054653
:100F20000C460948008885420CDA0848008884424B
:100F300008DA21462846FFF7E7FF05480188012027
:100F4000FFF7F8FB70BD0000180000201A00002019
:100F5000240000204FF0D041088070474FF0D0416E
:100F60004880704700BFFEE77047704729B1064AC6
:100F700012680243044B1A6004E0034A1268824379
:100F8000014B1A60704700003038024029B1064A10
:100F900012680243044B1A6004E0034A1268824359
:100FA000014B1A607047000038380240704700005B
:100FB0000CB50020019000903448006840F4803067
:100FC0003249086000BF3148006800F400300090EA
:100FD0000198401C0190009818B90198B0F5A04FF5
:100FE000F1D12A48006800F4003010B101200090CF
:100FF00001E0002000900098012846D123484030AD
:10100000006840F080502149403108602048006865
:1010100040F440401E4908601C48083000681B49E5
:10102000083108600846006840F40040086008463F
:10103000006840F4A05008601648091F0860081FA7
:10104000006840F08070091F086000BF0F4800680A
:1010500000F000700028F9D040F205700E490860D9
:101060000A480830006820F0030008490831086089
:101070000846006840F00200086000BF03480830DE
:10108000006800F00C000828F8D10CBD00380240C0
:101090000070004019544F07003C024070470000A8
:1010A00010B51548006840F47000134908601348F3
:1010B000006840F001001149086000200F49083124
:1010C00008600E4800680E4908400C4908600D4849
:1010D000091D0860081F006820F48020091F0860AF
:1010E000002006490C310860FFF762FF4FF00060F6
:1010F00001498039086010BD88ED00E000380240E9
:10110000FFFFF6FE1030002410B540F225510548CF
:1011100000F019F820B140F22551024800F004F81F
:1011200010BD00000010014010B50022002340F661
:101130006A14A14200D100BF0A1201249440A3B254
:10114000DC43048010BD70B5024600240023002556
:10115000002040F66A16B14200D100BFC1F342152B
:1011600001F01F03012606FA03F3012D02D196892F
:10117000334006E0022D02D1168A334001E0968A00
:1011800033400C12012606FA04F41688344013B1D9
:101190000CB1012000E0002070BD00BFFEE702E0BE
:1011A00008C8121F08C1002AFAD1704770470020F2
:1011B00001E001C1121F002AFBD170470121080381
:1011C000FFF7D4FEFFF742FC0025FA2414E00123C8
:1011D000642211461046FFF7E1F900250AE0A0B2AB
:1011E00006A1FFF7A7F91F34B4F5487F01DDA4F28B
:1011F00067246D1C0A2DF2DBE9E700002A000000DD
:1012000000000000000000000000000000000000DE
:101210000000001818181818180800081800000016
:10122000000000342424240000000000000000001E
:101230000000000016247F2424247E2424000000C3
:10124000000000083E6848681C1612127C1010004E
:1012500000000061D296740810162949C6000000EB
:10126000000000003C646438724ACE467F000000F3
:10127000000000181818180000000000000000000E
:1012800000000004081810303030301010180C0422
:10129000000000201008080C0404040C081810209A
:1012A000000000080A341C6A08000000000000006A
:1012B0000000000000001818187F1818180000001F
:1012C00000000000000000000000001818083000B6
:1012D0000000000000000000003C000000000000D2
:1012E00000000000000000000000001818000000CE
:1012F0000000000206040C08081010202040000026
:10130000000000003C6642475B7342663C00000000
:101310000000000018784808080808087E0000004F
:10132000000000003C460606040810207E00000075
:10133000000000007C0606043C0202067C0000005F
:10134000000000000C1C14246444FF04040000008E
:10135000000000007E6060607E0202067C000000EB
:10136000000000001E306048764242623C000000EF
:10137000000000007E0206040C0818103000000077
:10138000000000003C6242361C6642423C00000005
:10139000000000003C664242661A02047800000029
:1013A00000000000000018180000001818000000DD
:1013B0000000000000001818000000181808300095
:1013C00000000000000004183060100C060000004F
:1013D00000000000000000007E007E000000000011
:1013E000000000000000301804060C10200000006F
:1013F000000000301C060606181000101000000047
:101400000000001C224141DDB5A5A5AF94C0403CC1
:1014100000000000181C342426627E43C100000036
:10142000000000007C4642467C4242427C000000B4
:10143000000000001E204040404040603E00000090
:10144000000000007C4642434343424678000000CF
:10145000000000007E6060607E6060607E000000D2
:10146000000000007E6060607E60606060000000E0
:10147000000000001E604040CE4242623E0000007C
:1014800000000000424242427E42424242000000CE
:10149000000000007E181818181818187E000000A8
:1014A000000000007C0404040404044478000000EC
:1014B000000000004244485070584C444200000074
:1014C0000000000020202020202020203E000000DE
:1014D000000000006266675F5B5BC1C1C100000085
:1014E00000000000626272525A4A4E4646000000F6
:1014F000000000003C6243C3C3C343623C000000E1
:10150000000000007C464242467840404000000017
:10151000000000003C6243C3C3C343623C180F0099
:10152000000000007C6662667C6C646662000000FD
:10153000000000003E6040601C0602027C000000CB
:10154000000000007F18181818181818180000005C
:101550000000000042424242424242623C0000001F
:1015600000000000C14342622624341C1800000021
:1015700000000000C1C141495B5B76666600000067
:101580000000000043663418181C2466C3000000E5
:1015900000000000C14266341C1818181800000032
:1015A000000000007E02040C181020607E00000085
:1015B0000000001C10101010101010101010101C43
:1015C000000000402020101008080C040602000053
:1015D0000000003C0C0C0C0C0C0C0C0C0C0C0C3C0F
:1015E00000000000181C2462000000000000000041
:1015F000000000000000000000000000000000FFEC
:1016000000000020100000000000000000000000AA
:101610000000000000003C06023E42467A00000046
:101620000000004040405C62424242427C000000B8
:101630000000000000001E20604060203E0000000E
:101640000000000202023E62424242663A0000008E
:101650000000000000003C62427E40603E0000004E
:101660000000000F1810107E101010101000000065
:101670000000000000003F66426658403E43423C86
:101680000000004040405C62424242424200000092
:101690000000001818007808080808087E000000FC
:1016A000000000040C007C040404040404040C780E
:1016B000000000606060626C787068646200000026
:1016C0000000007808080808080808087E000000E4
:1016D000000000000000764B4B4B4B4B4B000000D2
:1016E0000000000000005C624242424242000000F2
:1016F0000000000000003C62424342623C000000E7
:101700000000000000005C62424242427C404040D7
:101710000000000000003E62424242663A020202BD
:101720000000000000006E726360606060000000F6
:101730000000000000003E20203C06027C0000006B
:10174000000000001010FE10101010101E0000000D
:101750000000000000004242424242663A0000009F
:101760000000000000004342662434181800000006
:10177000000000000000C1C15B5A5E666600000008
:1017800000000000000062261C181C2662000000F9
:1017900000000000000043426624341C181830E0AA
:1017A0000000000000007E060C1810207E000000E3
:1017B0000000000E18101010307010101010180ECD
:1017C00000000808080808080808080808080808A9
:1017D00000000030180808080C0E08080808183027
:1017E0000000000000000000714B06000000000037
:1017F00000000000000000000000000000000000E9
:1018000000000000000000000000000000000000D8
:1018100000000000000000000000000000000000C8
:1018200000000000000000000000000000000000B8
:1018300000000000000000000000000003800380A2
:101840000180018001800180018001800180018090
:10185000018001800180018000000000038003C03E
:1018600003800000000000000000000000000000F5
:101870000000000000000000000000000E700E706C
:101880000E700E700E700C300C3000000000000066
:101890000000000000000000000000000000000048
:1018A0000000000000000000000000000000000038
:1018B0000000000000000000000000000000000028
:1018C00006180638063006307FFE7FFE0C300C30DE
:1018D0000C300C307FFE7FFE0C601C6018601860BE
:1018E0001860000000000000000000000000000080
:1018F0000000000000000000000000C000C000C0A8
:1019000007F81FF838C031C0318039803D801F8012
:1019100007F001F803BC031C030C031C233C3FF835
:101920003FE0070006000600000000000000000085
:101930000000000000000000000000001C077E0600
:10194000630C6318633863307E603CE000C0018044
:1019500003800338067E0CC61CC618C630C670EE5F
:10196000607C00000000000000000000000000009B
:1019700000000000000000000000000000000FC098
:101980001FE018703870387018701CE00FC00F001E
:101990003F8C3B8C71CC60EC607C7038707C3FFE7F
:1019A0001FCF000000000000000000000000000049
:1019B00000000000000000000000000003C003C0A1
:1019C0000380018001800180018000000000000090
:1019D0000000000000000000000000000000000007
:1019E00000000000000000000000000000000000F7
:1019F0000000000000000000000000000030006057
:101A000000E001C0038003000700070006000E008D
:101A10000E000E000E000E000E000600070007006C
:101A20000380038001C000E000700030000000006F
:101A30000000000000000000000000000C000E008C
:101A40000700038001C001C000E000E000600070FA
:101A500000700070007000700060006000E000E046
:101A600001C001C0038007000E000C000000000050
:101A70000000000000000000000000000180018064
:101A8000018819980FF803C003C01FF81998018046
:101A90000180018000000000000000000000000044
:101AA0000000000000000000000000000000000036
:101AB0000000000000000000000000000000000026
:101AC0000000000000000180018001800180018091
:101AD00001807FFE7FFE0180018001800180018006
:101AE00000000000000000000000000000000000F6
:101AF00000000000000000000000000000000000E6
:101B000000000000000000000000000000000000D5
:101B100000000000000000000000038003C003C0BC
:101B200001C001C001C007801F00100000000000BC
:101B300000000000000000000000000000000000A5
:101B40000000000000000000000000000000000095
:101B500000000FF00FF00000000000000000000087
:101B60000000000000000000000000000000000075
:101B70000000000000000000000000000000000065
:101B80000000000000000000000000000000000055
:101B90000000000000000000000003C003C003C0FC
:101BA00003C0000000000000000000000000000072
:101BB000000000000000000000000000001C0018F1
:101BC0000038003000700060006000C000C001C03C
:101BD000018003800300070006000E000C000C00CB
:101BE000180018003800300000000000000000005D
:101BF00000000000000000000000000000000000E5
:101C000007F01FF81838381C300C303C707E71EE2D
:101C100073CE7F0E7E0E380C300C381C1C381FF033
:101C200007E00000000000000000000000000000CD
:101C300000000000000000000000000000000000A4
:101C400003C00FC03FC039C001C001C001C001C006
:101C500001C001C001C001C001C001C001C03FFC02
:101C60003FFC000000000000000000000000000039
:101C70000000000000000000000000000000000064
:101C80000FE03FF018380038001800180038003016
:101C9000007000E001C0038007000E001C003FFC44
:101CA0003FFC0000000000000000000000000000F9
:101CB0000000000000000000000000000000000024
:101CC0001FE01FF00038003800380038007007E0CF
:101CD00007F00078001C001C001C001C00383FF0BE
:101CE0003FC00000000000000000000000000000F5
:101CF00000000000000000000000000000000000E4
:101D000000F001F001B00330073006300C301C3019
:101D10003830303070307FFE7FFE003000300030D1
:101D20000030000000000000000000000000000083
:101D300000000000000000000000000000000000A3
:101D40001FF81FF8180018001800180018001FE0EE
:101D50001FF80038001C001C001C001800381FF081
:101D60001FC0000000000000000000000000000094
:101D70000000000000000000000000000000000063
:101D800001F807F80E001C001800380031C03FF8B9
:101D90003E3C301C300C300C380C380C1C1C1FF82E
:101DA00007E000000000000000000000000000004C
:101DB0000000000000000000000000000000000023
:101DC0003FFC3FFC001C0018003800300070006031
:101DD00000E000C001C001800380070007000E0082
:101DE0000E000000000000000000000000000000E5
:101DF00000000000000000000000000000000000E3
:101E00000FF01E78381C381C381C3C181E780FE068
:101E100007E01E783C3C381C300C300C381C1FF896
:101E20000FF00000000000000000000000000000B3
:101E300000000000000000000000000000000000A2
:101E40000FE01E783838301C701C700C300C381CB9
:101E50003EFC0FEC001C001C0018003800F01FE0D6
:101E60001F00000000000000000000000000000053
:101E70000000000000000000000000000000000062
:101E8000000000000000000003C003C003C0018088
:101E900000000000000000000000018003C003C03B
:101EA00003C000000000000000000000000000006F
:101EB0000000000000000000000000000000000022
:101EC000000000000000000003C003C003C0018048
:101ED0000000000000000000000003C003C003C0B9
:101EE00001C001C001C007800F0000000000000019
:101EF00000000000000000000000000000000000E2
:101F00000000000000100038007001E003C007006E
:101F10000E003C001C000E00078001C000E00078AD
:101F200000100000000000000000000000000000A1
:101F300000000000000000000000000000000000A1
:101F400000000000000000000000000000003FFC56
:101F50000000000000003FFC3FFC0000000000000B
:101F60000000000000000000000000000000000071
:101F70000000000000000000000000000000000061
:101F80000000000008001C000E00070003C000E075
:101F90000070003C0038007001E0038007001E0064
:101FA0000800000000000000000000000000000029
:101FB0000000000000000000000000000E000FC044
:101FC00003E000700038003800380038007803F073
:101FD00003C00300030003000000000007000780A7
:101FE00007000000000000000000000000000000EA
:101FF00000000000000000000000000001E007F801
:102000000E1C1C0E18063006300361F363F36633B2
:10201000E673CE63CC63CC66CC66CCE6CFFCC73C23
:1020200060006000600030003C301FF000000000E5
:1020300000000000000000000000000000000000A0
:1020400003C003C007E006E006600E700C700C30A1
:102050001C381838381C3FFC3FFC700E700E6006B0
:10206000E007000000000000000000000000000089
:102070000000000000000000000000000000000060
:102080003FF03FF83838381C381C381838383FF0E3
:102090003FF0383C381C380C380C381C383C3FF8C2
:1020A0003FE0000000000000000000000000000011
:1020B0000000000000000000000000000000000020
:1020C00007FC0FFC1E003800380030007000700064
:1020D000700070007000300038003C001E040FFCDF
:1020E00003FC0000000000000000000000000000F1
:1020F00000000000000000000000000000000000E0
:102100003FE03FF03038301C300C300E300E300ED7
:10211000300E300E300E300C301C301C30783FF05A
:102120003F800000000000000000000000000000F0
:10213000000000000000000000000000000000009F
:102140001FF81FF8180018001800180018001FF8D2
:102150001FF81800180018001800180018001FF8C1
:102160001FF8000000000000000000000000000058
:10217000000000000000000000000000000000005F
:102180001FF81FF8180018001800180018001FF892
:102190001FF8180018001800180018001800180080
:1021A0001800000000000000000000000000000017
:1021B000000000000000000000000000000000001F
:1021C00007FC0FFC1C00380030007000700070FC31
:1021D00070FC700C700C700C300C380C1C0C0FFC6C
:1021E00007FC0000000000000000000000000000EC
:1021F00000000000000000000000000000000000DF
:10220000300C300C300C300C300C300C300C3FFCEF
:102210003FFC300C300C300C300C300C300C300CDF
:10222000300C000000000000000000000000000072
:10223000000000000000000000000000000000009E
:102240003FFC3FFC01800180018001800180018012
:1022500001800180018001800180018001803FFCBC
:102260003FFC000000000000000000000000000033
:10227000000000000000000000000000000000005E
:102280001FF01FF000300030003000300030003010
:1022900000300030003000300030003010701FE09F
:1022A0001FC000000000000000000000000000004F
:1022B000000000000000000000000000000000001E
:1022C000381C3838387038E038C039803B003F005F
:1022D0003F003B003B8039C038E038703838383C2C
:1022E000381C00000000000000000000000000009A
:1022F00000000000000000000000000000000000DE
:102300001C001C001C001C001C001C001C001C00ED
:102310001C001C001C001C001C001C001C001FFCDE
:102320001FFC000000000000000000000000000092
:10233000000000000000000000000000000000009D
:10234000381C381C6C3E6C3E6C6E666E666E67CEDA
:1023500063CE63866186600660066006600660067E
:102360006006000000000000000000000000000007
:10237000000000000000000000000000000000005D
:10238000380C3C0C3C0C3E0C360C370C330C338CAC
:10239000318C31CC30CC30EC306C307C303C303C4B
:1023A000301C0000000000000000000000000000E1
:1023B000000000000000000000000000000000001D
:1023C0000FF01FF8381C381C700E700E700E60066F
:1023D00060066006700E700E700C381C3C381FF8DA
:1023E0000FE00000000000000000000000000000FE
:1023F00000000000000000000000000000000000DD
:102400003FE03FF8383C381C380C380C380C381C8E
:1024100038783FF03FC038003800380038003800C6
:102420003800000000000000000000000000000074
:10243000000000000000000000000000000000009C
:102440000FF01FF8381C381C700E700E700E6006EE
:1024500060066006700E700E700C381C3C381FF859
:102460000FE00180018001E200FF003C000000005D
:10247000000000000000000000000000000000005C
:102480003FE03FF8383838183818381838383FF0F7
:102490003FC039E03860387038383838381C381C5C
:1024A000380E0000000000000000000000000000E6
:1024B000000000000000000000000000000000001C
:1024C0000FF81FF838003800300038001E000F8069
:1024D00007F000F8003C001C001C001C003C3FF80A
:1024E0003FE00000000000000000000000000000CD
:1024F00000000000000000000000000000000000DC
:102500007FFE7FFE018001800180018001800180CB
:1025100001800180018001800180018001800180B3
:10252000018000000000000000000000000000002A
:10253000000000000000000000000000000000009B
:10254000300C300C300C300C300C300C300C300CAB
:10255000300C300C300C300C300C301C381C1FF898
:102560000FE000000000000000000000000000007C
:10257000000000000000000000000000000000005B
:10258000E0077006700E700E380C381C38181C18D6
:102590001C380C300E700E70066007E007E003C0B8
:1025A00003C0000000000000000000000000000068
:1025B000000000000000000000000000000000001B
:1025C000600660066006600660066006618663C697
:1025D00073C673CE76EE366C366C3C7C3C3C3C3C31
:1025E000381C000000000000000000000000000097
:1025F00000000000000000000000000000000000DB
:10260000700E381C1C381C380E7006E007E003C042
:1026100003C003C007E00E701C301C38381C701E4D
:10262000700E00000000000000000000000000002C
:10263000000000000000000000000000000000009A
:10264000E006700E380C381C1C381C300E7006600A
:1026500007E003C0018001800180018001800180CA
:1026600001800000000000000000000000000000E9
:10267000000000000000000000000000000000005A
:102680003FFC3FFC001C00380070006000E001C00F
:102690000380038007000E000C001C0038003FFC84
:1026A0003FFC0000000000000000000000000000EF
:1026B00000000000000000000000000007F007F02C
:1026C00006000600060006000600060006000600DA
:1026D00006000600060006000600060006000600CA
:1026E0000600060006000600060007F000000000D5
:1026F000000000000000000000000000380018008A
:102700001C000C000C0006000600070003000380FC
:10271000018001C000C000E00060006000300030B7
:1027200000380018001C000C000000000000000031
:102730000000000000000000000000000FE00FE0BB
:102740000060006000600060006000600060006089
:102750000060006000600060006000600060006079
:10276000006000600060006000600FE0000000009A
:102770000000000000000000000000000000000059
:10278000038003C006E006600C301C381818301CAB
:102790000000000000000000000000000000000039
:1027A0000000000000000000000000000000000029
:1027B0000000000000000000000000000000000019
:1027C0000000000000000000000000000000000009
:1027D00000000000000000000000000000000000F9
:1027E0000000000000000000FFFFFFFF00000000ED
:1027F0000000000000000000000000001C000E00AF
:102800000700018000000000000000000000000040
:1028100000000000000000000000000000000000B8
:1028200000000000000000000000000000000000A8
:102830000000000000000000000000000000000098
:1028400000000000000000001FF01EF80018001C2F
:10285000001C07FC1FFC3C1C381C301C387C3FFC57
:102860001FDC00000000000000000000000000006D
:1028700000000000000000000000000038003800E8
:1028800038003800380038003BF03FF83E1C380C68
:10289000380C380C380C380C380C381C38383FF0F1
:1028A0001FE0000000000000000000000000000029
:1028B0000000000000000000000000000000000018
:1028C000000000000000000003F80FF81E001C00CC
:1028D000380038003800380038001C001E000FF89F
:1028E00003F80000000000000000000000000000ED
:1028F000000000000000000000000000001C001CA0
:10290000001C001C001C001C07FC1FFC181C381CB1
:10291000301C301C301C301C301C383C387C1FDC18
:102920000F9C0000000000000000000000000000FC
:102930000000000000000000000000000000000097
:10294000000000000000000007F01E78181C381C72
:10295000300C3FFC3FFC3000300038001C001FFCF6
:1029600007FC000000000000000000000000000064
:10297000000000000000000000000000007E01FEDA
:1029800003C0038003000300030003007FFC7FFCFF
:10299000030003000300030003000300030003001F
:1029A0000300000000000000000000000000000024
:1029B0000000000000000000000000000000000017
:1029C00000000000000000000FFE1C7E18383818C0
:1029D000381838381C781FF03B80300038001FF85A
:1029E0001FFC300E700E700C3C3C1FF80180000084
:1029F0000000000000000000000000003800380067
:102A000038003800380038003BF03FF83C18381CDC
:102A1000381C381C381C381C381C381C381C381C16
:102A2000381C000000000000000000000000000052
:102A3000000000000000000000000000018003C052
:102A400003C00180000000001FC01FC001C001C002
:102A500001C001C001C001C001C001C001C03FFCF4
:102A60003FFC00000000000000000000000000002B
:102A70000000000000000000000000000060007086
:102A800000700070000000003FF03FF00070007028
:102A900000700070007000700070007000700070B6
:102AA000007000700070006039E03FC00600000058
:102AB00000000000000000000000000018001800E6
:102AC0001800180018001800181C1838187019E0A1
:102AD0001BC01F001B8019C019E018F01878183CA3
:102AE000181E0000000000000000000000000000B0
:102AF0000000000000000000000000001FC01FC018
:102B000001C001C001C001C001C001C001C001C0BD
:102B100001C001C001C001C001C001C001C03FFC33
:102B20003FFC00000000000000000000000000006A
:102B30000000000000000000000000000000000095
:102B400000000000000000006F3C6FEC79CE71CEF9
:102B5000718E718E718E718E718E718E718E718E7D
:102B6000718E000000000000000000000000000066
:102B70000000000000000000000000000000000055
:102B8000000000000000000033F03FF83C18381C43
:102B9000381C381C381C381C381C381C381C381C95
:102BA000381C0000000000000000000000000000D1
:102BB0000000000000000000000000000000000015
:102BC00000000000000000000FF01FF8381C300C5F
:102BD000300C700E700E700E300C381C38381FF828
:102BE0000FE00000000000000000000000000000F6
:102BF00000000000000000000000000000000000D5
:102C000000000000000000003BF03FF83E1C380CC4
:102C1000380C380C380C380C380C381C38383FF06D
:102C20003FE038003800380038003800000000006D
:102C30000000000000000000000000000000000094
:102C4000000000000000000007FC1F7C181C381C5E
:102C5000301C301C301C301C301C383C387C1FDCD5
:102C60000F9C001C001C001C001C001C000000002D
:102C70000000000000000000000000000000000054
:102C8000000000000000000019F81BFC1E0C1C0CCA
:102C9000180E180018001800180018001800180066
:102CA000180000000000000000000000000000000C
:102CB0000000000000000000000000000000000014
:102CC00000000000000000000FF81E381800180077
:102CD0001C000F8007F000F80038001C00181FF8D7
:102CE0001FE00000000000000000000000000000E5
:102CF00000000000000000000000000000000000D4
:102D000006000600060006007FFC7FFC06000600A9
:102D1000060006000600060006000600070003FC89
:102D200001FC0000000000000000000000000000A6
:102D30000000000000000000000000000000000093
:102D40000000000000000000381C381C381C381C33
:102D5000381C381C381C381C381C383C187C1FFCAC
:102D60000F9C0000000000000000000000000000B8
:102D70000000000000000000000000000000000053
:102D80000000000000000000700E300C381C181805
:102D90001C381C300C300E70066007E007C003C002
:102DA00003C0000000000000000000000000000060
:102DB0000000000000000000000000000000000013
:102DC00000000000000000006006600660066186EA
:102DD000718E73CE33CC32EC366C366C3C7C3C3C22
:102DE0001C3800000000000000000000000000008F
:102DF00000000000000000000000000000000000D3
:102E00000000000000000000381C1C181C380E7068
:102E100007E003C003C003C007E00E701C38381C75
:102E2000781E00000000000000000000000000000C
:102E30000000000000000000000000000000000092
:102E40000000000000000000700E300C381C181844
:102E50001C381C380E300E70066007E003E003C01B
:102E600003C00380038007007E007C000000000098
:102E70000000000000000000000000000000000052
:102E800000000000000000001FF81FF8003800706C
:102E900000E001C00380030007000E001C003FFC9F
:102EA0003FFC0000000000000000000000000000E7
:102EB00000000000000000000000000000F801F821
:102EC000018003800380038003800380038003006C
:102ED0003F003C000F000300038003800380038059
:102EE000038003800380018001E000F800000000FF
:102EF000000000000000018001800180018001804D
:102F000001800180018001800180018001800180B9
:102F100001800180018001800180018001800180A9
:102F2000018001800180018001800180000000009B
:102F30000000000000000000000000001E001F80D4
:102F4000018001C001C001C001C001C001C000C0BA
:102F500000FC003C00E000C001C001C001C001C095
:102F600001C001C001C0018007801F0000000000F7
:102F70000000000000000000000000000000000051
:102F800000000000000000000000000000001E0023
:102F90003F06738661FC60FC00000000000000003A
:102FA0000000000000000000000000000000000021
:102FB0000000000000000000000000000000000011
:102FC0000000000000000000000000000000000001
:102FD00000000000000000000000000000000000F1
:102FE00000000000000000000000000000000000E1
:102FF00000000000000000000000000000000000D1
:1030000000000000000000000000000000000000C0
:1030100000000000000000000000000000000000B0
:1030200000000000000000000000000000000000A0
:103030000000000000000000000000000000000090
:103040000000000000000000000000000000000080
:103050000000000000000000000000000000003C34
:1030600000003C00003C00003C00003C00003C0034
:10307000003C00003C00003C00003C00003C000024
:103080003C00003C00003C00003C00003C00003CD8
:1030900000003C00003C00003C000000000000007C
:1030A000000000001C00003E00007E00007E0000CA
:1030B0003C000000000000000000000000000000D4
:1030C0000000000000000000000000000000000000
:1030D00000000000000000000000000000000000F0
:1030E000000000000000000000000000000003C31A
:1030F000E003C3E003C3C003C3C003C3C003C3C032
:1031000003C3C003C3C003C3C0000000000000002D
:1031100000000000000000000000000000000000AF
:10312000000000000000000000000000000000009F
:10313000000000000000000000000000000000008F
:10314000000000000000000000000000000000007F
:10315000000000000000000000000000000000006F
:10316000000000000000000000000000000000005F
:10317000000000000000000000000000000000004F
:103180000000000001E0E001E0E001C0E001C0E07B
:1031900001C0E001C0E03FFFFE3FFFFE3FFFFE0336
:1031A000C1C003C1C00381C00381C00381C00381CA
:1031B000C00381C07FFFFC7FFFFC7FFFFC07838093
:1031C0000703800703800703800703800703800746
:1031D0000780000000000000000000000000000068
:1031E00000000000000000000000000000000000DF
:1031F00000000000000000000000000000000000CF
:103200000000000000000000000700000700000EA2
:1032100000000E0000FFE003FFF007FFF00F8E102C
:103220001E0E001E1E001E1C001E1C001E1C001F69
:103230009C000FFC0007FC0001FF00007FC0003F66
:10324000F0003BF80038F800387800383C00703C5B
:103250000070780070F83873F03FFFE03FFFC00F58
:10326000FE0000E00000E00000E00000E00000E000
:10327000000000000000000000000000000000004E
:10328000000000000000000000000000000000003E
:1032900000000000000000000000000300001FC04C
:1032A0000E3FE01E78F03C7070387070707070F0F7
:1032B0007071E07071C078F3C03FE7801FC70000F5
:1032C0000F00001E00001C0000380000780000F015
:1032D000E000E3FC01E7FC03CF1E038E0E078E0E19
:1032E0000F0E0E0E0E0E1C0E0E3C079E7807FC7085
:1032F00003F80000000000000000000000000000D3
:1033000000000000000000000000000000000000BD
:1033100000000000000000000000000000000000AD
:103320000000000000000000000000000000007825
:103330000003FF0007FF800787C00F03C00F03C013
:103340000F03C00F03C00F03C00F0780078F0007D4
:10335000FE0003FC0003F0000FF83C1F783C1E7CCD
:103360003C3C3E3C3C1F3C780FB87807F87803F8AB
:103370007801F03C01F03E03F81FFFFC0FFF3E0315
:10338000FC1F000000000000000000000000000022
:10339000000000000000000000000000000000002D
:1033A000000000000000000000000000000000001D
:1033B0000000000000000000000000000000003ECF
:1033C00000003C00003C00003C00003C00003C00D1
:1033D000003C00003C00003C000000000000000039
:1033E00000000000000000000000000000000000DD
:1033F00000000000000000000000000000000000CD
:1034000000000000000000000000000000000000BC
:1034100000000000000000000000000000000000AC
:10342000000000000000000000000000000000009C
:10343000000000000000000000000000000000008C
:1034400000000000000000000000800001C0000338
:10345000C0000780000F00001F00001E00003C009D
:1034600000780000780000F00000F00000E00001AB
:10347000E00001E00001E00001C00001C00003C065
:103480000003C00003C00001C00001E00001E00033
:1034900001E00001E00000F00000F00000F8000092
:1034A0007800003C00003C00001E00000F00000FF0
:1034B000800007C00003C000018000000000000081
:1034C00000000000000000000000000000000000FC
:1034D000000000000000000000000003800003C0A6
:1034E0000001E00000F000007800007C00003C00DB
:1034F000001E00001E00000F00000F0000078000EB
:1035000007800007800003800003C00003C00003A1
:10351000C00003C00003C00003C000038000078098
:10352000000780000780000700000F00000F000068
:103530001E00001E00003C0000780000F80001F0B2
:103540000003E00003C00001800000000000000054
:10355000000000000000000000000000000000006B
:103560000000000000000000000000000000001C3F
:1035700000001C000018000418300F18F00F99F01C
:1035800003FFC0007F00007E0001FF8007DBE00F2B
:1035900018F00E1870001800001800001C00001C25
:1035A000000000000000000000000000000000001B
:1035B000000000000000000000000000000000000B
:1035C00000000000000000000000000000000000FB
:1035D00000000000000000000000000000000000EB
:1035E00000000000000000000000000000000000DB
:1035F00000000000000000000000000000000000CB
:1036000000000000000000000000000000000000BA
:10361000000000003C00003C00003C00003C0000BA
:103620003C00003C00003C00003C00003C003FFF30
:10363000FC3FFFFC3FFFFC003C00003C00003C0066
:10364000003C00003C00003C00003C00003C00004E
:10365000000000000000000000000000000000006A
:10366000000000000000000000000000000000005A
:10367000000000000000000000000000000000004A
:10368000000000000000000000000000000000003A
:10369000000000000000000000000000000000002A
:1036A000000000000000000000000000000000001A
:1036B000000000000000000000000000000000000A
:1036C00000000000000000000000000000000000FA
:1036D000007C00007E00007E00007E00003E0000B6
:1036E0001E00001E00001E00003C00007C0007F8C9
:1036F0000007E000070000000000000000000000DC
:1037000000000000000000000000000000000000B9
:1037100000000000000000000000000000000000A9
:103720000000000000000000000000000000000099
:103730000000000000000000000000000000000089
:10374000000000000000000000000003FFE003FF95
:10375000E003FFE003FFE0000000000000000000C5
:103760000000000000000000000000000000000059
:103770000000000000000000000000000000000049
:103780000000000000000000000000000000000039
:103790000000000000000000000000000000000029
:1037A0000000000000000000000000000000000019
:1037B0000000000000000000000000000000000009
:1037C00000000000000000000000000000000000F9
:1037D00000000000000000000000000000000000E9
:1037E00000000000000000000000000000000000D9
:1037F000003C00007E0000FE0000FE00007E000095
:103800003C0000000000000000000000000000007C
:1038100000000000000000000000000000000000A8
:103820000000000000000000000000000000000098
:103830000000000000000000000000000000000088
:10384000700000F00000F00001E00001E00001C0A5
:103850000003C0000380000780000700000F000085
:103860000E00001E00001E00001C00003C0000387E
:103870000000780000700000F00000E00001E000AF
:1038800001C00003C00003C00003800007800007E0
:1038900000000F00000E00001E00001C00000000D1
:1038A0000000000000000000000000000000000018
:1038B0000000000000000000000000000000000008
:1038C00000000000000000000000000000000000F8
:1038D0000000180000FF8003FFC007E7E00F81F041
:1038E0000F00F81E00781E00781C007C3C00FC3C99
:1038F00003FC3C07FC3C1FBC3C3E1C3CFC1C3DF05C
:103900003C3FE03C3FC03C3F003C3E003C1E00785A
:103910001E00780F00F00F81F007FFE003FFC000EA
:10392000FF00000000000000000000000000000098
:103930000000000000000000000000000000000087
:103940000000000000000000000000000000000077
:103950000000000000000000000000000000000067
:1039600000000000003E0000FE0003FE000FFE000D
:103970001F9E000E1E00081E00001E00001E0000FC
:103980001E00001E00001E00001E00001E00001E83
:1039900000001E00001E00001E00001E00001E0091
:1039A000001E00001E00001E000FFFF80FFFF80FA2
:1039B000FFF8000000000000000000000000000010
:1039C00000000000000000000000000000000000F7
:1039D00000000000000000000000000000000000E7
:1039E00000000000000000000000000000000000D7
:1039F0000000180001FF0007FFC00FFFE00F03E009
:103A00000401F00000F00000F00000F00000F00001
:103A100000F00001F00001E00003C00007C0000F4B
:103A200080001F00003E00007C0000F80001F00054
:103A300003C0000780000F00001FFFFC1FFFFC1FDA
:103A4000FFFC00000000000000000000000000007B
:103A50000000000000000000000000000000000066
:103A60000000000000000000000000000000000056
:103A70000000000000000000000000000000000046
:103A8000000030000FFF000FFFC00FFFE00001E05B
:103A90000001F00000F00000F00000F00001E00084
:103AA00001E00007C001FF0001FF8001FFE000030B
:103AB000F00000F000007800007800007800007846
:103AC0000000780000F00003F00FFFE00FFF800F10
:103AD000FE000000000000000000000000000000E8
:103AE00000000000000000000000000000000000D6
:103AF00000000000000000000000000000000000C6
:103B000000000000000000000000000000000000B5
:103B100000000000000FC0000FC0001FC0003FC029
:103B2000003FC0007BC000F3C000E3C001E3C0035E
:103B3000C3C00383C00783C00F03C01E03C01E039E
:103B4000C03C03C07803C07FFFFE7FFFFE7FFFFE07
:103B50000003C00003C00003C00003C00003C00096
:103B600003C0000000000000000000000000000092
:103B70000000000000000000000000000000000045
:103B80000000000000000000000000000000000035
:103B90000000000000000000000000000000000025
:103BA000000000000FFFE00FFFE00FFFE00F00003C
:103BB0000F00000F00000F00000F00000F00000FAB
:103BC00000000FFC000FFF800FFFE00007F0000176
:103BD000F00000F80000780000780000780000781D
:103BE0000000F00001F00003E00FFFC00FFF800FA6
:103BF000FE000000000000000000000000000000C7
:103C000000000000000000000000000000000000B4
:103C100000000000000000000000000000000000A4
:103C20000000000000000000000000000000000094
:103C300000000000000FF0007FF001FFF003F00033
:103C400007C0000780000F00000E00001E00001ECD
:103C500000001E7F801FFFE01FFFF01F80F81E0086
:103C6000781E003C1E003C1E003C1E003C1E003C1A
:103C70001E003C0F00780F80F807FFF003FFE00004
:103C8000FF800000000000000000000000000000B5
:103C90000000000000000000000000000000000024
:103CA0000000000000000000000000000000000014
:103CB0000000000000000000000000000000000004
:103CC000000000001FFFFC1FFFFC1FFFFC0000782E
:103CD0000000780000F00000F00001E00001E000CA
:103CE00003C00003C0000780000780000F00000F22
:103CF00000001E00001E00003C00007C0000780058
:103D000000F80000F00001F00001E00003E0000313
:103D1000C0000000000000000000000000000000E3
:103D20000000000000000000000000000000000093
:103D30000000000000000000000000000000000083
:103D40000000000000000000000000000000000073
:103D50000000180001FFC007FFE00FC3F00F00F8DC
:103D60001E00781E00781E00781E00780F00F00FED
:103D7000C1F007F7E003FF8000FF0001FFC007E785
:103D8000E00F81F01F00F81E00781E007C1E003C32
:103D90001E003C1E00781F00F80FFFF007FFE00137
:103DA000FF80000000000000000000000000000094
:103DB0000000000000000000000000000000000003
:103DC00000000000000000000000000000000000F3
:103DD00000000000000000000000000000000000E3
:103DE0000000180001FF8007FFC00FC7E00F01F0BF
:103DF0001E00F01E00783C00783C00783C00783CC7
:103E000000383E00381E00781F01F80FFFF807FF4A
:103E1000B801FE380000780000780000700000F063
:103E20000001E00003E0001FC00FFF000FFE000FC5
:103E3000E0000000000000000000000000000000A2
:103E40000000000000000000000000000000000072
:103E50000000000000000000000000000000000062
:103E60000000000000000000000000000000000052
:103E70000000000000000000000000000000000042
:103E8000000000000000003C00007E00007E0000FA
:103E90007E00003E0000180000000000000000004E
:103EA0000000000000000000000000000000000012
:103EB000001800007E00007E00007E00007E0000F2
:103EC0003C000000000000000000000000000000B6
:103ED00000000000000000000000000000000000E2
:103EE00000000000000000000000000000000000D2
:103EF00000000000000000000000000000000000C2
:103F000000000000000000000000000000000000B1
:103F1000000000000000003C00007E00007E000069
:103F20007E00003E000018000000000000000000BD
:103F30000000000000000000000000000000000081
:103F4000003C00007E00007F00007F00003F00007A
:103F50001F00001E00001E00003E00007C0007F84D
:103F60000007E000078000000000000000000000E3
:103F70000000000000000000000000000000000041
:103F80000000000000000000000000000000000031
:103F90000000000000000000000000000000000021
:103FA0000000400001E00003E00007C0001F8000A7
:103FB0003E00007C0000F80003E00007C0000F8016
:103FC000001F800007C00003E00001F000007C003B
:103FD000003E00001F00000FC00003E00001E000F1
:103FE00000C0000000000000000000000000000011
:103FF00000000000000000000000000000000000C1
:1040000000000000000000000000000000000000B0
:1040100000000000000000000000000000000000A0
:104020000000000000000000000000000000000090
:104030000000000000000000000000000000000080
:1040400000001FFFF81FFFF81FFFF800000000002E
:10405000000000000000001FFFF81FFFF81FFFF81E
:104060000000000000000000000000000000000050
:104070000000000000000000000000000000000040
:104080000000000000000000000000000000000030
:104090000000000000000000000000000000000020
:1040A0000000000000000000000000000000000010
:1040B0000000000000000000000000000000000000
:1040C00003000007800007C00003E00000F80000C4
:1040D0007C00003E00000F800007C00003E00001EC
:1040E000F00000F80003E00007C0000F80001F0090
:1040F000007C0000F80001F00007C000078000030A
:1041000000000000000000000000000000000000AF
:10411000000000000000000000000000000000009F
:10412000000000000000000000000000000000008F
:10413000000000000000000000000000000001F886
:104140000001FE0001FF80001FC00007C00001E069
:104150000001E00000F00000F00000F00000F000BE
:1041600001E00007E0007FC0007F000070000070E9
:1041700000007000007000007000000000000000EF
:1041800000000000700000F80000F80000F80000D7
:10419000F800000000000000000000000000000027
:1041A000000000000000000000000000000000000F
:1041B00000000000000000000000000000000000FF
:1041C0000000000000000000000000000600003FAA
:1041D000E000FFF001E07803C03C07001C0F001E68
:1041E0000E000E1C000E1C000E380007383FC738AA
:1041F0007FC770F3C770E3C771C3C771C387F1C3CB
:1042000087E3C387E3C387E3878EE3878EE3878EE5
:10421000E3C78EE3CF9CE1FFFC71F9F87060E070BA
:1042200000007000007800003800003C00001E0014
:10423000000F81C007FFC001FF0000000000000068
:10424000000000000000000000000000000000006E
:10425000000000000000000000000000000000005E
:1042600000000000007E00007E00007F0000FF00D4
:1042700000FF0000E78001E78001E38003C3C00383
:10428000C3C003C1E00781E00781E00700F00F0031
:10429000F00F00F00E00781FFFF81FFFF81FFFFC63
:1042A0003C003C3C003C78001E78001E78001EF06C
:1042B000000F0000000000000000000000000000EF
:1042C00000000000000000000000000000000000EE
:1042D00000000000000000000000000000000000DE
:1042E00000000000000000000000000000000000CE
:1042F000000000001FFF801FFFE01FFFF01E01F005
:104300001E00F81E00781E00781E00781E00F01EA9
:1043100000F01E03E01FFFC01FFFC01FFFF01E01C3
:10432000F81E00F81E007C1E003C1E003C1E003CD7
:104330001E00781E00781E01F01FFFE01FFFC01F47
:10434000FE0000000000000000000000000000006F
:10435000000000000000000000000000000000005D
:10436000000000000000000000000000000000004D
:10437000000000000000000000000000000000003D
:1043800000000000007FF801FFF803FFF807E008D5
:104390000F80000F00001F00001E00001E00003CE8
:1043A00000003C00003C00003C00003C00003C00E1
:1043B000003C00003C00003E00001E00001F00000A
:1043C0001F00000F800007E01803FFF801FFF8004E
:1043D0007FF000000000000000000000000000006E
:1043E00000000000000000000000000000000000CD
:1043F00000000000000000000000000000000000BD
:1044000000000000000000000000000000000000AC
:10441000000000003FFE003FFF803FFFE03C03F054
:104420003C00F83C00783C007C3C003C3C003C3CC0
:10443000003C3C003E3C001E3C001E3C001E3C007C
:104440001E3C003C3C003C3C003C3C003C3C0078BA
:104450003C00F83C01F03C07E03FFFC03FFF003F5D
:10446000F800000000000000000000000000000054
:10447000000000000000000000000000000000003C
:10448000000000000000000000000000000000002C
:10449000000000000000000000000000000000001C
:1044A000000000000FFFF00FFFF00FFFF00F000003
:1044B0000F00000F00000F00000F00000F00000FA2
:1044C00000000F00000FFFF00FFFF00FFFF00F00D4
:1044D000000F00000F00000F00000F00000F000091
:1044E0000F00000F00000F00000FFFF00FFFF00F94
:1044F000FFF00000000000000000000000000000CD
:1045000000000000000000000000000000000000AB
:10451000000000000000000000000000000000009B
:10452000000000000000000000000000000000008B
:10453000000000000FFFF00FFFF00FFFF00F000072
:104540000F00000F00000F00000F00000F00000F11
:1045500000000F00000FFFF00FFFF00FFFF00F0043
:10456000000F00000F00000F00000F00000F000000
:104570000F00000F00000F00000F00000F00000FE1
:10458000000000000000000000000000000000002B
:10459000000000000000000000000000000000001B
:1045A000000000000000000000000000000000000B
:1045B00000000000000000000000000000000000FB
:1045C00000000300007FF801FFFC03FFFC07E00C84
:1045D0000F80001F00001E00003E00003C00003C59
:1045E00000003C0000780FFC780FFC780FFC78008E
:1045F0003C3C003C3C003C3C003C3C003C1E003C45
:104600001F003C0F803C0FC03C07FFFC01FFFC007B
:104610007FF000000000000000000000000000002B
:10462000000000000000000000000000000000008A
:10463000000000000000000000000000000000007A
:10464000000000000000000000000000000000006A
:10465000000000003C003C3C003C3C003C3C003C7A
:104660003C003C3C003C3C003C3C003C3C003C3CB6
:10467000003C3C003C3FFFFC3FFFFC3FFFFC3C009C
:104680003C3C003C3C003C3C003C3C003C3C003C96
:104690003C003C3C003C3C003C3C003C3C003C3C86
:1046A000003C0000000000000000000000000000CE
:1046B00000000000000000000000000000000000FA
:1046C00000000000000000000000000000000000EA
:1046D00000000000000000000000000000000000DA
:1046E000000000000FFFF80FFFF80FFFF8003C007C
:1046F000003C00003C00003C00003C00003C00008E
:104700003C00003C00003C00003C00003C00003C41
:1047100000003C00003C00003C00003C00003C006D
:10472000003C00003C00003C000FFFF80FFFF80FBA
:10473000FFF8000000000000000000000000000082
:104740000000000000000000000000000000000069
:104750000000000000000000000000000000000059
:104760000000000000000000000000000000000049
:10477000000000000FFFE00FFFE00FFFE00001E08E
:104780000001E00001E00001E00001E00001E000C4
:1047900001E00001E00001E00001E00001E00001B3
:1047A000E00001E00001E00001E00001E00001E0C4
:1047B0000001E00003C00C07C00FFF800FFF0007DF
:1047C000FC000000000000000000000000000000ED
:1047D00000000000000000000000000000000000D9
:1047E00000000000000000000000000000000000C9
:1047F00000000000000000000000000000000000B9
:10480000000000001E00781E00F81E01F01E03E0EC
:104810001E03C01E07801E0F001E1E001E3C001E31
:1048200078001EF0001EF0001FE0001FF0001EF8D0
:10483000001E7C001E3C001E1E001E0F001E0F806E
:104840001E07C01E03E01E01F01E00F01E00F81E31
:10485000007C0000000000000000000000000000DC
:104860000000000000000000000000000000000048
:104870000000000000000000000000000000000038
:104880000000000000000000000000000000000028
:1048900000000000078000078000078000078000FC
:1048A000078000078000078000078000078000075E
:1048B00080000780000780000780000780000780D5
:1048C0000007800007800007800007800007800045
:1048D00007800007800007800007FFF807FFF80740
:1048E000FFF80000000000000000000000000000D1
:1048F00000000000000000000000000000000000B8
:1049000000000000000000000000000000000000A7
:104910000000000000000000000000000000000097
:10492000000000003E007C3F00FC3F00FC3F00FC1C
:104930003B81DC3B81DC3BC39C39C39C39C39C3944
:10494000E71C38E71C38E71C387E1C387E1C387C96
:104950001E383C1E383C1E78001E78001E78001E53
:1049600078001E78001E78001E78001E78001E78E1
:10497000001E000000000000000000000000000019
:104980000000000000000000000000000000000027
:104990000000000000000000000000000000000017
:1049A0000000000000000000000000000000000007
:1049B000000000001F003C1F003C1F803C1F803C8B
:1049C0001FC03C1DC03C1DE03C1CE03C1CF03C1CDE
:1049D000F03C1C783C1C783C1C3C3C1C3C3C1C1EA9
:1049E0003C1C1E3C1C0F3C1C0F3C1C07BC1C07BC89
:1049F0001C03FC1C03FC1C01FC1C01FC1C00FC1C1B
:104A000000FC0000000000000000000000000000AA
:104A10000000000000000000000000000000000096
:104A20000000000000000000000000000000000086
:104A30000000000000000000000000000000000076
:104A40000000180000FF8003FFE007FFF00F80F870
:104A50001F00781E007C3C003C3C003C3C001E7863
:104A6000001E78001E78001E78001E78001E780058
:104A70001E78001E78001E3C001E3C003C3C003CA2
:104A80001E00781F00F80F81F00FFFE003FFC00148
:104A9000FF00000000000000000000000000000017
:104AA0000000000000000000000000000000000006
:104AB00000000000000000000000000000000000F6
:104AC00000000000000000000000000000000000E6
:104AD000000000001FFF001FFFC01FFFF01E01F8B5
:104AE0001E00781E007C1E003C1E003C1E003C1E6A
:104AF000003C1E00781E00781E00F01E0FF01FFF05
:104B0000C01FFF801FF8001E00001E00001E0000D6
:104B10001E00001E00001E00001E00001E00001EE1
:104B20000000000000000000000000000000000085
:104B30000000000000000000000000000000000075
:104B40000000000000000000000000000000000065
:104B50000000000000000000000000000000000055
:104B60000000180000FF8003FFE007FFF00F81F84E
:104B70001F00781E007C3C003C3C003C3C001E3882
:104B8000001E78001E78001E78001E78001E780037
:104B90001E78001E78001E3C001C3C003C3C003C83
:104BA0003E00781F00F80F81F00FFFE003FFC00107
:104BB000FF00003C00003C00003E00001F06000F0C
:104BC000FF0007FF0003FC000000000000000000E1
:104BD00000000000000000000000000000000000D5
:104BE00000000000000000000000000000000000C5
:104BF000000000000FFF000FFFC00FFFE00E03F0EA
:104C00000E00F00E00F00E00F00E00F00E00F00EA0
:104C100000F00E01E00FFFC00FFF800FFE000E1F1F
:104C2000000E07800E07C00E03C00E01E00E01E06B
:104C30000E00F00E00F00E00780E00780E003C0E14
:104C4000003C000000000000000000000000000028
:104C50000000000000000000000000000000000054
:104C60000000000000000000000000000000000044
:104C70000000000000000000000000000000000034
:104C800000000C0001FFF007FFF00FFFF00F000025
:104C90001E00001E00001E00001E00001F00001F5E
:104CA00080000FE00007FC0001FF00007FC0000F44
:104CB000E00003F00000F8000078000078000078C1
:104CC0000000780000783001F03FFFF03FFFC01F88
:104CD000FF000000000000000000000000000000D5
:104CE00000000000000000000000000000000000C4
:104CF00000000000000000000000000000000000B4
:104D000000000000000000000000000000000000A3
:104D1000000000003FFFFC3FFFFC3FFFFC003C00A9
:104D2000003C00003C00003C00003C00003C000057
:104D30003C00003C00003C00003C00003C00003C0B
:104D400000003C00003C00003C00003C00003C0037
:104D5000003C00003C00003C00003C00003C000027
:104D60003C00000000000000000000000000000007
:104D70000000000000000000000000000000000033
:104D80000000000000000000000000000000000023
:104D90000000000000000000000000000000000013
:104DA000000000003C003C3C003C3C003C3C003C23
:104DB0003C003C3C003C3C003C3C003C3C003C3C5F
:104DC000003C3C003C3C003C3C003C3C003C3C008B
:104DD0003C3C003C3C003C3C003C3C003C3C003C3F
:104DE0001E00781E00781F00F00FFFF007FFC001C3
:104DF000FF80000000000000000000000000000034
:104E000000000000000000000000000000000000A2
:104E10000000000000000000000000000000000092
:104E20000000000000000000000000000000000082
:104E300000000000F8000F78001E78001E7C001EA5
:104E40003C003C3C003C3E003C1E00781E00780FBD
:104E500000780F00F00F00F00780E00781E0078185
:104E6000E003C1C003C3C003C3C001E38001E78006
:104E700001E78000F70000FF00007E00007E0000D8
:104E80007E000000000000000000000000000000A4
:104E90000000000000000000000000000000000012
:104EA0000000000000000000000000000000000002
:104EB00000000000000000000000000000000000F2
:104EC0000000000078000E78000E78000E78000ECA
:104ED00078000E78001E78001E38001E38001E383C
:104EE0003C1E383C1C383C1C387E1C387E1C387FED
:104EF0001C3CE71C3CE71C3CE79C3DC39C3DC39C21
:104F00003DC3DC1F81DC1F81FC1F81FC1F00F81FDB
:104F100000F8000000000000000000000000000099
:104F20000000000000000000000000000000000081
:104F30000000000000000000000000000000000071
:104F40000000000000000000000000000000000061
:104F5000000000003C003E3E007C1E00780F00F088
:104F60000F81F00781E003C3C003E3C001E78000C5
:104F7000FF0000FF00007E00003C00007E0000FFFC
:104F80000000FF0001E78003E7C003C3E00781E002
:104F90000F81F00F00F81E00783E007C7C003E7808
:104FA000001E0000000000000000000000000000E3
:104FB00000000000000000000000000000000000F1
:104FC00000000000000000000000000000000000E1
:104FD00000000000000000000000000000000000D1
:104FE00000000000F8001F7C001E3C003E3E003C1C
:104FF0001E00781F00780F80F00781F007C1E003E2
:10500000C3C003E3C001E78000F78000FF00007E1B
:1050100000003E00003C00003C00003C00003C0062
:10502000003C00003C00003C00003C00003C000054
:105030003C00000000000000000000000000000034
:105040000000000000000000000000000000000060
:105050000000000000000000000000000000000050
:105060000000000000000000000000000000000040
:10507000000000001FFFFC1FFFFC1FFFFC0000F8EA
:105080000000F00001E00003E00003C00007800022
:105090000F80000F00001E00003C00007C00007824
:1050A0000000F00001F00001E00003C000078000F4
:1050B0000F80000F00001E00003FFFFC3FFFFC3F81
:1050C000FFFC0000000000000000000000000000E5
:1050D00000000000000000000000000000000000D0
:1050E00000000000000000000000000000000000C0
:1050F000000000000000000000000001FFC001FFF0
:10510000C001FFC001E00001E00001E00001E0009B
:1051100001E00001E00001E00001E00001E0000129
:10512000E00001E00001E00001E00001E00001E03A
:105130000001E00001E00001E00001E00001E0000A
:1051400001E00001E00001E00001E00001E00001F9
:10515000E00001E00001E00001E00001E00001E00A
:105160000001FFC001FFC001FFC0000000000000FF
:10517000000000000000000000000000000000002F
:1051800000000000000000000000000000000E0011
:10519000000F000007000007800003800003C0002C
:1051A00001C00001E00001E00000E00000F00000AC
:1051B0007000007800003800003C00001C00001E59
:1051C00000001E00000F00000F0000070000078015
:1051D0000003800003C00001C00001E00000E00007
:1051E00000F00000F00000700000780000380000BF
:1051F00000000000000000000000000000000000AF
:10520000000000000000000000000000000000009E
:10521000000000000000000000000003FF8003FF0A
:105220008003FF8000078000078000078000078060
:1052300000078000078000078000078000078000CB
:1052400007800007800007800007800007800007B4
:10525000800007800007800007800007800007802B
:10526000000780000780000780000780000780009B
:105270000780000780000780000780000780000784
:105280008003FF8003FF8003FF8000000000000018
:10529000000000000000000000000000000000000E
:1052A00000000000000000000000000000000000FE
:1052B00000000000003C00007E00007E0000EF00C7
:1052C00000E78001C38003C3C00381C00701E0077A
:1052D00000F00E00701E00781C003C000000000072
:1052E00000000000000000000000000000000000BE
:1052F00000000000000000000000000000000000AE
:10530000000000000000000000000000000000009D
:10531000000000000000000000000000000000008D
:10532000000000000000000000000000000000007D
:10533000000000000000000000000000000000006D
:10534000000000000000000000000000000000005D
:10535000000000000000000000000000000000004D
:10536000000000000000000000000000000000003D
:10537000000000000000000000000000000000002D
:10538000000000000000000000000000000000001D
:10539000000000000000000000000000000000000D
:1053A00000FFFFFFFFFFFFFFFFFF00000000000006
:1053B00000000000000000000000000000000000ED
:1053C000000000000000000000000000000007C016
:1053D0000003E00000F000007800001C0000000066
:1053E00000000000000000000000000000000000BD
:1053F00000000000000000000000000000000000AD
:10540000000000000000000000000000000000009C
:10541000000000000000000000000000000000008C
:10542000000000000000000000000000000000007C
:10543000000000000000000000000000000000006C
:10544000000000000000000000000000000000005C
:10545000000000000000000000000000000000004C
:10546000000000000000000000000000000000003C
:1054700000000000000003FF8007FFE007FFF004CA
:1054800000F00000F0000078000078000078007F55
:10549000F803FFF807FFF80F80781E00781E0078E9
:1054A0001E00781E00F81F03F80FFFF80FFF7803A7
:1054B000FC78000000000000000000000000000078
:1054C00000000000000000000000000000000000DC
:1054D00000000000000000000000000000000000CC
:1054E00000000000000000000000000000001E009E
:1054F000001E00001E00001E00001E00001E000016
:105500001E00001E00001E3FC01E7FE01EFFF01F99
:10551000E0F81F80781F00781E003C1E003C1E0033
:105520003C1E003C1E003C1E003C1E003C1E007841
:105530001E00781E00F01E01F01FFFE01FFFC003D9
:10554000FF0000000000000000000000000000005C
:10555000000000000000000000000000000000004B
:10556000000000000000000000000000000000003B
:10557000000000000000000000000000000000002B
:10558000000000000000000000000000000000001B
:10559000000000000000003FF000FFF003FFF003F8
:1055A000E0100780000F80000F00000F00001E00B9
:1055B000001E00001E00001E00000F00000F000073
:1055C0000F000007800007E01003FFF001FFF0006C
:1055D0007FE000000000000000000000000000006C
:1055E00000000000000000000000000000000000BB
:1055F00000000000000000000000000000000000AB
:10560000000000000000000000000000000000009A
:1056100078000078000078000078000078000078BA
:1056200000007800007800FFF803FFF807FFF80F8C
:1056300080780F00781E00781E00781C00783C00EF
:10564000783C00783C00783C00783C00781C00F8FE
:105650001E01F81E03F80F07F80FFF7807FE780306
:10566000F8780000000000000000000000000000CA
:10567000000000000000000000000000000000002A
:10568000000000000000000000000000000000001A
:10569000000000000000000000000000000000000A
:1056A00000000000000000000000000000000000FA
:1056B00000000000000000FF8003FFE007E3F00FA0
:1056C00080F00F00781E00781E00381E003C1FFF7F
:1056D000FC1FFFFC1FFFFC1C00001E00001E000042
:1056E0001E00000F00000F800007FFF803FFF80006
:1056F000FFF00000000000000000000000000000BB
:105700000000000000000000000000000000000099
:105710000000000000000000000000000000000089
:105720000000000000000000000000000060000F0A
:10573000FE001FFE003F0E007C0000780000780095
:105740000078000070000070000070000070003FE2
:10575000FFFC3FFFFC3FFFFC00700000700000708A
:105760000000700000700000700000700000700009
:1057700000700000700000700000700000700000F9
:1057800070000000000000000000000000000000A9
:105790000000000000000000000000000000000009
:1057A00000000000000000000000000000000000F9
:1057B00000000000000000000000000000000000E9
:1057C00000000000000000000000000000000000D9
:1057D00000000000000001FFFC03FFFC07C3FC0FFA
:1057E00001F00F00F01E00F01E00F01E00F00F0090
:1057F000F00F01E007C3E007FFC00FFF001E00002D
:105800001C00001E00001FE0000FFFE007FFF80F64
:105810003FFC1E003C3C003C3C003C3C003C3E004D
:105820007C1FC3F80FFFF007FFC00000000000005E
:105830000000000000000000000000000000000068
:1058400000000000000000000000000000001E003A
:10585000001E00001E00001E00001E00001E0000B2
:105860001E00001E00001E3FC01E7FE01EFFF01F36
:10587000C0F01F80781F00781E00781E00781E0080
:10588000781E00781E00781E00781E00781E0078B2
:105890001E00781E00781E00781E00781E00781EFC
:1058A0000078000000000000000000000000000080
:1058B00000000000000000000000000000000000E8
:1058C00000000000000000000000000000000000D8
:1058D0000000000000000000000000000800003C84
:1058E00000007E00007E00007E00003C0000000002
:1058F0000000000000000FFE000FFE000FFE000081
:105900001E00001E00001E00001E00001E00001EE3
:1059100000001E00001E00001E00001E00001E00F1
:10592000001E00001E00001E000FFFF80FFFF80F02
:10593000FFF8000000000000000000000000000070
:105940000000000000000000000000000000000057
:105950000000000000000000000000000000000047
:10596000000000000000000000000000010000072F
:10597000C00007E00007E00007C00003800000004F
:105980000000000000000FFFC00FFFC00FFFC000AD
:1059900003C00003C00003C00003C00003C0000335
:1059A000C00003C00003C00003C00003C00003C068
:1059B0000003C00003C00003C00003C00003C00018
:1059C00003C00003C00003C00003C0000780100F25
:1059D000801FFF001FFE001FF800000000000000F5
:1059E00000000000000000000000000000000000B7
:1059F00000000000000000000000000000000F0098
:105A0000000F00000F00000F00000F00000F00004B
:105A10000F00000F00000F007C0F00F80F01E00FD7
:105A200003C00F0F800F1F000F3E000F7C000FF808
:105A3000000FF0000F78000F3C000F1E000F0F004A
:105A40000F07800F03C00F03E00F01F00F00F80FE6
:105A5000007C0000000000000000000000000000CA
:105A60000000000000000000000000000000000036
:105A70000000000000000000000000000000000026
:105A800000000000000000000000000000000FFE09
:105A9000000FFE000FFE00001E00001E00001E0092
:105AA000001E00001E00001E00001E00001E000060
:105AB0001E00001E00001E00001E00001E00001E32
:105AC00000001E00001E00001E00001E00001E0040
:105AD000001E00001E00001E000FFFF80FFFF80F51
