:020000040800F2
:10000000C81D00209D010008351D00081D100008B6
:10001000311D000865040008994F00080000000029
:100020000000000000000000000000008D4B0008F0
:10003000750400080000000009040008BD4C000819
:10004000B7010008B7010008B7010008B7010008B0
:10005000B7010008B7010008B7010008B7010008A0
:10006000B7010008B7010008B7010008B701000890
:10007000B7010008B7010008B7010008B701000880
:10008000B7010008B7010008B7010008B701000870
:10009000B7010008B7010008B7010008AD04000867
:1000A000B7010008B7010008B7010008B701000850
:1000B000B7010008B7010008B7010008B701000840
:1000C000B7010008B7010008B7010008B701000830
:1000D000B70100085D4D0008B7010008B70100082E
:1000E000B7010008B7010008B7010008B701000810
:1000F000B7010008B7010008B7010008B701000800
:10010000B7010008B7010008B7010008B7010008EF
:10011000B7010008B7010008B7010008B7010008DF
:10012000B7010008B7010008B7010008B7010008CF
:10013000B7010008B7010008B7010008B7010008BF
:10014000B7010008B7010008B7010008B7010008AF
:10015000B7010008B7010008B7010008B70100089F
:10016000B7010008B7010008B7010008B70100088F
:10017000B7010008B7010008B7010008B70100087F
:10018000B7010008B7010008DFF80CD000F0A6F8AE
:10019000004800475D560008C81D002006488047FB
:1001A00006480047FEE7FEE7FEE7FEE7FEE7FEE75C
:1001B000FEE7FEE7FEE7FEE7F54C000889010008D0
:1001C00072B6704762B67047EFF3108072B6704730
:1001D00080F31088704730BF704720BF7047B0FA77
:1001E00080F0704790FAA0F0B0FA80F0704790FA73
:1001F000A0F070472DE9F05F0546002092469B462F
:1002000088460646814640241BE02846414647462C
:10021000224600F053F853465A46C01A914110D373
:1002200011461846224600F03AF82D1A67EB0108ED
:100230004F4622460120002100F031F817EB00095B
:100240004E41201EA4F10104DFDC484631462A4617
:100250004346BDE8F09F40EA01039B0703D009E055
:1002600008C9121F08C0042AFAD203E011F8013BA2
:1002700000F8013B521EF9D27047D2B201E000F8FB
:10028000012B491EFBD270470022F6E710B513463A
:100290000A4604461946FFF7F0FF204610BD202A03
:1002A00004DB203A00FA02F1002070479140C2F1CD
:1002B000200320FA03F3194390407047202A04DBFF
:1002C000203A21FA02F00021704721FA02F3D040CF
:1002D000C2F120029140084319467047064C074D71
:1002E00006E0E06840F0010394E807009847103406
:1002F000AC42F6D3FFF74CFFACAF0008CCAF000820
:1003000070B58C1810F8015B15F0070301D110F8D7
:10031000013B2A1106D110F8012B03E010F8016B04
:1003200001F8016B5B1EF9D12B0705D40023521E87
:100330000DD401F8013BFAE710F8013BCB1A921CEF
:1003400003E013F8015B01F8015B521EF9D5A142ED
:10035000D8D3002070BD0000EFF3098141B1F1EE68
:10036000101A40F8041D20ED200A3B490A6810606D
:100370007047B0EC200A02C8E1EE101A37490A684B
:100380001060704772B64EF62250CEF2000040F276
:10039000FF01C0F20001017040F21C10C2F2000027
:1003A000016881F3088840F29200C2F2000040F236
:1003B0009301C2F200010A78027040F21415C2F2F1
:1003C000000540F21811C2F200010A682A601068A4
:1003D00080F30988EFF3148040F0020080F3148862
:1003E000BFF36F8FBDE8F00F0FBCBDE8005006BC37
:1003F00062B608471A484FF08051016070471848AC
:100400004FF080510160704772B6EFF3098020E928
:10041000F00F40F21415C2F200052E6830607446E9
:1004200002F000FE40F29200C2F2000040F293019E
:10043000C2F200010A78027040F21811C2F2000103
:100440000A682A6044F0F40E1068B0E8F00F80F3F8
:10045000098862B6704700001401002018010020CE
:1004600004ED00E000BFFEE7014948687047000066
:10047000001000E0704701B502E00098401E0090B7
:1004800000980028F9D108BD01B502E00098401E8F
:10049000009000980028F9D108BD01B502E000984D
:1004A000401E009000980028F9D108BD10B54FF407
:1004B000807000F00FF828B100F026FC4FF4807037
:1004C00000F002F810BD000001490860704700000C
:1004D000143C014001460020034A12680A400AB158
:1004E000012000E000207047143C01400021234916
:1004F0008279002A3AD00A46126803689A430B466A
:100500001A600A1D126803689A430B1D1A6002796B
:1005100011440A6803681A430A60184A08321268CC
:1005200003689A43154B08331A601A1D1268036852
:100530009A43124B0C331A604279102A0ED11A1FBB
:10054000126803681A430D4B08331A601A1D1268AB
:1005500003681A43094B0C331A600DE007494279CE
:1005600011440A6803681A430A6005E002791144DD
:100570000A6803689A430A6070470000003C014023
:1005800051B18200A2F1C042126842F00103820020
:10059000A2F1C042136009E08200A2F1C0421268D9
:1005A000034B1A408300A3F1C0431A607047000058
:1005B000FEFF0F0030B50021002200230468A400D4
:1005C000A4F1C0442168424C2140D0E901452C43AC
:1005D000C5682C4305692C4345692C4385692C4328
:1005E000C5692C43056A2C43456A2C43856A2C4314
:1005F000C56A2C43056B2C4321430468A400A4F175
:10060000C04421608468082C0BD10468A400A4F1C4
:10061000C044246844F040050468A400A4F1C04428
:1006200025600468641CA400A4F1C044226802F0A0
:100630004042446B2468456B6D6844EA0514456B81
:10064000AD6844EA0524456BAD8944EA0544456B31
:100650002D8A44EA0554456B2D7D44EA0564456BBB
:10066000AD692C4322430468641CA400A4F1C04477
:100670002260C46AB4F5804F20D10468A400A4F1BC
:10068000C044D4F80431134C2340846B2468856B38
:100690006D6844EA0514856BAD6844EA0524856BF2
:1006A000AD8944EA0544856BAD692C432343046856
:1006B000A400A4F1C044C4F8043107E06FF0704511
:1006C0000468A400A4F1C044C4F8045130BD000083
:1006D0008000F7FF0000F0CFF0B50A4600210023AC
:1006E000002400BF3DE0012505FA01F3156805EA85
:1006F00003049C4234D105684F000326BE40B54335
:10070000056015794E00B5400668354305601579DA
:10071000012D02D01579022D16D185684F000326D0
:10072000BE40B543856055794E00B5408668354377
:100730008560456801268E40B543456045689679D9
:100740008E40B6B235434560C5684F000326BE40B3
:10075000B543C560D5794E00B540C6683543C56020
:10076000491C1029BFD3F0BDF0B5002300244D076C
:10077000ED0E02FA05F3CE1000F1200555F82650D3
:100780004E07F70E0F26BE40B543CF1000F12006EE
:1007900046F82750CE1000F1200555F8265045EABE
:1007A0000304CE1000F1200545F82640F0BD0246B6
:1007B000002013690B400BB1012000E000207047BE
:1007C0004183704701837047FEB50020009001907F
:1007D0000290002440F256354FF4F0760027802036
:1007E0008DF8000051208DF801000A226946BA20D8
:1007F00000F04AF80446002C01DA0020FEBD9DF806
:1008000002009DF8031000EB012085B29DF8040062
:100810009DF8051000EB012086B200BF00BF00BFAD
:10082000684600BF80208DF8000056208DF801003A
:1008300003226946BA2000F027F80446002C01DAAA
:100840000020DBE79DF8020000F003073B4632463C
:10085000294602A004F0A2FB0120CFE7585F4D41DA
:1008600058203D2025642C20595F4D4158203D20C3
:1008700025642C2054524947474552203D2030786A
:10088000253032780A0000002DE9F04186B0054697
:100890000C4616464FF0FF374FF0000800BF00BF70
:1008A0000020ADF802008DF800500220ADF80400E1
:1008B00002940121ADF80E108DF80C50B01E81B2DB
:1008C000ADF81010A01C059009E00221684600F068
:1008D00097FC0746022F00D104E008F10108B8F1A7
:1008E000050FF2DB00BFB8F1050F08DB6078237855
:1008F00040EA0321B21E3B46034804F04FFB384652
:1009000006B0BDE8F081000008AF000838B50E4819
:100910000068009000256C1E00BF00BF0DE00322A0
:100920006946BA20FFF7B0FF44B2002C01DD204633
:1009300038BD294605A004F031FB2846691CCDB21C
:100940000528ECDB2046F3E7F4AE00083C3C2D47DD
:1009500054502D4552524F522D3E3E204754502068
:100960006932632074657374206661696C65642004
:1009700074696D652025642E0A0000002DE9FE4390
:1009800080460C4615464FF0FF36002700BF00BFDB
:100990000020ADF802008DF80080A8B2ADF8040088
:1009A000029408E00121684600F02AFC0646012E68
:1009B00000D102E07F1C052FF4DB00BF052F08DB10
:1009C0006078237840EA0321AA1E3346024804F0E7
:1009D000E5FA3046BDE8FE8358AF00082DE9F05F28
:1009E0004FF0FF3800260027B246002500BF00BFA9
:1009F0004FF4817004F07AFE04468020207050206D
:100A0000607000F0F5FBFFF781FF8046B8F1000F42
:100A100005DA41A004F0C2FA4046BDE8F09F00F0BC
:100A20009DF848480078022803D1DFF81CB14FF048
:100A3000EF094FF48071A01CFFF726FC4A46594687
:100A4000A01CFFF708FC4D4600BF00BF00BF00BF61
:100A500000BF204600BF3D480078E0703B4800885A
:100A6000001220713A4800786071394800880012FD
:100A7000A07138480078082815D2DFE800F0040C8F
:100A8000050D060E070F00BF00BF00BF207A20F043
:100A90000800207207E000BF00BF00BF207A40F0CE
:100AA0000800207200BF00BF0027022607E0701C6C
:100AB000205CA15D00EB0120384487B2B61C681EA3
:100AC000B042F4DC784287B200BF00BF390A681E2A
:100AD000215467550121681C21544FF0000A0BE096
:100AE0002A1D2146BA20FFF749FF8046B8F1000FC2
:100AF00000DD04E00AF1010ABAF1050FF0DB00BFE6
:100B00001548FFF7C1FC00F0D7FAFFF75DFE20465D
:100B100004F0A8FC002080E73C3C2D4754502D45B4
:100B200052524F522D3E3E2049324320636F6D6D2D
:100B3000756E69636174696F6E204552524F522120
:100B40000A0000002001002010AD00084000002035
:100B50004200002044000020FFFF0F0010B586B0C7
:100B60004FF0FF34434903C9CDE9040100BF00BF82
:100B7000082204A9BA20FFF787FE0446002C05DAF4
:100B80003DA004F00BFA204606B010BD9DF81200FF
:100B9000352825D19DF816009DF817109DF81520D1
:100BA000CDE9002102909DF814309DF813209DF8A6
:100BB00012103CA004F0F2F99DF81200352856D12D
:100BC0009DF81300362852D19DF8140038284ED1D4
:100BD0009DF8150038284AD102203A49087046E0AD
:100BE0009DF81500F0B99DF816009DF81710CDE995
:100BF00000109DF814309DF813209DF8121032A0BB
:100C000004F0CCF99DF81200392830D19DF813007A
:100C100031282CD19DF81400312828D101202949F0
:100C2000087024E09DF816009DF817109DF8152017
:100C3000CDE9002102909DF814309DF813209DF815
:100C4000121029A004F0AAF99DF8120039280ED13B
:100C50009DF8130031280AD19DF81400352806D1DB
:100C60009DF81500372802D100201649087020464B
:100C70008AE70000DCAE00083C3C2D4754502D456F
:100C800052524F522D3E3E204754502072656164AF
:100C90002076657273696F6E206661696C65640A9F
:100CA000000000004943312056657273696F6E3A47
:100CB0002025632563256325635F25303278253041
:100CC00032780A00200100204943322056657273B1
:100CD000696F6E3A202563256325635F253032787E
:100CE000253032780A00000049433320566572737C
:100CF000696F6E3A2025632563256325635F253080
:100D00003278253032780A0008B500BF00BF00F005
:100D10006DF81948B0F90000401C20B11748B0F92F
:100D20000000401C70B9002015490872009013485B
:100D3000B0F900201048B0F90010002311A004F011
:100D40002DF908BD0C48B0F900000D4908600B48AA
:100D5000B0F90000486001200872002000900748A8
:100D6000B0F900200448B0F90010012305A004F0F8
:100D700015F900BFE5E70000220100202C0100204A
:100D80001C000020783A2025642020793A20256430
:100D9000202070726573733A20256420206C61797D
:100DA00065723A2025640A0030B500BF00BF00BF5D
:100DB00000BF0CB2034D25F8104014B2024D25F8C7
:100DC000104030BD220100202C0100204FF0FF31E7
:100DD000044A22F81010044A22F8101000BF00BF85
:100DE00070470000220100202C0100202DE9F04F67
:100DF00099B070A00068189028210EA8FFF744FA57
:100E00006D4800680D900025A846BA200C90002679
:100E10004FF000094FF0000A00200B908346002499
:100E2000401E0A9000BF00BF0C220DA90C98FFF7CE
:100E30002BFD0A900A98002806DA60A00A9904F0AF
:100E4000ADF819B0BDE8F08F9DF83680B8F1000F0D
:100E500000D1F6E708F0800000B99DE008F00F052A
:100E6000052D00DD98E0012D17DD242101A8FFF7F5
:100E70000BFA5148001D00680090681EC000821CDB
:100E800069460C98FFF700FD0A90681EC2000DF13C
:100E9000020110A8FFF7DFF900BF54480088A842FC
:100EA00021DD00241BE0002715E0032000EBC70034
:100EB0000DA94618307800F00F0B4D48005D5845DD
:100EC00000D10AE0681EB84203DC4949085DFFF71B
:100ED0007DFF781CC7B2AF42E7DB00BF641C43480C
:100EE00000888442DFDB002D45D0002440E0032051
:100EF00000EBC4000DA94618307800F00F0B3C48F9
:100F000000F804B07078B17840EA0129F0783179BE
:100F100040EA012A7079B17940EA01200B90354806
:100F2000007808281BD2DFE800F004140A0B1A1A14
:100F3000150500BF30480088A0EB0A0A10E000BF8A
:100F40002E480088A0EB09092B480088A0EB0A0A6C
:100F500006E000BF29480088A0EB090900E000BFB7
:100F600000BF5246494658460B9BFFF71DFF641CC5
:100F7000AC42BCDB0DE01D48008850B1002404E009
:100F80001B49085DFFF722FF641C18480088844253
:100F9000F6DB1648058000BF032218A90C98FFF75E
:100FA000EDFC0A900A98002802DA15A003F0F6FF7B
:100FB00000BF46E7814E000080AE00083C3C2D4754
:100FC00054502D4552524F522D3E3E20493243201F
:100FD0007472616E73666572206572726F722E2014
:100FE0006572726E6F3A25640A200A00360100208D
:100FF0003801002044000020420000204000002072
:1010000049324320777269746520656E645F636D51
:1010100064206572726F72210A00000000BFFEE753
:101020001CB50121482003F00DFD0121880303F0C8
:1010300029FD8020009001208DF8040002208DF809
:10104000050001208DF8060000208DF80700694694
:101050001748FFF741FB0820009069461448FFF746
:101060003BFB4020009001208DF8040002208DF809
:10107000050000208DF8060002208DF80700694663
:101080000B48FFF729FB4FF48070009001208DF88A
:10109000040002208DF8050000208DF806000220D3
:1010A0008DF8070069460348FFF716FB1CBD0000DA
:1010B000000C02400018024000B585B04FF480706B
:1010C000009000208DF8040002208DF8050000201B
:1010D0008DF8070069461448FFF7FEFA082106203C
:1010E00003F056FD4FF48070039000208DF810003F
:1010F00008208DF8110001208DF8120003A8FFF7D9
:10110000F5F94FF4C06000F053FE17208DF8080089
:1011100001208DF809008DF80A008DF80B0002A857
:1011200000F00AFE05B000BD0018024070B506468A
:101130000D46144604F046FA46F0010004F014FA95
:1011400004F06CFA00B114E00DE0012C03D104F0BE
:10115000D3F904F051FA04F0E5F928706D1C601E13
:1011600084B204F0A7F9002CEFD104F045FA002076
:1011700070BD04F041FA0120FAE700001CB54FF4FD
:101180008070009001208DF8040002208DF8050089
:1011900000208DF8060002208DF8070069461148EE
:1011A000FFF79AFA40211048FFF70AFB0F48FFF7B4
:1011B00074F940210C48FFF705FB0C48FFF76DF967
:1011C0004FF48070009000208DF8040002208DF80C
:1011D000050000208DF8070069460248FFF77CFAF9
:1011E0001CBD000000180240000C0240FFFF0F0071
:1011F00010B5FFF715FFFFF7C1FFFFF75DFF10BD4B
:101200002DE9F04105460F460024002600BF00BF2F
:1012100000BF2BE004EB440005EB8000807800F079
:10122000010088B104EB440305EB83039A8804EBC7
:10123000440305EB8303996804EB440315F823008A
:10124000FFF774FF064610E004EB440305EB83034D
:101250001A7904EB440305EB8303996804EB440318
:1012600015F8230000F00BF80646641C0EB9BC42CA
:10127000D0D116B13046BDE8F0812046FBE72DE91C
:10128000F04104460D46174604F0B6F900260AE080
:1012900004F098F9204604F067F904F0BFF900B9AA
:1012A00004E0701C86B2B6F57A7FF1DB00BFB6F5BC
:1012B0007A7F00D112E007E0287804F055F904F0B5
:1012C000ADF900B10AE06D1C381EA7F10101CFB2E3
:1012D000F2D104F091F90020BDE8F08104F08CF91E
:1012E0000120F9E710B504462CB14FF40071054810
:1012F000FFF768FA04E04FF400710248FFF760FA64
:1013000010BD0000001402402DE9F04106460F46D2
:1013100014461D462B4622463946304600F08CFACC
:1013200004FB05F00249098800F0D9F8BDE8F08116
:101330004E00002001B502E00098401E0090009889
:101340000028F9D108BD2DE9F05F05460E4691460B
:101350009B4600240FFA89F70320A0EB49000FFAFF
:1013600080FA87E0BBF1000F40D0A0463BE006EBDF
:10137000080291B22A1990B200F0A6FC06EB08020E
:1013800091B22A1B90B200F09FFC321991B2A5EBEA
:10139000080290B200F098FC321B91B2A5EB080253
:1013A00090B200F091FCA6EB080291B22A1B90B219
:1013B00000F08AFCA6EB080291B22A1990B200F064
:1013C00083FC321B91B205EB080290B200F07CFC6A
:1013D000321991B205EB080290B200F075FC08F1E9
:1013E00001000FFA80F8B845C1DD2FE0F21991B283
:1013F0002A1990B200F068FCF21991B22A1B90B23F
:1014000000F062FC321991B2EA1B90B200F05CFC71
:10141000321B91B2EA1B90B200F056FCF21B91B263
:101420002A1B90B200F050FCF21B91B22A1990B224
:1014300000F04AFC321B91B2EA1990B200F044FC71
:10144000321991B2EA1990B200F03EFC601C04B26D
:10145000BAF1000F05DAA000801D50440FFA80FA9F
:1014600007E0E01B80000A3050440FFA80FA781E33
:1014700007B200BFBC427FF775AFBDE8F09F00B573
:1014800097B00121084603F0EDFA04200190039083
:10149000800607900020029004900590069004209A
:1014A00008900020099008200A9010200B9000203E
:1014B0000C900E900F9010904FF4805011900020DF
:1014C00012901390149001A81590169008A8FFF799
:1014D00071F801210420FFF753F817B000BD70B573
:1014E00004460D4600262C2000F00AFC00BF03E055
:1014F000284600F009FC761CA642F9D370BD000016
:101500001CB50121782003F09DFA00208DF806001B
:1015100001208DF8070002208DF8040003208DF8CB
:1015200005004FF48040009069468048FFF7D4F8EA
:101530000C220E217D48FFF717F94FF40040009070
:1015400069467A48FFF7C8F80C220F217748FFF761
:101550000BF90120009069467448FFF7BDF80C2292
:1015600000217248FFF700F90220009069466F4899
:10157000FFF7B2F80C2201216C48FFF7F5F8802044
:10158000009069466A48FFF7A7F80C2207216848CF
:10159000FFF7EAF84FF48070009069466448FFF75F
:1015A0009BF80C2208216248FFF7DEF84FF4007028
:1015B000009069465E48FFF78FF80C2209215C48CD
:1015C000FFF7D2F84FF48060009069465848FFF763
:1015D00083F80C220A215648FFF7C6F84FF4006042
:1015E000009069465248FFF777F80C220B215048CB
:1015F000FFF7BAF84FF48050009069464C48FFF767
:101600006BF80C2211464A48FFF7AEF84FF4005031
:10161000009069464648FFF75FF80C220D214448C8
:10162000FFF7A2F84FF48040009069464048FFF76A
:1016300053F80C220E213E48FFF796F84FF4004075
:10164000009069463A48FFF747F80C220F213848C6
:10165000FFF78AF84FF48070009069463348FFF72F
:101660003BF80C2208213148FFF77EF84FF4007058
:10167000009069462D48FFF72FF80C2209212B48CE
:10168000FFF772F84FF48060009069462748FFF733
:1016900023F80C220A212548FFF766F81020009055
:1016A00069462248FFF718F80C2204211F48FFF76B
:1016B0005BF82020009069461C48FFF70DF80C22CB
:1016C00005211A48FFF750F84FF4806000906946F2
:1016D0001848FFF701F80C220A211648FFF744F8D2
:1016E0000120009069461448FEF7F6FF0C22002105
:1016F0001148FFF739F801208DF8040000208DF81B
:10170000060001208DF8070002208DF805008002F8
:10171000009069460848FEF7DFFF4FF40070009024
:1017200069460548FEF7D8FF1CBD0000000C0240CA
:1017300000100240001802400014024010B5044698
:10174000072C00DD10BD29480470204604EBD07141
:101750004910A4EB410141B94FF4F07024490880CD
:1017600040F256302349088007E040F256302049C5
:1017700008804FF4F0701F490880362000F0C0FA4E
:10178000002141EA441000F0BFFA2A2000F0B8FA24
:10179000002000F0B9FA002000F0B6FA14490988D8
:1017A000491EC1F3072000F0AFFA11490978491E1C
:1017B000C8B200F0A9FA2B2000F0A2FA002000F035
:1017C000A3FA002000F0A0FA0A490988491EC1F3D3
:1017D000072000F099FA07490978491EC8B200F0BD
:1017E00093FA2C2000F08CFA00BFABE744000020F5
:1017F000400000204200002010B5FFF781FEFFF7F7
:101800003EFE00F041FA00F04AF808480078FFF781
:1018100095FF074803880748028800210846FFF71C
:1018200073FD0120FFF75EFD10BD000044000020A5
:1018300042000020400000202DE9F04104460D4602
:1018400016461F462A2000F05BFA201200F05CFAD0
:10185000E0B200F059FAA119491EC1F30F2000F0BF
:1018600053FAA119491EC8B200F04EFA2B2000F01D
:1018700047FA281200F048FAE8B200F045FAE919F0
:10188000491EC1F30F2000F03FFAE919491EC8B202
:1018900000F03AFA2C2000F033FABDE8F08110B5E0
:1018A0004FF4A040FEF7E7FDFF2000F029FAFF20EB
:1018B00000F02AFA982000F027FA062000F024FA17
:1018C0004FF4A040FEF7D7FDBA2000F019FA6020CF
:1018D00000F01AFA4FF4A040FEF7CDFDBC2000F056
:1018E0000FFA032000F010FA0E2000F00DFA61202C
:1018F00000F00AFAFF2000F007FA052000F004FAD1
:10190000052000F001FA1B2000F0FEF9102000F085
:10191000FBF9732000F0F8F9632000F0F5F9FF20DF
:1019200000F0F2F9FF2000F0EFF9052000F0ECF9EB
:10193000052000F0E9F9002000F0E6F9002000F0B1
:10194000E3F9D52000F0E0F9D02000F0DDF9012026
:1019500000F0DAF9002000F0D7F9402000F0D4F9C7
:101960004FF4A040FEF787FDBD2000F0C9F901202B
:1019700000F0CAF9232000F0C7F9452000F0C4F9AF
:10198000672000F0C1F9012000F0BEF9232000F02B
:10199000BBF9452000F0B8F9672000F0B5F94FF425
:1019A000A040FEF768FDBE2000F0AAF9012000F07B
:1019B000ABF92D2000F0A8F9CB2000F0A5F9A2206A
:1019C00000F0A2F9622000F09FF9F22000F09CF9EB
:1019D000E22000F099F9222000F096F9222000F090
:1019E00093F94FF4A040FEF746FDC72000F088F9B8
:1019F000632000F089F94FF4A040FEF73CFDED2094
:101A000000F07EF97F2000F07FF90F2000F07CF9D4
:101A1000002000F079F94FF4A040FEF72CFDC02023
:101A200000F06EF9032000F06FF90B2000F06CF964
:101A3000002000F069F94FF4A040FEF71CFDFC20E7
:101A400000F05EF9082000F05FF94FF4A040FEF7C7
:101A500012FDDF2000F054F9002000F055F90020BD
:101A600000F052F9002000F04FF9002000F04CF98E
:101A7000002000F049F9202000F046F94FF4A04082
:101A8000FEF7F9FCF32000F03BF9742000F03CF97C
:101A90004FF4A040FEF7EFFCF92000F031F90020F0
:101AA00000F032F9FD2000F02FF9802000F02CF931
:101AB000802000F029F9C02000F026F94FF4A04062
:101AC000FEF7D9FCB42000F01BF9022000F01CF94D
:101AD000022000F019F9022000F016F94FF4A0409E
:101AE000FEF7C9FCF72000F00BF9812000F00CF99B
:101AF0004FF4A040FEF7BFFCB12000F001F9002038
:101B000000F002F9132000F0FFF8132000F0FCF8B9
:101B10004FF4A040FEF7AFFCF22000F0F1F8C02037
:101B200000F0F2F8022000F0EFF8402000F0ECF8AE
:101B3000282000F0E9F84FF4A040FEF79CFCC120FB
:101B400000F0DEF8172000F0DFF8752000F0DCF878
:101B5000752000F0D9F8202000F0D6F84FF4A0400E
:101B6000FEF789FCE02000F0CBF8002000F0CCF874
:101B7000052000F0C9F8082000F0C6F80C2000F09D
:101B8000C3F80F2000F0C0F8152000F0BDF80920C0
:101B900000F0BAF8072000F0B7F8012000F0B4F820
:101BA000062000F0B1F8092000F0AEF8162000F091
:101BB000ABF8142000F0A8F83E2000F0A5F83E2075
:101BC00000F0A2F8002000F09FF84FF4A040FEF7CC
:101BD00052FCE12000F094F8002000F095F8092074
:101BE00000F092F8122000F08FF8122000F08CF82C
:101BF000132000F089F81C2000F086F8072000F080
:101C000083F8082000F080F8052000F07DF8082017
:101C100000F07AF8032000F077F8022000F074F862
:101C2000042000F071F81E2000F06EF81B2000F078
:101C30006BF8002000F068F84FF4A040FEF71BFCA2
:101C40003A2000F05DF8552000F05EF84FF4A04017
:101C5000FEF711FC352000F053F8002000F054F896
:101C60004FF4A040FEF707FC112000F049F84FF4B4
:101C7000A040FEF700FC292000F042F84FF4A040FD
:101C8000FEF7F9FB10BD000010B54FF400610848E5
:101C9000FEF796FD40F6FF20FFF74CFB4FF4006186
:101CA0000348FEF78FFD40F6FF20FFF743FB10BD12
:101CB0000014024070B504460D4601231A46294619
:101CC0002046FFF7B9FD70BD70B505460C460948C2
:101CD000008885420CDA08480088844208DA2146E8
:101CE0002846FFF7E7FF054801880120FFF7F7FBCB
:101CF00070BD000040000020420000204C00002089
:101D00004FF0D041088070474FF0D0414880704775
:101D100001490880704700004E000020024A1080F0
:101D2000024A1180704700004C0000204E00002045
:101D300000BFFEE77047000070B5002100230F22AE
:101D4000C4781CB3174C246804F4E064C4F5E06460
:101D5000C4F30721C1F10404E3B20A4144789C4072
:101D6000E1B28478144021430C07210E0E4C057813
:101D70006155047804F01F050124AC4005786D110D
:101D8000AD0005F1E025C5F8004109E0047804F054
:101D90001F050124AC40054D0678761145F8264014
:101DA00070BD00000CED00E000E400E080E100E028
:101DB00002490143024A1160704700000000FA0521
:101DC0000CED00E07047000010B50348006810B14A
:101DD00001480068804710BD6400002070B50446CB
:101DE00000F0AEF8002041490870414908704149AF
:101DF00008704149086041490860414908704149FB
:101E000008704149087041490860414908604149EA
:101E100008604148006858B14048056845B13E48EF
:101E2000066803E0761E002028602D1D002EF9D1E3
:101E300000203B4908603B4908603B4908603B493A
:101E400008603B4908603B4908603B4908603B49E2
:101E5000087001F099FD01F0D3FD204601F090FAE1
:101E6000208800B170BD204601F0F0FA208800B152
:101E7000F8E7204601F0F6FA208800B1F2E72046A4
:101E800001F0C8FB208800B1ECE7204601F0ACFD72
:101E9000208800B1E6E7204601F072FE208800B1FC
:101EA000E0E7204602F018F9208800B1DAE7204682
:101EB00001F094FA208800B1D4E7204602F040FCFB
:101EC000208800B1CEE7204601F0DAFF208800B17B
:101ED000C8E7204602F098FC208800B1C2E701F074
:101EE0007BF9FFF76FFF00BFBCE700007800002020
:101EF00079000020AC00002014010020180100200F
:101F0000920000209300002094000020A0000020F8
:101F1000A4000020A800002040AB00083CAB000853
:101F2000580000205C0000206000002064000020B9
:101F3000680000206C00002070000020DA00002003
:101F4000064800680649096800EB810005490860F9
:101F50000846006820F00700086070473CAB0008A6
:101F600040AB00081C01002010B500242D4800786B
:101F7000012800D010BD00BFFEF726F9044600BFBF
:101F80002948007828B900BF2046FEF721F900BF94
:101F9000F0E725480078401E23490870084600787D
:101FA000002805DD00BF2046FEF712F900BFE1E77B
:101FB0001E480078002805DD00BF2046FEF708F91E
:101FC00000BFD7E701F0CCFC19490870084600783B
:101FD00000EB4000174951F82000174908600846F7
:101FE000006816490968884205D100BF2046FEF7FF
:101FF000EFF800BFBEE710480068D0F88C00401C26
:102000000D490968C1F88C000D480068401C0C4956
:102010000860FEF7F4F900BF2046FEF7D9F800BFCC
:1020200000BFA7E77900002078000020AC00002066
:1020300093000020581200201801002014010020F5
:10204000D00000202DE9F04104460E461546002739
:1020500024B945F6C3502880BDE8F08100BF00BF19
:10206000FEF7B2F8074600BF00BF10482060666068
:1020700000202062606284F82800E06204F1080019
:1020800001F079FB204601F055FA09480088401C10
:102090000749088000BF00BF3846FEF799F800BF27
:1020A00000BF0020288000BFD6E700004D555458DF
:1020B000900000202DE9F04788B005468946174674
:1020C0001C46109E4FF0000A2DB945F6C3503080D3
:1020D00008B0BDE8F0871FB1B7F5004F02D100E0AE
:1020E00000BF03E045F625603080F1E700BF62499C
:1020F0002868884203D045F6C4503080E8E70CB128
:102100000020206000BF00BFFEF75EF8824600BFDF
:1021100000BF95F82800B8B95848006868620120E7
:1021200085F828000CB1E86A206029465348006809
:1021300001F018FA00BF00BF5046FEF749F800BF93
:1021400000BF00203080C3E74C49686A09688842B4
:1021500012D195F82800401C85F828000CB1E86AD7
:10216000206000BF00BF5046FEF732F800BF00BF3E
:1021700045F282703080ABE707F4004050B100BFF9
:1021800000BF5046FEF724F800BF00BF46F2B01073
:1021900030809DE73A48007800280ADD00BF00BF84
:1021A0005046FEF715F800BF00BF46F6635030807A
:1021B0008EE7D5F8248098F837003049096891F8FF
:1021C0003710884206DD2D48006890F837104046E9
:1021D00001F0D2FE4B4604222946684601F026FA59
:1021E00000BF00BF5046FDF7F3FF00BF00BF00F087
:1021F0000FF900BF00BFFDF7E7FF824600BF00BF39
:102200001E48006890F8350030B101280CD0022833
:102210001AD0032821D110E01CB118480068806C46
:102220002060002030801CE01CB114480068806CE5
:10223000206046F2A910308013E00CB1002020602D
:1022400047F2D92030800CE01CB10C480068806C4B
:10225000206045F6C250308003E046F62E603080A4
:1022600000BF00BF00BF00BF5046FDF7B1FF00BF79
:1022700000BF00BF2CE700004D555458140100204A
:10228000AC0000202DE9F84F0446894615464FF072
:10229000000B24B945F6C3502880BDE8F88FB9F18A
:1022A000000F03D0B9F5004F02D100E000BF03E0FA
:1022B00045F625602880F0E700BF52492068884233
:1022C00003D045F6C4502880E7E700BF00BFFDF704
:1022D0007BFF834600BF00BF4B49606A09688842A4
:1022E0000AD000BF00BF5846FDF772FF00BF00BF15
:1022F00045F281702880D0E7FEF7B6F88046283492
:10230000C4F804802078401E207014F828090028A2
:102310000ADD00BF00BF5846FDF75AFF00BF00BFEF
:1023200045F283702880B8E721463748006801F0FD
:1023300063F904F1080ABAF8080068B9002060627D
:1023400084F8280000BF00BF5846FDF741FF00BFDA
:1023500000BF00202880A0E72B48006890F83700D5
:102360002949096891F83810884228D02648006821
:1023700001F02CF906462448006890F83810B14264
:1023800004DA2148006890F8380000E0304606463C
:102390001D48006890F83700B04210DA1A4800680B
:1023A00001F094FB1848006880F83760304601F06F
:1023B000F7FA1548006801F06BFB14480670DAF86C
:1023C000000087686762012084F8280021463846AB
:1023D00001F0C8F800231A4639462046CDF800809F
:1023E00001F03CFA00BF00BF5846FDF7F1FE00BF08
:1023F00000BF09F4004008B900F00AF80020288066
:1024000000BF4AE74D5554581401002092000020A7
:1024100010B5002420480078002800DD10BD1F48BA
:102420000078002800DDF9E700BFFDF7CDFE044687
:1024300000BF01F095FA1A4908700846007800EBD1
:102440004000184951F82000174908600846006804
:1024500016490968884205D100BF2046FDF7B8FE3D
:1024600000BFDBE710480068D0F88C00401C0E4924
:102470000968C1F88C000E480068401C0C490860CF
:10248000FDF7B8FF00BF2046FDF7A2FE00BFBFF377
:102490006F8F00BFC2E7000078000020AC00002072
:1024A0009300002058120020180100201401002081
:1024B000D000002070B5044600251448007801289B
:1024C00003D045F68960208070BD11480078FA2855
:1024D00003DB45F209202080F6E700BF00BFFDF7CF
:1024E00073FE054600BF00BF09480078401C08493C
:1024F000087001F019FB00BF00BF2846FDF768FE19
:1025000000BF00BF0020208000BFDDE77900002071
:10251000AC00002070B5044600251C480078012856
:1025200003D045F68960208070BD1948007818B93D
:1025300046F664502080F7E700BF00BFFDF744FE79
:10254000054600BF00BF12480078401E10490870C1
:102550000846007800280ADD00BF00BF2846FDF7C6
:1025600037FE00BF00BF46F663502080DCE701F075
:10257000E9FA00BF00BF2846FDF72AFE00BF00BFF2
:10258000FFF746FF0020208000BFCDE77900002044
:10259000AC00002010B5044612480078E8B901F0FC
:1025A000DFF91149087008460078104908700E4894
:1025B000007800EB40000E4951F820000D490860FA
:1025C000084600680C490860012006490870FDF7BC
:1025D000D9FE43F69920208002E045F68A602080EB
:1025E00010BD000079000020930000209200002020
:1025F0005812002018010020140100202DE9F0419C
:1026000007464FF0000800BF00BFFDF7DDFD804624
:1026100000BF00BF00203B4908803B4908603B49A0
:1026200008603B4908603B4908603B49088100BF9E
:1026300000BF4046FDF7CCFD00BF00BF00BF00BF9C
:10264000FDF7C2FD804600BF00BF3448046800BFEC
:1026500000BF4046FDF7BCFD00BF00BF21E000BF4A
:1026600000BFFDF7B1FD804600BF00BF00207434FD
:10267000E06320602063A061A082E0826062A062CB
:10268000FDF7F2FE2062743C04F160060020B08188
:10269000D4F8B84000BF00BF4046FDF799FD00BF29
:1026A00000BF002CDBD100BF00BFFDF78DFD8046D1
:1026B00000BF00BF1A48056800BF00BF4046FDF7D5
:1026C00087FD00BF00BF12E000BF00BFFDF77CFD2B
:1026D000804600BF00BF05F120060020B081AD6933
:1026E00000BF00BF4046FDF773FD00BF00BF002DD7
:1026F000EAD101F01BFF02F02DF900203880BDE87F
:10270000F0810000BA000020CC000020E000002092
:1027100004010020A40000204C120020D40000205E
:102720009800002010B50348006810B10148006807
:10273000804710BD680000202DE9FF4F87B0044698
:102740009046DDE91BA5DDE91496179F0020039054
:102750002CB947F2AD1028800BB0BDE8F08FB8F16E
:10276000000F03D147F24F102880F5E71EB946F657
:102770002F602880F0E750480068874203D246F671
:1027800030602880E8E71698B84203D346F63160F7
:102790002880E1E7B9F1400F03D346F27320288087
:1027A000DAE7B9F13F0F06D14448844203D046F23C
:1027B00073202880D0E7204601F09EFC002028806E
:1027C0000AF0010090B10AF0020078B105960020ED
:1027D000069008E00021059801600598001D05900D
:1027E0000698401C06900698B842F3D3169806EB5C
:1027F00080000490CDE9007A32464046049B0A9955
:1028000000F0AEFA0590C4F828800A98E0620898B3
:10281000206284F8379084F83890059820600498F6
:10282000A0601A98606066622764A4F844A04FF024
:10283000000B08E0002104F1780040F82B100BF1A8
:10284000010000F0FF0BBBF1000FF3D004F16000BA
:10285000189900F067FE204600F036F800BF00BF70
:10286000FDF7B2FC039000BF00BF94F8370001F001
:1028700097F8204601F00CF9204601F0F3FB1048D0
:102880000088401C0E4908800E480078012807D0B7
:1028900000BF00BF0398FDF79BFC00BF00BF5BE7D4
:1028A00000BF00BF0398FDF793FC00BF00BFFFF718
:1028B000AFFD00BF50E700006CAB00088C1100209A
:1028C000D80000207900002010B5044603480068B5
:1028D00018B1204601490968884710BD58000020FA
:1028E0002DE9F04104460E464FF000085B48844253
:1028F00004D147F24C103080BDE8F0817CB900BFB4
:1029000000BFFDF761FC804600BF00BF544804686B
:1029100000BF00BF4046FDF75BFC00BF00BF00BF2B
:1029200000BFFDF751FC804600BF00BF94F83600A1
:10293000082860D2DFE800F004090E10080A0F1121
:10294000204601F0C3F861E060E000BF204601F0DE
:10295000C1FD5BE000BF00BF00BF94F83400082851
:102960003BD2DFE800F0040705080E090A0600BFA5
:1029700000BF33E000BF00BF00BF204600F033FFC0
:102980002CE0206BC068456A15F8377F204600F0C0
:102990002AFF28786978373D884212D095F83700A9
:1029A00094F8371088420CD1284600F00FFE0746F5
:1029B00095F83800B84202DA95F8380000E0384659
:1029C0000746002084F8340095F83700B84203D059
:1029D0003946284601F0D0FA00E000BF00BF94F865
:1029E0003600032803D094F83600072802D1204689
:1029F00001F070FD0AE000BF00BF4046FDF7E8FBB4
:102A000000BF00BF46F62D60308075E700BFE06B69
:102A100010B1204600F0AAFD04F1600000F060FD56
:102A2000204600F021F8204601F034FB0D480088D4
:102A3000401E0C490880204601F05EFBFF2084F810
:102A4000360000BF00BF4046FDF7C2FB00BF00BF1D
:102A500000203080FFF7DCFC00BF4DE78C11002028
:102A600014010020D800002010B504460348006877
:102A700018B1204601490968884710BD5C00002054
:102A800010B504460348006818B12046014909689A
:102A9000884710BD600000202DE9F04780460E46B3
:102AA00014461D464FF000091EB1B6F5004F02D185
:102AB00000E000BF05E045F6256028800020BDE865
:102AC000F08700BF0CB10020206000BF00BFFDF701
:102AD0007BFB814600BF00BF5F480068C06CA8B3A5
:102AE0005D480068C06C401E5B490968C8645A486C
:102AF0000068C76C1CB158480068806C2060FDF706
:102B0000B3FC55490968896C401A53490968C1F8F2
:102B1000A00051480068D0F8A4004F490968D1F8D6
:102B2000A010884207D24C480068D0F8A0004A495B
:102B30000968C1F8A40000BF00BF4846FDF748FB84
:102B400000BF00BF002028803846B8E7FFE706F442
:102B5000004058B100BF00BF4846FDF739FB00BF39
:102B600000BF46F2B01028800020A8E73B4800785C
:102B700000280BDD00BF00BF4846FDF729FB00BF62
:102B800000BF46F663502880002098E7434607229E
:102B90000021084600F04AFD00BF00BF4846FDF78F
:102BA00017FB00BF00BFFFF733FC00BF00BFFDF7FE
:102BB0000BFB814600BF00BF2748006890F8350036
:102BC00020B1012826D0032834D12CE0FCB12248C2
:102BD0000068806C2060FDF747FC1F490968896C1C
:102BE000401A1D490968C1F8A0001B480068D0F8C8
:102BF000A40019490968D1F8A010884207D21648E4
:102C00000068D0F8A00014490968C1F8A4000020A9
:102C1000288013E01CB110480068806C206046F2E8
:102C2000A91028800AE00CB10020206047F2D920CA
:102C3000288003E046F62E60288000BF00BF0648CB
:102C40000068C76C00BF00BF4846FDF7C1FA00BF6F
:102C500000BF384633E7000014010020AC0000201C
:102C60002DE9F04106460D4614461DB1B5F5004F5D
:102C700002D100E000BF05E045F62560208000207D
:102C8000BDE8F08100BFFDF7EFFB804623464246DA
:102C90002946304601F09AFA07463846F0E7000028
:102CA0002DE9F04704460E4617461D464FF0000A30
:102CB00026B946F2D5202880BDE8F0871FB946F234
:102CC000D5202880F8E700BF00BFFDF77DFA8246D7
:102CD00000BF00BF0CB921480468206868B900BF74
:102CE00000BF5046FDF774FA00BF00BF00203060FF
:102CF000386047F252102880DEE794F8440000F074
:102D0000010068B900BF00BF5046FDF761FA00BF7F
:102D100000BF00203060386047F254102880CBE7B5
:102D200000BF00BF5046FDF753FA00BF00BF4FF091
:102D30000008D4F8249003E009F1040908F101081F
:102D4000D9F800000028F7D0C6F80080206CA0EB6E
:102D5000080038600020288000BFADE71401002083
:102D6000F0B50446DDE9055602EB850020F00700CA
:102D70004FF0807C071F3846C7F800C0071F384651
:102D80003C60DFF834C2071F3846C7F800C04FF078
:102D9000123C071F3846C7F800C04FF0033C071F1E
:102DA0003846C7F800C04FF0023C071F3846C7F846
:102DB00000C0071F38463B60071F384639604FF098
:102DC000113C071F3846C7F800C04FF0103C071FE2
:102DD0003846C7F800C04FF0093C071F3846C7F80F
:102DE00000C04FF0083C071F3846C7F800C04FF03E
:102DF000073C071F3846C7F800C04FF0063C071FC6
:102E00003846C7F800C04FF0053C071F3846C7F8E2
:102E100000C04FF0043C071F3846C7F800C006F05A
:102E20000407002F7ED04FF0007C071F3846C7F8FC
:102E300000C0DFF888C1071F3846C7F800C0DFF8B8
:102E400080C1071F3846C7F800C0DFF878C1071FE8
:102E50003846C7F800C0DFF870C1071F3846C7F80A
:102E600000C0DFF868C1071F3846C7F800C0DFF8A8
:102E700060C1071F3846C7F800C0DFF858C1071FF8
:102E80003846C7F800C0DFF850C1071F3846C7F8FA
:102E900000C0DFF848C1071F3846C7F800C0DFF898
:102EA00040C1071F3846C7F800C0DFF838C1071F08
:102EB0003846C7F800C0DFF830C1071F3846C7F8EA
:102EC00000C0DFF828C1071F3846C7F800C0DFF888
:102ED00020C1071F3846C7F800C0DFF818C1071F18
:102EE0003846C7F800C04FF0834C071F3846C7F874
:102EF00000C0DFF804C1071F3846C7F800C0DFF87C
:102F0000FCC0071F3846C7F800C0DFF8F4C0071F31
:102F10003846C7F800C0DFF8ECC0071F3846C7F8CE
:102F200000C000E047E0DFF8E0C0071F3846C7F800
:102F300000C0DFF8D8C0071F3846C7F800C0DFF868
:102F4000D0C0071F3846C7F800C04FF0824C071F9B
:102F50003846C7F800C0DFF8BCC0071F3846C7F8BE
:102F600000C0DFF8B4C0071F3846C7F800C0DFF85C
:102F7000ACC0071F3846C7F800C04FF0814C071F90
:102F80003846C7F800C0DFF898C0071F3846C7F8B2
:102F900000C04FF0804C071F3846C7F800C04FF004
:102FA0007E5C071F3846C7F800C04FF0000C071FB3
:102FB0003846C7F800C0F0BDB54100080000F84130
:102FC0000000F0410000E8410000E0410000D8416D
:102FD0000000D0410000C8410000C0410000B841DD
:102FE0000000B0410000A8410000A041000098414D
:102FF00000009041000088410000704100006041E5
:1030000000005041000040410000304100002041DC
:10301000000010410000E0400000C0400000A0405F
:103020000000404010B52948006890F8440000F0C6
:10303000040020B1254909680868FDF78DF9244886
:10304000006890F8440000F0040020B120490968AD
:103050000868FDF78EF91F48006810B11D48006828
:103060008047FDF701FA04461848006818490968C6
:10307000884215D015480068D0F89400201A1349EA
:103080000968C1F8900011480068D0F898000F490D
:103090000968D1F8901008440C490968C1F89800F3
:1030A0000B480068C0F8944008480068D0F8B000A9
:1030B00009490968884205D2074800680349096838
:1030C000C1F8B00000200449086010BD14010020C0
:1030D000180100206C000020A80000202DE9F0411C
:1030E00005460E461446002723480078002804DDD4
:1030F00046F663502080BDE8F08136B1022E05D03F
:10310000042E0AD0082E09D101E000BF00BF1DB96E
:1031100047F27E202080EEE704E003E045F62560DC
:103120002080E8E700BF00BF00BFFDF74DF807466D
:1031300000BF00BF2346324629461048006801F010
:103140006BF9208838B100BF00BF3846FDF740F862
:1031500000BF00BFCFE70948006800F0B7FC00BF20
:1031600000BF3846FDF734F800BF00BFFFF750F945
:103170000020208000BFBEE7AC000020140100202A
:1031800008B500F01FF86A4600210A48FFF768FDFD
:1031900009480068401E084908600846006838B9B8
:1031A0000648006808606A4600210548FFF758FD98
:1031B00008BD000018160020100100200C0100209E
:1031C0000817002010B50348006810B101480068D6
:1031D000804710BD70000020244A2549254A264A10
:1031E0002649274A2748284A284A294A294A2A4854
:1031F0002A482B4A2B482C4A2C482D4A2D482E4829
:103200002E482F482F4A304A304A3148314A324AF4
:103210003248334833483448344835483548364ACC
:10322000364A374A374A384838483948394A3A4A94
:103230003A4A3B483B483C483C493D483D4A3E4A67
:103240003E4A3F4A3F4A404A404A4148414A424A30
:1032500042484348434A444A4448454A454A464806
:10326000464800BF00BF00BF70470000A4AB000885
:103270000CAD0008A5AB0008A6AB0008A8AB000881
:10328000ACAB0008B0AB0008ADAB0008D8AB000891
:10329000D9AB0008DAAB0008DCAB0008DEAB0008F5
:1032A000E2AB0008E4AB000804AC000806AC000880
:1032B00008AC00080AAC00080CAC00080EAC000812
:1032C00010AC000840AC000841AC000842AC00085B
:1032D00044AC000846AC000847AC000848AC000805
:1032E0004AAC00084CAC00084EAC000850AC0008DA
:1032F00052AC000854AC000884AC000885AC00084F
:1033000086AC000887AC000888AC00088AAC0008CE
:103310008CAC0008B4AC0008B5AC0008B6AC000832
:10332000B7AC0008B8AC0008BAAC0008BCAC0008E8
:10333000C0AC0008C1AC0008C2AC0008C3AC0008B7
:10334000C4AC0008C5AC0008C6AC0008C7AC000897
:10335000C8AC0008CAAC0008CBAC0008CCAC000874
:10336000CEAC0008D0AC0008D1AC0008D4AC00084A
:1033700004AD000805AD000806AD000808AD000862
:103380000021034A1160034A118001807047000048
:103390007C00002080000020002419E000BF00BF56
:1033A000FCF712FF044600BF00BF0A480068401C3B
:1033B0000849086008480068401C0749086000BFC9
:1033C00000BF2046FCF704FF00BF00BFFEF7FCFC77
:1033D000E4E7000074000020BC00002010B58AB0B3
:1033E000044600200E4908600B2000210591CDE91C
:1033F0000704069108460B4909680B4A12680B4BF3
:103400001B68CDE90132CDE903103F200023084AB3
:1034100008A100900C48FFF78FF90AB010BD00001A
:103420007400002018AB000814AB000810AB0008B3
:103430009933000875432F4F532D4949492049645A
:103440006C65205461736B008C1100200021034ACD
:103450001160034A11800180704700008400002041
:103460008800002070B501461A4D2D681DB945F23F
:103470001E750D8070BD184D2D881DB945F21D7546
:103480000D80F7E7134D28682A681032124D2D88F9
:103490006D1EACB2002308E0026000254560058186
:1034A000C560103010325D1CABB2A342F4DB0025C6
:1034B000056045600581C560064D2D68074E356085
:1034C000054D2D88B5800025F58035810D8000BF24
:1034D000D0E7000050AB000848AB00084C120020B9
:1034E00010B5014648894B89002B17DD0A680C4B43
:1034F0001B6813600A4C4B6823602346DB884C89A9
:103500001B1B074CE38023469B884C892344044CB7
:10351000A38000234B818B810B604B6010BD0000AA
:103520004C120020018100224281828102604260AF
:103530007047000009A1C161002141610849096883
:1035400011B90021816105E00549096881610449DB
:1035500009684861024908607047000020000000C7
:103560008C000020C26B0A62C16370472DE9F843EA
:103570000546EC6B26E0D4F82090FCF775FF064674
:10358000E6622146284600F037F804F10808B8F84A
:10359000080020B9002084F82800606211E0D8F803
:1035A000000087686562012084F8280021463846BB
:1035B000FFF7D8FF00231A4639462046009600F050
:1035C0004DF94C46002CD6D1BDE8F88330B5044601
:1035D0003F2004F13C010BE00D68AB682BB19D6806
:1035E00095F83720824200DA10460D6805F1200177
:1035F0000D68002DF0D130BD024602F13C0002E022
:10360000036803F1200003688B42F9D103681B6A49
:10361000036070470021034A1160034A1180018052
:10362000704700008C000020900000202DE9F04140
:1036300005460C4616461F461548006880F834605B
:1036400000201349096881F83500394610480068A0
:1036500000F07CFC6CB104F10808EC600122294602
:103660000B48006800F016F82946404600F088F83C
:1036700007E0002006490968A1F8460004490968E6
:10368000086303480168204600F018F8BDE8F0819F
:103690001401002010B5A0F84620016300230AE0C1
:1036A00000244C600C600C614C610C83CC61886020
:1036B00020315C1CA3B29342F2DB10BD30B548B19F
:1036C0004568C1F8BC5000F10804226893681D6A7F
:1036D000C56113E091F83450022D02D0072D08D1B6
:1036E00003E007A5C1F8BC5007E007A5C1F8BC502E
:1036F00003E008A5C1F8BC5000BF00BF30BD00000A
:103700005461736B205100005461736B2053656DDD
:10371000000000002000000030B507A5C1F8BC5033
:1037200000F1080422681AB193681D6AC56101E0BE
:1037300001A5C56130BD0000200000002DE9F04169
:103740000446256BB4F8467011E0D5F80C8008F1FA
:1037500008063089012807D92946304600F05DF86F
:103760002946304600F00CF82035781E87B2002F2D
:10377000EBD1BDE8F081002101604160018170471B
:10378000F0B58E6896F8375007893FB90127078151
:1037900000274F600F600160416023E007897F1CB4
:1037A0000781026806E0946894F83770AF4200DD44
:1037B00002E05268002AF6D100BF32B900274F60FC
:1037C00043680B60596041600CE017682FB91160C5
:1037D00000270F604A60016004E013680B604A60D4
:1037E00059601160F0BD2DE9F0410446256BB4F835
:1037F00046600AE0D5F80C8008F1080729463846EB
:1038000000F00BF82035701E86B2002EF2DC00208E
:10381000A4F846002063BDE8F08110B50489012CAE
:1038200003D100240460446011E00C6824B94A68A4
:103830000024146002600AE04C6824B90B6800247C
:103840005C60436003E00B684A685A601360048957
:10385000641E048100244C600C6010BD2DE9F84307
:1038600006460C4617469846089D94F836000828E8
:103870005BD2DFE800F0040508090607323300BF19
:1038800000BF00BF52E000BF94F83400032807D106
:1038900043463A4621463046009500F04AF803E098
:1038A000A765A4F85C80A56436B12046FFF79BFFAE
:1038B00021463046FFF730FF94F83600032802D146
:1038C000204600F007FE204600F0ACF8002034341B
:1038D000A070607004F8340928E000BF94F8340048
:1038E000032807D143463A4621463046009500F06A
:1038F00020F803E0A765A4F85C80A56436B12046F3
:10390000FFF771FF21463046FFF706FF94F83600B7
:10391000072802D1204600F0DDFD04203434A070D9
:103920000020607004F8340900E000BF00BFBDE86B
:10393000F883F0B50446059E086BB1F846500AE0DE
:10394000C768A74204D1046142610383C66104E0F1
:1039500020306F1EBDB2002DF2DC00BFF0BD0000B4
:1039600070B50025074C03E005F12000C5B2241D09
:1039700020680028F8D02068FCF731FC2844C5B244
:10398000284670BD50000020002004E00021034ABA
:1039900042F82010401C0228F8D370475000002045
:1039A00030B5420900F01F030121C3F11F04A140FB
:1039B000034C54F822400C43014D45F8224030BDE1
:1039C0005000002030B5420900F01F030121C3F16F
:1039D0001F04A140034C54F822408C43014D45F88C
:1039E000224030BD500000200021034A1160034AEC
:1039F0001180018070470000980000209C0000208A
:103A000000210AE001EB4102054B03EB820000229A
:103A10000281026042604A1CD1B24029F2D3704751
:103A20005812002010B5044694F83700FFF7B8FF8D
:103A300094F8370005490978884203D1204600F000
:103A400027F802E0204600F003F810BD92000020A5
:103A500010B590F8373003EB43030C4C04EB8301B3
:103A60000B893BB901230B810023C360036108600C
:103A7000486009E00B895B1C0B810B68C360002365
:103A800003610A681061086010BD00005812002030
:103A900010B590F8373003EB43030B4C04EB830174
:103AA0000B893BB901230B810023C36003610860CC
:103AB000486008E00B895B1C0B810023C3604A68E7
:103AC0000261D060486010BD581200202DE9F0411D
:103AD000054695F8370000EB4000124901EB8004E1
:103AE0002F69EE6887B946B90020208120606060A8
:103AF00095F83700FFF766FF0EE02089401E208111
:103B000000203061266007E02089401E2081FE6091
:103B10000EB9676000E0376100202861E860BDE809
:103B2000F08100005812002010B5044800780128E8
:103B300003D1FCF799FC0249086010BDAC000020DD
:103B4000A000002010B50A48007880B9FCF78CFC72
:103B500008490968441A08480068A04201D206488A
:103B6000046006480068A04201D20448046010BD09
:103B7000AC000020A0000020A4000020A80000202D
:103B80000021034A1160034A118001807047000040
:103B9000B0000020B400002086B00020009006E0B5
:103BA000A8490968480001AA0021FFF797FAA6482A
:103BB00000780128F4D101A8FEF720FD0027A348D2
:103BC0000068A0490968884205D9A04800689D4955
:103BD0000968B0FBF1F727B99C4800680A21B0FBDF
:103BE000F1F72EE1FCF740FC804600BF00BFFCF778
:103BF000EBFA009000BF00BF954800689549086047
:103C000000209349086000BF00BF0098FCF7E0FA6D
:103C100000BF00BF904800688E490968884248D9B3
:103C20008D4800688D49884205D242F21070039099
:103C30000120029023E0884800688949884205D223
:103C40004FF47A7003900A20029018E082480068CE
:103C50008449884203D26420039002900FE07E489A
:103C600000688149884205D20A2003904FF47A7097
:103C7000029004E00120039042F210700290764816
:103C800001680298B1FBF0FA724903980968484349
:103C9000B0FBFAF042F21071081A744908807448B7
:103CA00000880988884208DA7048008870490880CE
:103CB00003E042F210706D490880FEF733FD0025E5
:103CC00000BF00BFFCF780FA009000BF00BF69484A
:103CD000046800BF00BF0098FCF77AFA00BF00BF7D
:103CE00026E000BF00BFFCF76FFA009000BF00BFE6
:103CF00054F8980F6060002044F8980900BF00BF96
:103D00000098FCF765FA00BF00BFD4F89C0005449A
:103D100000BF00BFFCF758FA009000BF00BFD4F806
:103D2000B84000BF00BF0098FCF752FA00BF00BFC8
:103D3000002CD6D145B34948854205D242F21070D5
:103D400005904FF0010B1BE04548854205D24FF42A
:103D50007A7005904FF00A0B12E04248854203D278
:103D60006420059083460BE03F48854204D20A2038
:103D700005904FF47A7B03E00120059042F2107B1E
:103D8000B5FBFBF0049003E00020059001200490B7
:103D900000BF00BFFCF718FA009000BF00BF354815
:103DA000046800BF00BF0098FCF712FA00BF00BF14
:103DB0002BE0D4F89C00059948430499B0FBF1F03E
:103DC00086B242F21070864200D90646A4F8886096
:103DD000B4F88A00B04201DAA4F88A6001AB04F1B9
:103DE000A802111D2046FEF75BFF00BF00BFFCF7D5
:103DF000EBF9009000BF00BFD4F8B84000BF00BF8F
:103E00000098FCF7E5F900BF00BF002CD1D11A489B
:103E10000078012805D100201749087001A8FEF795
:103E2000EDFBFCF721FBA0EB0809144800684845AE
:103E300002D21248C0F8009001AA00213846FFF7CC
:103E40004DF9CFE658AB0008C800002070AB000861
:103E5000BC000020C4000020C0000020801A060022
:103E600000093D00005A62020084D717B800002004
:103E7000BA000020D4000020B6000020CC000020B2
:103E800010B58AB0044600201F4908601F49086029
:103E90001F4908601F4908701F4908701F480068C3
:103EA00020B946F62B6020800AB010BD1C4800687F
:103EB0001C490968884203D246F62C602080F3E74B
:103EC000194800783F2803D346F62A602080EBE7A4
:103ED000032000210591CDE9070406910846104909
:103EE0000968124A12680D4B1B68CDE90132CDE911
:103EF00003100D48007800230D4A0EA100901248CF
:103F0000FEF71AFC00BFCFE7BC000020C400002071
:103F1000C0000020C8000020B60000205CAB0008F4
:103F200064AB00086CAB000854AB000860AB000841
:103F3000993B000875432F4F532D4949492053742D
:103F40006174205461736B005815002070B50446ED
:103F50000D4645B12A462146064800F019FA0320CD
:103F600084F8360002E0022084F836002046FFF78D
:103F7000ADFD70BDEC0000202DE9F04104460D467A
:103F800000BF002694F8377094F8360008285FD2F6
:103F9000DFE800F004191E1F1A1B20212046FFF73E
:103FA00095FD84F8375094F83700FFF7F9FC2C485A
:103FB0000068844203D12046FFF74AFD02E0204614
:103FC000FFF766FD46E000BF00BF84F8375041E0D0
:103FD00000BF00BF00BF84F8375094F834000828B1
:103FE00031D2DFE800F0300431050B06073200BFA4
:103FF00000BF00BF2046FFF7A1FB27E02046FFF7E8
:104000009DFB206BC068466AAF4205DD96F837001D
:10401000A84217DC002615E096F83700B84211D107
:104020003046FFF7D3FA054696F83800A84202DA80
:1040300096F8380000E02846054696F83700A84272
:1040400000D1002602E000BF00BF00BF00BF01E0BA
:10405000BDE8F08100BF3446002C92D100BFF7E7E5
:10406000140100200021C0F8B4100949096819B9E9
:104070000021C0F8B81007E005490968C0F8B81079
:1040800003490968C1F8B40001490860704700009D
:10409000D4000020D0F8B420D0F8B8104AB90D4BA5
:1040A000196011B10023C1F8B4300023C0F8B83052
:1040B0000FE029B90023C2F8B830C0F8B43008E0E6
:1040C000C2F8B810C1F8B4200023C0F8B830C0F866
:1040D000B4307047D40000200021044A1160044A23
:1040E0001180044A1160018070470000D400002054
:1040F000D8000020D000002070B5044600202060C9
:10410000A0606060E06020616061A061E06126A065
:10411000206200206062A062E062A064A065A4F852
:104120005C00002104F16000FFF7FCF9002020672B
:104130006067E067A4F88400C4F88000002506E00A
:10414000002104F1780040F82510681CC5B2002D4C
:10415000F6D000203434A061E0662067E06084F887
:104160005200A06760672082E0612062A4F85400DA
:10417000A4F85600A065E065FCF776F906462666C9
:1041800000206066E06720706070A0704020E070E2
:1041900020710020A060C4F88000C4F8840004A04E
:1041A000C4F88800343C70BD3F5461736B0000005C
:1041B0002000000008B504480068FEF761FC69466D
:1041C0000020FEF78DFB08BD140100202DE9F84307
:1041D0000446884617461D464FF0000900BF00BF41
:1041E000FBF7F2FF814600BF00BF0CB967480468C7
:1041F000A7640020288094F83600082876D2DFE8EB
:1042000000F0040550510607525300BF00BF00BF25
:104210000420012804D0022813D0042833D122E03E
:10422000E06CFF280CD100BF00BF4846FBF7D0FF71
:1042300000BF00BF46F6C55028800020BDE8F883C7
:1042400022E04FF6FF71E06C88420BD100BF00BF47
:104250004846FBF7BDFF00BF00BF46F6C5502880AB
:104260000020EBE710E0E06C401C58B900BF00BF35
:104270004846FBF7ADFF00BF00BF46F6C55028809B
:104280000020DBE700E000BF00BFE06C401CE06402
:10429000E66C00BF00BF4846FBF79AFF00BF00BFB7
:1042A00071E000BF00BF00BF94F83400072815D1AB
:1042B00000231A46214618460097FFF7CFFAE66C0E
:1042C00000BF00BF4846FBF783FF00BF00BF08F4F4
:1042D000004000284AD1FEF79BF847E0042001285F
:1042E00005D0022813D0042833D122E03FE0E06C4F
:1042F000FF280BD100BF00BF4846FBF769FF00BF96
:1043000000BF46F6C5502880002097E722E04FF610
:10431000FF71E06C88420BD100BF00BF4846FBF73D
:1043200057FF00BF00BF46F6C5502880002085E734
:1043300010E0E06C401C58B900BF00BF4846FBF7D6
:1043400047FF00BF00BF46F6C5502880002075E734
:1043500000E000BF00BFE06C401CE064E66C00BF02
:1043600000BF4846FBF734FF00BF00BF0BE000BFB3
:1043700000BF4846FBF72CFF00BF00BF46F62D608C
:104380002880002600BF00BF304657E714010020F8
:1043900070B51546066846B90D6500264E618E61FA
:1043A000C86101600126868033E0046802682B46FC
:1043B00024E0166D9E421DD396696EB90B650026EA
:1043C0008E614A61C861166DF61A166591610160C9
:1043D0008688761C86800CE094690B658C614A6146
:1043E000C861166DF61A1665916161618688761C42
:1043F000868070BD166D9B1B14465269002AD8D169
:104400000B658C6100264E61C86161618688761CEF
:10441000868000BFEDE700002DE9F04104460D461F
:1044200090461F46B8F1040F0ED1284800682E1A96
:1044300016F5803F01D8002E3CD10020206547F2C0
:104440007E203880BDE8F081B8F1080F29D11F49DE
:10445000606D0968081AA84205D92E461B480068F5
:104460002844606526E01949606D0968081A2E1A0B
:1044700016F5803F00D886B91449606D0968081A9E
:10448000B0FBF5F005FB0050616D0844606500204D
:10449000206547F27E203880D4E7606D284460654F
:1044A00008E00DB12E4605E00020206547F27E2091
:1044B0003880C7E7012084F8360032462146044898
:1044C000FFF766FF0020388000BFBBE7DC0000205C
:1044D000E400002030B5C26983694169ABB929B9EC
:1044E0000024146094800465C4611EE000248C6183
:1044F0000C6D056D2C440C6511609488641E9480CD
:10450000002444610465C4610FE0596121B18B61ED
:104510000C6D056D2C440C65002484619488641E28
:104520009480002444610465C46130BD704700007C
:104530002DE9F0474FF0000900BF00BFFBF744FE34
:10454000814600BF00BFFBF78FFF064600271D4DC9
:104550002C683CB3206D401E20651FE0781C87B29C
:1045600094F83600012806D1002084F83600204651
:10457000FFF758FA06E094F83600052802D1042027
:1045800084F83600606928602C6814B90020A8807F
:1045900007E0A888401EA8800020A061206D0028A8
:1045A000DCD000BFEF80FBF75FFFA0EB060800BF89
:1045B00000BF4846FBF70CFE00BF00BF4046BDE809
:1045C000F0870000E40000202DE9F05F4FF0000BC1
:1045D00000BF00BFFBF7F8FD834600BF00BFFBF73D
:1045E00043FF07464FF000083B4D2C68002C63D07A
:1045F000206D401E20655BE008F101001FFA80F885
:10460000002694F83400042802D1206BC068466A62
:104610000020A065A4F85C00FBF726FFA0642046FC
:10462000FFF7E1F894F83600032806D12046FFF79B
:10463000F9F9002084F8360006E094F836000728DF
:1046400002D1042084F83600032084F835000020CD
:1046500084F8340006B396F8370096F8381088428C
:104660001AD096F8370094F83710884214D13046A3
:10467000FEF7ACFF814696F83800484502DA96F816
:10468000380000E04846814696F83700484503D098
:1046900049463046FFF770FC606928602C6814B901
:1046A0000020A88007E0A888401EA8800020A06104
:1046B000206D0028A0D000BFA5F80680FBF7D4FE2F
:1046C000A0EB070A00BF00BF5846FBF781FD00BF03
:1046D00000BF5046BDE8F09FEC00002008B5002761
:1046E00028E06B46002211461046FEF7D5F9BDF8CA
:1046F0000000F8B900BF00BFFBF766FD074600BF2A
:1047000000BF0D480068401C0B49086000BF00BF97
:104710003846FBF75DFD00BF00BFFFF709FF064607
:10472000FFF752FF0546741904480068A04201D201
:1047300002480460D5E70000DC000020E000002013
:1047400010B58AB00446002020490860204908605E
:10475000204908601E498880C8801E498880C8801A
:104760001D48006820B947F2122020800AB010BD11
:104770001A4800681A490968884203D247F2132090
:104780002080F3E7174800783F2803D347F2112031
:104790002080EBE70B2000210591CDE9070406916D
:1047A00008460E490A68104909680B4B1B68CDE999
:1047B0000131CDE903200B48007800230B4A0CA1FE
:1047C00000901048FDF7B8FF00BFCFE7DC000020E5
:1047D000E4000020EC00002078AB000880AB00086B
:1047E0006CAB000874AB00087CAB0008DD46000829
:1047F00075432F4F532D494949205469636B205409
:1048000061736B001816002010B58AB004460020B2
:104810002F4908602F4908602F4908802F480068F9
:1048200040B12F4800682D490968B0FBF1F02D49CF
:10483000086006E02A4800680A21B0FBF1F0294927
:104840000860284800682849086000202749086057
:1048500027490860224627A12A48FDF7F3FB208854
:1048600008B10AB010BD2848006818B947F24730AF
:104870002080F6E72548006825490968884203D268
:1048800047F248302080ECE7224800783F2803D3E5
:1048900047F246302080E4E70B20002105910A46CC
:1048A000CDE907040691194800681B490968164BB1
:1048B0001B68CDE90131CDE90302164800780023D9
:1048C000164A17A100901C48FDF736FF00BFC8E745
:1048D000F4000020FC000020F80000208CAB000851
:1048E00070AB00080C01002010010020080100201E
:1048F000040100204F5320546D72204D757465786B
:1049000000000000D816002090AB000898AB00080B
:104910006CAB000888AB000894AB0008594900084C
:1049200075432F4F532D4949492054696D657220B5
:104930005461736B00000000081700200EB502A838
:1049400001AB0022114600900148FDF7B3FB0EBDFC
:10495000D8160020704700001CB53FE001AB6A4646
:1049600000210846FEF798F8FFF7E8FFFBF77CFD0B
:1049700006461B480068401C19490860194804682D
:104980001FE001A8FDF796FDD4F81080A069401E35
:10499000A061A06980B9A08C022802D1206AA06120
:1049A00005E0204600F022F8032084F82600A568E0
:1049B00015B12046E168A847444601A8FDF7AAFDC5
:1049C00000BF002CDDD1FBF74FFD871B00F030F856
:1049D00005480068B84201D203480760BEE70000FE
:1049E00008010020FC0000200401002010B50E4B3F
:1049F0001B68834206D101690B4B196039B1002352
:104A00004B6104E0416902690A6102B1516101230D
:104A100080F82630002303614361044B1B885B1E32
:104A2000024C238010BD0000FC000020F800002094
:104A300008B56A4600210248FDF724FC08BD0000C5
:104A4000D816002029B1064A12680243044B1A60A6
:104A500004E0034A12688243014B1A607047000069
:104A60003038024029B1064A12680243044B1A60EA
:104A700004E0034A12688243014B1A607047000049
:104A80003838024029B1064A12680243044B1A60C2
:104A900004E0034A12688243014B1A607047000029
:104AA00044380240F0B500210022002402250026EF
:104AB0000223324F3F6807F00C0121B1042905D0D1
:104AC000082937D105E02E4F076036E02D4F0760EB
:104AD00033E02A4F3F1F3F68C7F38056274F3F1FE1
:104AE0003F6807F03F036EB1264FB7FBF3F7DFF8DF
:104AF0008CC0ACF1040CDCF800C0CCF3881C07FBC4
:104B00000CF40CE01E4FB7FBF3F7DFF870C0ACF10C
:104B1000040CDCF800C0CCF3881C07FB0CF4174F26
:104B20003F1F3F68C7F301477F1C7D00B4FBF5F7CB
:104B3000076002E0124F076000BF00BF0F4F3F68E1
:104B400007F0F0010909104F7A5C0768D740476009
:104B50000A4F3F6807F4E051890A0B4F7A5C4768B7
:104B6000D7408760054F3F6807F46041490B064F07
:104B70007A5C4768D740C760F0BD00000838024043
:104B80000024F40040787D01000000207047000000
:104B900030B500228B071C0F0F2303FA04F20B4BD6
:104BA0008C1053F824309343084C8D1044F8253072
:104BB00023468C1053F824308C07240F00FA04F499
:104BC0002343024C8D1044F8253030BD0838014095
:104BD0000CB50020019000903448006840F480300B
:104BE0003249086000BF3148006800F4003000908E
:104BF0000198401C0190009818B90198B0F5A04F99
:104C0000F1D12A48006800F4003010B10120009072
:104C100001E0002000900098012846D12348403050
:104C2000006840F080502149403108602048006809
:104C300040F440401E4908601C48083000681B4989
:104C4000083108600846006840F4004008600846E3
:104C5000006840F4A05008601648091F0860081F4B
:104C6000006840F08070091F086000BF0F480068AE
:104C700000F000700028F9D040F205700E4908607D
:104C80000A480830006820F003000849083108602D
:104C90000846006840F00200086000BF0348083082
:104CA000006800F00C000828F8D10CBD0038024064
:104CB0000070004019544F07003C024010B500241A
:104CC00000BF00BFFBF780FA044600BF00BF0848E2
:104CD0000078401C0649087000BF00BF2046FBF763
:104CE00077FA00BF00BFFEF74BFAFDF73DF910BDA4
:104CF0007800002010B51548006840F47000134992
:104D000008601348006840F0010011490860002065
:104D10000F49083108600E4800680E4908400C49E8
:104D200008600D48091D0860081F006820F48020F5
:104D3000091F0860002006490C310860FFF748FF92
:104D40004FF0006001498039086010BD88ED00E037
:104D500000380240FFFFF6FE1030002410B540F28C
:104D60002551054800F07FF820B140F22551024856
:104D700000F004F810BD00000010014010B5002242
:104D8000002340F66A14A14200D100BF0A12012498
:104D90009440A3B2DC43048010BD21B1828942F467
:104DA0000052828104E082894DF6FF731A408281AD
:104DB0007047000000B587B001210846FFF742FEAA
:104DC00001211020FFF75EFE07220A211D48FBF794
:104DD000CBFC072209211B48FBF7C6FC00208DF8FD
:104DE0001A0001208DF81B0002208DF81800000227
:104DF000059002208DF8190005A91248FBF76CFCFC
:104E000002208DF818004002059005A90D48FBF717
:104E100063FC4FF4165001900020ADF80800ADF887
:104E20000A00ADF80C00ADF810000C20ADF80E0033
:104E300001A9054800F042F801210348FFF7ADFF42
:104E400007B000BD000002400010014002460020F3
:104E5000B1F5007F00D100BF13880B400BB10120DA
:104E600000E00020704770B50246002400230025B2
:104E7000002040F66A16B14200D100BFC1F34215CE
:104E800001F01F03012606FA03F3012D02D19689D2
:104E9000334006E0022D02D1168A334001E0968AA3
:104EA00033400C12012606FA04F41688344013B17C
:104EB0000CB1012000E0002070BD00002DE9FF478B
:104EC00005460E460024A14600BFA046B08900B1A9
:104ED00000BF2C8A24F44054F08804432C82AC890F
:104EE00041F20C608443B0883189084371890843DA
:104EF0000443AC81AC8A24F44074B0890443AC828E
:104F00006846FFF7CFFD2048854202D01F48854202
:104F100002D1DDF80C9001E0DDF80890A88900F4DA
:104F2000004040B109EBC90000EB091031684900AD
:104F3000B0FBF1F707E009EBC90000EB091031689D
:104F40008900B0FBF1F76420B7FBF0F00401200901
:104F5000642101FB1078A88900F4004040B13220A0
:104F600000EBC800B0FBF1F000F00700044308E0DC
:104F7000322000EB08106421B0FBF1F000F00F00CC
:104F800004432C81BDE8FF8700100140001401405C
:104F9000C1F308028280704700BFFEE70FB4054BE3
:104FA00010B503A9044A029800F018F810BC5DF887
:104FB00014FB0000415400084001002002E008C832
:104FC000121F08C1002AFAD170477047002001E083
:104FD00001C1121F002AFBD1704700002DE9FF4FCD
:104FE0008DB00F460546002606E025280BD0DDE9EA
:104FF0000F1290476D1C761C28780028F5D111B04F
:105000003046BDE8F08F0024A246A1460122EC49BB
:1050100000E0044315F8013F203B02FA03F0084288
:10502000F7D128782A2810D06FF02F022878A0F125
:105030003001092914D80AEB8A0102EB410144F03E
:10504000020400EB010A6D1CF0E701CF5FEA000AE1
:1050500003D544F40054CAF1000A44F002046D1C64
:1050600028782E2817D115F8010F44F004042A28B7
:105070000ED06FF02F022878A0F1300109290AD84C
:1050800009EB890102EB410100EB01096D1CF2E71C
:1050900057F8049B6D1C28786C280FD006DC4C2830
:1050A00017D068280DD06A2814D104E0742810D0D5
:1050B0007A280FD10DE044F400140AE044F480147F
:1050C00001E044F440146978814202D104F580146F
:1050D0006D1C6D1C2A786E2A1FD00CDC632A31D01F
:1050E00004DC002A8BD0582A11D1A3E0642A68D0AE
:1050F000692A0CD165E0732A2ED004DC6F2A73D0A4
:10510000702A04D19BE0752A6FD0782A6ED01046A1
:10511000DDE90F129047761C50E1C4F302500228DB
:1051200006D0032809D0042801CF09D0066045E144
:1051300001CFF117C0E9006140E101CF06803DE1F8
:1051400006703BE117F8040B8DF8000000208DF885
:105150000100EB46012003E057F804BB4FF0FF309D
:1051600061074FF0000102D40DE008F1010188460B
:1051700049450FDA8045F8DB1BF808100029F4D107
:1051800008E008F1010188468142FADB1BF80810AB
:105190000029F6D1DDE90F23AAEB0800814621465C
:1051A00000F036F9304400EB080604E0DDE90F12A8
:1051B0001BF8010B9047B8F10108F7D22146484689
:1051C000F7E00A21C4F302534FF0000B0891022BC1
:1051D00004D001CFC117032B09D00AE0FF1D27F02F
:1051E0000707F7E8020108E032E01FE020E000B224
:1051F000C117042B01D140B2C117031E71F1000386
:1052000007DA4FF0000CD0EB0C006CEB01012D2302
:1052100002E0230504D52B238DF82430012303E07D
:10522000E30701D02023F7E7984658E00A2110E071
:1052300010210EE010204FF0000B08900CE0102120
:105240004FF0000B44F004044FF00809089103E00C
:1052500008214FF0000B0891C4F30253022B04D035
:1052600001CF0021032B06D006E0FF1D27F0070722
:10527000F7E8020103E080B2042B00D1C0B24FF086
:10528000000823072BD5702A07D0DDF820C08CF04A
:10529000100C5CEA0B0C05D00EE040238DF8243096
:1052A000012308E050EA010306D030238DF82430B2
:1052B0008DF8252002239846DDF820C08CF0080CDC
:1052C0005CEA0B0C0BD150EA010301D1630706D550
:1052D00030238DF824304FF00108A9F10109582A34
:1052E00004D038A20B9208AA0A920BE03AA2F9E77E
:1052F0005B46089AFAF77EFF0B9B9B5C0A9A521E4C
:105300000A92137050EA0102F2D10A98ADEB000044
:1053100000F1200B600702D524F4803401E04FF047
:105320000109D94502DDA9EB0B0000E0002000EBEC
:105330000B0141440890AAEB010AE00306D4DDE921
:105340000F232146504600F063F806444FF0000951
:1053500008E009A911F80900DDE90F12904709F1E9
:105360000109761CC145F4DBE0030CD5DDE90F2310
:105370002146504600F04CF8064404E0DDE90F12E7
:1053800030209047761C0899481E08900029F5DCCB
:1053900008E00A980A990078491C0A91DDE90F1281
:1053A0009047761CBBF10001ABF1010BF1DC21460B
:1053B0005046DDE90F2300F019F806446D1C1BE68A
:1053C00009280100303132333435363738396162DB
:1053D000636465660000000030313233343536379F
:1053E0003839414243444546000000002DE9F04170
:1053F000044600251E461746880404D405E03946B5
:105400002020B0476D1C641EF9D52846BDE8F08108
:105410002DE9F041044600251E469046C80301D5FB
:10542000302700E02027880404D505E041463846AF
:10543000B0476D1C641EF9D52846BDE8F081000018
:1054400070B504460D46E1B20548FFF7A1FD00BF67
:1054500080210348FFF7FAFC0028F9D0204670BDF0
:105460000010014010B5002821D0114B0022001F70
:10547000196803E0814203D80A4649680029F9D136
:1054800052B11368841A9C4204D100681844106019
:10549000104602E0506000E0186039B102680B1A53
:1054A000934203D10B681A4402604968416010BD01
:1054B0004401002010B508210A48FBF781F900F0EB
:1054C00013F880210748FBF77DF900F00DF88021E3
:1054D0000448FBF775F900F007F808210148FBF7CD
:1054E00071F910BD000C0240002001E0411CC8B25F
:1054F0001428FBDB7047000010B508210848FBF7B3
:1055000061F9FFF7F1FF80210548FBF75BF9FFF731
:10551000EBFF80210248FBF753F9FFF7E5FF10BDD1
:10552000000C024070B50024002516E06006040E51
:1055300080210C48FBF746F9FFF7D6FF0821094800
:10554000FBF735F908B1601CC4B280210548FBF7B0
:1055500037F9FFF7C9FF681CC5B2082DE6DB204606
:1055600070BD0000000C024070B50446002523E029
:1055700004F0800020B108211148FBF723F903E073
:1055800008210F48FBF71CF9FFF7AEFF80210C48FC
:10559000FBF718F9FFF7A8FF80210948FBF710F97E
:1055A000072D03D108210648FBF70CF96006040E0D
:1055B000FFF79AFF681CC5B2082DD9DB70BD00004B
:1055C000000C024010B508210A48FBF7FBF88021C7
:1055D0000848FBF7F7F8FFF787FF08210548FBF7B6
:1055E000EFF8FFF781FF80210248FBF7E9F8FFF7AA
:1055F0007BFF10BD000C024010B508210648FBF7E8
:10560000DFF880210448FBF7DDF8FFF76DFF082184
:105610000148FBF7D7F810BD000C024010B5082177
:105620000D48FBF7CFF8FFF75FFF80210A48FBF733
:10563000C9F8FFF759FF08210748FBF7B8F808B188
:10564000012400E0002480210348FBF7B9F8FFF7AC
:105650004BFF204610BD0000000C024010B58AB080
:10566000002401210803FFF7EDF9FFF7A3FBFCF786
:10567000C3F8FBF7B3F909A8FCF7B0FB00BF00BF04
:10568000FAF7A2FD044600BF00BF09A803210022CB
:105690000592CDE906210890104680210C220D4B81
:1056A000CDE90132CDE90310042000230A4A0BA101
:1056B00000900D48FDF740F800BF00BF2046FAF704
:1056C00087FD00BF00BF09A8FCF764FF00200AB0F7
:1056D00010BD00000C020020595700085461736B84
:1056E00031207461736B00004C010020F0B50B3069
:1056F000154D20F007010024144A0FE003688B4287
:105700000BD38B4205D95E1A43184768C3E900677B
:1057100000E04368136002C004E0021D1068002826
:10572000ECD12046002802D1286808B10020F0BD45
:10573000064A07481060074A121A22F00702C0E919
:10574000002401202860D7E7480100204401002000
:10575000CC170020C819002000240020FCF7D8FA3C
:1057600041E000BF00BFFAF72FFD044600BF00BFB5
:105770001D48007A78B900214FF6FF70FCF7CEFA89
:105780001A4A928891B2194A128890B200230A22CA
:10579000FBF7D9FD20E000210846FCF7BFFA134AC9
:1057A000928891B2114A128890B200230A22FBF724
:1057B000CAFD00214FF6FF70FCF7B0FA0A4A928842
:1057C00091B2094A128890B200230A22FBF7BBFD6E
:1057D0000648054B0ECB0EC000BF00BF2046FAF7AF
:1057E000F7FC00BF00BFBCE71C0000201000002039
:1057F00000000000000000000000000000000000A9
:1058000000000018181818181808000818000000E0
:1058100000000034242424000000000000000000E8
:105820000000000016247F2424247E24240000008D
:10583000000000083E6848681C1612127C10100018
:1058400000000061D296740810162949C6000000B5
:10585000000000003C646438724ACE467F000000BD
:1058600000000018181818000000000000000000D8
:1058700000000004081810303030301010180C04EC
:10588000000000201008080C0404040C0818102064
:10589000000000080A341C6A080000000000000034
:1058A0000000000000001818187F181818000000E9
:1058B0000000000000000000000000181808300080
:1058C0000000000000000000003C0000000000009C
:1058D0000000000000000000000000181800000098
:1058E0000000000206040C080810102020400000F0
:1058F000000000003C6642475B7342663C000000CB
:105900000000000018784808080808087E00000019
:10591000000000003C460606040810207E0000003F
:10592000000000007C0606043C0202067C00000029
:10593000000000000C1C14246444FF040400000058
:10594000000000007E6060607E0202067C000000B5
:10595000000000001E306048764242623C000000B9
:10596000000000007E0206040C0818103000000041
:10597000000000003C6242361C6642423C000000CF
:10598000000000003C664242661A020478000000F3
:1059900000000000000018180000001818000000A7
:1059A000000000000000181800000018180830005F
:1059B00000000000000004183060100C0600000019
:1059C00000000000000000007E007E0000000000DB
:1059D000000000000000301804060C102000000039
:1059E000000000301C060606181000101000000011
:1059F0000000001C224141DDB5A5A5AF94C0403C8C
:105A000000000000181C342426627E43C100000000
:105A1000000000007C4642467C4242427C0000007E
:105A2000000000001E204040404040603E0000005A
:105A3000000000007C464243434342467800000099
:105A4000000000007E6060607E6060607E0000009C
:105A5000000000007E6060607E60606060000000AA
:105A6000000000001E604040CE4242623E00000046
:105A700000000000424242427E4242424200000098
:105A8000000000007E181818181818187E00000072
:105A9000000000007C0404040404044478000000B6
:105AA000000000004244485070584C44420000003E
:105AB0000000000020202020202020203E000000A8
:105AC000000000006266675F5B5BC1C1C10000004F
:105AD00000000000626272525A4A4E4646000000C0
