:020000040800F2
:10000000181700209D010008E97600082953000810
:10001000E5760008090400088DA300080000000030
:100020000000000000000000000000008D810008BA
:10003000890E00080000000089770008BD820008D2
:10004000B7010008B7010008B7010008B7010008B0
:10005000B7010008B7010008B7010008B7010008A0
:10006000B7010008B7010008B7010008B701000890
:10007000B7010008B7010008B7010008B701000880
:10008000B7010008B7010008B7010008B701000870
:10009000B7010008B7010008B7010008C10E000849
:1000A000B7010008B7010008B7010008B701000850
:1000B000B7010008B7010008B7010008B701000840
:1000C000B7010008B7010008B7010008B701000830
:1000D000B7010008BD830008B7010008B701000898
:1000E000B7010008B7010008B7010008B701000810
:1000F000B7010008B7010008B7010008B701000800
:10010000B7010008B7010008B7010008B7010008EF
:10011000B7010008B7010008B7010008B7010008DF
:10012000B7010008B7010008B7010008B7010008CF
:10013000B7010008B7010008B7010008B7010008BF
:10014000B7010008B7010008B70100087977000877
:10015000B7010008B7010008B7010008B70100089F
:10016000B7010008B7010008B7010008B70100088F
:10017000B7010008B7010008B7010008B70100087F
:10018000B7010008B7010008DFF80CD000F08CF8C8
:10019000004800477D3801081817002006488047AE
:1001A00006480047FEE7FEE7FEE7FEE7FEE7FEE75C
:1001B000FEE7FEE7FEE7FEE73D8300088901000851
:1001C00010B5431A934209D28318881803E010F837
:1001D000011D03F8011D521EF9D210BD40EA0103B2
:1001E0009B0703D009E008C9121F08C0042AFAD2ED
:1001F00003E011F8013B00F8013B521EF9D210BD9B
:10020000D2B201E000F8012B491EFBD27047002258
:10021000F6E710B513460A4604461946FFF7F0FF05
:10022000204610BD421C10F8011B0029FBD1801A8A
:100230007047034611F8012B00F8012B002AF9D171
:10024000184670472DE9F05F0546002092469B4610
:1002500088460646814640241BE0284641464746DC
:10026000224600F042F853465A46C01A914110D334
:1002700011461846224600F029F82D1A67EB0108AE
:100280004F4622460120002100F020F817EB00091C
:100290004E41201EA4F10104DFDC484631462A46C7
:1002A0004346BDE8F09F0000064C074D06E0E068BD
:1002B00040F0010394E8070098471034AC42F6D3AD
:1002C000FFF766FF60D9010880D90108202A04DB06
:1002D000203A00FA02F1002070479140C2F1200359
:1002E00020FA03F3194390407047202A04DB203A98
:1002F00021FA02F00021704721FA02F3D040C2F146
:100300002002914008431946704770B58C1810F8C8
:10031000015B15F0070301D110F8013B2A1106D14A
:1003200010F8012B03E010F8016B01F8016B5B1E64
:10033000F9D12B0705D40023521E0DD401F8013B3F
:10034000FAE710F8013BCB1A921C03E013F8015BAB
:1003500001F8015B521EF9D5A142D8D3002070BD2F
:100360007FB56FF07F4003F037FB214803F03EFB81
:10037000322002F09DFA0AF0B1FB044605F0EEFFD0
:10038000054605F0D7FF06460120002102222B4634
:10039000CDE90042CDE902103246084606F0A8FD3C
:1003A000144908600C2314A23C211248006806F08E
:1003B000D0FB05F0BFFFA0F13C040C2310A22146A6
:1003C0000C48006806F0C5FB01210A48006806F0E9
:1003D000D1FF01210748006806F0CFFF0021054842
:1003E000006806F0E4FF642002F062FA7FBD0000BE
:1003F0007CBB01081800002074696D657300000063
:100400006D6573736167650000BFFEE770B50646F2
:100410000C4604F08000802808D104F07F0000EB37
:10042000800106F58E7000EBC10507E004F07F0047
:1004300000EB800106F55D7000EBC10504F07F0064
:10044000287004F08000C00968702946304609F021
:1004500038FC002070BD70B506460C4604F08000E4
:10046000802808D104F07F0000EB800106F58E7033
:1004700000EBC10505E004EB840106F55D7000EBBF
:10048000C1050020A87004F07F002870C4F3C010DC
:1004900068702946304609F0ECFB002070BD2DE95C
:1004A000F04106460D4690461F4605F08000802824
:1004B00008D105F07F0000EB800106F58E7000EB9F
:1004C000C10407E005F07F0000EB800106F55D70D8
:1004D00000EBC10405F07F00207005F08000C0092A
:1004E0006070C4F80880E770607808B12078E08018
:1004F000022F01D1002020712146304609F06DFB0A
:100500000020BDE8F0812DE9F04105460E46174672
:10051000984606F07F0000EB800105F55D7000EB6A
:10052000C104E760C4F814800020A061607006F088
:100530007F002070E878012800D12761207820B959
:100540002146284609F06DFA03E02146284609F0C5
:1005500037FC0020BDE8F08108B500220092009A27
:1005600061F30A12009202691268009B1A43036940
:100570001A6008BD70B506460C4604F0800080285D
:1005800008D104F07F0000EB800106F58E7000EBCF
:10059000C10505E004EB840106F55D7000EBC105C3
:1005A0000120A87004F07F002870C4F3C0106870A8
:1005B0002946304609F0D2FB002070BD2DE9F041FC
:1005C00007460D461646984605F07F0000EB800171
:1005D00007F58E7000EBC1040120607005F07F000C
:1005E0002070E66026610020A061C4F814802078A5
:1005F00020B92146384609F014FA03E0214638466E
:1006000009F0DEFB0020BDE8F081000030B587B0C6
:100610000546594C284609F0CAF901A807F0F6F832
:10062000029CE868C0680590059820F47050059019
:100630000598E968C860284609F08AFD03280BD1AF
:100640000020A8704FF40070A880059820F4705026
:1006500000F5105005907EE00120A8704020A88091
:100660004648844209D34648844206D2059820F47D
:10067000705000F5605005906DE04148844209D308
:100680004048844206D2059820F4705000F550503E
:10069000059060E03B48844209D33B48844206D23F
:1006A000059820F4705000F54050059053E036480E
:1006B000844209D33548844206D2059820F470500C
:1006C00000F53050059046E03048844209D3304868
:1006D000844206D2059820F4705000F52050059011
:1006E00039E02B48844209D32A48844206D205982F
:1006F00020F4705000F5105005902CE025488442FD
:1007000009D32548844206D2059820F4705000F59C
:10071000005005901FE02048844209D31F488442BE
:1007200006D2059820F4705000F5E050059012E0D4
:100730001A48844209D31A48844206D2059820F404
:10074000705000F5C050059005E0059820F47050F9
:1007500000F5A05005900598E968C8600020069053
:10076000069820F4005000F5005006900698E968BD
:100770004861012007B030BD007A030AC0E1E400FF
:100780000024F400E0EC040100C31801002D310145
:1007900040A44C0100366E0140E2950180C3C901BE
:1007A00060600B02F8B50546002400200090284642
:1007B00009F00FFD064681E006F0010000287BD01D
:1007C000E1B2284600F0F6FA0090009800F001002F
:1007D00030B3012000FA04F72869406BB843296957
:1007E000486300200090009820F00100401C009019
:1007F00005F1180050F8240000998160E1B23248F8
:100800000068426828469047E878012808D13CB93A
:1008100040F21110405D042802D1284609F0ACF9DD
:100820000098C0F3C00060B100200090009820F054
:1008300008000830009005F1180050F824000099D5
:1008400081600098C0F3001060B100200090009813
:1008500020F010001030009005F1180050F824002E
:10086000009981600098C0F3801060B10020009072
:10087000009820F040004030009005F1180050F83A
:100880002400009981600098C0F3400060B100200E
:100890000090009820F00200801C009005F11800E4
:1008A00050F82400009981600098C0F3C01018B17E
:1008B0002146284600F092FA641C7608002E7FF448
:1008C0007BAF0120F8BD0000E80000207CB50446A5
:1008D000002500200190204609F083FC06466FE0C9
:1008E00006F00100002869D0E9B2204609F081FC39
:1008F0000190019800F00100C8B300200190019818
:1009000020F00100401C019004F1540050F8250033
:1009100001998160E078012817D104F1540050F862
:1009200025000069009005EB850104F55D7000EB82
:10093000C10080680099C1F31201411A05EB8502DC
:1009400004F55D7000EBC2008161E9B21E480068E9
:10095000026820469047E078012808D13DB940F26E
:100960001110005D052802D1204609F005F9019813
:10097000C0F3400060B100200190019820F0020017
:10098000801C019004F1540050F825000199816009
:100990000198C0F3C00088B10B4800688168204608
:1009A000884700200190019820F00800083001904D
:1009B00004F1540050F82500019981606D1C7608FF
:1009C000002E8DD101207CBDE80000203EB50446FC
:1009D000A07A78B1D4F80C0100680090009820F05B
:1009E00002000090009820F0010000900099D4F8D7
:1009F0000C01016000200190019820F00100401CD2
:100A0000019020694068019988432169486009483C
:100A1000006881692046884700200290029820F0F3
:100A2000004000F1004002900298E1684861012016
:100A30003EBD0000E80000207CB504460020019087
:100A4000019820F0100010300190E0688069019951
:100A50008843E1688861E068006A0090009800F0CF
:100A60000F0000EB800104F55D7000EBC1050098FC
:100A7000C0F3434007282DD2DFE800F02C04051D09
:100A80001E2C1F0027E00098C0F30A1090B10098B8
:100A9000C0F30A122046E96809F0B5FBE86800993E
:100AA000C1F30A110844E860A8690099C1F30A116A
:100AB0000844A8610FE00EE00DE0082204F2CC51DA
:100AC000204609F0A0FBA8690099C1F30A11084467
:100AD000A86100E000BF00BFE06880690199084399
:100AE000E168886101207CBD38B50446084800688B
:100AF000C1682046884700200090009820F0080038
:100B0000083000900098E1684861012038BD00007D
:100B1000E80000201FB50446002000904FF48970C3
:100B2000005D00902348006841692046884720699D
:100B30008068019000200390039820F4006000F585
:100B4000006003900398E1684861A07A70B301984F
:100B500000F0010050B340F21510005D012825D1CE
:100B60009DF80000032821D100200290029820F077
:100B70000100401C0290D4F80C010068029908435F
:100B8000D4F80C110860029820F00200801C02903A
:100B9000D4F80C01006802990843D4F80C110860DD
:100BA0000548006840F0060003490860012004B0D1
:100BB00010BD0000E800002010ED00E030B587B067
:100BC0000446002002900690059004900390019046
:100BD000029820F00100401C0290206940680299B0
:100BE0008843216948600021204609F087FA0025E2
:100BF0000BE0FF2104F1180050F82500816004F19A
:100C0000540050F8250081606D1C6078A842F0D82F
:100C10004FF0FF312069816106986FF30F00401C8F
:100C20000690069880B200F58030069006992069FB
:100C3000C161059820F0080008300590059820F063
:100C40000100401C0590059820F00200801C0590D2
:100C5000059920694161049820F00100401C04902E
:100C6000049820F0080008300490049820F0020056
:100C7000801C049004992069016120690068039038
:100C8000039820F4FE6003900399206901602046D8
:100C900008F072FF00200190019820F4805000F5C8
:100CA000805001900198E16848610448006801693A
:100CB00020468847012007B030BD0000E800002032
:100CC0002DE9F04106460F463946304609F0B0FAA4
:100CD00001214FF4897081550021801C8155002528
:100CE00011E005EB850106F58E7000EBC1040120D3
:100CF00060702570E5800020E0704020A06000203A
:100D0000E06060616D1C7078A842EAD8002510E0B0
:100D100005EB850106F55D7000EBC10400206070F5
:100D20002570E580E0704020A0600020E0606061F8
:100D30006D1C7078A842EBD8304608F027FE30468C
:100D400008F054FC0021304609F0DAFA304608F089
:100D5000E0FC304609F09AF9BDE8F08138B5044668
:100D60000020009007480068C16920468847009825
:100D700020F4801000F5801000900098E168486130
:100D8000012038BDE800002038B50446002000905E
:100D900007480068016A20468847009820F4001040
:100DA00000F5001000900098E1684861012038BD0E
:100DB000E800002030B5024615692B6915696C6B97
:100DC00024FA01F505F0010543EAC51302F11805FF
:100DD00055F82150AD6805EA030030BD2DE9F84310
:100DE00006460F4600250020009007EB870106F518
:100DF0008E7000EBC104D4E90501451AA068A84231
:100E000000D2A568E81C4FEA900806F1180050F8D7
:100E100027008069009029E0D4E90501451AA068FF
:100E2000A84200D2A568E81C4FEA9008ABB2FAB21B
:100E30003046E16809F08BFAE0682844E060A06978
:100E40002844A06106F1180050F82700806900903E
:100E5000D4E90501884209D12178012000FA01F97D
:100E60003069406B20EA090031694863009880B21C
:100E7000404506D9D4E90510884202D260690028AD
:100E8000CAD10120BDE8F883704701B502E000989F
:100E9000401E009000980028F9D108BD01B502E07D
:100EA0000098401E009000980028F9D108BD01B5B7
:100EB00002E00098401E009000980028F9D108BD7B
:100EC00010B54FF4807000F00FF828B100F0E6FC88
:100ED0004FF4807000F002F810BD00000149086076
:100EE00070470000143C014001460020034A12688C
:100EF0000A400AB1012000E000207047143C014084
:100F0000002123498279002A3AD00A4612680368F0
:100F10009A430B461A600A1D126803689A430B1D18
:100F20001A60027911440A6803681A430A60184A71
:100F30000832126803689A43154B08331A601A1D69
:100F4000126803689A43124B0C331A604279102AD4
:100F50000ED11A1F126803681A430D4B08331A602A
:100F60001A1D126803681A43094B0C331A600DE00E
:100F70000749427911440A6803681A430A6005E088
:100F8000027911440A6803689A430A6070470000B6
:100F9000003C014051B18200A2F1C042126842F00F
:100FA00001038200A2F1C042136009E08200A2F1B5
:100FB000C0421268034B1A408300A3F1C0431A6079
:100FC00070470000FEFF0F0030B500210022002313
:100FD0000468A400A4F1C0442168424C2140D0E937
:100FE00001452C43C5682C4305692C4345692C43B6
:100FF00085692C43C5692C43056A2C43456A2C43FB
:10100000856A2C43C56A2C43056B2C432143046835
:10101000A400A4F1C04421608468082C0BD10468AA
:10102000A400A4F1C044246844F040050468A4006E
:10103000A4F1C04425600468641CA400A4F1C04469
:10104000226802F04042446B2468456B6D6844EAB4
:101050000514456BAD6844EA0524456BAD8944EA47
:101060000544456B2D8A44EA0554456B2D7D44EAC1
:101070000564456BAD692C4322430468641CA400DD
:10108000A4F1C0442260C46AB4F5804F20D1046842
:10109000A400A4F1C044D4F80431134C2340846B61
:1010A0002468856B6D6844EA0514856BAD6844EA75
:1010B0000524856BAD8944EA0544856BAD692C43F5
:1010C00023430468A400A4F1C044C4F8043107E039
:1010D0006FF070450468A400A4F1C044C4F8045142
:1010E00030BD00008000F7FF0000F0CF00B597B0E2
:1010F00006F064FE0121084606F068FB002001901E
:10110000029008200390002004900590069007901C
:1011100006200890002009900A9010200B900020D3
:101120000C900D900E900F9010904FF480501190F5
:10113000002012901390149001A81590169008A802
:10114000FFF742FF01210620FFF724FF17B000BD83
:101150002DE9F0430446C56887B0904689460020D3
:1011600002F042FC064625B1287910B146F0020093
:1011700001E026F0020002F037FC2069012558B199
:10118000D4E902128DE8260003956388228804685A
:1011900041464846A0471EE0124F134B214638688F
:1011A0001B68427CE068984730B9E088012801D08C
:1011B000002001E03868806BA288E388A168009570
:1011C000CDE90410CDE902320195638822884146B9
:1011D000484604F097FE07B03046BDE8F04302F001
:1011E00003BC0000E8010020E001002010B5002051
:1011F00002F0F0FB6FF07F4002F0EEFB012002F006
:1012000029FC002002F02EFC002002F035FC00201A
:1012100002F0EAFB0448006802F0E8FBBDE8104079
:10122000002002F0F3BB0000E4010020F0B50A4604
:1012300000210023002400BF3DE0012505FA01F351
:10124000156805EA03049C4234D105684F00032663
:10125000BE40B543056015794E00B540066835437C
:1012600005601579012D02D01579022D16D18568FA
:101270004F000326BE40B543856055794E00B5400A
:10128000866835438560456801268E40B5434560D4
:10129000456896798E40B6B235434560C5684F00C3
:1012A0000326BE40B543C560D5794E00B540C6683B
:1012B0003543C560491C1029BFD3F0BDF0B50023EC
:1012C00000244D07ED0E02FA05F3CE1000F12005C3
:1012D00055F826504E07F70E0F26BE40B543CF10E7
:1012E00000F1200646F82750CE1000F1200555F8F1
:1012F000265045EA0304CE1000F1200545F82640AB
:10130000F0BD0246002013690B400BB1012000E044
:10131000002070474183704701837047FEB500206D
:10132000009001900290002440F256354FF4F07680
:10133000002780208DF8000051208DF801000A223E
:101340006946BA2000F052F80446002C01DA002069
:10135000FEBD9DF802009DF8031000EB012085B250
:101360009DF804009DF8051000EB012086B200BF37
:1013700000BF00BF684600BF80208DF800005620E7
:101380008DF8010003226946BA2000F02FF80446C8
:10139000002C01DA0020DBE79DF8020000F00307D3
:1013A0003B463246294602A011F038FE0120CFE725
:1013B0003C3C2D4754502D494E464F2D3E3E205823
:1013C0005F4D4158203D2025642C20595F4D4158E8
:1013D000203D2025642C2054524947474552203D4A
:1013E000203078253032780A000000002DE9F041E5
:1013F00086B005460C4616464FF0FF374FF0000802
:1014000000BF00BF0020ADF802008DF800500220A0
:10141000ADF8040002940121ADF80E108DF80C50C7
:10142000B01E81B2ADF81010A01C059009E0022199
:10143000684604F06BF80746022F00D104E008F17B
:101440000108B8F1050FF2DB00BFB8F1050F08DBAA
:101450006078237840EA0321B21E3B46034811F02E
:10146000DDFD384606B0BDE8F0810000BCD80108BB
:1014700038B50E480068009000256C1E00BF00BF04
:101480000DE003226946BA20FFF7B0FF44B2002CFA
:1014900001DD204638BD294605A011F0BFFD2846D4
:1014A000691CCDB20528ECDB2046F3E7209001084B
:1014B0003C3C2D4754502D4552524F522D3E3E201C
:1014C00047545020693263207465737420666169E3
:1014D0006C65642074696D652025642E0A00000027
:1014E0002DE9FE4380460C4615464FF0FF36002797
:1014F00000BF00BF0020ADF802008DF80080A8B248
:10150000ADF80400029408E00121684603F0FEFFF4
:101510000646012E00D102E07F1C052FF4DB00BF40
:10152000052F08DB6078237840EA0321AA1E3346A2
:10153000024811F073FD3046BDE8FE830CD9010866
:101540002DE9F05F4FF0FF3800260027B246002556
:1015500000BF00BF4FF4817012F0EEF90446802006
:1015600020705020607003F0C9FFFFF781FF8046B4
:10157000B8F1000F05DA41A011F050FD4046BDE87A
:10158000F09F00F09DF848480078022803D1DFF86A
:101590001CB14FF0EF094FF48071A01CFEF737FE2D
:1015A0004A465946A01CFEF70BFE4D4600BF00BF41
:1015B00000BF00BF00BF204600BF3D480078E0707C
:1015C0003B480088001220713A4800786071394821
:1015D00000880012A07138480078082815D2DFE88A
:1015E00000F0040C050D060E070F00BF00BF00BF82
:1015F000207A20F00800207207E000BF00BF00BF83
:10160000207A40F00800207200BF00BF00270226A9
:1016100007E0701C205CA15D00EB0120384487B21C
:10162000B61C681EB042F4DC784287B200BF00BF2F
:10163000390A681E215467550121681C21544FF056
:10164000000A0BE02A1D2146BA20FFF749FF804619
:10165000B8F1000F00DD04E00AF1010ABAF1050F4C
:10166000F0DB00BF1548FFF719FC03F0ABFEFFF7F6
:1016700055FE204612F006F8002080E73C3C2D473E
:1016800054502D4552524F522D3E3E204932432058
:10169000636F6D6D756E69636174696F6E2045521D
:1016A000524F52210A00000048000020408E0108DD
:1016B000380000203A0000203C000020FFFF0F000F
:1016C00010B586B04FF0FF34434903C9CDE904019A
:1016D00000BF00BF082204A9BA20FFF787FE044616
:1016E000002C05DA3DA011F099FC204606B010BD93
:1016F0009DF81200352825D19DF816009DF8171089
:101700009DF81520CDE9002102909DF814309DF838
:1017100013209DF812103CA011F080FC9DF81200DF
:10172000352856D19DF81300362852D19DF8140063
:1017300038284ED19DF8150038284AD102203E495C
:10174000087046E09DF81500F0B99DF816009DF868
:101750001710CDE900109DF814309DF813209DF866
:10176000121036A011F05AFC9DF81200392830D121
:101770009DF8130031282CD19DF81400312828D170
:1017800001202D49087024E09DF816009DF81710DF
:101790009DF81520CDE9002102909DF814309DF8A8
:1017A00013209DF8121031A011F038FC9DF81200A2
:1017B00039280ED19DF8130031280AD19DF8140064
:1017C000352806D19DF81500372802D100201A4986
:1017D000087020468AE70000089001083C3C2D472D
:1017E00054502D4552524F522D3E3E2047545020CA
:1017F000726561642076657273696F6E20666169D7
:101800006C65640A000000003C3C2D4754502D4993
:101810004E464F2D3E3E2049433120566572736936
:101820006F6E3A2025632563256325635F2530327B
:1018300078253032780A0000480000203C3C2D47D3
:1018400054502D494E464F2D3E3E2049433220569E
:10185000657273696F6E3A202563256325635F2582
:10186000303278253032780A000000003C3C2D47A9
:1018700054502D494E464F2D3E3E2049433320566D
:10188000657273696F6E3A2025632563256325634E
:101890005F25303278253032780A00000EB500BF5F
:1018A00000BF03F0F9F91548B0F90000401C20B161
:1018B0001348B0F90000401C60B94FF0FF300090B1
:1018C000019000208DF808008DF80900684601F0AD
:1018D00047FF0EBD01208DF808000848B0F9000050
:1018E00000900748B0F90000019000208DF8090031
:1018F000684601F035FF00BFEBE700004A0000201A
:101900005400002030B500BF00BF00BF00BF0CB2C4
:10191000034D25F8104014B2024D25F8104030BD9B
:101920004A000020540000204FF0FF31044A22F802
:101930001010044A22F8101000BF00BF70470000CA
:101940004A0000205400002070B50C46054600F007
:10195000FFF8A8682168C16261680163A1684163FA
:10196000490707D5D0E90021C0E90012D0E90221DA
:10197000C0E90212A18981842169002903D001DC18
:101980004FF00001016270BD2DE9F0411E4617467F
:101990008846054600F0DCF8AC686822414604F54C
:1019A0008670FEF70DFC2846B8472846B0472869E0
:1019B00080688047A062BDE8F081000010B5044651
:1019C00000F0C6F8A0681149144AC0F8AC101049DC
:1019D000C0F8A8100F49C0F8B0100F49C0F8B810EF
:1019E0000021C0F8BC101368C0F8B4300C4BC0E93B
:1019F00032315168C0F8C41030F8261F21F00301BD
:101A000020F82A1B0749416410BD0000391901085C
:101A1000991F010801190108C3130108640200207D
:101A2000931401089918010810B5044600F090F8C5
:101A3000A46810481021C4F8E4000F48C4F8E80076
:101A40000E48C4F8EC000E48C4F8F0000D48C4F885
:101A5000A0000D48C4F8A400D4F8C400C4F8FC00E9
:101A6000D4F89420204690471020A0630748606473
:101A700010BD0000A5D8000805EF0008911A000865
:101A8000C11B00087D13010849270108E0CD0108AA
:101A9000F8B5846815460F4694F8260080074CD5A3
:101AA000D4F80031204698470646D4F804312A4637
:101AB000394620469847D4F8983005461BB1002295
:101AC0000121204698472069B04201DD012000E055
:101AD0000020A169B14201DA012100E000210843A0
:101AE0006169A94201DD012100E000210843E169AB
:101AF000A94201DA012100E0002108430AD0606810
:101B00000022401E00902368D4F8A8701146204699
:101B10005B1EB847D4F8AC302A4631462046984779
:101B2000D4F8A01020468847D4F8983005466BB109
:101B3000012200212046984708E0D4F8AC30204626
:101B40009847D4F8A0102046884705462846F8BD97
:101B500070B504468068002812D14FF4BA75284643
:101B600000F04CFA2A460021A06003F02AF8A06891
:101B70000221C1840121046401620249C0F80811F4
:101B800070BD0000891B000810B590B004462022EB
:101B90000A496846FEF714FB08492022203108A8AC
:101BA000FEF70EFB606B5DF82010C4F8001108A969
:101BB00051F82000C4F8040110B010BD889001084D
:101BC0002DE9F84384689846154694F826000F4698
:101BD000800740D5D4F80031204698470646D4F80F
:101BE00004312A4639462046984705462069B042C6
:101BF00001DD012000E00020A169B14201DA0121EC
:101C000000E0002108436169A94201DD012100E0F3
:101C100000210843E169A94201DA012100E0002125
:101C200008430AD060680022401E00902368D4F860
:101C3000A870114620465B1EB847D4F8AC302A463F
:101C4000314620469847D4F8A42001B041462046AA
:101C5000BDE8F0431047D4F8AC30F2E72DE9F04F7F
:101C6000DFF828B191B04FF0FF35DBF80030B3F961
:101C700022100691DE69B3F92490F469A1898142AA
:101C800006D8E289824203D3471AD4F8008012E0D2
:101C9000D4E9018100296FD00A8882426CD84D882E
:101CA000854269D3801A82B2486800EB8200B0F99D
:101CB0000070B0F90250781C5ED0307EA17C10FB21
:101CC00001FA217CCDE90701B3F92A60304604F01E
:101CD00039FDC0B20E90DBF8000007FB0A81A37C3F
:101CE000826B0127CDE90412CDE90273C069089A1D
:101CF000C17E807ECDE90001DDE90603494604F09E
:101D000001F9681C18D046F0020004F01BFDDBF856
:101D10000000A37C05FB0A81826BCDE90273CDE94B
:101D20000412C069089AC17E807ECDE90001DDE918
:101D30000603494604F0E6F8DBF800005D46C0699A
:101D4000417E007E814214D9022E12D086F004001A
:101D500004F0F8FC2868C069027EC37E12FB039180
:101D6000437E857E089A06984B4412FB050204F0D8
:101D700055FA0E9804F0E6FCDBF80000627C418C1A
:101D80001144418411B0BDE8F08F0000E80100204B
:101D900004480068C069C06909B1027C0A60407CDF
:101DA00070470000E8010020022008807047C069E9
:101DB00082898A4202D8C2898A4210D2806880B160
:101DC00002888A420DD843888B420AD3406800EBD0
:101DD0008100A0EB8200B0F90000002801DB0120A7
:101DE00070470020704700002DE9F043304C034657
:101DF00087B020681946B0F92A60C069C06900F050
:101E000086F8002850D041680088181A01EBC005F8
:101E10003046AF7804F096FC814620686A6801235A
:101E2000816BCDE90237CDE90421C169CB7E8A7E81
:101E3000CDE900230B7EB0F924102A78B0F92200F6
:101E400004F060F82068C069417E027E91421FD98B
:101E5000C07E11FB00F812FB00F7022E18D000F034
:101E6000B6FF064600F096FF01F0B6FD21682A781D
:101E7000CB69B1F92200DB7E12FB0302B1F9241019
:101E800001EB0803394404F0C9F9304601F0A4FD20
:101E9000484604F057FC20686A78C369B0F92210FC
:101EA0009B7E12FB0311418407B0BDE8F083000064
:101EB000E801002030B50F4C05460B462068294646
:101EC000C069C06900F023F8002812D0416800887A
:101ED00024682A1A0120E46900EBC200085CA47E91
:101EE00010FB04F0002B04D011F8321011FB04F1A8
:101EF000196030BDE801002001200880704700B55E
:101F0000C06900F004F8002800D0012000BD06E000
:101F100002888A4202D842888A4202D28068002817
:101F2000F6D17047F8B505460C000DD0084600F014
:101F300015F8060010D000F0E7F8224600902DB109
:101F40002946FEF73DF904E00020F8BD002102F02B
:101F500038FE684600F030F93046F8BD002801D060
:101F60000AF052B9704738B50546FFF7F7FF04008D
:101F700009D000F0C9F82A460021009002F021FEA5
:101F8000684600F019F9204638BD0000024A10608A
:101F900021F00300506070475C0F002010B500284E
:101FA00014D004460A48406B10F8341000290DD0B4
:101FB00002290BD2042101EBC401415848680AF000
:101FC00061F82046BDE810400FF0C4B910BD000014
:101FD0009C0E0020002805D0034AD16B016001B19E
:101FE0004860D063704700009C0E002010B5044686
:101FF0000068FFF7D3FF0020206010BD2DE9F041FD
:1020000004460EF0B9F92848E41C24F00305016CDD
:102010002D1DA94200D90D46C46B13E054F8042CC1
:10202000AA420ED184B1216809B162684A60616830
:1020300009B122680A60C26BA24231D12168C16332
:102040002EE02468002CE9D18046816BC0680F180F
:1020500057F8040C3E1A306838B100200FF094FA9B
:1020600057F8040C3E1A3068D0B97068A84217DBE4
:102070003044441B3046241D0FF03EFAD8F80C10B3
:10208000491BC8F80C10D8F814102944C8F81410CB
:102090007068401B02D0314609F0F4FF44F8045C3C
:1020A0002046BDE8F08100009C0E002010B5002401
:1020B0000EF062F90C490F2001EBC002526C1AB10C
:1020C00001EBC000406C08E0401EF5D508E0416817
:1020D000A14200D90C46806810B180680028F6D172
:1020E000A4F10C0010BD00009C0E0020002138B1AE
:1020F0000449042202EBC000496B085841680C39BE
:10210000084670479C0E00200549CA69521CCA61E6
:10211000496B01EBC0010A78521C0A7000F064B8E8
:102120009C0E00207CB506460C460846FFF716FFBD
:1021300005001CD0DEB13046FFF7D8FFA04200DA20
:1021400004462846FFF7E0FF00903046FFF7DCFF2B
:102150000146019022460098FEF732F8684600F0EA
:102160002BF801A800F028F83046FFF717FF2846A3
:102170007CBD000010B5FFF799FF64220649B0F559
:10218000800F04D990FBF2F0096A484310BD096A38
:102190004143B1FBF2F010BD9C0E00200549102810
:1021A00005D94A68B0EB520F02D3500800E0102066
:1021B000886070475C0F00200A4902684B6B52F838
:1021C000082C03EBC2021378022B03D3CB690BB1AB
:1021D0005B1ECB611178491E117000210160084619
:1021E000704700009C0E0020002806D003490422FE
:1021F00002EBC000496B0858083070479C0E002065
:102200002DE9FC414FF000060B465FEA000834461A
:102210002BD032B111461846FFF784FE060000D1DC
:1022200001244046FFF770FF009007884568684624
:10223000FFF7C2FFCCB9B9002846091DFFF772FFAE
:10224000050015D0FFF760FF019040F8276001A856
:10225000FFF7B2FF4046FFF757FF00904560018847
:10226000491C01806846FFF7A7FF2046BDE8FC81B6
:102270003046FFF793FE0124F7E70820FFF773BE0F
:102280007CB5050023D0FFF73FFF00904068C0B148
:10229000FFF73AFF0024019005E0019800EB84006D
:1022A000FFF7A4FE641C00980088A042F5DC01A89A
:1022B000FFF782FF0098001DFFF798FE00990020AD
:1022C00008806846FFF778FF2846FFF767FE7CBD69
:1022D0001CB50C46FFF718FF00900188A1421CD9DD
:1022E0004068D0B1FFF710FF019000EB8400FFF7CA
:1022F0007DFE00990888401E80B20880401E01992A
:1023000006E000BF01EB8402526841F82420641CFF
:102310008442F7DD01A8FFF74FFF6846FFF74CFF47
:102320001CBD38B5002430B1FFF7EEFE00900488E4
:102330006846FFF741FF204638BD38B50D460024FA
:1023400048B1FFF7E1FE2946009000F0B6F80446D8
:102350006846FFF731FF204638BD2DE9FE430C46A5
:102360005FEA00083DD0FFF7CFFE0090068847687F
:102370006846FFF721FFB44233D2B000001DFFF7DB
:10238000F2FD05002DD0FFF7BFFE01903846FFF7A4
:10239000BBFE01460290A2000198FDF711FF301B21
:1023A0008200029800EB8401019800EB8400001D7C
:1023B000FDF706FF01A8FFF7FFFE02A8FFF7FCFEEE
:1023C0003846FFF7EBFD4046FFF79EFE0090456064
:1023D0000188491C01806846FFF7EEFE0120BDE838
:1023E000FE830020FBE72DE9F04115460E46074627
:1023F0000024FFF7B2FF30B12B46002231463846A9
:1024000000F004F804462046BDE8F0812DE9FE43C3
:10241000984691460D460024D0B3FFF775FE019013
:102420000788466801A8FFF7C7FEBD4230D27EB3D9
:102430003046FFF769FE009050F825406846FFF7E8
:10244000BBFE24B12046FFF751FE404511D0404667
:10245000FFF789FD04000CD03046FFF755FE00EB76
:10246000850500902846FFF7C1FD68462C60FFF700
:10247000A3FEB9F1000F0BD054B12046FFF744FE84
:10248000424649460290FDF79BFE02A8FFF794FEE4
:102490002046BDE8FE8338B50D4601880024A942D8
:1024A00009D9406838B1FFF72FFE009050F8254059
:1024B0006846FFF781FE204638BD10B50024FFF7BF
:1024C000EAFF10B1FFF720FE0446204610BD0000D1
:1024D000034900EB800001EB800040797047000069
:1024E000801000202DE9FC5F04468946084600F074
:1024F00075FC2B4E09EB8907824656F827000190A0
:1025000028484FF00108016841B92649C0F8008009
:10251000091D25480860084602F010FB204A09EB17
:102520008901BAF1000002EB81051BD001F03AFAF3
:1025300083464FF07F4001F04DFA00F08DF8002205
:102540001146206800F078FA2068428801885046D9
:1025500001F058FA46F8274085F80580584601F002
:1025600021FA17E046F8274085F805802869464695
:1025700018B101F06DF90020286174B10096E86887
:10258000A1684B46421AA8686168411A206801F0A8
:10259000A1F9286148460FF029FE0198BDE8FC9F8B
:1025A0008010002088030020F907010870B5064656
:1025B0000D461446104600F011FC0300164804EBCB
:1025C00084010AD050F8210041688068711A2A1AE3
:1025D000BDE87040184601F013BA00EB8104A26810
:1025E000B24201D0012200E00022E368AB4201D0F8
:1025F000012300E000231A430CD0236943B150F8B3
:102600002100816840686A1A311A184601F03EF9C3
:10261000C4E9026570BD00008010002010B5C2B290
:10262000CBB2D21A00D5524293B25B43C0F3072219
:10263000C1F30724121B00D55242000C92B2A0EB4A
:10264000114002FB023200B2002801DA404200B21F
:1026500080B200FB002010BD10B50021084600F03C
:10266000FBFB43F6FF725042BDE8104013460146A3
:10267000AFF300802DE9FC4107461C4615460E4687
:10268000042004F05FF880461148C068C16C006DFA
:102690000F4406440D440444ADF80070ADF80450F6
:1026A000ADF80260ADF80640684609F09FF807E013
:1026B00023462A463146384603F0B0FD09F058F863
:1026C0000028F5D1404604F03DF8BDE8FC8100004B
:1026D000DC010020B0F90630B0F90420B0F9021096
:1026E000B0F90000FFF7C6BF2DE9F0411C461646C1
:1026F0000D460746022B02DB0020BDE8F0811C20BE
:10270000FFF77CFC0028F8D00DB105610AE0094A0A
:1027100052F8241009B905E011460A68002AFBD1D5
:102720000969016184618682002101604160C0E91C
:102730000217E2E70002002070B51D46FFF7D4FF44
:10274000040009D000F00EF8E068006820B90348E2
:10275000006800EB85008465204670BDE80100201C
:10276000FFF738BC70B590B38269022A30DA1E4C8C
:1027700054F8221019B944F8220032E019464B6887
:10278000002BFBD106E0CB68C5681B682D68AB4207
:1027900003DD09680029F6D11AE0C1B1CB68C6682B
:1027A0001B683668B3420CD1838A012B05D008E040
:1027B0001946DB681B68AB4203DB0B68002BF7D1C3
:1027C00029B14B6833B118604A68426004E0FFE702
:1027D000012070BD44F822004860884200D10021E9
:1027E0000160002070BD0000000200200A4A8169DB
:1027F00052F82130834202D1036842F82130416807
:1028000009B102680A60016809B142684A600021A2
:10281000016041607047000000020020022801DBD7
:1028200000207047054951F8200004E0C16809689C
:102830000029F6D000680028F8D170470002002077
:102840002DE9F8431D461646884604000CD0FFF7D4
:102850005BFC0090006807686846FFF7ADFC2B46FC
:10286000324641462046B847BDE8F88338B50400F3
:102870004FF000000AD02046FFF746FC00900068A9
:1028800045686846FFF798FC2046A84738BD38B52C
:1028900004004FF000000AD02046FFF735FC0090FE
:1028A000006885686846FFF787FC2046A84738BD62
:1028B00070B5044601F03EFB051908E000F0EEF9A2
:1028C000052C01DD052000E0204601F025FB01F08C
:1028D00031FB2C1A002CF1DC70BD47F6FF73AFF30F
:1028E00000802DE9FC411F46904606000D464FF042
:1028F000000416D065B1084608F050FE040007D069
:1029000002462946684602F016F8684608F046FE78
:102910003B4642462946304601F0EEFC204608F090
:102920003DFEBDE8FC812DE9FF4F87B0904689460A
:10293000070079D00C68D9F8045021B228B2401AA7
:10294000401C029000F054FA064618F00C0F1ED0FE
:1029500038460A9A029901F0BAFA08F00C010429E3
:1029600004D0082902D00C2911D104E0291400FB5D
:102970001610401C09E02114C1EB254200FB162073
:10298000401C00EBD07001EB600060F31F44484630
:1029900008F004FE5FEA000B09D00246494604A88D
:1029A000CDE9044501F0C7FF04A808F0F7FDA6F142
:1029B000010A38460A9A029902F0D2F803900AEB0B
:1029C000244060F31F45CDE900453846039901F0E6
:1029D0001BFF18F003010ED0012928D002290ED1C7
:1029E000B9F90420B9F90010521A101A00EBD0708E
:1029F00001EB600001E0B9F80000ADF800006A46A4
:102A00003846039901F020FC38460A9A029902F0F0
:102A10009DF8074406EB244060F31F4438780028F3
:102A2000C7D1584608F0BAFD0BB0BDE8F08FB9F831
:102A30000410081A401CE0E77CB506461048006800
:102A4000C36C006D5D1884183188681E0844ADF8A9
:102A50000400ADF800507188601E0844ADF806000F
:102A6000ADF80240684608F0C1FE06E0224629465D
:102A70003046FEF76DFB08F07BFE0028F6D17CBDEA
:102A8000E80100202DE9F04F0C46164987B00D688B
:102A9000DDE91098E96C0F18286D8D180619C41817
:102AA000ADF81070ADF81450ADF81260ADF81640E6
:102AB00004A808F09BFE002811D0DFF82CB04FF0DE
:102AC000000ACDE90098CDE902BA2B4622463946E4
:102AD00030460BF0DBFC08F04BFE0028F1D107B0CC
:102AE000BDE8F08FE8010020C96100082DE9F04F32
:102AF000164C87B02568DDE91098EC6C2718286D16
:102B0000A5184618C418ADF81070ADF81450ADF8FB
:102B10001260ADF8164004A808F068FE002811D035
:102B2000DFF82CB04FF0010ACDE90098CDE902BAE8
:102B300023462A46314638460BF0A8FC08F018FE1A
:102B40000028F1D107B0BDE8F08F0000E8010020B7
:102B5000096100082DE9FC41104F04463B68D86C20
:102B60004518196DADF800500E198418ADF80440E1
:102B7000ADF80260ADF80660684608F037FE08E080
:102B8000386822463146406E03682846984708F068
:102B9000EFFD0028F4D1BDE8FC810000E801002031
:102BA0007CB50E4D2A68D36C1E18106DADF804600C
:102BB0004418ADF80060ADF80640ADF80240684634
:102BC00008F014FE07E028682146406E426830464F
:102BD000904708F0CDFD0028F5D17CBDE80100202C
:102BE0002DE9FC411C4C2468E66C94F818C0371899
:102BF000206DACF1010C4518C418A7EB0C0016446D
:102C0000ADF8000006EB0C00ADF80400A5EB0C00DD
:102C1000ADF8020004EB0C00ADF80600684608F0C1
:102C2000E5FD15E032462946384603F06DFA324696
:102C30002146384603F068FA621E691C384603F0E4
:102C4000C3FA621E691C304603F0BEFA08F090FD1C
:102C50000028E7D1BDE8FC81E80100207CB50E4BDF
:102C60001B68DC6C2618186DADF8006045188418D8
:102C7000ADF80460ADF80250ADF80640684608F0C3
:102C8000B5FD06E022462946304603F09DFA08F0DD
:102C90006FFD0028F6D17CBDE801002010B50024AE
:102CA00000E0012400F004F80028FAD1204610BD0D
:102CB000094810B50068002410B1804700B1012414
:102CC00007F0B8FE00B101240448006810B1804745
:102CD00000B10124204610BD0C0200200802002093
:102CE00008B50B46002805D0009281888268C0880C
:102CF00000F001F808BD10B50828029C30D008DCAF
:102D000004FB01F401280AD0022813D0042804D1BE
:102D10001CE0102828D020282CD0002010BD04EB67
:102D2000D30003F00701105CC1F10701C84000F0B7
:102D3000010010BD04EB93000621105C01EA430181
:102D4000C1F10601C84000F0030010BD04EB5300C0
:102D5000D907105C02D000F00F0010BD000910BDB3
:102D600004FB0130105C10BD481004FB003032F849
:102D7000100010BD881004FB003052F8200010BD78
:102D8000034951F82000C1688A6A082110470000F1
:102D90000002002010B503F071FABDE8104003F006
:102DA00017BB000002490968C9694A680021104739
:102DB000E8010020024A1268D269526810470000F8
:102DC000E8010020002801D007F078BE704710B558
:102DD00003F05CFABDE8104003F0FABA00210228C3
:102DE00002D2024951F8201008467047A40300207F
:102DF00002480068C069407E70470000E80100207A
:102E000070B514460D4603F075FA002802D0002074
:102E10002860206070BD01F04BBD10B5044601F084
:102E200039FD01462046BDE8104001F0EDBC01F03F
:102E300081B8407E70470000024951F820000069C7
:102E40000068704700020020024951F82000006924
:102E5000406870470002002070B50D460DF06EF915
:102E6000044628460DF072F9204370BD2DE9F0416B
:102E70001948016821F001010160184801258560A9
:102E80001749016000681749884200D0FEE701F049
:102E90000DF9154E2E20307001F052F813480DF048
:102EA00033FA10F097FB074603F04CFA10B103F029
:102EB0005DFA38B903F063FA044603F04CFA214690
:102EC00003F03AFC0021084600F0A8FD08F0EAF8FB
:102ED00075703846BDE8F081002000E00030024007
:102EE000C2A507F4CDB5E8B5DC010020680F0020CD
:102EF0001CB520B90C480068006E002812D0FFF7FE
:102F000003F9009044696846FFF756F9002C09D090
:102F10002046FFF7F9F8019081688968884701A881
:102F2000FFF74AF91CBD0000E801002001490A46EC
:102F300000F002B801F0FFFF2DE9F04387B015461D
:102F40000C465FEA000842D0002000F04DFD8146AB
:102F500020480068066E4046FFF7D6F800900068EB
:102F6000806900F01FFD074640F6FF70C44204D19F
:102F70000098B0F90440B0F906500098611E02892B
:102F8000ADF804401144ADF808104189681E0844AA
:102F9000ADF80650ADF80A0007F05CFB6846FFF795
:102FA0000BF901A808F022FC06E02A46214640461B
:102FB00000F04EFB08F0DCFB0028F6D1384600F0AC
:102FC000F1FC304600F066F9484600F00DFD07B010
:102FD000BDE8F083E80100202DE9FE4F83461A4842
:102FE0008A461A4900680C9E9846407C9146002704
:102FF00051F82040E1680968042903D02468002CB6
:10300000F8D100E01CB9FFF709FC041E19D0E068F4
:103010000121C26A20469047050011D02469A068AA
:103020008047401C02D10A4C46F001060096CDE9CB
:10303000015443464A465146584600F0AFF9074608
:103040003846BDE8FE8F0000E801002000020020A5
:1030500018D8010838B5040018D00D480068006E73
:10306000A04201D100F094FC2046FFF74DF80090FB
:10307000406908B100F019FF00980068FFF770FB85
:103080006846FFF799F82046FEF788FF38BD000034
:10309000E80100202DE9FF4FDFF83891074683B0A3
:1030A000D9F800009A468B46447C4B4800570128CB
:1030B000204606DD03F04CF90546204603F05CF996
:1030C00005E003F02DF90546204603F02FF90446EC
:1030D0001FB302A901A8FFF79EFEB7F90000002860
:1030E00000DA0020B7F902608046002E00DA0026E0
:1030F00001984119B7F90400491E0DF095FA0546EB
:1031000002980119B7F90600491E0DF08DFAA5EBDA
:103110000802841B521C641C03E04FF00008464662
:103120002A46BAF1000F01D1C4F1000A002A4FDD8E
:10313000002C4DDD10980090534631464046FFF775
:103140004BFF5FEA000A10D000F06AF80746A04281
:1031500006D0D9F80000806C10B1322108F0C8FE0A
:10316000504600F097F8002521E059460598884719
:10317000012007B0BDE8F08F611BB94202DA50466A
:1031800000F072F83DB172194146504600F0A4F8C3
:103190005046FFF7ADFE5946059888470F4801682D
:1031A00009B1002088475046FFF7C0FE3D44A542C4
:1031B000E2DB5046FFF74EFF002000F06BF8A7421D
:1031C00006D0D9F80000806C10B1332108F090FED1
:1031D0000020CEE7E801002020020020C0030020EC
:1031E00038B5002460B1FEF78FFF009000680069D9
:1031F0008068804703F094FC04466846FEF7DCFFD5
:10320000204638BD38B5002808D0FEF77DFF00F114
:10321000180400906846FEF7CFFF204638BD000036
:1032200038B5002418B907480068006E38B1FEF7B9
:103230006BFF0090B0F90A406846FEF7BDFF2046DC
:1032400038BD0000E801002070B50546002428467E
:1032500009F0FCFA641C18B1BDE8704000F068B8D1
:10326000052CF4DB70BD000038B50C4620B90848C9
:103270000068006E00280AD0FEF746FF0090B0F903
:103280000A10A14200DD44816846FEF795FF38BD73
:10329000E8010020F8B50F4E05003068046E16D026
:1032A0000CB100F075FB07F013FB2846FEF72CFF6E
:1032B000009031680D660068FFF754FA6846FEF723
:1032C0007BFF03F0B1FA03F017FA2046F8BD00F0D7
:1032D0005FFBFAE7E80100207CB515460C4620B9F3
:1032E00012480068006E00281FD0FEF70DFF2DB2B7
:1032F0000090C58024B2848003F0FEF900984069F4
:1033000080B1FEF701FF009A0190B2F908108180A8
:10331000B2F90A20C28011B10AB10480458001A827
:10332000FEF74AFF6846FEF747FF7CBDE801002034
:1033300001490A4600F002B801F0FFFF7FB51546CB
:103340000C46060028D0FEF7DFFE40F6FF71019024
:10335000CC4203D1B0F90440B0F906500289611E95
:103360001144ADF80840ADF80C104189681E0844BE
:10337000ADF80E00ADF80A5001A8FEF71DFF02A837
:1033800008F034FA06E02A462146304600F048F9B3
:1033900008F0EEF90028F6D17FBD00002DE9FF4FBF
:1033A000DFF8E8B083B01C46DBF80010DDE9106000
:1033B00092464FF000084B7C42461299FFF794F971
:1033C000050060D028698068804703F0A9FB81462A
:1033D0000AFB09F1C91DCF08FEF7CCFEF10705D1A4
:1033E000C11700EB9170801000EB4000002C09DC4D
:1033F0001FB11838B0FBF7F000E000206442A04293
:1034000000DC0446F00707D10090DDE90301234604
:10341000524600F0D3FC8046002C03DC2846FFF720
:103420009FF930E004FB07F01830F10702D0FEF7F7
:1034300095FD01E0FEF797FD06001CD0FEF764FE47
:1034400001900560039981800499C180A0F808A0CB
:103450004481C0F81480C0E9037901A8FEF7ACFEEE
:103460001298AE602861DBF80000407CA86130460D
:1034700007B0BDE8F08F2846FFF772F9B8F10000F9
:1034800001D0FEF78BFD0020F2E70000E8010020EC
:103490002DE9F74F8EB0144689460E98FEF734FE9C
:1034A0000990B0F908B0B0F90A6000680069406896
:1034B0000C9009A8FEF780FE564D574F2868407CB7
:1034C00057F82000C1688A6A082190470790182899
:1034D00001D3202007902868407C57F8200000691D
:1034E000069003C80B904D48814201D0012000E0B6
:1034F00000200A90002000F024FD00287DD12868DB
:1035000009EB0B01B0F90C20891A491E002902DDD4
:10351000ABEB010500E05D46B0F90810494505DD5B
:10352000A1EB090189446D1A089101E0002108917D
:10353000002D6BDDB0F90E20A119891A491E002952
:1035400002DDA6EB010800E0B046B0F90A00A04297
:1035500004DD061B3444A8EB060800E00026B8F1A1
:10356000000F53DD089801900DA95F46DDF830A0EB
:103570000E980091FFF746FE774300EB8701019814
:103580002B4601EB800200994846CDE900A1214677
:1035900000F062FF0090002838D00A98E8B1DDE919
:1035A00006322946009800F07BFDB0B90698009FCE
:1035B000DA46D0F810C0BCF1000F05D004235A46FB
:1035C00039463846E04708E00B993868884701C714
:1035D000AAF101005FEA000AF6D100990020079ADB
:1035E000CDE90301059001200090CDE901022146BB
:1035F0000346641C2A46484600E007E002F082FCCD
:10360000A8F10100761C5FEA0008ABD111B0BDE85B
:10361000F08F0000E801002000020020EF630008A6
:10362000F8B515460E460746FEF76EFD0090006899
:103630001621C068426A0020904704466846FEF79B
:10364000BBFD002C03D02A4631463846A047F8BDC2
:10365000F8B516460F46050012D0FEF755FD00904E
:1036600044696846FEF7A8FD2846FFF7B9FD034602
:10367000082800DD2CB13246394628460FF07AF88A
:10368000F8BD3246394628460FF014FAF8BD10B599
:10369000002821D009B30AB3B1F90040B2F90030D3
:1036A0009C4200DA23460380B1F90240B2F90230AD
:1036B0009C4200DA23464380B1F90440B2F9043059
:1036C0009C4200DD23468380B1F90610B2F9062042
:1036D000914200DC1146C18010BD11460A680260AB
:1036E0004968416010BD00280BD003880B4403805B
:1036F000838819448180418811444180C1881144E4
:10370000C180704770B50E4D0446D5E9000188426E
:1037100009D10C49884201D13C3000E00C3807C87F
:1037200084E8070006E090E80E0084E80E000CF044
:103730008BFD2860207A002800D0012070BD000099
:103740002C020020D80F00200448D0E9001081424C
:1037500001D1012070470020704700002C0200209A
:10376000054A10B5034911600EF052FEBDE8104045
:1037700000F08CB9EDAC00081002002070B5094CC7
:103780000020D4E900218A420AD0D2E9005610462E
:103790000CF072FD20603146284607F067FD0120DD
:1037A00070BD0000940300202DE9FC41154DDDE9BA
:1037B00008742D68B5F90860864200DD3046B5F919
:1037C0000C60964200DA3246824219DBB5F90A6093
:1037D0008E4200DD3146B5F90E509D4200DA2B468F
:1037E0008B420DDB00E02C46E5682D6825B1042DE9
:1037F00002D02568002DF6D1CDE9007402F066FEF6
:10380000BDE8FC81E8010020B0F90220B1F90630E2
:103810009A4213DCB1F90220B0F906309A420DDC6D
:10382000B0F90020B1F904309A4207DCB1F9001078
:10383000B0F90400814201DC01207047002070478C
:103840000146024870220068FCF7BABCE80100207B
:1038500038B5040019D00EF085FE20460EF020FF8A
:103860002046FEF751FC00900068FEF7B3FB00987D
:10387000C068FEF793FB0098C069FEF78FFB6846AF
:10388000FEF79AFC2046FEF789FB38BD002801D0E0
:103890000EF054B9704738B5040019D0FEF734FC67
:1038A0000090007C800710D420460CF081FE684612
:1038B000FEF782FC20460EF0B5FC2046FEF724FC05
:1038C0000090018A41F0020101826846FEF774FC13
:1038D00038BD00002DE9F84304460088089F914652
:1038E0008846D0B36088C0B3E06818B1806800280B
:1038F00034D002E0E08820282FD107F00102002117
:103900001E48FEF7F1FE050027D020886188800060
:1039100048432030FEF727FB060021D03046AE603A
:10392000FEF7F2FB009007824461A0F80480A0F843
:103930000690238808EB0301491E018161884944F0
:10394000491E418105606846FEF736FCE06858B1C3
:103950002146304609F0A4F830B10020BDE8F883D4
:103960002846FEF7FDFEF8E7B80705D530460CF00F
:103970001FFE30460EF056FC3046EFE7E4D7010854
:10398000024970220968FCF71BBC0000E801002016
:1039900010B502F067FE02F047FFBDE8104006F0E8
:1039A00059BE000070B5094D0446022C2868467CBB
:1039B00009D22046FEF732FF28B128684474FFF789
:1039C000E7FF03480460304670BD0000E8010020B6
:1039D000F802002002F066BE02F09CBE0149886039
:1039E00070470000DC01002002F0ACBE034909680A
:1039F000CA6900B1C861104670470000E8010020A4
:103A000002F0BCBE02F0D0BE02F0FABE0249096864
:103A10008A7E887610467047E8010020094A30B453
:103A20001080094A1180094A1268537C084A52F8EA
:103A30002330DA68146A0A46A446014630BC1846A8
:103A400060470000280200202A020020E801002030
:103A500000020020024909680A7E08761046704775
:103A6000E801002003490968B1F92C208885104637
:103A700070470000E801002003490968B1F92A20D5
:103A80004885104670470000E801002002480068A1
:103A9000002800D000477047A002002002498A6831
:103AA00002B98860FFF7F2BF940300202DE9FC41C2
:103AB0000746984616460D461C20FEF754FA0400A9
:103AC0002DD01B49194808602046FEF71DFB0090C9
:103AD00015B9FFF7ACF9054600980760C0E9046521
:103AE000A0F80C806846FEF767FB20460CF01CFD32
:103AF000104DA86840B90120A86005F10C010E48DE
:103B00000860084601F01AF82046FEF7FDFA019019
:103B1000296839B181602C6001A8FEF74DFB204671
:103B2000BDE8FC8100212C608160F5E7593B00086D
:103B30000C020020AC0300201108010810B504009D
:103B400009D00DF0F3FC20460EF082FD2046BDE8C2
:103B50001040FEF723BA10BD2DE9F041184C88B093
:103B60000025676825E000BFFFF761F90646606839
:103B7000FEF7CAFA01904169891B002915DC6168CA
:103B8000029604910169039146686660D0F800804E
:103B900001A8FEF711FB02A84146884766B160689C
:103BA0000125B84205D1002506E001A8FEF704FB77
:103BB00002E060680028D7D108B02846BDE8F0814F
:103BC000AC03002038B50C4660B1FEF79DFA0090BA
:103BD0008089204201D0012400E000246846FEF7DD
:103BE000EBFA00E00124204638BD38B5040012D0BD
:103BF000FEF78AFA0090FFF71AF9014600988269E9
:103C0000114441616846FEF7D7FA20460EF020FDC8
:103C100020460CF089FC38BD38B50C46002806D08B
:103C2000FEF772FA009084616846FEF7C5FA38BD67
:103C300038B50546002028600648046844B120468F
:103C4000FEF762FA0090006928606846FEF7B4FA51
:103C5000204638BDAC03002038B504004FF000000A
:103C60000D46086011D02046FEF74EFA0090846899
:103C700044B16846FEF7A0FA2046FEF745FA0090E8
:103C8000006928606846FEF797FA204638BD0000B4
:103C90002DE9F041084E0446056830680168284661
:103CA000884707463068416828468847284420608E
:103CB0003846BDE8F0810000EC0100202DE9F0411C
:103CC0000C4606460025064F05E038684168304638
:103CD000884706440544641EF7D22846BDE8F081B3
:103CE000EC0100202DE9F0411E46069C174688464F
:103CF00005463A46A8687F1C3346D0F804C04146C2
:103D00002846E047641EF4D1BDE8F08170B5B0F9F3
:103D10000040091BB0F904408C422CDD00F1140472
:103D2000B0F902500069521B02FB0040CA1800EBB8
:103D3000E104521ED010B0EBE10501F007034FF093
:103D4000FF0102F0070221FA03F0C2F1070201FAB3
:103D500002F1CEB221780FD001436D1E04F8011B91
:103D6000002D05DDFF2229462046FCF749FA2C44A8
:103D700020783043207070BD30400143217070BD09
:103D800010B5B0F90030B0F90240C91A00F11403BF
:103D90000069121B02FB003000EBE10001F0070399
:103DA00002788021D9400A43027010BDB0F9061094
:103DB000026951431430FCF72ABA00002DE9F84398
:103DC000804602F10F000011470003FB07F01C467C
:103DD000154689461430FEF7C6F8060013D0FEF7E4
:103DE00093F90090A0F80080A0F802908580C4802C
:103DF000064981600121818107616846FEF7DCF98F
:103E00003046BDE8F8830020FBE70000A4D8010895
:103E100070B5B0F90660B0F904400B6800F1140504
:103E200096421BDD0069A34202FB005000EBE30257
:103E300014DA641EE010A0EBE30512F8010B03F0A6
:103E40000704A040C4B206E045B1083312F8014BA4
:103E500023F007036D1E002CF6D004E0002070BD97
:103E60006006040E5B1C2006FAD5FF2C07D018460E
:103E700002E06406240E401C6606FAD400E0D81D59
:103E8000C443640705D006E012F8014BFF2C09D1AA
:103E900008306D1EF8D5C01A401C0B6070BD62065C
:103EA000140E401C2206FAD4F5E738B50546FEF795
:103EB0002BF900908189491E0CB284816846FEF777
:103EC0007BF9002C02D12846FEF768F838BD2DE9B1
:103ED000F04116460F46054600243246394628462C
:103EE00000F034FE054408B1641CF6E72046BDE846
:103EF000F081000010B54FF480110548FEF746F838
:103F00008020FEF74BF90348FFF768FD10BD000065
:103F10000000006CD49C0108044A1268111800BF0C
:103F2000024A12688A1A002AFADC7047A4000020AC
:103F3000704700000148006870470000A40000209E
:103F400070470EB508B102AA00E00022002301A9C3
:103F5000684600F00BFC0EBD074910B50C7818B18F
:103F600001200870801E03E0002008706FF07F4081
:103F700001F0B2FF204610BD2202002010B5082A31
:103F80000EDC0346012A18D0022A56D0042A76D025
:103F900010F8042B03F8012B491EF9D1012010BDA4
:103FA000102A08DC4FEA000230F8043B22F8023BFA
:103FB000491EF9D1F2E7002010BD10F8042BD207FA
:103FC000120E491E34D010F8044B491E04F00104AF
:103FD00042EA84122CD010F8044B491E04F001046C
:103FE00042EA441224D010F8044B491E04F00104A4
:103FF00042EA04121CD010F8044B491E04F00104DC
:1040000042EAC40214D010F8044B491E04F0010423
:1040100042EA84020CD010F8044B491E04F001045B
:1040200042EA440204D010F8044B04F00104224395
:1040300003F8012B0029C0D1B0E710F8042B920738
:10404000120E491E15D010F8044B491E04F003044B
:1040500042EA04120DD010F8044B491E04F0030488
:1040600042EA840205D010F8044B04F00304224312
:10407000491E03F8012B0029DFD18FE7FFE710F875
:10408000042B1207120E491E05D010F8044B04F041
:104090000F042243491E03F8012B0029EFD17DE7CD
:1040A00038B50024009400F01BF838BD0A4810B55C
:1040B000816900290ED101218161FFF71BFF02F008
:1040C000C5FB054905481C310860BDE8104008469D
:1040D00000F034BD10BD0000DC01002085070108A0
:1040E0002DE9F0410D460699044601B901461F68C5
:1040F000082A09DC0E46012A1AD0022A5BD0042ABB
:104100007DD0082A13D18DE0102A07DCD3F810C027
:104110000E46BCF1000F04D0022389E00020BDE868
:10412000F08101CCB84726F8020B6D1EF9D189E069
:1041300001CCB847C0074FEA10686D1E36D001CCDD
:10414000B84748EA801000F0FF086D1E2ED001CC61
:10415000B84748EA401000F0FF086D1E26D001CC99
:10416000B84748EA001000F0FF086D1E1ED001CCD1
:10417000B84748EAC00000F0FF086D1E16D001CC19
:10418000B84748EA800000F0FF086D1E0ED001CC51
:10419000B84748EA400000F0FF086D1E06D001CC89
:1041A000B84740EA080000F0FF086D1E06F8018BD2
:1041B000002DBDD146E001CCB84780074FEA10681A
:1041C0006D1E16D001CCB84748EA001000F0FF0879
:1041D0006D1E0ED001CCB84748EA800000F0FF0801
:1041E0006D1E06D001CCB84740EA080000F0FF0879
:1041F0006D1E06F8018B002DDDD123E0FFE701CC19
:10420000B84700074FEA10686D1E06D001CCB847CA
:1042100040EA080000F0FF086D1E06F8018B002D33
:10422000EDD10FE0D3F810C0BCF1000F04D0012392
:104230002A462046E04705E001CCB84706F8010BC6
:104240006D1EF9D101206AE77CB5064628480D4667
:10425000006868B1002007F0C9FA06E06A462946FE
:10426000304608F0E3FB07F083FA0028F6D17CBD66
:10427000106800901F4C506801902268BDF8000043
:1042800032F84C1F0844ADF80000BDF802009188D8
:104290000844ADF80200BDF8040011880844ADF8E8
:1042A0000400BDF8060091880844ADF80600684691
:1042B00007F09CFA0EE000BF2068BDF800106A46C7
:1042C0004184BDF8021081842946304608F0AEFBD7
:1042D00007F04EFA0028EFD1206830F8221F428DF7
:1042E000891A01804188C28D891A41807CBD0000F5
:1042F00024020020E80100202DE9FF4F85B09A46F6
:1043000090460D46FEF774FD4FF00009DDF814B03D
:1043100006464C4625B1286800906868019002E086
:104320006846FEF74FFD18F00C0F02D055460027E7
:1043300013E0BDF902402DE029467F1C059800F0EE
:104340008DFA01466D1A0598FFF7B8FC05990844E7
:10435000059005A800F0C6FA08B9002DECD108F0C8
:104360000C00042804D0082802D00C2812D105E043
:10437000BDF9060007FB1604641C0BE0BDF906003E
:10438000BDF90210401A07FB1600401C00EBD0706C
:1043900001EB60045546CDF814B043E0294605987A
:1043A00000F05CFA07460146ED1B059800F02CFA78
:1043B00018F003010ED0012939D002290DD1BDF921
:1043C0000410BDF90020891A091A01EBD17102EB22
:1043D000610101E0BDF900108946174A401E4844BA
:1043E00012683946A2F822909484ADF80C00A01906
:1043F000401EADF80890ADF80E00ADF80A4002AAD4
:104400000598FFF721FF39460598FFF757FC0599F6
:1044100008440590FEF7ECFC044405A800F062FA9D
:10442000002801D1002DB9D109B0BDE8F08FBDF948
:104430000410091A491CCFE7E801002049B10028FF
:1044400002DAA0EB610001E000EB610090FBF1F00B
:1044500070470020704700002DE9FF4F8DB000200D
:10446000DDF86CA0164600901D4604460246CAF8C8
:10447000000008AB03A902A800F078F918B10020E9
:1044800011B0BDE8F08F0898854200DD0546614F08
:104490000B9561493868407C51F8201004910969F6
:1044A0000691FEF76DFC05903868407CFEF7CCFC69
:1044B0005A498146884204D05949894501D0012092
:1044C00000E000200A9001CE1A9988478346000E2A
:1044D000079077D0009870BB0D9800EB04084D480A
:1044E0000068B0F90800404503DDA0EB08078046EE
:1044F00000E000270298049900EB840000EB87009D
:10450000CDE900010B990D98421809920E9B404687
:104510001946521EFFF748F9012000900598182807
:104520000ADA0298DDE9052300EB840000EB87003E
:10453000E91B00F079F812E00A9880B1029800EBCC
:10454000840000EB87070998A0EB08084946386803
:10455000884701C7A8F101005FEA0008F6D1314899
:10456000C06980B3DDE9020700EB840007EB840239
:10457000CDE902022B4C361F3046E4692B460299E6
:10458000A047FF213068B1EB106F02D1029800689C
:1045900004E0029A1268B1EB126F01D1039A106025
:1045A000029806F10406001D02900398001D039076
:1045B0006D1EE7D10397DAF8000040F00101CAF858
:1045C000001020E021E0FFE70798FF2811D0C0F19C
:1045D000FF02029850F82410584600F047FA039959
:1045E00041F82400DAF8000040F00101CAF8001098
:1045F00005E00298039950F8240041F82400641C57
:104600006D1E7FF460AF03983AE7039941F824B038
:10461000E8E70000E801002000020020EF63000846
:10462000ED630008F40300202DE9F05F0C1E16DD99
:104630005E68014600EB8405082A12DC611E012A2F
:1046400026D0022A47D0042A6AD0082A07D107199F
:1046500017F8010DB04745F8040D641EF8D1BDE808
:10466000F09F102AFBDC5F693FB12246BC46BDE8E3
:10467000F04F02235DF804EB604701EB440700BFF5
:1046800037F8020DB04745F8040D641EF8D1E6E78F
:1046900000EBE10001F0070710F801A98146802036
:1046A00020FA07F8B5F104050AEA0800C7F1070186
:1046B000C840B04745F804093FB14FEA48604FEAA7
:1046C00010687F1E641EEFD1C9E719F801A90727FA
:1046D0004FF00108F6E700EBA10001F0030710F826
:1046E00001A981467900C02020FA01F84FF0060B9D
:1046F000B5F104050AEA0800ABEB4701C840B04732
:1047000045F804093FB14FEA88604FEA10687F1E00
:10471000641EEFD1A3E7032719F801A9B846F7E70C
:1047200000EB6100012710F801A9A7438146B900F9
:10473000F02020FA01F84FF0040B2D1F0AEA0800C0
:10474000ABEB8701C840B04745F804093FB14FEAD9
:1047500008704FEA10687F1E641EEFD17FE719F8DA
:1047600001A901274FF00F08F6E700002DE9F047F7
:10477000224C06461F46A06990468946002540B94E
:104780000120A06104F120011D480860084600F0E6
:10479000D5F9606930B91B480068606110B901F053
:1047A000C2FD606107B138604EB1A06830B9606980
:1047B0008000FDF723FCA06000B901253060B9F14D
:1047C000000F0AD0E06830B960698000FDF716FC80
:1047D000E06000B90125C9F80000B8F1000F0AD067
:1047E000206930B960698000FDF708FC206100B9DC
:1047F0000125C8F800002846BDE8F087F403002032
:10480000210801081802002073B5124A01A9009876
:104810001268904700240090C8B10F49002509682C
:10482000C969496959B10A684AB1019990477CBD83
:104830006846FFF72DFA0546FEF7B4FA04440198DE
:10484000401E0190F4D5284600F040F8044420466C
:104850007CBD000084030020E801002073B50D46F4
:104860000098002490B10A490968C969496959B199
:104870004A684AB1294690477CBD6846FFF708FA66
:1048800020B10A2802D0641CAC42F6DB20467CBD75
:10489000E801002031B50024009808B905E0641C47
:1048A0006846FFF7F5F90028F9D1204638BD000029
:1048B000044AB2F9002002600348B0F90000086021
:1048C00070470000280200202A02002038B500248A
:1048D00069460094FEF76EFA0099814200DD0C1AD9
:1048E000204638BD016811F8012B12B10A2A02D006
:1048F00002E001207047016000207047B0F90030ED
:10490000B1F90020934200DA0280B0F90230B1F927
:104910000220934200DA4280B0F90430B1F9042059
:10492000934200DD8280B0F90620B1F906108A4278
:1049300000DDC180704770B5B1F90040B2F90030B8
:104940009C4200DD23460380B1F90250B2F90240D7
:10495000A54200DD2C464480B1F90460B2F9045050
:10496000AE4200DA35468580B1F90610B2F906206C
:10497000914200DB1146C1809D4201DBA14201DA78
:10498000002070BD012070BD014602480068407CD7
:1049900000F002B8E80100202DE9F843012689461D
:1049A000044602285DDA304F7A6802B190472E4DF6
:1049B0005FEA090005F1100532D0012803D0B9F1F2
:1049C000020F4ED118E055F8240088B92046FDF7B3
:1049D00025FF009018B3C0680D21426A68469047D1
:1049E00002003ED049460098904755F82400002622
:1049F000401C45F8240034E02046FDF70FFF0090EE
:104A000068B1C0680D21426A68469047040028D00A
:104A1000386800B1804749460098A047002620E04A
:104A200055F82400A846012812D12046FDF7F6FECD
:104A3000009068B1C0680D21426A68469047050041
:104A400006D0386800B1804749460098A84700263C
:104A500058F8241009B1012200E00022891A48F810
:104A600024103046BDE8F8836403002070B5FF23AE
:104A7000B3EB116F2CD0C3B213FB02F500F47F44EB
:104A800000F47F0354435343000E10FB02F6C2F1BF
:104A9000FF00CAB212FB005201F47F4505FB00443F
:104AA00001F47F0505FB0033090E11FB0065C2F31D
:104AB00007204FF47F024FF47F4102EA132201EAFC
:104AC00014214FF07F43084303EA05431043184382
:104AD00070BD2DE9F04F0646DDE90CB915460C46D0
:104AE00000208046584519D20B9F4FF0FF0A01CE97
:104AF00008CCAAEB106202FB09F2B2FBFAF1CAB2CF
:104B00001946FFF7B3FF20F07F4001C57F1EEED1AD
:104B1000099804EB800408F10100E2E7BDE8F08F9A
:104B20000B88134403808B889B1A83804B88134423
:104B30004380C988891AC1807047000002494A69C8
:104B40004260486170470000DC01002010B5044657
:104B500000F009F801462046BDE81040FFF7AEB866
:104B600000230DF0DDBD77B581B015460E466B46CE
:104B700001980DF0D5FD044601460198FFF79EF817
:104B800001990844019001A8FFF782F80A2802D091
:104B9000012D02D012E0641C10E020280ED1FEF797
:104BA00001F9054607E02844009001A8641CFFF7BE
:104BB0006FF8202802D100988642F4DA04B020462B
:104BC00070BD10B502E000F8011B521E0AB1830748
:104BD000F9D1930818D001EB014402F0030204EB71
:104BE000042406E010C01B1F10C040F8084B40F81A
:104BF000044C042BF6DA01E010C05B1E002BFBD145
:104C000002E000F8011B521E002AFAD110BD10B5B7
:104C1000830702D520F8021B521E530811D001EB66
:104C20000144042B09DB10C01B1F10C0042B40F8EB
:104C3000084B40F8044CF6DA01E010C05B1E002B74
:104C4000FBD1D20700D0018010BD00004FF0FF3132
:104C500028B100BF10F8012B491C002AFAD10846E0
:104C60007047000070B50A480468001D0568001D03
:104C70000668344454B108220649204601F00CF974
:104C8000042204491031284601F006F970BD0000E5
:104C9000107AFF1FBA0100202DE9F04F8FB06CA0F1
:104CA00000680E90282104A8FBF7B1FA6948006853
:104CB00003900025A846BA20029000264FF0000974
:104CC0004FF0000A0020019083460024401E00900F
:104CD00000BF00BF0C2203A90298FCF787FB0090DD
:104CE0000098002806DA5CA000990EF097F90FB042
:104CF000BDE8F08F9DF80E80B8F1000F00D1F6E707
:104D000008F0800000B994E008F00F05052D00DDE3
:104D10008FE0012D0EDD681EC000821C5A490298EA
:104D2000FCF764FB0090681EC2005749891C06A866
:104D3000FBF746FA55480088A84221DD00241BE015
:104D4000002715E0032000EBC70003A946183078C0
:104D500000F00F0B4E48005D584500D10AE0681E78
:104D6000B84203DC4A49085DFCF7DEFD781CC7B297
:104D7000AF42E7DB00BF641C444800888442DFDBAD
:104D8000002D45D0002440E0032000EBC40003A91F
:104D90004618307800F00F0B3D4800F804B07078EA
:104DA000B17840EA0129F078317940EA012A707936
:104DB000B17940EA012001903648007808281BD2DA
:104DC000DFE800F004140A0B1A1A150500BF324878
:104DD0000088A0EB0A0A10E000BF30480088A0EB72
:104DE00009092D480088A0EB0A0A06E000BF2B48FD
:104DF0000088A0EB090900E000BF00BF5246494609
:104E00005846019BFCF77EFD641CAC42BCDB0DE008
:104E10001E48008850B1002404E01D49085DFCF7DD
:104E200083FD641C194800888442F6DB174805801E
:104E300000BF03220EA90298FCF752FB00900098D5
:104E4000002802DA16A00EF0E9F800BF4FE70000D4
:104E5000814E0000B08F01083C3C2D4754502D4539
:104E600052524F522D3E3E20493243207472616EA1
:104E700073666572206572726F722E206572726E33
:104E80006F3A25640A200A00650000205E000020B9
:104E9000600000203C0000203A0000203800002084
:104EA0003C3C2D4754502D494E464F2D3E3E204907
:104EB000324320777269746520656E645F636D6448
:104EC000206572726F72210A000000002DE9F04720
:104ED0008AB01F4616460D465FEA000A4DD0FDF720
:104EE00013F90090D0F84C9026B13046FBF79AF9B0
:104EF000044600E0002455EA04003ED095B900982D
:104F0000406BFEF773FD80463046FDF786FF009943
:104F10001B4AC96A52680968114400EB41054046C2
:104F2000FEF764FD05950025ADF8187068460795F5
:104F3000FDF742F94846FDF7F4F9074604F111027E
:104F400005A94846FDF75CF9002816D139464846C0
:104F5000FDF7F3F9029024B131460C30FBF769F903
:104F600000E0057302A8FDF727F9504606F03FF967
:104F7000504605F04AFE06F03AF90AB0BDE8F0875F
:104F8000C00200202DE9FC41446805460146204648
:104F900005F018FA00281CD02868102850D004DC2E
:104FA0000B2860D00F287DD105E0112813D0B0F573
:104FB000107F7CD127E025462046FDF7A5F800901C
:104FC000806C04686846FDF7F7F8002C01D028468D
:104FD000A047BDE8FC812046FDF796F80146009009
:104FE000E868427A012A0AD1027A42B902688B6DD6
:104FF0001A44436820460AF060FF0099C865684675
:10500000FDF7DAF8E5E726462046FDF77DF8009043
:10501000876D6846FDF7D0F8EC6864B1D4E900020A
:10502000C119237A30460BF099F8207A08B1012192
:1050300002E0022100E00321304606F00EF9C8E745
:105040002046FDF761F80090866D6846FDF7B4F8DC
:10505000E8680028BDD005C881194FF0FF3320460D
:105060000BF07CF8B5E72046FDF74EF80090C76CD2
:105070006846FDF7A1F83846FDF753F906460024C7
:105080000CE021463846FDF758F90190806808B1D8
:10509000FCF784FF01A8FDF78FF8641CB442F0DB35
:1050A000384600E003E0FDF7EBF80CF0BDFA2846C7
:1050B000BDE8FC4105F016BCF0B585B00DF1280C3B
:1050C0009CE8F0004FF0000C8DE8F01000F002F8C2
:1050D00005B0F0BD2DE9FF5F0546DDE90E9B0E46EC
:1050E00042EA0500DDF848A01F46144630430BD1C4
:1050F0006946484605F02FFDBDF90400BDF9005092
:10510000BDF90260441B641CDFF8988077B905F094
:1051100053F9074608F114000068FDF78AFED8F835
:10512000081000EB4100396800EB41070AF1440127
:105130001D4B03914BF42070CDF80090CDE9010395
:105140003B4622463146284605F01EFB040025D08A
:10515000FDF793F805462046FCF7D6FF0090C5649E
:105160000022119905F04CFA0E49009814221431CE
:105170003430FBF725F800994FF0FF300022086526
:10518000C1E915020866D8F80C00886445466846EF
:10519000FDF712F8E86841682046884704B02046C9
:1051A000BDE8F09FC0020020854F000810B541689F
:1051B00006290DD004DC022910D0052913D104E002
:1051C0000C290ED012290ED105E007F0D9FC0AE017
:1051D00008F032FD07E009F0D1FB04E007F0A2FC83
:1051E00001E009F091FB002010BD1CB502004FF05A
:1051F000000012D06946104605F06EFCBDF90200B1
:105200004242BDF9000041426846FEF76CFABDF922
:105210000600BDF90210401A401C1CBD7CB50D46AD
:105220000024A0B1FCF770FF0090C06CFDF779F886
:10523000A84209D900982946C06CFDF77EF8019074
:10524000046801A8FCF7B8FF6846FCF7B5FF2046E4
:105250007CBD38B5002448B1FCF756FF0090C06C07
:10526000FDF75FF804466846FCF7A6FF204638BD08
:1052700038B5002430B1FCF747FF0090C46D684694
:10528000FCF79AFF204638BDF0B587B014460E46AD
:1052900005002AD0002C28DBFCF736FF0190C76CF4
:1052A00001A8FCF789FF3846FDF73BF8B0421CD94E
:1052B00031463846FDF741F80090C0B104606846B9
:1052C000FCF77AFF284605F0A0FC03902520029009
:1052D0000495284605F08BFF02A9039806F0DCFD33
:1052E000284605F092FC05F082FF07B0F0BD684645
:1052F000FCF762FFF9E738B50C46050013D0002C27
:1053000011DBFCF701FF0090816DA14208D084659C
:10531000284605F06CFF284605F077FC05F067FF8E
:105320006846FCF749FF38BD00BFFEE71CB5012108
:10533000482002F02BFA0121880302F057FA80205E
:10534000009001208DF8040002208DF80500012056
:105350008DF8060000208DF8070069461748FBF716
:1053600065FF0820009069461448FBF75FFF402066
:10537000009001208DF8040002208DF80500002027
:105380008DF8060002208DF8070069460B48FBF7F0
:105390004DFF4FF48070009001208DF80400022032
:1053A0008DF8050000208DF8060002208DF807001A
:1053B00069460348FBF73AFF1CBD0000000C0240A1
:1053C0000018024000B585B04FF4807000900020B6
:1053D0008DF8040002208DF8050000208DF80700EC
:1053E00069461448FBF722FF0821062002F0D0FE90
:1053F0004FF48070039000208DF8100008208DF885
:10540000110001208DF8120003A8FBF779FD4FF47D
:10541000C06002F0A7F917208DF8080001208DF870
:1054200009008DF80A008DF80B0002A802F05EF961
:1054300005B000BD0018024070B506460D46144682
:105440000EF0D0F946F001000EF09EF90EF0F6F9DC
:1054500000B114E00DE0012C03D10EF05DF90EF067
:10546000DBF90EF06FF928706D1C601E84B20EF02F
:1054700031F9002CEFD10EF0CFF9002070BD0EF005
:10548000CBF90120FAE700001CB54FF480700090C2
:1054900001208DF8040002208DF8050000208DF811
:1054A000060002208DF8070069461148FBF7BEFE92
:1054B00040211048FBF72EFF0F48FBF7F8FC402176
:1054C0000C48FBF729FF0C48FBF7F1FC4FF4807008
:1054D000009000208DF8040002208DF805000020C7
:1054E0008DF8070069460248FBF7A0FE1CBD0000CE
:1054F00000180240000C0240FFFF0F0010B5FFF73C
:1055000015FFFFF7C1FFFFF75DFF10BD2DE9F0416B
:1055100005460F460024002600BF00BF00BF2BE059
:1055200004EB440005EB8000807800F0010088B1B6
:1055300004EB440305EB83039A8804EB440305EB77
:105540008303996804EB440315F82300FFF774FF05
:10555000064610E004EB440305EB83031A7904EBE1
:10556000440305EB8303996804EB440315F8230017
:1055700000F00BF80646641C0EB9BC42D0D116B13F
:105580003046BDE8F0812046FBE72DE9F0410446B6
:105590000D4617460EF040F900260AE00EF022F9FB
:1055A00020460EF0F1F80EF049F900B904E0701C45
:1055B00086B2B6F57A7FF1DB00BFB6F57A7F00D10F
:1055C00012E007E028780EF0DFF80EF037F900B1AE
:1055D0000AE06D1C381EA7F10101CFB2F2D10EF026
:1055E0001BF90020BDE8F0810EF016F90120F9E763
:1055F00010B504462CB14FF400710548FBF78CFE42
:1056000004E04FF400710248FBF784FE10BD000077
:10561000001402402DE9F04106460F4614461D468F
:105620002B4622463946304600F0F0F904FB05F0DF
:105630000249098800F03DF8BDE8F08146000020ED
:1056400001B502E00098401E009000980028F9D1B2
:1056500008BD00B597B00121084602F0B7F8042054
:10566000019003908006079000200290049005901E
:105670000690042008900020099008200A9010202D
:105680000B9000200C900E900F9010904FF48050D3
:105690001190002012901390149001A8159016906C
:1056A00008A8FBF791FC01210420FBF773FC17B05D
:1056B00000BD70B504460D4600262C2000F0E4FB2A
:1056C00000BF03E0284600F0E3FB761CA642F9D3B6
:1056D00070BD00001CB50121782002F057F80020B1
:1056E0008DF8060001208DF8070002208DF80400D7
:1056F00003208DF805004FF48040009069468048F3
:10570000FBF794FD0C220E217D48FBF7D7FD4FF4EB
:105710000040009069467A48FBF788FD0C220F2173
:105720007748FBF7CBFD0120009069467448FBF7F2
:105730007DFD0C2200217248FBF7C0FD0220009085
:1057400069466F48FBF772FD0C2201216C48FBF79C
:10575000B5FD8020009069466A48FBF767FD0C2282
:1057600007216848FBF7AAFD4FF480700090694656
:105770006448FBF75BFD0C2208216248FBF79EFDA5
:105780004FF40070009069465E48FBF74FFD0C2215
:1057900009215C48FBF792FD4FF480600090694658
:1057A0005848FBF743FD0C220A215648FBF786FDBB
:1057B0004FF40060009069465248FBF737FD0C2219
:1057C0000B215048FBF77AFD4FF48050009069465A
:1057D0004C48FBF72BFD0C2211464A48FBF76EFDA7
:1057E0004FF40050009069464648FBF71FFD0C221D
:1057F0000D214448FBF762FD4FF48040009069465C
:105800004048FBF713FD0C220E213E48FBF756FDE6
:105810004FF40040009069463A48FBF707FD0C2220
:105820000F213848FBF74AFD4FF48070009069461D
:105830003348FBF7FBFC0C2208213148FBF73EFD07
:105840004FF40070009069462D48FBF7EFFC0C22E6
:1058500009212B48FBF732FD4FF480600090694628
:105860002748FBF7E3FC0C220A212548FBF726FD1D
:105870001020009069462248FBF7D8FC0C22042136
:105880001F48FBF71BFD2020009069461C48FBF7D2
:10589000CDFC0C2205211A48FBF710FD4FF4806067
:1058A000009069461848FBF7C1FC0C220A211648F3
:1058B000FBF704FD0120009069461448FBF7B6FC95
:1058C0000C2200211148FBF7F9FC01208DF804009F
:1058D00000208DF8060001208DF8070002208DF8C9
:1058E00005008002009069460848FBF79FFC4FF4D2
:1058F0000070009069460548FBF798FC1CBD00004D
:10590000000C024000100240001802400014024047
:1059100010B50446072C00DD10BD29480470204650
:1059200004EBD0714910A4EB410141B94FF4F07080
:105930002449088040F256302349088007E040F2AD
:105940005630204908804FF4F0701F4908803620F7
:1059500000F09AFA002141EA441000F099FA2A2056
:1059600000F092FA002000F093FA002000F090FA84
:1059700014490988491EC1F3072000F089FA11492A
:105980000978491EC8B200F083FA2B2000F07CFA97
:10599000002000F07DFA002000F07AFA0A49098818
:1059A000491EC1F3072000F073FA07490978491E20
:1059B000C8B200F06DFA2C2000F066FA00BFABE729
:1059C0003C000020380000203A00002010B5FFF70E
:1059D00081FEFFF73EFE00F041FA00F04AF8084869
:1059E0000078FFF795FF07480388074802880021E1
:1059F0000846FFF70FFE0120FFF7FAFD10BD00007B
:105A00003C0000203A000020380000202DE9F04141
:105A100004460D4616461F462A2000F035FA20128D
:105A200000F036FAE0B200F033FAA119491EC1F3D2
:105A30000F2000F02DFAA119491EC8B200F028FA73
:105A40002B2000F021FA281200F022FAE8B200F030
:105A50001FFAE919491EC1F30F2000F019FAE919DC
:105A6000491EC8B200F014FA2C2000F00DFABDE86F
:105A7000F08110B54FF4A040FBF707FAFF2000F0CB
:105A800003FAFF2000F004FA982000F001FA062043
:105A900000F0FEF94FF4A040FBF7F7F9BA2000F050
:105AA000F3F9602000F0F4F94FF4A040FBF7EDF9B2
:105AB000BC2000F0E9F9032000F0EAF90E2000F024
:105AC000E7F9612000F0E4F9FF2000F0E1F905209A
:105AD00000F0DEF9052000F0DBF91B2000F0D8F91A
